{
  "contractName": "StakingToken",
  "abi": [
    {
      "anonymous": false,
      "inputs": [
        {
          "indexed": true,
          "internalType": "bytes16",
          "name": "stakeID",
          "type": "bytes16"
        },
        {
          "indexed": true,
          "internalType": "address",
          "name": "stakerAddress",
          "type": "address"
        },
        {
          "indexed": false,
          "internalType": "uint256",
          "name": "scrapeAmount",
          "type": "uint256"
        },
        {
          "indexed": false,
          "internalType": "uint256",
          "name": "scrapeDay",
          "type": "uint256"
        },
        {
          "indexed": false,
          "internalType": "uint256",
          "name": "currentGriseDay",
          "type": "uint256"
        }
      ],
      "name": "InterestScraped",
      "type": "event"
    },
    {
      "anonymous": false,
      "inputs": [
        {
          "indexed": true,
          "internalType": "uint256",
          "name": "currentGriseDay",
          "type": "uint256"
        },
        {
          "indexed": false,
          "internalType": "uint256",
          "name": "totalShares",
          "type": "uint256"
        },
        {
          "indexed": false,
          "internalType": "uint256",
          "name": "totalStaked",
          "type": "uint256"
        },
        {
          "indexed": false,
          "internalType": "uint256",
          "name": "shortTermshare",
          "type": "uint256"
        },
        {
          "indexed": false,
          "internalType": "uint256",
          "name": "MediumTermshare",
          "type": "uint256"
        },
        {
          "indexed": false,
          "internalType": "uint256",
          "name": "shareRate",
          "type": "uint256"
        }
      ],
      "name": "NewGlobals",
      "type": "event"
    },
    {
      "anonymous": false,
      "inputs": [
        {
          "indexed": true,
          "internalType": "bytes16",
          "name": "stakeID",
          "type": "bytes16"
        },
        {
          "indexed": true,
          "internalType": "address",
          "name": "stakerAddress",
          "type": "address"
        },
        {
          "indexed": false,
          "internalType": "uint256",
          "name": "stakeType",
          "type": "uint256"
        },
        {
          "indexed": false,
          "internalType": "uint256",
          "name": "stakedAmount",
          "type": "uint256"
        },
        {
          "indexed": false,
          "internalType": "uint256",
          "name": "stakesShares",
          "type": "uint256"
        },
        {
          "indexed": false,
          "internalType": "uint256",
          "name": "rewardAmount",
          "type": "uint256"
        },
        {
          "indexed": false,
          "internalType": "uint256",
          "name": "closeDay",
          "type": "uint256"
        },
        {
          "indexed": false,
          "internalType": "uint256",
          "name": "penaltyAmount",
          "type": "uint256"
        }
      ],
      "name": "StakeEnd",
      "type": "event"
    },
    {
      "anonymous": false,
      "inputs": [
        {
          "indexed": true,
          "internalType": "bytes16",
          "name": "stakeID",
          "type": "bytes16"
        },
        {
          "indexed": true,
          "internalType": "address",
          "name": "stakerAddress",
          "type": "address"
        },
        {
          "indexed": false,
          "internalType": "uint256",
          "name": "stakeType",
          "type": "uint256"
        },
        {
          "indexed": false,
          "internalType": "uint256",
          "name": "stakedAmount",
          "type": "uint256"
        },
        {
          "indexed": false,
          "internalType": "uint256",
          "name": "stakesShares",
          "type": "uint256"
        },
        {
          "indexed": false,
          "internalType": "uint256",
          "name": "startDay",
          "type": "uint256"
        },
        {
          "indexed": false,
          "internalType": "uint256",
          "name": "lockDays",
          "type": "uint256"
        }
      ],
      "name": "StakeStart",
      "type": "event"
    },
    {
      "inputs": [],
      "name": "GRISE_CONTRACT",
      "outputs": [
        {
          "internalType": "contract IGriseToken",
          "name": "",
          "type": "address"
        }
      ],
      "stateMutability": "view",
      "type": "function",
      "constant": true
    },
    {
      "inputs": [
        {
          "internalType": "uint256",
          "name": "",
          "type": "uint256"
        }
      ],
      "name": "MLTPenaltiesRewardPerShares",
      "outputs": [
        {
          "internalType": "uint256",
          "name": "",
          "type": "uint256"
        }
      ],
      "stateMutability": "view",
      "type": "function",
      "constant": true
    },
    {
      "inputs": [
        {
          "internalType": "uint256",
          "name": "",
          "type": "uint256"
        }
      ],
      "name": "ReservoirPenaltiesRewardPerShares",
      "outputs": [
        {
          "internalType": "uint256",
          "name": "",
          "type": "uint256"
        }
      ],
      "stateMutability": "view",
      "type": "function",
      "constant": true
    },
    {
      "inputs": [
        {
          "internalType": "uint256",
          "name": "",
          "type": "uint256"
        }
      ],
      "name": "STPenaltiesRewardPerShares",
      "outputs": [
        {
          "internalType": "uint256",
          "name": "",
          "type": "uint256"
        }
      ],
      "stateMutability": "view",
      "type": "function",
      "constant": true
    },
    {
      "inputs": [],
      "name": "UNISWAP_ROUTER",
      "outputs": [
        {
          "internalType": "contract IUniswapRouterV2",
          "name": "",
          "type": "address"
        }
      ],
      "stateMutability": "view",
      "type": "function",
      "constant": true
    },
    {
      "inputs": [],
      "name": "contractDeployer",
      "outputs": [
        {
          "internalType": "address",
          "name": "",
          "type": "address"
        }
      ],
      "stateMutability": "view",
      "type": "function",
      "constant": true
    },
    {
      "inputs": [
        {
          "internalType": "address",
          "name": "x",
          "type": "address"
        },
        {
          "internalType": "uint256",
          "name": "y",
          "type": "uint256"
        },
        {
          "internalType": "bytes1",
          "name": "z",
          "type": "bytes1"
        }
      ],
      "name": "generateID",
      "outputs": [
        {
          "internalType": "bytes16",
          "name": "b",
          "type": "bytes16"
        }
      ],
      "stateMutability": "pure",
      "type": "function",
      "constant": true
    },
    {
      "inputs": [],
      "name": "globals",
      "outputs": [
        {
          "internalType": "uint256",
          "name": "totalStaked",
          "type": "uint256"
        },
        {
          "internalType": "uint256",
          "name": "totalShares",
          "type": "uint256"
        },
        {
          "internalType": "uint256",
          "name": "STShares",
          "type": "uint256"
        },
        {
          "internalType": "uint256",
          "name": "MLTShares",
          "type": "uint256"
        },
        {
          "internalType": "uint256",
          "name": "sharePrice",
          "type": "uint256"
        },
        {
          "internalType": "uint256",
          "name": "currentGriseDay",
          "type": "uint256"
        }
      ],
      "stateMutability": "view",
      "type": "function",
      "constant": true
    },
    {
      "inputs": [],
      "name": "griseGateKeeper",
      "outputs": [
        {
          "internalType": "address",
          "name": "",
          "type": "address"
        }
      ],
      "stateMutability": "view",
      "type": "function",
      "constant": true
    },
    {
      "inputs": [
        {
          "internalType": "address",
          "name": "_staker",
          "type": "address"
        }
      ],
      "name": "latestStakeID",
      "outputs": [
        {
          "internalType": "bytes16",
          "name": "",
          "type": "bytes16"
        }
      ],
      "stateMutability": "view",
      "type": "function",
      "constant": true
    },
    {
      "inputs": [],
      "name": "manualDailySnapshot",
      "outputs": [],
      "stateMutability": "nonpayable",
      "type": "function"
    },
    {
      "inputs": [
        {
          "internalType": "uint256",
          "name": "_updateDay",
          "type": "uint256"
        }
      ],
      "name": "manualDailySnapshotPoint",
      "outputs": [],
      "stateMutability": "nonpayable",
      "type": "function"
    },
    {
      "inputs": [
        {
          "internalType": "uint256",
          "name": "",
          "type": "uint256"
        }
      ],
      "name": "scheduledToEnd",
      "outputs": [
        {
          "internalType": "uint256",
          "name": "",
          "type": "uint256"
        }
      ],
      "stateMutability": "view",
      "type": "function",
      "constant": true
    },
    {
      "inputs": [
        {
          "internalType": "address",
          "name": "",
          "type": "address"
        },
        {
          "internalType": "bytes16",
          "name": "",
          "type": "bytes16"
        }
      ],
      "name": "scrapes",
      "outputs": [
        {
          "internalType": "uint256",
          "name": "",
          "type": "uint256"
        }
      ],
      "stateMutability": "view",
      "type": "function",
      "constant": true
    },
    {
      "inputs": [
        {
          "internalType": "uint256",
          "name": "",
          "type": "uint256"
        }
      ],
      "name": "snapshots",
      "outputs": [
        {
          "internalType": "uint256",
          "name": "totalShares",
          "type": "uint256"
        },
        {
          "internalType": "uint256",
          "name": "inflationAmount",
          "type": "uint256"
        },
        {
          "internalType": "uint256",
          "name": "scheduledToEnd",
          "type": "uint256"
        }
      ],
      "stateMutability": "view",
      "type": "function",
      "constant": true
    },
    {
      "inputs": [
        {
          "internalType": "enum Declaration.StakeType",
          "name": "",
          "type": "uint8"
        },
        {
          "internalType": "uint8",
          "name": "",
          "type": "uint8"
        }
      ],
      "name": "stakeCaps",
      "outputs": [
        {
          "internalType": "uint256",
          "name": "minStakingAmount",
          "type": "uint256"
        },
        {
          "internalType": "uint256",
          "name": "stakingSlotCount",
          "type": "uint256"
        },
        {
          "internalType": "uint256",
          "name": "maxStakingSlot",
          "type": "uint256"
        },
        {
          "internalType": "uint256",
          "name": "totalStakeCount",
          "type": "uint256"
        }
      ],
      "stateMutability": "view",
      "type": "function",
      "constant": true
    },
    {
      "inputs": [
        {
          "internalType": "address",
          "name": "",
          "type": "address"
        }
      ],
      "name": "stakeCount",
      "outputs": [
        {
          "internalType": "uint256",
          "name": "",
          "type": "uint256"
        }
      ],
      "stateMutability": "view",
      "type": "function",
      "constant": true
    },
    {
      "inputs": [
        {
          "internalType": "enum Declaration.StakeType",
          "name": "",
          "type": "uint8"
        }
      ],
      "name": "stakeDayLimit",
      "outputs": [
        {
          "internalType": "uint256",
          "name": "minStakeDay",
          "type": "uint256"
        },
        {
          "internalType": "uint256",
          "name": "maxStakeDay",
          "type": "uint256"
        }
      ],
      "stateMutability": "view",
      "type": "function",
      "constant": true
    },
    {
      "inputs": [
        {
          "internalType": "address",
          "name": "",
          "type": "address"
        },
        {
          "internalType": "bytes16",
          "name": "",
          "type": "bytes16"
        }
      ],
      "name": "stakes",
      "outputs": [
        {
          "internalType": "uint256",
          "name": "stakesShares",
          "type": "uint256"
        },
        {
          "internalType": "uint256",
          "name": "stakedAmount",
          "type": "uint256"
        },
        {
          "internalType": "uint256",
          "name": "rewardAmount",
          "type": "uint256"
        },
        {
          "internalType": "enum Declaration.StakeType",
          "name": "stakeType",
          "type": "uint8"
        },
        {
          "internalType": "uint256",
          "name": "totalOccupiedSlot",
          "type": "uint256"
        },
        {
          "internalType": "uint256",
          "name": "startDay",
          "type": "uint256"
        },
        {
          "internalType": "uint256",
          "name": "lockDays",
          "type": "uint256"
        },
        {
          "internalType": "uint256",
          "name": "finalDay",
          "type": "uint256"
        },
        {
          "internalType": "uint256",
          "name": "closeDay",
          "type": "uint256"
        },
        {
          "internalType": "uint256",
          "name": "scrapeDay",
          "type": "uint256"
        },
        {
          "internalType": "bool",
          "name": "isActive",
          "type": "bool"
        }
      ],
      "stateMutability": "view",
      "type": "function",
      "constant": true
    },
    {
      "inputs": [
        {
          "internalType": "address",
          "name": "_staker",
          "type": "address"
        },
        {
          "internalType": "uint256",
          "name": "_offset",
          "type": "uint256"
        },
        {
          "internalType": "uint256",
          "name": "_length",
          "type": "uint256"
        }
      ],
      "name": "stakesPagination",
      "outputs": [
        {
          "internalType": "bytes16[]",
          "name": "_stakes",
          "type": "bytes16[]"
        }
      ],
      "stateMutability": "view",
      "type": "function",
      "constant": true
    },
    {
      "inputs": [],
      "name": "timeToClaimMonthlyReward",
      "outputs": [
        {
          "internalType": "uint256",
          "name": "_days",
          "type": "uint256"
        }
      ],
      "stateMutability": "view",
      "type": "function",
      "constant": true
    },
    {
      "inputs": [],
      "name": "timeToClaimWeeklyReward",
      "outputs": [
        {
          "internalType": "uint256",
          "name": "_days",
          "type": "uint256"
        }
      ],
      "stateMutability": "view",
      "type": "function",
      "constant": true
    },
    {
      "inputs": [
        {
          "internalType": "uint256",
          "name": "",
          "type": "uint256"
        }
      ],
      "name": "totalPenalties",
      "outputs": [
        {
          "internalType": "uint256",
          "name": "",
          "type": "uint256"
        }
      ],
      "stateMutability": "view",
      "type": "function",
      "constant": true
    },
    {
      "inputs": [
        {
          "internalType": "address",
          "name": "_immutableAddress",
          "type": "address"
        }
      ],
      "name": "setGriseAddress",
      "outputs": [],
      "stateMutability": "nonpayable",
      "type": "function"
    },
    {
      "inputs": [
        {
          "internalType": "uint256",
          "name": "_stakedAmount",
          "type": "uint256"
        },
        {
          "internalType": "enum Declaration.StakeType",
          "name": "_stakeType",
          "type": "uint8"
        },
        {
          "internalType": "uint64",
          "name": "_lockDays",
          "type": "uint64"
        }
      ],
      "name": "createStakeWithETH",
      "outputs": [
        {
          "internalType": "bytes16",
          "name": "",
          "type": "bytes16"
        },
        {
          "internalType": "uint256",
          "name": "",
          "type": "uint256"
        }
      ],
      "stateMutability": "payable",
      "type": "function",
      "payable": true
    },
    {
      "inputs": [
        {
          "internalType": "uint256",
          "name": "_stakedAmount",
          "type": "uint256"
        },
        {
          "internalType": "enum Declaration.StakeType",
          "name": "_stakeType",
          "type": "uint8"
        },
        {
          "internalType": "uint64",
          "name": "_lockDays",
          "type": "uint64"
        }
      ],
      "name": "createStake",
      "outputs": [
        {
          "internalType": "bytes16",
          "name": "",
          "type": "bytes16"
        },
        {
          "internalType": "uint256",
          "name": "",
          "type": "uint256"
        }
      ],
      "stateMutability": "nonpayable",
      "type": "function"
    },
    {
      "inputs": [
        {
          "internalType": "bytes16",
          "name": "_stakeID",
          "type": "bytes16"
        }
      ],
      "name": "endStake",
      "outputs": [
        {
          "internalType": "uint256",
          "name": "",
          "type": "uint256"
        }
      ],
      "stateMutability": "nonpayable",
      "type": "function"
    },
    {
      "inputs": [
        {
          "internalType": "bytes16",
          "name": "_stakeID",
          "type": "bytes16"
        }
      ],
      "name": "scrapeReward",
      "outputs": [
        {
          "internalType": "uint256",
          "name": "scrapeDay",
          "type": "uint256"
        },
        {
          "internalType": "uint256",
          "name": "scrapeAmount",
          "type": "uint256"
        },
        {
          "internalType": "uint256",
          "name": "remainingDays",
          "type": "uint256"
        }
      ],
      "stateMutability": "nonpayable",
      "type": "function"
    },
    {
      "inputs": [
        {
          "internalType": "address",
          "name": "_staker",
          "type": "address"
        },
        {
          "internalType": "bytes16",
          "name": "_stakeID",
          "type": "bytes16"
        }
      ],
      "name": "checkMatureStake",
      "outputs": [
        {
          "internalType": "bool",
          "name": "isMature",
          "type": "bool"
        }
      ],
      "stateMutability": "view",
      "type": "function",
      "constant": true
    },
    {
      "inputs": [
        {
          "internalType": "address",
          "name": "_staker",
          "type": "address"
        },
        {
          "internalType": "bytes16",
          "name": "_stakeID",
          "type": "bytes16"
        }
      ],
      "name": "checkStakeByID",
      "outputs": [
        {
          "internalType": "uint256",
          "name": "startDay",
          "type": "uint256"
        },
        {
          "internalType": "uint256",
          "name": "lockDays",
          "type": "uint256"
        },
        {
          "internalType": "uint256",
          "name": "finalDay",
          "type": "uint256"
        },
        {
          "internalType": "uint256",
          "name": "closeDay",
          "type": "uint256"
        },
        {
          "internalType": "uint256",
          "name": "scrapeDay",
          "type": "uint256"
        },
        {
          "internalType": "enum Declaration.StakeType",
          "name": "stakeType",
          "type": "uint8"
        },
        {
          "internalType": "uint256",
          "name": "slotOccupied",
          "type": "uint256"
        },
        {
          "internalType": "uint256",
          "name": "stakedAmount",
          "type": "uint256"
        },
        {
          "internalType": "uint256",
          "name": "penaltyAmount",
          "type": "uint256"
        },
        {
          "internalType": "bool",
          "name": "isActive",
          "type": "bool"
        },
        {
          "internalType": "bool",
          "name": "isMature",
          "type": "bool"
        }
      ],
      "stateMutability": "view",
      "type": "function",
      "constant": true
    },
    {
      "inputs": [
        {
          "internalType": "address",
          "name": "_staker",
          "type": "address"
        },
        {
          "internalType": "bytes16",
          "name": "_stakeID",
          "type": "bytes16"
        }
      ],
      "name": "checkStakeRewards",
      "outputs": [
        {
          "internalType": "uint256",
          "name": "transcRewardAmount",
          "type": "uint256"
        },
        {
          "internalType": "uint256",
          "name": "penaltyRewardAmount",
          "type": "uint256"
        },
        {
          "internalType": "uint256",
          "name": "reservoirRewardAmount",
          "type": "uint256"
        },
        {
          "internalType": "uint256",
          "name": "inflationRewardAmount",
          "type": "uint256"
        }
      ],
      "stateMutability": "view",
      "type": "function",
      "constant": true
    },
    {
      "inputs": [
        {
          "internalType": "uint256",
          "name": "STSlotLimit",
          "type": "uint256"
        },
        {
          "internalType": "uint256",
          "name": "MT3MonthSlotLimit",
          "type": "uint256"
        },
        {
          "internalType": "uint256",
          "name": "MT6MonthSlotLimit",
          "type": "uint256"
        },
        {
          "internalType": "uint256",
          "name": "MT9MonthSlotLimit",
          "type": "uint256"
        },
        {
          "internalType": "uint256",
          "name": "LTSlotLimit",
          "type": "uint256"
        }
      ],
      "name": "updateStakingSlotLimit",
      "outputs": [],
      "stateMutability": "nonpayable",
      "type": "function"
    },
    {
      "inputs": [],
      "name": "getSlotLeft",
      "outputs": [
        {
          "internalType": "uint256",
          "name": "STSlotLeft",
          "type": "uint256"
        },
        {
          "internalType": "uint256",
          "name": "MT3MonthSlotLeft",
          "type": "uint256"
        },
        {
          "internalType": "uint256",
          "name": "MT6MonthSlotLeft",
          "type": "uint256"
        },
        {
          "internalType": "uint256",
          "name": "MT9MonthSlotLeft",
          "type": "uint256"
        },
        {
          "internalType": "uint256",
          "name": "LTSlotLeft",
          "type": "uint256"
        }
      ],
      "stateMutability": "view",
      "type": "function",
      "constant": true
    },
    {
      "inputs": [],
      "name": "getStakeCount",
      "outputs": [
        {
          "internalType": "uint256",
          "name": "STStakeCount",
          "type": "uint256"
        },
        {
          "internalType": "uint256",
          "name": "MT3MonthStakeCount",
          "type": "uint256"
        },
        {
          "internalType": "uint256",
          "name": "MT6MonthStakeCount",
          "type": "uint256"
        },
        {
          "internalType": "uint256",
          "name": "MT9MonthStakeCount",
          "type": "uint256"
        },
        {
          "internalType": "uint256",
          "name": "LTStakeCount",
          "type": "uint256"
        }
      ],
      "stateMutability": "view",
      "type": "function",
      "constant": true
    },
    {
      "inputs": [],
      "name": "getTotalStakedToken",
      "outputs": [
        {
          "internalType": "uint256",
          "name": "",
          "type": "uint256"
        }
      ],
      "stateMutability": "view",
      "type": "function",
      "constant": true
    }
  ],
  "bytecode": "0x60806040523480156200001157600080fd5b5067016345785d8a000060006004018190555033600760006101000a81548173ffffffffffffffffffffffffffffffffffffffff021916908373ffffffffffffffffffffffffffffffffffffffff16021790555033600860006101000a81548173ffffffffffffffffffffffffffffffffffffffff021916908373ffffffffffffffffffffffffffffffffffffffff160217905550600760010261ffff1660116000806002811115620000c057fe5b6002811115620000cc57fe5b8152602001908152602001600020600001819055506007600c0261ffff1660116000806002811115620000fb57fe5b60028111156200010757fe5b815260200190815260200160002060010181905550600460070260030261ffff1660116000600160028111156200013a57fe5b60028111156200014657fe5b815260200190815260200160002060000181905550600460070260090261ffff1660116000600160028111156200017957fe5b60028111156200018557fe5b815260200190815260200160002060010181905550600c60046007020260010261ffff1660116000600280811115620001ba57fe5b6002811115620001c657fe5b815260200190815260200160002060000181905550600c600460070202600a0261ffff1660116000600280811115620001fb57fe5b60028111156200020757fe5b8152602001908152602001600020600101819055506012600a0a603202601260008060028111156200023557fe5b60028111156200024157fe5b815260200190815260200160002060008060ff168152602001908152602001600020600001819055506012600a0a60e10260126000600160028111156200028457fe5b60028111156200029057fe5b815260200190815260200160002060008060ff168152602001908152602001600020600001819055506012600a0a6064026012600060016002811115620002d357fe5b6002811115620002df57fe5b81526020019081526020016000206000600160ff168152602001908152602001600020600001819055506012600a0a60960260126000600160028111156200032357fe5b60028111156200032f57fe5b81526020019081526020016000206000600260ff168152602001908152602001600020600001819055506012600a0a606402601260006002808111156200037257fe5b60028111156200037e57fe5b815260200190815260200160002060008060ff168152602001908152602001600020600001819055506104e260126000806002811115620003bb57fe5b6002811115620003c757fe5b815260200190815260200160002060008060ff1681526020019081526020016000206002018190555060fa60126000600160028111156200040457fe5b60028111156200041057fe5b815260200190815260200160002060008060ff168152602001908152602001600020600201819055506101f460126000600160028111156200044e57fe5b60028111156200045a57fe5b81526020019081526020016000206000600160ff1681526020019081526020016000206002018190555061012c60126000600160028111156200049957fe5b6002811115620004a557fe5b81526020019081526020016000206000600260ff1681526020019081526020016000206002018190555061012c60126000600280811115620004e357fe5b6002811115620004ef57fe5b815260200190815260200160002060008060ff16815260200190815260200160002060020181905550615e8e80620005286000396000f3fe6080604052600436106102045760003560e01c8063779e2e1811610118578063c23d6564116100a0578063d825bbd71161006f578063d825bbd714610d51578063d826492014610dc1578063e1d033e914610e02578063f0f4f32314610ed7578063f9b8ec5c14610f0257610204565b8063c23d656414610c16578063c312452514610c65578063d2240af714610cb3578063d6565a2d14610cf457610204565b8063a4ed0550116100e7578063a4ed055014610971578063a877d78814610a48578063ae3d1de214610aa1578063bba85e1f14610b19578063bf58f6d214610b6857610204565b8063779e2e18146107b3578063971bc7cb1461083757806399c2def4146108ce578063a24bfc6e1461093057610204565b806335081db01161019b57806341425beb1161016a57806341425beb146106b0578063423eea07146106ff578063613fc9fd1461072a5780636de4183714610741578063731750111461076c57610204565b806335081db01461051f57806335c203f91461059357806338d470a6146105e257806340597e321461065f57610204565b806320429fac116101d757806320429fac1461033757806323672d8a146103b95780632e4ab48a1461047357806333060d90146104ba57610204565b80630c2b9f5b146102095780630d12a510146102445780630ef177ed146102a75780631a23725a146102e8575b600080fd5b34801561021557600080fd5b506102426004803603602081101561022c57600080fd5b8101908080359060200190929190505050610f8c565b005b34801561025057600080fd5b506102a5600480360360a081101561026757600080fd5b810190808035906020019092919080359060200190929190803590602001909291908035906020019092919080359060200190929190505050611060565b005b3480156102b357600080fd5b506102bc611288565b604051808273ffffffffffffffffffffffffffffffffffffffff16815260200191505060405180910390f35b3480156102f457600080fd5b506103216004803603602081101561030b57600080fd5b81019080803590602001909291905050506112ae565b6040518082815260200191505060405180910390f35b34801561034357600080fd5b506103a36004803603604081101561035a57600080fd5b81019080803573ffffffffffffffffffffffffffffffffffffffff16906020019092919080356fffffffffffffffffffffffffffffffff191690602001909291905050506112c6565b6040518082815260200191505060405180910390f35b3480156103c557600080fd5b5061041c600480360360608110156103dc57600080fd5b81019080803573ffffffffffffffffffffffffffffffffffffffff16906020019092919080359060200190929190803590602001909291905050506112eb565b6040518080602001828103825283818151815260200191508051906020019060200280838360005b8381101561045f578082015181840152602081019050610444565b505050509050019250505060405180910390f35b34801561047f57600080fd5b50610488611542565b604051808681526020018581526020018481526020018381526020018281526020019550505050505060405180910390f35b3480156104c657600080fd5b50610509600480360360208110156104dd57600080fd5b81019080803573ffffffffffffffffffffffffffffffffffffffff1690602001909291905050506116a5565b6040518082815260200191505060405180910390f35b34801561052b57600080fd5b506105686004803603604081101561054257600080fd5b81019080803560ff169060200190929190803560ff1690602001909291905050506116bd565b6040518085815260200184815260200183815260200182815260200194505050505060405180910390f35b34801561059f57600080fd5b506105cc600480360360208110156105b657600080fd5b81019080803590602001909291905050506116fa565b6040518082815260200191505060405180910390f35b61062f600480360360608110156105f857600080fd5b8101908080359060200190929190803560ff169060200190929190803567ffffffffffffffff169060200190929190505050611712565b60405180836fffffffffffffffffffffffffffffffff191681526020018281526020019250505060405180910390f35b34801561066b57600080fd5b506106ae6004803603602081101561068257600080fd5b81019080803573ffffffffffffffffffffffffffffffffffffffff169060200190929190505050611a08565b005b3480156106bc57600080fd5b506106e9600480360360208110156106d357600080fd5b8101908080359060200190929190505050611b34565b6040518082815260200191505060405180910390f35b34801561070b57600080fd5b50610714611b4c565b6040518082815260200191505060405180910390f35b34801561073657600080fd5b5061073f611b58565b005b34801561074d57600080fd5b50610756611b6a565b6040518082815260200191505060405180910390f35b34801561077857600080fd5b50610781611bc4565b604051808681526020018581526020018481526020018381526020018281526020019550505050505060405180910390f35b3480156107bf57600080fd5b5061081f600480360360408110156107d657600080fd5b81019080803573ffffffffffffffffffffffffffffffffffffffff16906020019092919080356fffffffffffffffffffffffffffffffff19169060200190929190505050611ec6565b60405180821515815260200191505060405180910390f35b34801561084357600080fd5b506108a36004803603604081101561085a57600080fd5b81019080803573ffffffffffffffffffffffffffffffffffffffff16906020019092919080356fffffffffffffffffffffffffffffffff19169060200190929190505050612001565b6040518085815260200184815260200183815260200182815260200194505050505060405180910390f35b3480156108da57600080fd5b5061091a600480360360208110156108f157600080fd5b8101908080356fffffffffffffffffffffffffffffffff19169060200190929190505050612040565b6040518082815260200191505060405180910390f35b34801561093c57600080fd5b50610945612546565b604051808273ffffffffffffffffffffffffffffffffffffffff16815260200191505060405180910390f35b34801561097d57600080fd5b506109dd6004803603604081101561099457600080fd5b81019080803573ffffffffffffffffffffffffffffffffffffffff16906020019092919080356fffffffffffffffffffffffffffffffff1916906020019092919050505061256c565b604051808c81526020018b81526020018a8152602001898152602001888152602001876002811115610a0b57fe5b8152602001868152602001858152602001848152602001831515815260200182151581526020019b50505050505050505050505060405180910390f35b348015610a5457600080fd5b50610a8460048036036020811015610a6b57600080fd5b81019080803560ff16906020019092919050505061270d565b604051808381526020018281526020019250505060405180910390f35b348015610aad57600080fd5b50610af060048036036020811015610ac457600080fd5b81019080803573ffffffffffffffffffffffffffffffffffffffff169060200190929190505050612731565b60405180826fffffffffffffffffffffffffffffffff1916815260200191505060405180910390f35b348015610b2557600080fd5b50610b5260048036036020811015610b3c57600080fd5b81019080803590602001909291905050506127ec565b6040518082815260200191505060405180910390f35b348015610b7457600080fd5b50610bed60048036036060811015610b8b57600080fd5b81019080803573ffffffffffffffffffffffffffffffffffffffff1690602001909291908035906020019092919080357effffffffffffffffffffffffffffffffffffffffffffffffffffffffffffff19169060200190929190505050612804565b60405180826fffffffffffffffffffffffffffffffff1916815260200191505060405180910390f35b348015610c2257600080fd5b50610c4f60048036036020811015610c3957600080fd5b810190808035906020019092919050505061288c565b6040518082815260200191505060405180910390f35b348015610c7157600080fd5b50610c7a6128a4565b60405180878152602001868152602001858152602001848152602001838152602001828152602001965050505050505060405180910390f35b348015610cbf57600080fd5b50610cc86128ce565b604051808273ffffffffffffffffffffffffffffffffffffffff16815260200191505060405180910390f35b348015610d0057600080fd5b50610d2d60048036036020811015610d1757600080fd5b81019080803590602001909291905050506128f4565b60405180848152602001838152602001828152602001935050505060405180910390f35b348015610d5d57600080fd5b50610d9d60048036036020811015610d7457600080fd5b8101908080356fffffffffffffffffffffffffffffffff1916906020019092919050505061291e565b60405180848152602001838152602001828152602001935050505060405180910390f35b348015610dcd57600080fd5b50610dd6612fb5565b604051808273ffffffffffffffffffffffffffffffffffffffff16815260200191505060405180910390f35b348015610e0e57600080fd5b50610e6e60048036036040811015610e2557600080fd5b81019080803573ffffffffffffffffffffffffffffffffffffffff16906020019092919080356fffffffffffffffffffffffffffffffff19169060200190929190505050612fcd565b604051808c81526020018b81526020018a8152602001896002811115610e9057fe5b815260200188815260200187815260200186815260200185815260200184815260200183815260200182151581526020019b50505050505050505050505060405180910390f35b348015610ee357600080fd5b50610eec61304e565b6040518082815260200191505060405180910390f35b348015610f0e57600080fd5b50610f5c60048036036060811015610f2557600080fd5b8101908080359060200190929190803560ff169060200190929190803567ffffffffffffffff1690602001909291905050506130b1565b60405180836fffffffffffffffffffffffffffffffff191681526020018281526020019250505060405180910390f35b600081118015610fa25750610f9f613b0c565b81105b610ff7576040517f08c379a0000000000000000000000000000000000000000000000000000000008152600401808060200182810382526026815260200180615dc66026913960400191505060405180910390fd5b6000600501548111611054576040517f08c379a000000000000000000000000000000000000000000000000000000000815260040180806020018281038252602a815260200180615d9c602a913960400191505060405180910390fd5b61105d81613bc0565b50565b600860009054906101000a900473ffffffffffffffffffffffffffffffffffffffff1673ffffffffffffffffffffffffffffffffffffffff163373ffffffffffffffffffffffffffffffffffffffff1614611123576040517f08c379a00000000000000000000000000000000000000000000000000000000081526004018080602001828103825260118152602001807f496e76616c6964204f7065726174696f6e00000000000000000000000000000081525060200191505060405180910390fd5b846012600080600281111561113457fe5b600281111561113f57fe5b815260200190815260200160002060008060ff1681526020019081526020016000206002018190555083601260006001600281111561117a57fe5b600281111561118557fe5b815260200190815260200160002060008060ff168152602001908152602001600020600201819055508260126000600160028111156111c057fe5b60028111156111cb57fe5b81526020019081526020016000206000600160ff1681526020019081526020016000206002018190555081601260006001600281111561120757fe5b600281111561121257fe5b81526020019081526020016000206000600260ff16815260200190815260200160002060020181905550806012600060028081111561124d57fe5b600281111561125857fe5b815260200190815260200160002060008060ff168152602001908152602001600020600201819055505050505050565b600760009054906101000a900473ffffffffffffffffffffffffffffffffffffffff1681565b600e6020528060005260406000206000915090505481565b600a602052816000526040600020602052806000526040600020600091509150505481565b60606000808411801561133c575083600960008773ffffffffffffffffffffffffffffffffffffffff1673ffffffffffffffffffffffffffffffffffffffff16815260200190815260200160002054115b61138557600960008673ffffffffffffffffffffffffffffffffffffffff1673ffffffffffffffffffffffffffffffffffffffff168152602001908152602001600020546113c8565b83600960008773ffffffffffffffffffffffffffffffffffffffff1673ffffffffffffffffffffffffffffffffffffffff16815260200190815260200160002054035b9050600080841180156113da57508382115b6113e55760006113e9565b8382035b9050600081830367ffffffffffffffff8111801561140657600080fd5b506040519080825280602002602001820160405280156114355781602001602082028036833780820191505090505b50935060008390505b8281111561153757600061145a8960018403600160f81b612804565b90506000600b60008b73ffffffffffffffffffffffffffffffffffffffff1673ffffffffffffffffffffffffffffffffffffffff1681526020019081526020016000206000836fffffffffffffffffffffffffffffffff19166fffffffffffffffffffffffffffffffff1916815260200190815260200160002060010154111561152857808684815181106114eb57fe5b60200260200101906fffffffffffffffffffffffffffffffff191690816fffffffffffffffffffffffffffffffff19168152505082806001019350505b5080806001900391505061143e565b505050509392505050565b60008060008060006012600080600281111561155a57fe5b600281111561156557fe5b815260200190815260200160002060008060ff168152602001908152602001600020600301549450601260006001600281111561159e57fe5b60028111156115a957fe5b815260200190815260200160002060008060ff16815260200190815260200160002060030154935060126000600160028111156115e257fe5b60028111156115ed57fe5b81526020019081526020016000206000600160ff168152602001908152602001600020600301549250601260006001600281111561162757fe5b600281111561163257fe5b81526020019081526020016000206000600260ff1681526020019081526020016000206003015491506012600060028081111561166b57fe5b600281111561167657fe5b815260200190815260200160002060008060ff1681526020019081526020016000206003015490509091929394565b60096020528060005260406000206000915090505481565b6012602052816000526040600020602052806000526040600020600091509150508060000154908060010154908060020154908060030154905084565b60106020528060005260406000206000915090505481565b6000806000600267ffffffffffffffff8111801561172f57600080fd5b5060405190808252806020026020018201604052801561175e5781602001602082028036833780820191505090505b50905073c778417e063141139fce010982780140aa0cd5ab8160008151811061178357fe5b602002602001019073ffffffffffffffffffffffffffffffffffffffff16908173ffffffffffffffffffffffffffffffffffffffff1681525050600660009054906101000a900473ffffffffffffffffffffffffffffffffffffffff16816001815181106117ed57fe5b602002602001019073ffffffffffffffffffffffffffffffffffffffff16908173ffffffffffffffffffffffffffffffffffffffff1681525050600073f164fc0ec4e93095b804a4795bbe1e041497b92a73ffffffffffffffffffffffffffffffffffffffff1663fb3bdb4134898533611c2042016040518663ffffffff1660e01b815260040180858152602001806020018473ffffffffffffffffffffffffffffffffffffffff168152602001838152602001828103825285818151815260200191508051906020019060200280838360005b838110156118dc5780820151818401526020810190506118c1565b50505050905001955050505050506000604051808303818588803b15801561190357600080fd5b505af1158015611917573d6000803e3d6000fd5b50505050506040513d6000823e3d601f19601f82011682018060405250602081101561194257600080fd5b810190808051604051939291908464010000000082111561196257600080fd5b8382019150602082018581111561197857600080fd5b825186602082028301116401000000008211171561199557600080fd5b8083526020830192505050908051906020019060200280838360005b838110156119cc5780820151818401526020810190506119b1565b5050505090500160405250505090506119fa816001815181106119eb57fe5b602002602001015187876130b1565b935093505050935093915050565b3373ffffffffffffffffffffffffffffffffffffffff16600760009054906101000a900473ffffffffffffffffffffffffffffffffffffffff1673ffffffffffffffffffffffffffffffffffffffff1614611aae576040517f08c379a0000000000000000000000000000000000000000000000000000000008152600401808060200182810382526023815260200180615d126023913960400191505060405180910390fd5b80600660006101000a81548173ffffffffffffffffffffffffffffffffffffffff021916908373ffffffffffffffffffffffffffffffffffffffff1602179055506000600760006101000a81548173ffffffffffffffffffffffffffffffffffffffff021916908373ffffffffffffffffffffffffffffffffffffffff16021790555050565b600f6020528060005260406000206000915090505481565b60008060000154905090565b611b68611b63613b0c565b613bc0565b565b600080611b8c600761ffff16611b7e613b0c565b613dd490919063ffffffff16565b11611b98576000611bbf565b611bb7600761ffff16611ba9613b0c565b613dd490919063ffffffff16565b600761ffff16035b905090565b6000806000806000611c5f60126000806002811115611bdf57fe5b6002811115611bea57fe5b815260200190815260200160002060008060ff1681526020019081526020016000206001015460126000806002811115611c2057fe5b6002811115611c2b57fe5b815260200190815260200160002060008060ff16815260200190815260200160002060020154613df590919063ffffffff16565b9450611cf66012600060016002811115611c7557fe5b6002811115611c8057fe5b815260200190815260200160002060008060ff168152602001908152602001600020600101546012600060016002811115611cb757fe5b6002811115611cc257fe5b815260200190815260200160002060008060ff16815260200190815260200160002060020154613df590919063ffffffff16565b9350611d8f6012600060016002811115611d0c57fe5b6002811115611d1757fe5b81526020019081526020016000206000600160ff168152602001908152602001600020600101546012600060016002811115611d4f57fe5b6002811115611d5a57fe5b81526020019081526020016000206000600160ff16815260200190815260200160002060020154613df590919063ffffffff16565b9250611e286012600060016002811115611da557fe5b6002811115611db057fe5b81526020019081526020016000206000600260ff168152602001908152602001600020600101546012600060016002811115611de857fe5b6002811115611df357fe5b81526020019081526020016000206000600260ff16815260200190815260200160002060020154613df590919063ffffffff16565b9150611ebd60126000600280811115611e3d57fe5b6002811115611e4857fe5b815260200190815260200160002060008060ff1681526020019081526020016000206001015460126000600280811115611e7e57fe5b6002811115611e8957fe5b815260200190815260200160002060008060ff16815260200190815260200160002060020154613df590919063ffffffff16565b90509091929394565b600080600b60008573ffffffffffffffffffffffffffffffffffffffff1673ffffffffffffffffffffffffffffffffffffffff1681526020019081526020016000206000846fffffffffffffffffffffffffffffffff19166fffffffffffffffffffffffffffffffff19168152602001908152602001600020604051806101600160405290816000820154815260200160018201548152602001600282015481526020016003820160009054906101000a900460ff166002811115611f8757fe5b6002811115611f9257fe5b8152602001600482015481526020016005820154815260200160068201548152602001600782015481526020016008820154815260200160098201548152602001600a820160009054906101000a900460ff1615151515815250509050611ff881613e15565b91505092915050565b6000806000806120118686613e4c565b935061201d8686613fe6565b92506120298686614180565b91506120358686614318565b905092959194509250565b600061205261204d613b0c565b613bc0565b60008061205f3385614488565b9150604051806101600160405290816000820154815260200160018201548152602001600282015481526020016003820160009054906101000a900460ff1660028111156120a957fe5b60028111156120b457fe5b8152602001600482015481526020016005820154815260200160068201548152602001600782015481526020016008820154815260200160098201548152602001600a820160009054906101000a900460ff16151515158152505091506121338260600151600281111561212457fe5b83602001518460000151614ac0565b6121458260e001518360000151614b70565b61215482610100015182614c3f565b60006001600281111561216357fe5b8360600151600281111561217357fe5b14156121a35760a88360c00151141561218f57600190506121a2565b60fc8360c0015114156121a157600290505b5b5b612201836080015160126000866060015160028111156121bf57fe5b60028111156121ca57fe5b815260200190815260200160002060008460ff1660ff16815260200190815260200160002060010154613df590919063ffffffff16565b601260008560600151600281111561221557fe5b600281111561222057fe5b815260200190815260200160002060008360ff1660ff16815260200190815260200160002060010181905550600660009054906101000a900473ffffffffffffffffffffffffffffffffffffffff1673ffffffffffffffffffffffffffffffffffffffff16633f5e932b336040518263ffffffff1660e01b8152600401808273ffffffffffffffffffffffffffffffffffffffff168152602001915050600060405180830381600087803b1580156122d757600080fd5b505af11580156122eb573d6000803e3d6000fd5b50505050600660009054906101000a900473ffffffffffffffffffffffffffffffffffffffff1673ffffffffffffffffffffffffffffffffffffffff16637f0f402660008001546040518263ffffffff1660e01b815260040180828152602001915050600060405180830381600087803b15801561236857600080fd5b505af115801561237c573d6000803e3d6000fd5b505050506000600281111561238d57fe5b8360600151600281111561239d57fe5b1461243557600660009054906101000a900473ffffffffffffffffffffffffffffffffffffffff1673ffffffffffffffffffffffffffffffffffffffff1663cdbf54ed6000600301546040518263ffffffff1660e01b815260040180828152602001915050600060405180830381600087803b15801561241c57600080fd5b505af1158015612430573d6000803e3d6000fd5b505050505b601260008460600151600281111561244957fe5b600281111561245457fe5b815260200190815260200160002060008260ff1660ff16815260200190815260200160002060030160008154809291906001900391905055503373ffffffffffffffffffffffffffffffffffffffff16856fffffffffffffffffffffffffffffffff19167f7d2aa23943a8121d5122c6481dda214748a2fa700a81dc1aee19ba3642fe5fbd856060015160028111156124e957fe5b8660200151876000015188604001518961010001518960405180878152602001868152602001858152602001848152602001838152602001828152602001965050505050505060405180910390a382604001519350505050919050565b600860009054906101000a900473ffffffffffffffffffffffffffffffffffffffff1681565b600080600080600080600080600080600080600b60008f73ffffffffffffffffffffffffffffffffffffffff1673ffffffffffffffffffffffffffffffffffffffff16815260200190815260200160002060008e6fffffffffffffffffffffffffffffffff19166fffffffffffffffffffffffffffffffff19168152602001908152602001600020604051806101600160405290816000820154815260200160018201548152602001600282015481526020016003820160009054906101000a900460ff16600281111561263c57fe5b600281111561264757fe5b8152602001600482015481526020016005820154815260200160068201548152602001600782015481526020016008820154815260200160098201548152602001600a820160009054906101000a900460ff16151515158152505090508060a001519b508060c001519a508060e001519950806101000151985080610120015197508060600151965080608001519550806020015194506126e781614eb9565b935080610140015192506126fa81613e15565b9150509295989b509295989b9093969950565b60116020528060005260406000206000915090508060000154908060010154905082565b600080600960008473ffffffffffffffffffffffffffffffffffffffff1673ffffffffffffffffffffffffffffffffffffffff16815260200190815260200160002054146127df576127da826127d06001600960008773ffffffffffffffffffffffffffffffffffffffff1673ffffffffffffffffffffffffffffffffffffffff16815260200190815260200160002054613df590919063ffffffff16565b600160f81b612804565b6127e5565b600060801b5b9050919050565b600d6020528060005260406000206000915090505481565b6000612883848484604051602001808473ffffffffffffffffffffffffffffffffffffffff1660601b8152601401838152602001827effffffffffffffffffffffffffffffffffffffffffffffffffffffffffffff1916815260010193505050506040516020818303038152906040528051906020012060001c614ef0565b90509392505050565b600c6020528060005260406000206000915090505481565b60008060000154908060010154908060020154908060030154908060040154908060050154905086565b600660009054906101000a900473ffffffffffffffffffffffffffffffffffffffff1681565b60136020528060005260406000206000915090508060000154908060010154908060020154905083565b600080600061293361292e613b0c565b613bc0565b600b60003373ffffffffffffffffffffffffffffffffffffffff1673ffffffffffffffffffffffffffffffffffffffff1681526020019081526020016000206000856fffffffffffffffffffffffffffffffff19166fffffffffffffffffffffffffffffffff19168152602001908152602001600020600a0160009054906101000a900460ff16612a2c576040517f08c379a000000000000000000000000000000000000000000000000000000000815260040180806020018281038252601a8152602001807f47524953453a204e6f7420616e20616374697665207374616b6500000000000081525060200191505060405180910390fd5b6000600b60003373ffffffffffffffffffffffffffffffffffffffff1673ffffffffffffffffffffffffffffffffffffffff1681526020019081526020016000206000866fffffffffffffffffffffffffffffffff19166fffffffffffffffffffffffffffffffff19168152602001908152602001600020604051806101600160405290816000820154815260200160018201548152602001600282015481526020016003820160009054906101000a900460ff166002811115612aec57fe5b6002811115612af757fe5b8152602001600482015481526020016005820154815260200160068201548152602001600782015481526020016008820154815260200160098201548152602001600a820160009054906101000a900460ff16151515158152505090506000612b89600761ffff16612b7b8460a00151600060050154613df590919063ffffffff16565b614efd90919063ffffffff16565b11612bdf576040517f08c379a000000000000000000000000000000000000000000000000000000000815260040180806020018281038252602e815260200180615dec602e913960400191505060405180910390fd5b612be881614f29565b93508060e001518410612bfb5783612c26565b612c25612c16600761ffff1686613dd490919063ffffffff16565b85613df590919063ffffffff16565b5b9350612c323386613e4c565b9250612c3e3386613fe6565b83019250612c4c3386614180565b83019250612c5981614f52565b9150612ce483600a60003373ffffffffffffffffffffffffffffffffffffffff1673ffffffffffffffffffffffffffffffffffffffff1681526020019081526020016000206000886fffffffffffffffffffffffffffffffff19166fffffffffffffffffffffffffffffffff1916815260200190815260200160002054614f9990919063ffffffff16565b600a60003373ffffffffffffffffffffffffffffffffffffffff1673ffffffffffffffffffffffffffffffffffffffff1681526020019081526020016000206000876fffffffffffffffffffffffffffffffff19166fffffffffffffffffffffffffffffffff1916815260200190815260200160002081905550838161012001818152505080600b60003373ffffffffffffffffffffffffffffffffffffffff1673ffffffffffffffffffffffffffffffffffffffff1681526020019081526020016000206000876fffffffffffffffffffffffffffffffff19166fffffffffffffffffffffffffffffffff1916815260200190815260200160002060008201518160000155602082015181600101556040820151816002015560608201518160030160006101000a81548160ff02191690836002811115612e2257fe5b02179055506080820151816004015560a0820151816005015560c0820151816006015560e082015181600701556101008201518160080155610120820151816009015561014082015181600a0160006101000a81548160ff021916908315150217905550905050600660009054906101000a900473ffffffffffffffffffffffffffffffffffffffff1673ffffffffffffffffffffffffffffffffffffffff1663e742806a33856040518363ffffffff1660e01b8152600401808373ffffffffffffffffffffffffffffffffffffffff16815260200182815260200192505050600060405180830381600087803b158015612f1c57600080fd5b505af1158015612f30573d6000803e3d6000fd5b505050503373ffffffffffffffffffffffffffffffffffffffff16856fffffffffffffffffffffffffffffffff19167f83a5aa90d2e7dc9824c0d0fc4ea1b5ac46d1ecae96a67c2e5e9e35307bba1f768587612f8a613b0c565b60405180848152602001838152602001828152602001935050505060405180910390a3509193909250565b73f164fc0ec4e93095b804a4795bbe1e041497b92a81565b600b602052816000526040600020602052806000526040600020600091509150508060000154908060010154908060020154908060030160009054906101000a900460ff169080600401549080600501549080600601549080600701549080600801549080600901549080600a0160009054906101000a900460ff1690508b565b600080613073600460070261ffff16613065613b0c565b613dd490919063ffffffff16565b1161307f5760006130ac565b6130a1600460070261ffff16613093613b0c565b613dd490919063ffffffff16565b600460070261ffff16035b905090565b6000806130c46130bf613b0c565b613bc0565b6000600160028111156130d357fe5b8560028111156130df57fe5b141561311b5760a88467ffffffffffffffff161415613101576001905061311a565b60fc8467ffffffffffffffff16141561311957600290505b5b5b6000600761ffff168567ffffffffffffffff168161313557fe5b0667ffffffffffffffff1614801561318357506011600086600281111561315857fe5b600281111561316357fe5b8152602001908152602001600020600001548467ffffffffffffffff1610155b80156131c557506011600086600281111561319a57fe5b60028111156131a557fe5b8152602001908152602001600020600101548467ffffffffffffffff1611155b613237576040517f08c379a000000000000000000000000000000000000000000000000000000000815260040180806020018281038252601c8152602001807f47524953453a207374616b65206973206e6f7420696e2072616e67650000000081525060200191505060405180910390fd5b6012600086600281111561324757fe5b600281111561325257fe5b815260200190815260200160002060008260ff1660ff1681526020019081526020016000206000015486101580156132df575060006132dd6012600088600281111561329a57fe5b60028111156132a557fe5b815260200190815260200160002060008460ff1660ff1681526020019081526020016000206000015488613dd490919063ffffffff16565b145b613334576040517f08c379a000000000000000000000000000000000000000000000000000000000815260040180806020018281038252603e815260200180615d5e603e913960400191505060405180910390fd5b6012600086600281111561334457fe5b600281111561334f57fe5b815260200190815260200160002060008260ff1660ff168152602001908152602001600020600201546012600087600281111561338857fe5b600281111561339357fe5b815260200190815260200160002060008360ff1660ff168152602001908152602001600020600101541115613413576040517f08c379a000000000000000000000000000000000000000000000000000000000815260040180806020018281038252603f815260200180615e1a603f913960400191505060405180910390fd5b60008061346c6012600089600281111561342957fe5b600281111561343457fe5b815260200190815260200160002060008560ff1660ff1681526020019081526020016000206000015489613dd490919063ffffffff16565b14156134cd576134c86012600088600281111561348557fe5b600281111561349057fe5b815260200190815260200160002060008460ff1660ff1681526020019081526020016000206000015488614efd90919063ffffffff16565b613527565b6001613525601260008960028111156134e257fe5b60028111156134ed57fe5b815260200190815260200160002060008560ff1660ff1681526020019081526020016000206000015489614efd90919063ffffffff16565b015b90506012600087600281111561353957fe5b600281111561354457fe5b815260200190815260200160002060008360ff1660ff16815260200190815260200160002060020154816012600089600281111561357e57fe5b600281111561358957fe5b815260200190815260200160002060008560ff1660ff1681526020019081526020016000206001015401111561360a576040517f08c379a000000000000000000000000000000000000000000000000000000000815260040180806020018281038252603f815260200180615e1a603f913960400191505060405180910390fd5b613660816012600089600281111561361e57fe5b600281111561362957fe5b815260200190815260200160002060008560ff1660ff16815260200190815260200160002060010154614f9990919063ffffffff16565b6012600088600281111561367057fe5b600281111561367b57fe5b815260200190815260200160002060008460ff1660ff1681526020019081526020016000206001018190555060008060006136b9338b8a8c88614fb8565b92509250925082600b60003373ffffffffffffffffffffffffffffffffffffffff1673ffffffffffffffffffffffffffffffffffffffff1681526020019081526020016000206000846fffffffffffffffffffffffffffffffff19166fffffffffffffffffffffffffffffffff1916815260200190815260200160002060008201518160000155602082015181600101556040820151816002015560608201518160030160006101000a81548160ff0219169083600281111561377857fe5b02179055506080820151816004015560a0820151816005015560c0820151816006015560e082015181600701556101008201518160080155610120820151816009015561014082015181600a0160006101000a81548160ff0219169083151502179055509050506137e833615241565b61380a836060015160028111156137fb57fe5b846020015185600001516152ca565b61381c8360e00151846000015161536b565b600660009054906101000a900473ffffffffffffffffffffffffffffffffffffffff1673ffffffffffffffffffffffffffffffffffffffff1663a29a43bb336040518263ffffffff1660e01b8152600401808273ffffffffffffffffffffffffffffffffffffffff168152602001915050600060405180830381600087803b1580156138a757600080fd5b505af11580156138bb573d6000803e3d6000fd5b50505050600660009054906101000a900473ffffffffffffffffffffffffffffffffffffffff1673ffffffffffffffffffffffffffffffffffffffff16637f0f402660008001546040518263ffffffff1660e01b815260040180828152602001915050600060405180830381600087803b15801561393857600080fd5b505af115801561394c573d6000803e3d6000fd5b505050506000600281111561395d57fe5b8360600151600281111561396d57fe5b14613a0557600660009054906101000a900473ffffffffffffffffffffffffffffffffffffffff1673ffffffffffffffffffffffffffffffffffffffff1663cdbf54ed6000600301546040518263ffffffff1660e01b815260040180828152602001915050600060405180830381600087803b1580156139ec57600080fd5b505af1158015613a00573d6000803e3d6000fd5b505050505b601260008a6002811115613a1557fe5b6002811115613a2057fe5b815260200190815260200160002060008660ff1660ff168152602001908152602001600020600301600081548092919060010191905055503373ffffffffffffffffffffffffffffffffffffffff16826fffffffffffffffffffffffffffffffff19167f49262233f26cea870204363f8be998bf96bee458a06012e0d270b94f0c2da14e85606001516002811115613ab457fe5b866020015187600001518860a001518960c00151604051808681526020018581526020018481526020018381526020018281526020019550505050505060405180910390a38181965096505050505050935093915050565b6000600660009054906101000a900473ffffffffffffffffffffffffffffffffffffffff1673ffffffffffffffffffffffffffffffffffffffff1663c2889b576040518163ffffffff1660e01b815260040160206040518083038186803b158015613b7657600080fd5b505afa158015613b8a573d6000803e3d6000fd5b505050506040513d6020811015613ba057600080fd5b810190808051906020019092919050505067ffffffffffffffff16905090565b600080600080015490506000806005015490505b83811015613dce576013600060018303815260200190815260200160002060020154600c60008381526020019081526020016000205401925060006013600083815260200190815260200160002060405180606001604052908160008201548152602001600182015481526020016002820154815250509050838160400181815250508360006001015411613c6a576000613c73565b83600060010154035b816000018181525050613d6d613d3684600660009054906101000a900473ffffffffffffffffffffffffffffffffffffffff1673ffffffffffffffffffffffffffffffffffffffff166318160ddd6040518163ffffffff1660e01b815260040160206040518083038186803b158015613ceb57600080fd5b505afa158015613cff573d6000803e3d6000fd5b505050506040513d6020811015613d1557600080fd5b810190808051906020019092919050505063036fcd3d63ffffffff166153ac565b613d5f670de0b6b3a764000067ffffffffffffffff1684600001516153c790919063ffffffff16565b614efd90919063ffffffff16565b8160200181815250508060136000848152602001908152602001600020600082015181600001556020820151816001015560408201518160020155905050600060050160008154809291906001019190505550508080600101915050613bd4565b50505050565b600080821415613de357600080fd5b818381613dec57fe5b06905092915050565b600082821115613e0457600080fd5b600082840390508091505092915050565b60008082610100015111613e3757613e2b613b0c565b8260e001511115613e45565b8161010001518260e0015111155b9050919050565b600080600b60008573ffffffffffffffffffffffffffffffffffffffff1673ffffffffffffffffffffffffffffffffffffffff1681526020019081526020016000206000846fffffffffffffffffffffffffffffffff19166fffffffffffffffffffffffffffffffff19168152602001908152602001600020604051806101600160405290816000820154815260200160018201548152602001600282015481526020016003820160009054906101000a900460ff166002811115613f0d57fe5b6002811115613f1857fe5b8152602001600482015481526020016005820154815260200160068201548152602001600782015481526020016008820154815260200160098201548152602001600a820160009054906101000a900460ff1615151515815250509050613f7e8161540c565b15613fdf576000613fbd613fa7600761ffff16613f99613b0c565b613dd490919063ffffffff16565b613faf613b0c565b613df590919063ffffffff16565b9050613fdb8260000151613fd084615477565b83856060015161549d565b9250505b5092915050565b600080600b60008573ffffffffffffffffffffffffffffffffffffffff1673ffffffffffffffffffffffffffffffffffffffff1681526020019081526020016000206000846fffffffffffffffffffffffffffffffff19166fffffffffffffffffffffffffffffffff19168152602001908152602001600020604051806101600160405290816000820154815260200160018201548152602001600282015481526020016003820160009054906101000a900460ff1660028111156140a757fe5b60028111156140b257fe5b8152602001600482015481526020016005820154815260200160068201548152602001600782015481526020016008820154815260200160098201548152602001600a820160009054906101000a900460ff16151515158152505090506141188161540c565b15614179576000614157614141600761ffff16614133613b0c565b613dd490919063ffffffff16565b614149613b0c565b613df590919063ffffffff16565b9050614175826000015161416a84615477565b8385606001516156be565b9250505b5092915050565b600080600b60008573ffffffffffffffffffffffffffffffffffffffff1673ffffffffffffffffffffffffffffffffffffffff1681526020019081526020016000206000846fffffffffffffffffffffffffffffffff19166fffffffffffffffffffffffffffffffff19168152602001908152602001600020604051806101600160405290816000820154815260200160018201548152602001600282015481526020016003820160009054906101000a900460ff16600281111561424157fe5b600281111561424c57fe5b8152602001600482015481526020016005820154815260200160068201548152602001600782015481526020016008820154815260200160098201548152602001600a820160009054906101000a900460ff16151515158152505090506142b28161575c565b156143115760006142f46142de600460070261ffff166142d0613b0c565b613dd490919063ffffffff16565b6142e6613b0c565b613df590919063ffffffff16565b905061430d826000015161430784615477565b836157ca565b9250505b5092915050565b600080600b60008573ffffffffffffffffffffffffffffffffffffffff1673ffffffffffffffffffffffffffffffffffffffff1681526020019081526020016000206000846fffffffffffffffffffffffffffffffff19166fffffffffffffffffffffffffffffffff19168152602001908152602001600020604051806101600160405290816000820154815260200160018201548152602001600282015481526020016003820160009054906101000a900460ff1660028111156143d957fe5b60028111156143e457fe5b8152602001600482015481526020016005820154815260200160068201548152602001600782015481526020016008820154815260200160098201548152602001600a820160009054906101000a900460ff161515151581525050905080610140015180156144595750614457816158f5565b155b156144815761447e81600001518260a0015161447484614f29565b846060015161592a565b91505b5092915050565b600080600b60008573ffffffffffffffffffffffffffffffffffffffff1673ffffffffffffffffffffffffffffffffffffffff1681526020019081526020016000206000846fffffffffffffffffffffffffffffffff19166fffffffffffffffffffffffffffffffff19168152602001908152602001600020600a0160009054906101000a900460ff16614584576040517f08c379a000000000000000000000000000000000000000000000000000000000815260040180806020018281038252601a8152602001807f47524953453a204e6f7420616e20616374697665207374616b6500000000000081525060200191505060405180910390fd5b6000600b60008673ffffffffffffffffffffffffffffffffffffffff1673ffffffffffffffffffffffffffffffffffffffff1681526020019081526020016000206000856fffffffffffffffffffffffffffffffff19166fffffffffffffffffffffffffffffffff191681526020019081526020016000209250614606613b0c565b83600801819055506146c583604051806101600160405290816000820154815260200160018201548152602001600282015481526020016003820160009054906101000a900460ff16600281111561465a57fe5b600281111561466557fe5b8152602001600482015481526020016005820154815260200160068201548152602001600782015481526020016008820154815260200160098201548152602001600a820160009054906101000a900460ff161515151581525050615a7f565b836002018190555061478483604051806101600160405290816000820154815260200160018201548152602001600282015481526020016003820160009054906101000a900460ff16600281111561471957fe5b600281111561472457fe5b8152602001600482015481526020016005820154815260200160068201548152602001600782015481526020016008820154815260200160098201548152602001600a820160009054906101000a900460ff161515151581525050614eb9565b91506000600281111561479357fe5b8360030160009054906101000a900460ff1660028111156147b057fe5b141561481b5761481461271063ffffffff1661480660c861ffff166147f8866147ea89600201548a60010154614f9990919063ffffffff16565b613df590919063ffffffff16565b6153c790919063ffffffff16565b614efd90919063ffffffff16565b905061487d565b61487a61271063ffffffff1661486c61015b61ffff1661485e8661485089600201548a60010154614f9990919063ffffffff16565b613df590919063ffffffff16565b6153c790919063ffffffff16565b614efd90919063ffffffff16565b90505b600083600a0160006101000a81548160ff021916908315150217905550600660009054906101000a900473ffffffffffffffffffffffffffffffffffffffff1673ffffffffffffffffffffffffffffffffffffffff1663e742806a86848660010154116148eb5760006148f3565b848660010154035b6040518363ffffffff1660e01b8152600401808373ffffffffffffffffffffffffffffffffffffffff16815260200182815260200192505050600060405180830381600087803b15801561494657600080fd5b505af115801561495a573d6000803e3d6000fd5b50505050600660009054906101000a900473ffffffffffffffffffffffffffffffffffffffff1673ffffffffffffffffffffffffffffffffffffffff1663e742806a8685600201546040518363ffffffff1660e01b8152600401808373ffffffffffffffffffffffffffffffffffffffff16815260200182815260200192505050600060405180830381600087803b1580156149f557600080fd5b505af1158015614a09573d6000803e3d6000fd5b50505050600660009054906101000a900473ffffffffffffffffffffffffffffffffffffffff1673ffffffffffffffffffffffffffffffffffffffff1663e742806a86836040518363ffffffff1660e01b8152600401808373ffffffffffffffffffffffffffffffffffffffff16815260200182815260200192505050600060405180830381600087803b158015614aa057600080fd5b505af1158015614ab4573d6000803e3d6000fd5b50505050509250929050565b81600080015411614ad2576000614ada565b816000800154035b60008001819055508060006001015411614af5576000614afe565b80600060010154035b60006001018190555060008360ff161115614b3d578060006003015411614b26576000614b2f565b80600060030154035b600060030181905550614b63565b8060006002015411614b50576000614b59565b80600060020154035b6000600201819055505b614b6b615b1b565b505050565b614b7982615b92565b15614bd25780600c60008481526020019081526020016000205411614b9f576000614bb6565b80600c600084815260200190815260200160002054035b600c600084815260200190815260200160002081905550614c3b565b60006001614bde613b0c565b03905081601360008381526020019081526020016000206002015411614c05576000614c1f565b816013600083815260200190815260200160002060020154035b6013600083815260200190815260200160002060020181905550505b5050565b6000811115614eb557614c6e81600d600085815260200190815260200160002054614f9990919063ffffffff16565b600d600084815260200190815260200160002081905550614ccf600060030154614cc161271063ffffffff16614cb3610a0261ffff16866153c790919063ffffffff16565b614efd90919063ffffffff16565b614efd90919063ffffffff16565b600e600084815260200190815260200160002060008282540192505081905550614d39600060020154614d2b61271063ffffffff16614d1d61051f61ffff16866153c790919063ffffffff16565b614efd90919063ffffffff16565b614efd90919063ffffffff16565b600f600084815260200190815260200160002060008282540192505081905550614da3600060030154614d9561271063ffffffff16614d87610d6361ffff16866153c790919063ffffffff16565b614efd90919063ffffffff16565b614efd90919063ffffffff16565b6010600084815260200190815260200160002060008282540192505081905550600660009054906101000a900473ffffffffffffffffffffffffffffffffffffffff1673ffffffffffffffffffffffffffffffffffffffff1663e742806a737ff1f8c467114bfbbcc56e406c0ec21e781bb959614e4961271063ffffffff16614e3b6105dc61ffff16876153c790919063ffffffff16565b614efd90919063ffffffff16565b6040518363ffffffff1660e01b8152600401808373ffffffffffffffffffffffffffffffffffffffff16815260200182815260200192505050600060405180830381600087803b158015614e9c57600080fd5b505af1158015614eb0573d6000803e3d6000fd5b505050505b5050565b6000614ec4826158f5565b80614ed45750614ed382613e15565b5b614ee657614ee182615ba6565b614ee9565b60005b9050919050565b60008160001b9050919050565b600080821415614f105760009050614f23565b6000828481614f1b57fe5b049050809150505b92915050565b600080600501548260e0015111614f44578160e00151614f4b565b6000600501545b9050919050565b6000801515826101400151151514614f7e57614f79614f6f613b0c565b8360e00151615be5565b614f92565b614f918261010001518360e00151615be5565b5b9050919050565b600080828401905083811015614fae57600080fd5b8091505092915050565b614fc0615caa565b60008086600660009054906101000a900473ffffffffffffffffffffffffffffffffffffffff1673ffffffffffffffffffffffffffffffffffffffff16630293068e8a6040518263ffffffff1660e01b8152600401808273ffffffffffffffffffffffffffffffffffffffff16815260200191505060206040518083038186803b15801561504d57600080fd5b505afa158015615061573d6000803e3d6000fd5b505050506040513d602081101561507757600080fd5b810190808051906020019092919050505010156150df576040517f08c379a0000000000000000000000000000000000000000000000000000000008152600401808060200182810382526029815260200180615d356029913960400191505060405180910390fd5b600660009054906101000a900473ffffffffffffffffffffffffffffffffffffffff1673ffffffffffffffffffffffffffffffffffffffff1663aecf8a6d89896040518363ffffffff1660e01b8152600401808373ffffffffffffffffffffffffffffffffffffffff16815260200182815260200192505050600060405180830381600087803b15801561517257600080fd5b505af1158015615186573d6000803e3d6000fd5b505050506001615194613b0c565b0190506151a088615c11565b915084836060019060028111156151b357fe5b908160028111156151c057fe5b81525050838360800181815250508567ffffffffffffffff168360c0018181525050808360a00181815250508567ffffffffffffffff1681018360e00181815250506001836101400190151590811515815250508683602001818152505061522d87600060040154615c68565b836000018181525050955095509592505050565b6001600960008373ffffffffffffffffffffffffffffffffffffffff1673ffffffffffffffffffffffffffffffffffffffff1681526020019081526020016000205401600960008373ffffffffffffffffffffffffffffffffffffffff1673ffffffffffffffffffffffffffffffffffffffff1681526020019081526020016000208190555050565b6152e1826000800154614f9990919063ffffffff16565b600080018190555061530181600060010154614f9990919063ffffffff16565b60006001018190555060008360ff16111561533c5761532e81600060030154614f9990919063ffffffff16565b60006003018190555061535e565b61535481600060020154614f9990919063ffffffff16565b6000600201819055505b615366615b1b565b505050565b61539181600c600085815260200190815260200160002054614f9990919063ffffffff16565b600c6000848152602001908152602001600020819055505050565b60008161271084860102816153bd57fe5b0490509392505050565b6000808314806153d75750600082145b156153e55760009050615406565b60008284029050828482816153f657fe5b041461540157600080fd5b809150505b92915050565b600081610140015180156154265750615424826158f5565b155b8015615470575061546561544f600761ffff16615441613b0c565b613dd490919063ffffffff16565b615457613b0c565b613df590919063ffffffff16565b61546e83615477565b105b9050919050565b6000808261012001511461549057816101200151615496565b8160a001515b9050919050565b6000806154b8600060040154876153c790919063ffffffff16565b9050600060028111156154c757fe5b8360028111156154d357fe5b146155b5576155b26155a387600660009054906101000a900473ffffffffffffffffffffffffffffffffffffffff1673ffffffffffffffffffffffffffffffffffffffff16639df6292689896040518363ffffffff1660e01b8152600401808381526020018281526020019250505060206040518083038186803b15801561555a57600080fd5b505afa15801561556e573d6000803e3d6000fd5b505050506040513d602081101561558457600080fd5b81019080805190602001909291905050506153c790919063ffffffff16565b83614f9990919063ffffffff16565b91505b6156b36156a4670de0b6b3a764000067ffffffffffffffff1661569684600660009054906101000a900473ffffffffffffffffffffffffffffffffffffffff1673ffffffffffffffffffffffffffffffffffffffff166308fcfd3c8b8b6040518363ffffffff1660e01b8152600401808381526020018281526020019250505060206040518083038186803b15801561564d57600080fd5b505afa158015615661573d6000803e3d6000fd5b505050506040513d602081101561567757600080fd5b81019080805190602001909291905050506153c790919063ffffffff16565b614efd90919063ffffffff16565b83614f9990919063ffffffff16565b915050949350505050565b6000808490505b8381101561575357600060028111156156da57fe5b8360028111156156e657fe5b141561571b5761571286600f6000848152602001908152602001600020546153c790919063ffffffff16565b82019150615746565b61574186600e6000848152602001908152602001600020546153c790919063ffffffff16565b820191505b80806001019150506156c5565b50949350505050565b600081610140015180156157765750615774826158f5565b155b80156157c357506157b86157a2600460070261ffff16615794613b0c565b613dd490919063ffffffff16565b6157aa613b0c565b613df590919063ffffffff16565b6157c183615477565b105b9050919050565b6000808390505b8281101561580e576157ff601060008381526020019081526020016000205483614f9990919063ffffffff16565b915080806001019150506157d1565b506158d7600660009054906101000a900473ffffffffffffffffffffffffffffffffffffffff1673ffffffffffffffffffffffffffffffffffffffff16635d349c3a85856040518363ffffffff1660e01b8152600401808381526020018281526020019250505060206040518083038186803b15801561588d57600080fd5b505afa1580156158a1573d6000803e3d6000fd5b505050506040513d60208110156158b757600080fd5b810190808051906020019092919050505082614f9990919063ffffffff16565b90506158ec84826153c790919063ffffffff16565b90509392505050565b600080826101000151116159165761590b613b0c565b8260a0015111615923565b8161010001518260a00151115b9050919050565b6000806000600281111561593a57fe5b83600281111561594657fe5b1415615956576000915050615a77565b60008590505b84811015615a74576001600281111561597157fe5b84600281111561597d57fe5b146159d0576159cb61271063ffffffff166159bd611b5861ffff1660136000868152602001908152602001600020600101546153c790919063ffffffff16565b614efd90919063ffffffff16565b615a1a565b615a1961271063ffffffff16615a0b610bb861ffff1660136000868152602001908152602001600020600101546153c790919063ffffffff16565b614efd90919063ffffffff16565b5b9150615a65615a5683615a48670de0b6b3a764000067ffffffffffffffff168b6153c790919063ffffffff16565b614efd90919063ffffffff16565b84614f9990919063ffffffff16565b9250808060010191505061595c565b50505b949350505050565b6000615aa58260000151615a9284615477565b615a9b85614f29565b85606001516156be565b9050615acb8260000151615ab884615477565b615ac185614f29565b856060015161549d565b81019050615aee8260000151615ae084615477565b615ae985614f29565b6157ca565b81019050615b1282600001518360a00151615b0885614f29565b856060015161592a565b81019050919050565b6000600501547f491bcc9f6cb4d2922150a69709f3f1a911f058b8829c6cba1be6aaf328cebcf86000600101546000800154600060020154600060030154600060040154604051808681526020018581526020018481526020018381526020018281526020019550505050505060405180910390a2565b6000615b9c613b0c565b8210159050919050565b6000612710615bb483615c85565b6001615bbf85614f52565b036106a461ffff160281615bcf57fe5b0483602001510281615bdd57fe5b049050919050565b6000818311615c0657615c018383613df590919063ffffffff16565b615c09565b60005b905092915050565b6000615c6182600960008573ffffffffffffffffffffffffffffffffffffffff1673ffffffffffffffffffffffffffffffffffffffff16815260200190815260200160002054600160f81b612804565b9050919050565b6000615c7d8284614efd90919063ffffffff16565b905092915050565b600060018260c0015111615c9a576001615ca3565b60018260c00151035b9050919050565b60405180610160016040528060008152602001600081526020016000815260200160006002811115615cd857fe5b8152602001600081526020016000815260200160008152602001600081526020016000815260200160008152602001600015158152509056fe47524953453a206772697365476174654b656570657220697320756e646566696e656447524953453a205374616b657220646f65736e2774206861766520656e6f7567682062616c616e636547524953453a207374616b65206973206e6f74206c6172676520656e6f756768206f72205374616b696e67416d6f756e74206973206e6f742056616c696447524953453a20736e617073686f7420616c72656164792074616b656e20666f7220746861742064617947524953453a20736e617073686f742064617920646f6573206e6f742065786973742079657447524953453a205374616b65206973206e6f7420796574206d617475726520746f20636c61696d2052657761726447524953453a20416c6c207374616b696e6720736c6f74206973206f63637570696564206e6f7420657874726120736c6f7420697320617661696c61626c65a26469706673582212206588468fa03161cb8620e5b0b3a4c368214e2b99b907ac1468afdddb63c0e13464736f6c63430007060033",
  "immutableReferences": {},
  "source": "// SPDX-License-Identifier: ----\r\n\r\npragma solidity =0.7.6;\r\n\r\nimport \"./Snapshot.sol\";\r\n\r\ncontract StakingToken is Snapshot {\r\n\r\n    using SafeMath for uint256;\r\n\r\n    /**\r\n     * @notice ability to define Grise contract\r\n     * @dev this method renounce griseGateKeeper access\r\n     * @param _immutableAddress contract address\r\n     */\r\n    function setGriseAddress(\r\n        address _immutableAddress\r\n    )\r\n        external\r\n    {\r\n        require(\r\n            griseGateKeeper == msg.sender,\r\n            'GRISE: griseGateKeeper is undefined'\r\n        );\r\n        GRISE_CONTRACT = IGriseToken(_immutableAddress);\r\n        griseGateKeeper = address(0x0);\r\n    }\r\n\r\n   /**\r\n     * @notice allows to create stake directly with ETH\r\n     * if you don't have GRISE tokens method will convert\r\n     * and use amount returned from UNISWAP to open a stake\r\n     * @param _lockDays amount of days it is locked for.\r\n     */\r\n    function createStakeWithETH(\r\n        uint256 _stakedAmount,\r\n        StakeType _stakeType,\r\n        uint64 _lockDays\r\n    )\r\n        external\r\n        payable\r\n        returns (bytes16, uint256)\r\n    {\r\n        address[] memory path = new address[](2);\r\n            path[0] = WETH;\r\n            path[1] = address(GRISE_CONTRACT);\r\n\r\n        uint256[] memory amounts = \r\n        UNISWAP_ROUTER.swapETHForExactTokens{value: msg.value}(\r\n            _stakedAmount,\r\n            path,\r\n            msg.sender,\r\n            block.timestamp + 2 hours\r\n        );\r\n\r\n        return createStake(\r\n            amounts[1],\r\n            _stakeType,\r\n            _lockDays\r\n        );\r\n    }\r\n    \r\n    /**\r\n     * @notice A method for a staker to create a stake\r\n     * @param _stakedAmount amount of GRISE staked.\r\n     * @param _stakeType Small/Medium/Large.\r\n     * @param _lockDays amount of days it is locked for.\r\n     */\r\n    function createStake(\r\n        uint256 _stakedAmount,\r\n        StakeType _stakeType,\r\n        uint64 _lockDays\r\n    )\r\n        snapshotTrigger\r\n        public\r\n        returns (bytes16, uint256)\r\n    {\r\n        // stakingSlot will be 0 for short/long term staking and\r\n        // stakingSlot will be 0,1,2 for 3,6,9 month medium term staking respectively.\r\n        uint8 stakingSlot; \r\n\r\n        if (_stakeType == StakeType.MEDIUM_TERM){\r\n            if (_lockDays == 168){ // 6 Month\r\n                stakingSlot = 1;\r\n            } else if (_lockDays == 252){ // 9 Month\r\n                stakingSlot = 2;\r\n            }\r\n        }\r\n\r\n        require(\r\n            _lockDays % GRISE_WEEK == 0 &&\r\n            _lockDays >= stakeDayLimit[_stakeType].minStakeDay &&\r\n            _lockDays <= stakeDayLimit[_stakeType].maxStakeDay,\r\n            'GRISE: stake is not in range'\r\n        );\r\n\r\n        require(\r\n            _stakedAmount >= stakeCaps[_stakeType][stakingSlot].minStakingAmount && \r\n            _stakedAmount.mod(stakeCaps[_stakeType][stakingSlot].minStakingAmount) == 0,\r\n            'GRISE: stake is not large enough or StakingAmount is not Valid'\r\n        );\r\n\r\n        require(\r\n            stakeCaps[_stakeType][stakingSlot].stakingSlotCount <= \r\n                    stakeCaps[_stakeType][stakingSlot].maxStakingSlot ,\r\n            'GRISE: All staking slot is occupied not extra slot is available'\r\n        );\r\n\r\n        uint256 newOccupiedSlotCount = _stakedAmount\r\n                                      .mod(stakeCaps[_stakeType][stakingSlot].minStakingAmount) != 0?\r\n                                      _stakedAmount\r\n                                      .div(stakeCaps[_stakeType][stakingSlot].minStakingAmount) + 1 :\r\n                                      _stakedAmount\r\n                                      .div(stakeCaps[_stakeType][stakingSlot].minStakingAmount);\r\n\r\n        require(\r\n            (stakeCaps[_stakeType][stakingSlot].stakingSlotCount + newOccupiedSlotCount <= \r\n                    stakeCaps[_stakeType][stakingSlot].maxStakingSlot),\r\n            'GRISE: All staking slot is occupied not extra slot is available'\r\n        );\r\n\r\n        stakeCaps[_stakeType][stakingSlot].stakingSlotCount = \r\n        stakeCaps[_stakeType][stakingSlot].stakingSlotCount.add(newOccupiedSlotCount);\r\n\r\n        (\r\n            Stake memory newStake,\r\n            bytes16 stakeID,\r\n            uint256 _startDay\r\n        ) =\r\n\r\n        _createStake(msg.sender, _stakedAmount, _lockDays, _stakeType, newOccupiedSlotCount);\r\n\r\n        stakes[msg.sender][stakeID] = newStake;\r\n\r\n        _increaseStakeCount(\r\n            msg.sender\r\n        );\r\n\r\n        _increaseGlobals(\r\n            uint8(newStake.stakeType),\r\n            newStake.stakedAmount,\r\n            newStake.stakesShares\r\n        );\r\n        \r\n        _addScheduledShares(\r\n            newStake.finalDay,\r\n            newStake.stakesShares\r\n        );\r\n\r\n        GRISE_CONTRACT.setStaker(msg.sender);\r\n        GRISE_CONTRACT.updateStakedToken(globals.totalStaked);\r\n\r\n        if (newStake.stakeType != StakeType.SHORT_TERM) {\r\n            GRISE_CONTRACT.updateMedTermShares(globals.MLTShares);\r\n        }\r\n\r\n        stakeCaps[_stakeType][stakingSlot].totalStakeCount++;\r\n\r\n        emit StakeStart(\r\n            stakeID,\r\n            msg.sender,\r\n            uint256(newStake.stakeType),\r\n            newStake.stakedAmount,\r\n            newStake.stakesShares,\r\n            newStake.startDay,\r\n            newStake.lockDays\r\n        );\r\n\r\n        return (stakeID, _startDay);\r\n    }\r\n\r\n    /**\r\n    * @notice A method for a staker to start a stake\r\n    * @param _staker ...\r\n    * @param _stakedAmount ...\r\n    * @param _lockDays ...\r\n    * @param _stakeType ...\r\n    * @param _totalOccupiedSlot ...\r\n    */\r\n    function _createStake(\r\n        address _staker,\r\n        uint256 _stakedAmount,\r\n        uint64 _lockDays,\r\n        StakeType  _stakeType,\r\n        uint256 _totalOccupiedSlot\r\n    )\r\n        private\r\n        returns (\r\n            Stake memory _newStake,\r\n            bytes16 _stakeID,\r\n            uint256 _startDay\r\n        )\r\n    {\r\n        require(\r\n            GRISE_CONTRACT.balanceOfStaker(_staker) >= _stakedAmount,\r\n            \"GRISE: Staker doesn't have enough balance\"\r\n        );\r\n\r\n        GRISE_CONTRACT.burnSupply(\r\n            _staker,\r\n            _stakedAmount\r\n        );\r\n\r\n        _startDay = currentGriseDay() + 1;\r\n        _stakeID = generateStakeID(_staker);\r\n\r\n        _newStake.stakeType = _stakeType;\r\n        _newStake.totalOccupiedSlot = _totalOccupiedSlot;\r\n        _newStake.lockDays = _lockDays;\r\n        _newStake.startDay = _startDay;\r\n        _newStake.finalDay = _startDay + _lockDays;\r\n        _newStake.isActive = true;\r\n\r\n        _newStake.stakedAmount = _stakedAmount;\r\n        _newStake.stakesShares = _stakesShares(\r\n            _stakedAmount,\r\n            globals.sharePrice\r\n        );\r\n    }\r\n\r\n    /**\r\n    * @notice A method for a staker to remove a stake\r\n    * belonging to his address by providing ID of a stake.\r\n    * @param _stakeID unique bytes sequence reference to the stake\r\n    */\r\n    function endStake(\r\n        bytes16 _stakeID\r\n    )\r\n        snapshotTrigger\r\n        external\r\n        returns (uint256)\r\n    {\r\n        (\r\n            Stake memory endedStake,\r\n            uint256 penaltyAmount\r\n        ) =\r\n\r\n        _endStake(\r\n            msg.sender,\r\n            _stakeID\r\n        );\r\n\r\n        _decreaseGlobals(\r\n            uint8(endedStake.stakeType),\r\n            endedStake.stakedAmount,\r\n            endedStake.stakesShares\r\n        );\r\n\r\n        _removeScheduledShares(\r\n            endedStake.finalDay,\r\n            endedStake.stakesShares\r\n        );\r\n\r\n        _storePenalty(\r\n            endedStake.closeDay,\r\n            penaltyAmount\r\n        );\r\n\r\n        uint8 stakingSlot; \r\n        if (endedStake.stakeType == StakeType.MEDIUM_TERM){\r\n            if (endedStake.lockDays == 168) { // 6 Month\r\n                stakingSlot = 1;\r\n            } else if (endedStake.lockDays == 252) { // 9 Month\r\n                stakingSlot = 2;\r\n            }\r\n        }\r\n\r\n        stakeCaps[endedStake.stakeType][stakingSlot].stakingSlotCount = \r\n        stakeCaps[endedStake.stakeType][stakingSlot].stakingSlotCount.sub(endedStake.totalOccupiedSlot);\r\n        \r\n        GRISE_CONTRACT.resetStaker(msg.sender);\r\n        GRISE_CONTRACT.updateStakedToken(globals.totalStaked);\r\n\r\n        if (endedStake.stakeType != StakeType.SHORT_TERM) {\r\n            GRISE_CONTRACT.updateMedTermShares(globals.MLTShares);\r\n        }\r\n        \r\n        stakeCaps[endedStake.stakeType][stakingSlot].totalStakeCount--;\r\n\r\n        emit StakeEnd(\r\n            _stakeID,\r\n            msg.sender,\r\n            uint256(endedStake.stakeType),\r\n            endedStake.stakedAmount,\r\n            endedStake.stakesShares,\r\n            endedStake.rewardAmount,\r\n            endedStake.closeDay,\r\n            penaltyAmount\r\n        );\r\n\r\n        return endedStake.rewardAmount;\r\n    }\r\n\r\n    /**\r\n    * @notice A method for a staker to end a stake\r\n    * @param _staker ...\r\n    * @param _stakeID ...\r\n    */\r\n    function _endStake(\r\n        address _staker,\r\n        bytes16 _stakeID\r\n    )\r\n        private\r\n        returns (\r\n            Stake storage _stake,\r\n            uint256 _penalty\r\n        )\r\n    {\r\n        require(\r\n            stakes[_staker][_stakeID].isActive,\r\n            'GRISE: Not an active stake'\r\n        );\r\n\r\n        uint256 transFeeCompensation;\r\n        _stake = stakes[_staker][_stakeID];\r\n        _stake.closeDay = currentGriseDay();\r\n        _stake.rewardAmount = _calculateRewardAmount(_stake);\r\n        _penalty = _calculatePenaltyAmount(_stake);\r\n\r\n        if (_stake.stakeType == StakeType.SHORT_TERM)\r\n        {\r\n            transFeeCompensation = (_stake.stakedAmount\r\n                                    .add(_stake.rewardAmount)\r\n                                    .sub(_penalty))\r\n                                    .mul(ST_STAKER_COMPENSATION)\r\n                                    .div(REWARD_PRECISION_RATE);\r\n        }\r\n        else\r\n        {\r\n            transFeeCompensation = (_stake.stakedAmount\r\n                                    .add(_stake.rewardAmount)\r\n                                    .sub(_penalty))\r\n                                    .mul(MLT_STAKER_COMPENSATION)\r\n                                    .div(REWARD_PRECISION_RATE);\r\n        }\r\n        _stake.isActive = false;\r\n\r\n        GRISE_CONTRACT.mintSupply(\r\n            _staker,\r\n            _stake.stakedAmount > _penalty ?\r\n            _stake.stakedAmount - _penalty : 0\r\n        );\r\n\r\n        GRISE_CONTRACT.mintSupply(\r\n            _staker,\r\n            _stake.rewardAmount\r\n        );\r\n\r\n        GRISE_CONTRACT.mintSupply(\r\n            _staker,\r\n            transFeeCompensation\r\n        );\r\n    }\r\n\r\n    /**\r\n    * @notice alloes to scrape Reward from active stake\r\n    * @param _stakeID unique bytes sequence reference to the stake\r\n    */\r\n    function scrapeReward(\r\n        bytes16 _stakeID\r\n    )\r\n        external\r\n        snapshotTrigger\r\n        returns (\r\n            uint256 scrapeDay,\r\n            uint256 scrapeAmount,\r\n            uint256 remainingDays\r\n        )\r\n    {\r\n        require(\r\n            stakes[msg.sender][_stakeID].isActive,\r\n            'GRISE: Not an active stake'\r\n        );\r\n\r\n        Stake memory stake = stakes[msg.sender][_stakeID];\r\n\r\n        require(\r\n            (globals.currentGriseDay\r\n                    .sub(stake.startDay)\r\n                    .div(GRISE_WEEK)) > 0,\r\n            'GRISE: Stake is not yet mature to claim Reward'\r\n        );\r\n\r\n        scrapeDay = _calculationDay(stake);\r\n\r\n        scrapeDay = scrapeDay < stake.finalDay\r\n            ? scrapeDay.sub(scrapeDay.mod(GRISE_WEEK))\r\n            : scrapeDay;\r\n\r\n        scrapeAmount = getTranscRewardAmount(msg.sender, _stakeID);\r\n\r\n        scrapeAmount += getPenaltyRewardAmount(msg.sender, _stakeID);\r\n\r\n        scrapeAmount += getReservoirRewardAmount(msg.sender, _stakeID);\r\n\r\n        remainingDays = _daysLeft(stake);\r\n        scrapes[msg.sender][_stakeID] =\r\n        scrapes[msg.sender][_stakeID].add(scrapeAmount);\r\n        \r\n        stake.scrapeDay = scrapeDay;\r\n        stakes[msg.sender][_stakeID] = stake;\r\n\r\n        GRISE_CONTRACT.mintSupply(\r\n            msg.sender,\r\n            scrapeAmount\r\n        );\r\n\r\n        emit InterestScraped(\r\n            _stakeID,\r\n            msg.sender,\r\n            scrapeAmount,\r\n            scrapeDay,\r\n            currentGriseDay()\r\n        );\r\n    }\r\n\r\n    function _addScheduledShares(\r\n        uint256 _finalDay,\r\n        uint256 _shares\r\n    )\r\n        internal\r\n    {\r\n        scheduledToEnd[_finalDay] =\r\n        scheduledToEnd[_finalDay].add(_shares);\r\n    }\r\n\r\n    function _removeScheduledShares(\r\n        uint256 _finalDay,\r\n        uint256 _shares\r\n    )\r\n        internal\r\n    {\r\n        if (_notPast(_finalDay)) {\r\n\r\n            scheduledToEnd[_finalDay] =\r\n            scheduledToEnd[_finalDay] > _shares ?\r\n            scheduledToEnd[_finalDay] - _shares : 0;\r\n\r\n        } else {\r\n\r\n            uint256 _day = currentGriseDay() - 1;\r\n            snapshots[_day].scheduledToEnd =\r\n            snapshots[_day].scheduledToEnd > _shares ?\r\n            snapshots[_day].scheduledToEnd - _shares : 0;\r\n        }\r\n    }\r\n\r\n    function checkMatureStake(\r\n        address _staker,\r\n        bytes16 _stakeID\r\n    )\r\n        external\r\n        view\r\n        returns (bool isMature)\r\n    {\r\n        Stake memory stake = stakes[_staker][_stakeID];\r\n        isMature = _isMatureStake(stake);\r\n    }\r\n\r\n    function checkStakeByID(\r\n        address _staker,\r\n        bytes16 _stakeID\r\n    )\r\n        external\r\n        view\r\n        returns \r\n    (\r\n        uint256 startDay,\r\n        uint256 lockDays,\r\n        uint256 finalDay,\r\n        uint256 closeDay,\r\n        uint256 scrapeDay,\r\n        StakeType stakeType,\r\n        uint256 slotOccupied,\r\n        uint256 stakedAmount,\r\n        uint256 penaltyAmount,\r\n        bool isActive,\r\n        bool isMature\r\n    )\r\n    {\r\n        Stake memory stake = stakes[_staker][_stakeID];\r\n        startDay = stake.startDay;\r\n        lockDays = stake.lockDays;\r\n        finalDay = stake.finalDay;\r\n        closeDay = stake.closeDay;\r\n        scrapeDay = stake.scrapeDay;\r\n        stakeType = stake.stakeType;\r\n        slotOccupied = stake.totalOccupiedSlot;\r\n        stakedAmount = stake.stakedAmount;\r\n        penaltyAmount = _calculatePenaltyAmount(stake);\r\n        isActive = stake.isActive;\r\n        isMature = _isMatureStake(stake);\r\n    }\r\n\r\n    function checkStakeRewards(\r\n        address _staker,\r\n        bytes16 _stakeID\r\n    )\r\n        external\r\n        view\r\n        returns \r\n    (\r\n        uint256 transcRewardAmount,\r\n        uint256 penaltyRewardAmount,\r\n        uint256 reservoirRewardAmount,\r\n        uint256 inflationRewardAmount\r\n    )\r\n    {\r\n        transcRewardAmount = getTranscRewardAmount(_staker, _stakeID);\r\n        penaltyRewardAmount = getPenaltyRewardAmount(_staker, _stakeID);\r\n        reservoirRewardAmount = getReservoirRewardAmount(_staker, _stakeID);\r\n        inflationRewardAmount = getInflationRewardAmount(_staker, _stakeID);\r\n    }\r\n\r\n    function updateStakingSlotLimit(\r\n        uint256 STSlotLimit,\r\n        uint256 MT3MonthSlotLimit,\r\n        uint256 MT6MonthSlotLimit,\r\n        uint256 MT9MonthSlotLimit,\r\n        uint256 LTSlotLimit\r\n    )\r\n    external\r\n    {\r\n        require(\r\n            msg.sender == contractDeployer,\r\n            'Invalid Operation'\r\n        );\r\n\r\n        stakeCaps[StakeType.SHORT_TERM][0].maxStakingSlot = STSlotLimit;\r\n        stakeCaps[StakeType.MEDIUM_TERM][0].maxStakingSlot = MT3MonthSlotLimit;\r\n        stakeCaps[StakeType.MEDIUM_TERM][1].maxStakingSlot = MT6MonthSlotLimit;\r\n        stakeCaps[StakeType.MEDIUM_TERM][2].maxStakingSlot = MT9MonthSlotLimit;\r\n        stakeCaps[StakeType.LONG_TERM][0].maxStakingSlot = LTSlotLimit;\r\n    }\r\n\r\n    function getTranscRewardAmount(\r\n        address _staker,\r\n        bytes16 _stakeID\r\n    ) \r\n        private\r\n        view\r\n        returns (uint256 rewardAmount)\r\n    {\r\n        Stake memory _stake = stakes[_staker][_stakeID];\r\n\r\n        if ( _stakeEligibleForWeeklyReward(_stake))\r\n        {\r\n            uint256 _endDay = currentGriseDay().sub(currentGriseDay().mod(GRISE_WEEK));\r\n\r\n            rewardAmount = _loopTranscRewardAmount(\r\n                _stake.stakesShares,\r\n                _startingDay(_stake),\r\n                _endDay,\r\n                _stake.stakeType);\r\n        }\r\n    }\r\n\r\n    function getPenaltyRewardAmount(\r\n        address _staker,\r\n        bytes16 _stakeID\r\n    ) \r\n        private \r\n        view \r\n        returns (uint256 rewardAmount) \r\n    {\r\n        Stake memory _stake = stakes[_staker][_stakeID];\r\n\r\n        if ( _stakeEligibleForWeeklyReward(_stake))\r\n        {\r\n            uint256 _endDay = currentGriseDay().sub(currentGriseDay().mod(GRISE_WEEK));\r\n\r\n            rewardAmount = _loopPenaltyRewardAmount(\r\n                _stake.stakesShares,\r\n                _startingDay(_stake),\r\n                _endDay,\r\n                _stake.stakeType);\r\n        }\r\n    }\r\n\r\n    function getReservoirRewardAmount(\r\n        address _staker,\r\n        bytes16 _stakeID\r\n    ) \r\n        private \r\n        view \r\n        returns (uint256 rewardAmount) \r\n    {\r\n        Stake memory _stake = stakes[_staker][_stakeID];\r\n\r\n        if ( _stakeEligibleForMonthlyReward(_stake))\r\n        {\r\n            uint256 _endDay = currentGriseDay().sub(currentGriseDay().mod(GRISE_MONTH));\r\n\r\n            rewardAmount = _loopReservoirRewardAmount(\r\n                _stake.stakesShares,\r\n                _startingDay(_stake),\r\n                _endDay\r\n            );\r\n        }\r\n    }\r\n\r\n    function getInflationRewardAmount(\r\n        address _staker,\r\n        bytes16 _stakeID\r\n    ) \r\n        private \r\n        view \r\n        returns (uint256 rewardAmount) \r\n    {    \r\n        Stake memory _stake = stakes[_staker][_stakeID];\r\n\r\n        if ( _stake.isActive && !_stakeNotStarted(_stake))\r\n        {\r\n            rewardAmount = _loopInflationRewardAmount(\r\n            _stake.stakesShares,\r\n            _stake.startDay,\r\n            _calculationDay(_stake),\r\n            _stake.stakeType);\r\n        }\r\n    }\r\n\r\n    function _stakesShares(\r\n        uint256 _stakedAmount,\r\n        uint256 _sharePrice\r\n    )\r\n        private\r\n        pure\r\n        returns (uint256)\r\n    {\r\n        return _stakedAmount\r\n                .div(_sharePrice);\r\n    }\r\n\r\n    function _storePenalty(\r\n        uint256 _storeDay,\r\n        uint256 _penalty\r\n    )\r\n        private\r\n    {\r\n        if (_penalty > 0) {\r\n            totalPenalties[_storeDay] =\r\n            totalPenalties[_storeDay].add(_penalty);\r\n\r\n            MLTPenaltiesRewardPerShares[_storeDay] += \r\n                _penalty.mul(MED_LONG_STAKER_PENALTY_REWARD)\r\n                        .div(REWARD_PRECISION_RATE)\r\n                        .div(globals.MLTShares);\r\n\r\n            STPenaltiesRewardPerShares[_storeDay] +=\r\n                _penalty.mul(SHORT_STAKER_PENALTY_REWARD)\r\n                        .div(REWARD_PRECISION_RATE)\r\n                        .div(globals.STShares);\r\n\r\n            ReservoirPenaltiesRewardPerShares[_storeDay] +=\r\n                _penalty.mul(RESERVOIR_PENALTY_REWARD)\r\n                        .div(REWARD_PRECISION_RATE)\r\n                        .div(globals.MLTShares);\r\n\r\n            GRISE_CONTRACT.mintSupply(\r\n                TEAM_ADDRESS,\r\n                _penalty.mul(TEAM_PENALTY_REWARD)\r\n                        .div(REWARD_PRECISION_RATE)\r\n            );\r\n        }\r\n    }\r\n\r\n    function _calculatePenaltyAmount(\r\n        Stake memory _stake\r\n    )\r\n        private\r\n        view\r\n        returns (uint256)\r\n    {\r\n        return _stakeNotStarted(_stake) || _isMatureStake(_stake) ? 0 : _getPenalties(_stake);\r\n    }\r\n\r\n    function _getPenalties(\r\n        Stake memory _stake\r\n    )\r\n        private\r\n        view\r\n        returns (uint256)\r\n    {\r\n        return _stake.stakedAmount * ((PENALTY_RATE * (_daysLeft(_stake) - 1) / (_getLockDays(_stake)))) / 10000;\r\n    }\r\n\r\n    function _calculateRewardAmount(\r\n        Stake memory _stake\r\n    )\r\n        private\r\n        view\r\n        returns (uint256 _rewardAmount)\r\n    {\r\n        _rewardAmount = _loopPenaltyRewardAmount(\r\n            _stake.stakesShares,\r\n            _startingDay(_stake),\r\n            _calculationDay(_stake),\r\n            _stake.stakeType\r\n        );\r\n\r\n        _rewardAmount += _loopTranscRewardAmount(\r\n            _stake.stakesShares,\r\n            _startingDay(_stake),\r\n            _calculationDay(_stake),\r\n            _stake.stakeType\r\n        );\r\n\r\n        _rewardAmount += _loopReservoirRewardAmount(\r\n            _stake.stakesShares,\r\n            _startingDay(_stake),\r\n            _calculationDay(_stake)\r\n        );\r\n        \r\n        _rewardAmount += _loopInflationRewardAmount(\r\n            _stake.stakesShares,\r\n            _stake.startDay,\r\n            _calculationDay(_stake),\r\n            _stake.stakeType\r\n        );\r\n    }\r\n\r\n    function _loopInflationRewardAmount(\r\n        uint256 _stakeShares,\r\n        uint256 _startDay,\r\n        uint256 _finalDay,\r\n        StakeType _stakeType\r\n    )\r\n        private\r\n        view\r\n        returns (uint256 _rewardAmount)\r\n    {\r\n        uint256 inflationAmount;\r\n        if (_stakeType == StakeType.SHORT_TERM)\r\n        {\r\n            return 0;\r\n        }\r\n\r\n        for (uint256 _day = _startDay; _day < _finalDay; _day++) {\r\n\r\n            inflationAmount = (_stakeType == StakeType.MEDIUM_TERM) ? \r\n                                snapshots[_day].inflationAmount\r\n                                .mul(MED_TERM_INFLATION_REWARD)\r\n                                .div(REWARD_PRECISION_RATE) :\r\n                                snapshots[_day].inflationAmount\r\n                                .mul(LONG_TERM_INFLATION_REWARD)\r\n                                .div(REWARD_PRECISION_RATE);\r\n\r\n            _rewardAmount = _rewardAmount\r\n                            .add(_stakeShares\r\n                                    .mul(PRECISION_RATE)\r\n                                    .div(inflationAmount));\r\n        }\r\n    }\r\n\r\n    function _loopPenaltyRewardAmount(\r\n        uint256 _stakeShares,\r\n        uint256 _startDay,\r\n        uint256 _finalDay,\r\n        StakeType _stakeType\r\n    )\r\n        private\r\n        view\r\n        returns (uint256 _rewardAmount)\r\n    {\r\n        for (uint256 day = _startDay; day < _finalDay; day++) \r\n        {\r\n            if (_stakeType == StakeType.SHORT_TERM)\r\n            {\r\n                _rewardAmount += STPenaltiesRewardPerShares[day]\r\n                                    .mul(_stakeShares);\r\n            } else {\r\n                _rewardAmount += MLTPenaltiesRewardPerShares[day]\r\n                                    .mul(_stakeShares);\r\n            }\r\n        }\r\n    }\r\n\r\n    function _loopReservoirRewardAmount(\r\n        uint256 _stakeShares,\r\n        uint256 _startDay,\r\n        uint256 _finalDay\r\n    )\r\n        private\r\n        view\r\n        returns (uint256 _rewardAmount)\r\n    {\r\n        \r\n        for (uint256 day = _startDay; day < _finalDay; day++) \r\n        {\r\n            _rewardAmount = \r\n            _rewardAmount.add(ReservoirPenaltiesRewardPerShares[day]);\r\n        }\r\n\r\n        _rewardAmount = \r\n        _rewardAmount.add(GRISE_CONTRACT.getReservoirReward(_startDay, _finalDay));\r\n\r\n        _rewardAmount = \r\n        _rewardAmount.mul(_stakeShares);\r\n    }\r\n\r\n    function _loopTranscRewardAmount(\r\n        uint256 _stakeShares,\r\n        uint256 _startDay,\r\n        uint256 _finalDay,\r\n        StakeType _stakeType\r\n    )\r\n        private\r\n        view\r\n        returns (uint256 _rewardAmount)\r\n    {\r\n        uint256 stakedAmount = _stakeShares.mul(globals.sharePrice);\r\n        \r\n        if (_stakeType != StakeType.SHORT_TERM)\r\n        {\r\n            _rewardAmount =\r\n            _rewardAmount.add(GRISE_CONTRACT.getTransFeeReward(_startDay, _finalDay)\r\n                                .mul(_stakeShares)); \r\n        }\r\n\r\n        _rewardAmount =\r\n        _rewardAmount.add(GRISE_CONTRACT.getTokenHolderReward(_startDay, _finalDay)\r\n                            .mul(stakedAmount)\r\n                            .div(PRECISION_RATE));\r\n    }\r\n\r\n    function getSlotLeft() \r\n        public \r\n        view \r\n        returns \r\n    (\r\n        uint256 STSlotLeft, \r\n        uint256 MT3MonthSlotLeft,\r\n        uint256 MT6MonthSlotLeft, \r\n        uint256 MT9MonthSlotLeft, \r\n        uint256 LTSlotLeft\r\n    ) \r\n    {\r\n\r\n        STSlotLeft = stakeCaps[StakeType.SHORT_TERM][0].maxStakingSlot\r\n                            .sub(stakeCaps[StakeType.SHORT_TERM][0].stakingSlotCount);\r\n\r\n        MT3MonthSlotLeft = stakeCaps[StakeType.MEDIUM_TERM][0].maxStakingSlot\r\n                            .sub(stakeCaps[StakeType.MEDIUM_TERM][0].stakingSlotCount);\r\n                            \r\n        MT6MonthSlotLeft = stakeCaps[StakeType.MEDIUM_TERM][1].maxStakingSlot\r\n                            .sub(stakeCaps[StakeType.MEDIUM_TERM][1].stakingSlotCount);\r\n\r\n        MT9MonthSlotLeft = stakeCaps[StakeType.MEDIUM_TERM][2].maxStakingSlot\r\n                            .sub(stakeCaps[StakeType.MEDIUM_TERM][2].stakingSlotCount);\r\n        \r\n        LTSlotLeft = stakeCaps[StakeType.LONG_TERM][0].maxStakingSlot\r\n                            .sub(stakeCaps[StakeType.LONG_TERM][0].stakingSlotCount);\r\n    }\r\n\r\n    function getStakeCount() \r\n        public \r\n        view \r\n        returns \r\n    (\r\n        uint256 STStakeCount, \r\n        uint256 MT3MonthStakeCount,\r\n        uint256 MT6MonthStakeCount,\r\n        uint256 MT9MonthStakeCount,\r\n        uint256 LTStakeCount\r\n    )\r\n    {\r\n        STStakeCount = stakeCaps[StakeType.SHORT_TERM][0].totalStakeCount;\r\n        MT3MonthStakeCount = stakeCaps[StakeType.MEDIUM_TERM][0].totalStakeCount;\r\n        MT6MonthStakeCount = stakeCaps[StakeType.MEDIUM_TERM][1].totalStakeCount;\r\n        MT9MonthStakeCount = stakeCaps[StakeType.MEDIUM_TERM][2].totalStakeCount;\r\n        LTStakeCount = stakeCaps[StakeType.LONG_TERM][0].totalStakeCount;\r\n    }\r\n\r\n    function getTotalStakedToken()\r\n        public\r\n        view \r\n        returns (uint256) \r\n    {\r\n        return globals.totalStaked;\r\n    }\r\n}",
  "sourcePath": "C:/Users/Dhaval/eth/grise/src/contracts/StakingToken.sol",
  "compiler": {
    "name": "solc",
    "version": "0.7.6+commit.7338295f.Emscripten.clang"
  },
  "schemaVersion": "3.3.3",
  "updatedAt": "2021-03-20T05:46:04.900Z",
  "networkType": "ethereum",
  "devdoc": {
    "kind": "dev",
    "methods": {
      "createStake(uint256,uint8,uint64)": {
        "params": {
          "_lockDays": "amount of days it is locked for.",
          "_stakeType": "Small/Medium/Large.",
          "_stakedAmount": "amount of GRISE staked."
        }
      },
      "createStakeWithETH(uint256,uint8,uint64)": {
        "params": {
          "_lockDays": "amount of days it is locked for."
        }
      },
      "endStake(bytes16)": {
        "params": {
          "_stakeID": "unique bytes sequence reference to the stake"
        }
      },
      "scrapeReward(bytes16)": {
        "params": {
          "_stakeID": "unique bytes sequence reference to the stake"
        }
      },
      "setGriseAddress(address)": {
        "details": "this method renounce griseGateKeeper access",
        "params": {
          "_immutableAddress": "contract address"
        }
      }
    },
    "version": 1
  },
  "userdoc": {
    "kind": "user",
    "methods": {
      "createStake(uint256,uint8,uint64)": {
        "notice": "A method for a staker to create a stake"
      },
      "createStakeWithETH(uint256,uint8,uint64)": {
        "notice": "allows to create stake directly with ETH if you don't have GRISE tokens method will convert and use amount returned from UNISWAP to open a stake"
      },
      "endStake(bytes16)": {
        "notice": "A method for a staker to remove a stake belonging to his address by providing ID of a stake."
      },
      "manualDailySnapshot()": {
        "notice": "allows volunteer to offload snapshots to save on gas during next start/end stake"
      },
      "manualDailySnapshotPoint(uint256)": {
        "notice": "allows volunteer to offload snapshots to save on gas during next start/end stake in case manualDailySnapshot reach block limit"
      },
      "scrapeReward(bytes16)": {
        "notice": "alloes to scrape Reward from active stake"
      },
      "setGriseAddress(address)": {
        "notice": "ability to define Grise contract"
      }
    },
    "version": 1
  }
}