{
  "contractName": "StakingToken",
  "abi": [
    {
      "anonymous": false,
      "inputs": [
        {
          "indexed": true,
          "internalType": "bytes16",
          "name": "stakeID",
          "type": "bytes16"
        },
        {
          "indexed": true,
          "internalType": "address",
          "name": "stakerAddress",
          "type": "address"
        },
        {
          "indexed": false,
          "internalType": "uint256",
          "name": "scrapeAmount",
          "type": "uint256"
        },
        {
          "indexed": false,
          "internalType": "uint256",
          "name": "scrapeDay",
          "type": "uint256"
        },
        {
          "indexed": false,
          "internalType": "uint256",
          "name": "currentGriseDay",
          "type": "uint256"
        }
      ],
      "name": "InterestScraped",
      "type": "event"
    },
    {
      "anonymous": false,
      "inputs": [
        {
          "indexed": true,
          "internalType": "uint256",
          "name": "currentGriseDay",
          "type": "uint256"
        },
        {
          "indexed": false,
          "internalType": "uint256",
          "name": "totalShares",
          "type": "uint256"
        },
        {
          "indexed": false,
          "internalType": "uint256",
          "name": "totalStaked",
          "type": "uint256"
        },
        {
          "indexed": false,
          "internalType": "uint256",
          "name": "shortTermshare",
          "type": "uint256"
        },
        {
          "indexed": false,
          "internalType": "uint256",
          "name": "MediumTermshare",
          "type": "uint256"
        },
        {
          "indexed": false,
          "internalType": "uint256",
          "name": "shareRate",
          "type": "uint256"
        }
      ],
      "name": "NewGlobals",
      "type": "event"
    },
    {
      "anonymous": false,
      "inputs": [
        {
          "indexed": true,
          "internalType": "bytes16",
          "name": "stakeID",
          "type": "bytes16"
        },
        {
          "indexed": true,
          "internalType": "address",
          "name": "stakerAddress",
          "type": "address"
        },
        {
          "indexed": false,
          "internalType": "uint256",
          "name": "stakeType",
          "type": "uint256"
        },
        {
          "indexed": false,
          "internalType": "uint256",
          "name": "stakedAmount",
          "type": "uint256"
        },
        {
          "indexed": false,
          "internalType": "uint256",
          "name": "stakesShares",
          "type": "uint256"
        },
        {
          "indexed": false,
          "internalType": "uint256",
          "name": "rewardAmount",
          "type": "uint256"
        },
        {
          "indexed": false,
          "internalType": "uint256",
          "name": "closeDay",
          "type": "uint256"
        },
        {
          "indexed": false,
          "internalType": "uint256",
          "name": "penaltyAmount",
          "type": "uint256"
        }
      ],
      "name": "StakeEnd",
      "type": "event"
    },
    {
      "anonymous": false,
      "inputs": [
        {
          "indexed": true,
          "internalType": "bytes16",
          "name": "stakeID",
          "type": "bytes16"
        },
        {
          "indexed": true,
          "internalType": "address",
          "name": "stakerAddress",
          "type": "address"
        },
        {
          "indexed": false,
          "internalType": "uint256",
          "name": "stakeType",
          "type": "uint256"
        },
        {
          "indexed": false,
          "internalType": "uint256",
          "name": "stakedAmount",
          "type": "uint256"
        },
        {
          "indexed": false,
          "internalType": "uint256",
          "name": "stakesShares",
          "type": "uint256"
        },
        {
          "indexed": false,
          "internalType": "uint256",
          "name": "startDay",
          "type": "uint256"
        },
        {
          "indexed": false,
          "internalType": "uint256",
          "name": "lockDays",
          "type": "uint256"
        }
      ],
      "name": "StakeStart",
      "type": "event"
    },
    {
      "inputs": [],
      "name": "GRISE_CONTRACT",
      "outputs": [
        {
          "internalType": "contract IGriseToken",
          "name": "",
          "type": "address"
        }
      ],
      "stateMutability": "view",
      "type": "function",
      "constant": true
    },
    {
      "inputs": [
        {
          "internalType": "uint256",
          "name": "",
          "type": "uint256"
        }
      ],
      "name": "MLTPenaltiesRewardPerShares",
      "outputs": [
        {
          "internalType": "uint256",
          "name": "",
          "type": "uint256"
        }
      ],
      "stateMutability": "view",
      "type": "function",
      "constant": true
    },
    {
      "inputs": [
        {
          "internalType": "uint256",
          "name": "",
          "type": "uint256"
        }
      ],
      "name": "ReservoirPenaltiesRewardPerShares",
      "outputs": [
        {
          "internalType": "uint256",
          "name": "",
          "type": "uint256"
        }
      ],
      "stateMutability": "view",
      "type": "function",
      "constant": true
    },
    {
      "inputs": [
        {
          "internalType": "uint256",
          "name": "",
          "type": "uint256"
        }
      ],
      "name": "STPenaltiesRewardPerShares",
      "outputs": [
        {
          "internalType": "uint256",
          "name": "",
          "type": "uint256"
        }
      ],
      "stateMutability": "view",
      "type": "function",
      "constant": true
    },
    {
      "inputs": [],
      "name": "UNISWAP_ROUTER",
      "outputs": [
        {
          "internalType": "contract IUniswapRouterV2",
          "name": "",
          "type": "address"
        }
      ],
      "stateMutability": "view",
      "type": "function",
      "constant": true
    },
    {
      "inputs": [],
      "name": "contractDeployer",
      "outputs": [
        {
          "internalType": "address",
          "name": "",
          "type": "address"
        }
      ],
      "stateMutability": "view",
      "type": "function",
      "constant": true
    },
    {
      "inputs": [
        {
          "internalType": "address",
          "name": "x",
          "type": "address"
        },
        {
          "internalType": "uint256",
          "name": "y",
          "type": "uint256"
        },
        {
          "internalType": "bytes1",
          "name": "z",
          "type": "bytes1"
        }
      ],
      "name": "generateID",
      "outputs": [
        {
          "internalType": "bytes16",
          "name": "b",
          "type": "bytes16"
        }
      ],
      "stateMutability": "pure",
      "type": "function",
      "constant": true
    },
    {
      "inputs": [],
      "name": "globals",
      "outputs": [
        {
          "internalType": "uint256",
          "name": "totalStaked",
          "type": "uint256"
        },
        {
          "internalType": "uint256",
          "name": "totalShares",
          "type": "uint256"
        },
        {
          "internalType": "uint256",
          "name": "STShares",
          "type": "uint256"
        },
        {
          "internalType": "uint256",
          "name": "MLTShares",
          "type": "uint256"
        },
        {
          "internalType": "uint256",
          "name": "sharePrice",
          "type": "uint256"
        },
        {
          "internalType": "uint256",
          "name": "currentGriseDay",
          "type": "uint256"
        }
      ],
      "stateMutability": "view",
      "type": "function",
      "constant": true
    },
    {
      "inputs": [],
      "name": "griseGateKeeper",
      "outputs": [
        {
          "internalType": "address",
          "name": "",
          "type": "address"
        }
      ],
      "stateMutability": "view",
      "type": "function",
      "constant": true
    },
    {
      "inputs": [
        {
          "internalType": "address",
          "name": "_staker",
          "type": "address"
        }
      ],
      "name": "latestStakeID",
      "outputs": [
        {
          "internalType": "bytes16",
          "name": "",
          "type": "bytes16"
        }
      ],
      "stateMutability": "view",
      "type": "function",
      "constant": true
    },
    {
      "inputs": [],
      "name": "manualDailySnapshot",
      "outputs": [],
      "stateMutability": "nonpayable",
      "type": "function"
    },
    {
      "inputs": [
        {
          "internalType": "uint256",
          "name": "_updateDay",
          "type": "uint256"
        }
      ],
      "name": "manualDailySnapshotPoint",
      "outputs": [],
      "stateMutability": "nonpayable",
      "type": "function"
    },
    {
      "inputs": [
        {
          "internalType": "uint256",
          "name": "",
          "type": "uint256"
        }
      ],
      "name": "scheduledToEnd",
      "outputs": [
        {
          "internalType": "uint256",
          "name": "",
          "type": "uint256"
        }
      ],
      "stateMutability": "view",
      "type": "function",
      "constant": true
    },
    {
      "inputs": [
        {
          "internalType": "address",
          "name": "",
          "type": "address"
        },
        {
          "internalType": "bytes16",
          "name": "",
          "type": "bytes16"
        }
      ],
      "name": "scrapes",
      "outputs": [
        {
          "internalType": "uint256",
          "name": "",
          "type": "uint256"
        }
      ],
      "stateMutability": "view",
      "type": "function",
      "constant": true
    },
    {
      "inputs": [
        {
          "internalType": "uint256",
          "name": "",
          "type": "uint256"
        }
      ],
      "name": "snapshots",
      "outputs": [
        {
          "internalType": "uint256",
          "name": "totalShares",
          "type": "uint256"
        },
        {
          "internalType": "uint256",
          "name": "inflationAmount",
          "type": "uint256"
        },
        {
          "internalType": "uint256",
          "name": "scheduledToEnd",
          "type": "uint256"
        }
      ],
      "stateMutability": "view",
      "type": "function",
      "constant": true
    },
    {
      "inputs": [
        {
          "internalType": "enum Declaration.StakeType",
          "name": "",
          "type": "uint8"
        },
        {
          "internalType": "uint8",
          "name": "",
          "type": "uint8"
        }
      ],
      "name": "stakeCaps",
      "outputs": [
        {
          "internalType": "uint256",
          "name": "minStakingAmount",
          "type": "uint256"
        },
        {
          "internalType": "uint256",
          "name": "stakingSlotCount",
          "type": "uint256"
        },
        {
          "internalType": "uint256",
          "name": "maxStakingSlot",
          "type": "uint256"
        },
        {
          "internalType": "uint256",
          "name": "totalStakeCount",
          "type": "uint256"
        }
      ],
      "stateMutability": "view",
      "type": "function",
      "constant": true
    },
    {
      "inputs": [
        {
          "internalType": "address",
          "name": "",
          "type": "address"
        }
      ],
      "name": "stakeCount",
      "outputs": [
        {
          "internalType": "uint256",
          "name": "",
          "type": "uint256"
        }
      ],
      "stateMutability": "view",
      "type": "function",
      "constant": true
    },
    {
      "inputs": [
        {
          "internalType": "enum Declaration.StakeType",
          "name": "",
          "type": "uint8"
        }
      ],
      "name": "stakeDayLimit",
      "outputs": [
        {
          "internalType": "uint256",
          "name": "minStakeDay",
          "type": "uint256"
        },
        {
          "internalType": "uint256",
          "name": "maxStakeDay",
          "type": "uint256"
        }
      ],
      "stateMutability": "view",
      "type": "function",
      "constant": true
    },
    {
      "inputs": [
        {
          "internalType": "address",
          "name": "",
          "type": "address"
        },
        {
          "internalType": "bytes16",
          "name": "",
          "type": "bytes16"
        }
      ],
      "name": "stakes",
      "outputs": [
        {
          "internalType": "uint256",
          "name": "stakesShares",
          "type": "uint256"
        },
        {
          "internalType": "uint256",
          "name": "stakedAmount",
          "type": "uint256"
        },
        {
          "internalType": "uint256",
          "name": "rewardAmount",
          "type": "uint256"
        },
        {
          "internalType": "enum Declaration.StakeType",
          "name": "stakeType",
          "type": "uint8"
        },
        {
          "internalType": "uint256",
          "name": "totalOccupiedSlot",
          "type": "uint256"
        },
        {
          "internalType": "uint256",
          "name": "startDay",
          "type": "uint256"
        },
        {
          "internalType": "uint256",
          "name": "lockDays",
          "type": "uint256"
        },
        {
          "internalType": "uint256",
          "name": "finalDay",
          "type": "uint256"
        },
        {
          "internalType": "uint256",
          "name": "closeDay",
          "type": "uint256"
        },
        {
          "internalType": "uint256",
          "name": "scrapeDay",
          "type": "uint256"
        },
        {
          "internalType": "bool",
          "name": "isActive",
          "type": "bool"
        }
      ],
      "stateMutability": "view",
      "type": "function",
      "constant": true
    },
    {
      "inputs": [
        {
          "internalType": "address",
          "name": "_staker",
          "type": "address"
        },
        {
          "internalType": "uint256",
          "name": "_offset",
          "type": "uint256"
        },
        {
          "internalType": "uint256",
          "name": "_length",
          "type": "uint256"
        }
      ],
      "name": "stakesPagination",
      "outputs": [
        {
          "internalType": "bytes16[]",
          "name": "_stakes",
          "type": "bytes16[]"
        }
      ],
      "stateMutability": "view",
      "type": "function",
      "constant": true
    },
    {
      "inputs": [],
      "name": "timeToClaimMonthlyReward",
      "outputs": [
        {
          "internalType": "uint256",
          "name": "_days",
          "type": "uint256"
        }
      ],
      "stateMutability": "view",
      "type": "function",
      "constant": true
    },
    {
      "inputs": [],
      "name": "timeToClaimWeeklyReward",
      "outputs": [
        {
          "internalType": "uint256",
          "name": "_days",
          "type": "uint256"
        }
      ],
      "stateMutability": "view",
      "type": "function",
      "constant": true
    },
    {
      "inputs": [
        {
          "internalType": "uint256",
          "name": "",
          "type": "uint256"
        }
      ],
      "name": "totalPenalties",
      "outputs": [
        {
          "internalType": "uint256",
          "name": "",
          "type": "uint256"
        }
      ],
      "stateMutability": "view",
      "type": "function",
      "constant": true
    },
    {
      "inputs": [
        {
          "internalType": "address",
          "name": "_immutableAddress",
          "type": "address"
        }
      ],
      "name": "setGriseAddress",
      "outputs": [],
      "stateMutability": "nonpayable",
      "type": "function"
    },
    {
      "inputs": [
        {
          "internalType": "enum Declaration.StakeType",
          "name": "_stakeType",
          "type": "uint8"
        },
        {
          "internalType": "uint64",
          "name": "_lockDays",
          "type": "uint64"
        }
      ],
      "name": "createStakeWithETH",
      "outputs": [
        {
          "internalType": "bytes16",
          "name": "",
          "type": "bytes16"
        },
        {
          "internalType": "uint256",
          "name": "",
          "type": "uint256"
        }
      ],
      "stateMutability": "payable",
      "type": "function",
      "payable": true
    },
    {
      "inputs": [
        {
          "internalType": "uint256",
          "name": "_stakedAmount",
          "type": "uint256"
        },
        {
          "internalType": "enum Declaration.StakeType",
          "name": "_stakeType",
          "type": "uint8"
        },
        {
          "internalType": "uint64",
          "name": "_lockDays",
          "type": "uint64"
        }
      ],
      "name": "createStake",
      "outputs": [
        {
          "internalType": "bytes16",
          "name": "",
          "type": "bytes16"
        },
        {
          "internalType": "uint256",
          "name": "",
          "type": "uint256"
        }
      ],
      "stateMutability": "nonpayable",
      "type": "function"
    },
    {
      "inputs": [
        {
          "internalType": "bytes16",
          "name": "_stakeID",
          "type": "bytes16"
        }
      ],
      "name": "endStake",
      "outputs": [
        {
          "internalType": "uint256",
          "name": "",
          "type": "uint256"
        }
      ],
      "stateMutability": "nonpayable",
      "type": "function"
    },
    {
      "inputs": [
        {
          "internalType": "bytes16",
          "name": "_stakeID",
          "type": "bytes16"
        }
      ],
      "name": "scrapeReward",
      "outputs": [
        {
          "internalType": "uint256",
          "name": "scrapeDay",
          "type": "uint256"
        },
        {
          "internalType": "uint256",
          "name": "scrapeAmount",
          "type": "uint256"
        },
        {
          "internalType": "uint256",
          "name": "remainingDays",
          "type": "uint256"
        }
      ],
      "stateMutability": "nonpayable",
      "type": "function"
    },
    {
      "inputs": [
        {
          "internalType": "address",
          "name": "_staker",
          "type": "address"
        },
        {
          "internalType": "bytes16",
          "name": "_stakeID",
          "type": "bytes16"
        }
      ],
      "name": "checkMatureStake",
      "outputs": [
        {
          "internalType": "bool",
          "name": "isMature",
          "type": "bool"
        }
      ],
      "stateMutability": "view",
      "type": "function",
      "constant": true
    },
    {
      "inputs": [
        {
          "internalType": "address",
          "name": "_staker",
          "type": "address"
        },
        {
          "internalType": "bytes16",
          "name": "_stakeID",
          "type": "bytes16"
        }
      ],
      "name": "checkStakeByID",
      "outputs": [
        {
          "internalType": "uint256",
          "name": "startDay",
          "type": "uint256"
        },
        {
          "internalType": "uint256",
          "name": "lockDays",
          "type": "uint256"
        },
        {
          "internalType": "uint256",
          "name": "finalDay",
          "type": "uint256"
        },
        {
          "internalType": "uint256",
          "name": "closeDay",
          "type": "uint256"
        },
        {
          "internalType": "uint256",
          "name": "scrapeDay",
          "type": "uint256"
        },
        {
          "internalType": "enum Declaration.StakeType",
          "name": "stakeType",
          "type": "uint8"
        },
        {
          "internalType": "uint256",
          "name": "stakedAmount",
          "type": "uint256"
        },
        {
          "internalType": "uint256",
          "name": "penaltyAmount",
          "type": "uint256"
        },
        {
          "internalType": "bool",
          "name": "isActive",
          "type": "bool"
        },
        {
          "internalType": "bool",
          "name": "isMature",
          "type": "bool"
        }
      ],
      "stateMutability": "view",
      "type": "function",
      "constant": true
    },
    {
      "inputs": [
        {
          "internalType": "address",
          "name": "_staker",
          "type": "address"
        },
        {
          "internalType": "bytes16",
          "name": "_stakeID",
          "type": "bytes16"
        }
      ],
      "name": "checkStakeRewards",
      "outputs": [
        {
          "internalType": "uint256",
          "name": "transcRewardAmount",
          "type": "uint256"
        },
        {
          "internalType": "uint256",
          "name": "penaltyRewardAmount",
          "type": "uint256"
        },
        {
          "internalType": "uint256",
          "name": "reservoirRewardAmount",
          "type": "uint256"
        }
      ],
      "stateMutability": "view",
      "type": "function",
      "constant": true
    },
    {
      "inputs": [
        {
          "internalType": "uint256",
          "name": "STSlotLimit",
          "type": "uint256"
        },
        {
          "internalType": "uint256",
          "name": "MT3MonthSlotLimit",
          "type": "uint256"
        },
        {
          "internalType": "uint256",
          "name": "MT6MonthSlotLimit",
          "type": "uint256"
        },
        {
          "internalType": "uint256",
          "name": "MT9MonthSlotLimit",
          "type": "uint256"
        },
        {
          "internalType": "uint256",
          "name": "LTSlotLimit",
          "type": "uint256"
        }
      ],
      "name": "updateStakingSlotLimit",
      "outputs": [],
      "stateMutability": "nonpayable",
      "type": "function"
    },
    {
      "inputs": [
        {
          "internalType": "address",
          "name": "_staker",
          "type": "address"
        },
        {
          "internalType": "bytes16",
          "name": "_stakeID",
          "type": "bytes16"
        }
      ],
      "name": "getTranscRewardAmount",
      "outputs": [
        {
          "internalType": "uint256",
          "name": "rewardAmount",
          "type": "uint256"
        }
      ],
      "stateMutability": "view",
      "type": "function",
      "constant": true
    },
    {
      "inputs": [
        {
          "internalType": "address",
          "name": "_staker",
          "type": "address"
        },
        {
          "internalType": "bytes16",
          "name": "_stakeID",
          "type": "bytes16"
        }
      ],
      "name": "getPenaltyRewardAmount",
      "outputs": [
        {
          "internalType": "uint256",
          "name": "rewardAmount",
          "type": "uint256"
        }
      ],
      "stateMutability": "view",
      "type": "function",
      "constant": true
    },
    {
      "inputs": [
        {
          "internalType": "address",
          "name": "_staker",
          "type": "address"
        },
        {
          "internalType": "bytes16",
          "name": "_stakeID",
          "type": "bytes16"
        }
      ],
      "name": "getReservoirRewardAmount",
      "outputs": [
        {
          "internalType": "uint256",
          "name": "rewardAmount",
          "type": "uint256"
        }
      ],
      "stateMutability": "view",
      "type": "function",
      "constant": true
    },
    {
      "inputs": [
        {
          "internalType": "address",
          "name": "_staker",
          "type": "address"
        },
        {
          "internalType": "bytes16",
          "name": "_stakeID",
          "type": "bytes16"
        }
      ],
      "name": "getInflationRewardAmount",
      "outputs": [
        {
          "internalType": "uint256",
          "name": "rewardAmount",
          "type": "uint256"
        }
      ],
      "stateMutability": "view",
      "type": "function",
      "constant": true
    },
    {
      "inputs": [],
      "name": "getSlotLeft",
      "outputs": [
        {
          "internalType": "uint256",
          "name": "STSlotLeft",
          "type": "uint256"
        },
        {
          "internalType": "uint256",
          "name": "MT3MonthSlotLeft",
          "type": "uint256"
        },
        {
          "internalType": "uint256",
          "name": "MT6MonthSlotLeft",
          "type": "uint256"
        },
        {
          "internalType": "uint256",
          "name": "MT9MonthSlotLeft",
          "type": "uint256"
        },
        {
          "internalType": "uint256",
          "name": "LTSlotLeft",
          "type": "uint256"
        }
      ],
      "stateMutability": "view",
      "type": "function",
      "constant": true
    },
    {
      "inputs": [],
      "name": "getStakeCount",
      "outputs": [
        {
          "internalType": "uint256",
          "name": "STStakeCount",
          "type": "uint256"
        },
        {
          "internalType": "uint256",
          "name": "MT3MonthStakeCount",
          "type": "uint256"
        },
        {
          "internalType": "uint256",
          "name": "MT6MonthStakeCount",
          "type": "uint256"
        },
        {
          "internalType": "uint256",
          "name": "MT9MonthStakeCount",
          "type": "uint256"
        },
        {
          "internalType": "uint256",
          "name": "LTStakeCount",
          "type": "uint256"
        }
      ],
      "stateMutability": "view",
      "type": "function",
      "constant": true
    },
    {
      "inputs": [],
      "name": "getTotalStakedToken",
      "outputs": [
        {
          "internalType": "uint256",
          "name": "",
          "type": "uint256"
        }
      ],
      "stateMutability": "view",
      "type": "function",
      "constant": true
    }
  ],
  "bytecode": "0x60806040523480156200001157600080fd5b5067016345785d8a000060006004018190555033600760006101000a81548173ffffffffffffffffffffffffffffffffffffffff021916908373ffffffffffffffffffffffffffffffffffffffff16021790555033600860006101000a81548173ffffffffffffffffffffffffffffffffffffffff021916908373ffffffffffffffffffffffffffffffffffffffff160217905550600760010261ffff1660116000806002811115620000c057fe5b6002811115620000cc57fe5b8152602001908152602001600020600001819055506007600c0261ffff1660116000806002811115620000fb57fe5b60028111156200010757fe5b815260200190815260200160002060010181905550600460070260030261ffff1660116000600160028111156200013a57fe5b60028111156200014657fe5b815260200190815260200160002060000181905550600460070260090261ffff1660116000600160028111156200017957fe5b60028111156200018557fe5b815260200190815260200160002060010181905550600c60046007020260010261ffff1660116000600280811115620001ba57fe5b6002811115620001c657fe5b815260200190815260200160002060000181905550600c600460070202600a0261ffff1660116000600280811115620001fb57fe5b60028111156200020757fe5b8152602001908152602001600020600101819055506012600a0a603202601260008060028111156200023557fe5b60028111156200024157fe5b815260200190815260200160002060008060ff168152602001908152602001600020600001819055506012600a0a60e10260126000600160028111156200028457fe5b60028111156200029057fe5b815260200190815260200160002060008060ff168152602001908152602001600020600001819055506012600a0a6064026012600060016002811115620002d357fe5b6002811115620002df57fe5b81526020019081526020016000206000600160ff168152602001908152602001600020600001819055506012600a0a60960260126000600160028111156200032357fe5b60028111156200032f57fe5b81526020019081526020016000206000600260ff168152602001908152602001600020600001819055506012600a0a606402601260006002808111156200037257fe5b60028111156200037e57fe5b815260200190815260200160002060008060ff168152602001908152602001600020600001819055506104e260126000806002811115620003bb57fe5b6002811115620003c757fe5b815260200190815260200160002060008060ff1681526020019081526020016000206002018190555060fa60126000600160028111156200040457fe5b60028111156200041057fe5b815260200190815260200160002060008060ff168152602001908152602001600020600201819055506101f460126000600160028111156200044e57fe5b60028111156200045a57fe5b81526020019081526020016000206000600160ff1681526020019081526020016000206002018190555061012c60126000600160028111156200049957fe5b6002811115620004a557fe5b81526020019081526020016000206000600260ff1681526020019081526020016000206002018190555061012c60126000600280811115620004e357fe5b6002811115620004ef57fe5b815260200190815260200160002060008060ff16815260200190815260200160002060020181905550615ec480620005286000396000f3fe6080604052600436106102305760003560e01c806399c2def41161012e578063c23d6564116100ab578063d82649201161006f578063d826492014610f5b578063d9439d4614610f9c578063e1d033e91461101e578063f0f4f323146110f3578063f9b8ec5c1461111e57610230565b8063c23d656414610db0578063c312452514610dff578063d2240af714610e4d578063d6565a2d14610e8e578063d825bbd714610eeb57610230565b8063ae3d1de2116100f2578063ae3d1de214610b37578063b2f6f7fe14610baf578063bba85e1f14610c31578063bd269d6b14610c80578063bf58f6d214610d0257610230565b806399c2def4146108e9578063a24bfc6e1461094b578063a4ed05501461098c578063a755691614610a5c578063a877d78814610ade57610230565b806335c203f9116101bc578063613fc9fd11610180578063613fc9fd1461074c5780636de4183714610763578063731750111461078e578063779e2e18146107d5578063971bc7cb1461085957610230565b806335c203f9146105bf57806340597e321461060e57806341425beb1461065f5780634233cf91146106ae578063423eea071461072157610230565b806320429fac1161020357806320429fac1461036357806323672d8a146103e55780632e4ab48a1461049f57806333060d90146104e657806335081db01461054b57610230565b80630c2b9f5b146102355780630d12a510146102705780630ef177ed146102d35780631a23725a14610314575b600080fd5b34801561024157600080fd5b5061026e6004803603602081101561025857600080fd5b81019080803590602001909291905050506111a8565b005b34801561027c57600080fd5b506102d1600480360360a081101561029357600080fd5b81019080803590602001909291908035906020019092919080359060200190929190803590602001909291908035906020019092919050505061127c565b005b3480156102df57600080fd5b506102e86114a4565b604051808273ffffffffffffffffffffffffffffffffffffffff16815260200191505060405180910390f35b34801561032057600080fd5b5061034d6004803603602081101561033757600080fd5b81019080803590602001909291905050506114ca565b6040518082815260200191505060405180910390f35b34801561036f57600080fd5b506103cf6004803603604081101561038657600080fd5b81019080803573ffffffffffffffffffffffffffffffffffffffff16906020019092919080356fffffffffffffffffffffffffffffffff191690602001909291905050506114e2565b6040518082815260200191505060405180910390f35b3480156103f157600080fd5b506104486004803603606081101561040857600080fd5b81019080803573ffffffffffffffffffffffffffffffffffffffff1690602001909291908035906020019092919080359060200190929190505050611507565b6040518080602001828103825283818151815260200191508051906020019060200280838360005b8381101561048b578082015181840152602081019050610470565b505050509050019250505060405180910390f35b3480156104ab57600080fd5b506104b461175e565b604051808681526020018581526020018481526020018381526020018281526020019550505050505060405180910390f35b3480156104f257600080fd5b506105356004803603602081101561050957600080fd5b81019080803573ffffffffffffffffffffffffffffffffffffffff1690602001909291905050506118c1565b6040518082815260200191505060405180910390f35b34801561055757600080fd5b506105946004803603604081101561056e57600080fd5b81019080803560ff169060200190929190803560ff1690602001909291905050506118d9565b6040518085815260200184815260200183815260200182815260200194505050505060405180910390f35b3480156105cb57600080fd5b506105f8600480360360208110156105e257600080fd5b8101908080359060200190929190505050611916565b6040518082815260200191505060405180910390f35b34801561061a57600080fd5b5061065d6004803603602081101561063157600080fd5b81019080803573ffffffffffffffffffffffffffffffffffffffff16906020019092919050505061192e565b005b34801561066b57600080fd5b506106986004803603602081101561068257600080fd5b8101908080359060200190929190505050611a5a565b6040518082815260200191505060405180910390f35b6106f1600480360360408110156106c457600080fd5b81019080803560ff169060200190929190803567ffffffffffffffff169060200190929190505050611a72565b60405180836fffffffffffffffffffffffffffffffff191681526020018281526020019250505060405180910390f35b34801561072d57600080fd5b50610736611d68565b6040518082815260200191505060405180910390f35b34801561075857600080fd5b50610761611d74565b005b34801561076f57600080fd5b50610778611d86565b6040518082815260200191505060405180910390f35b34801561079a57600080fd5b506107a3611de0565b604051808681526020018581526020018481526020018381526020018281526020019550505050505060405180910390f35b3480156107e157600080fd5b50610841600480360360408110156107f857600080fd5b81019080803573ffffffffffffffffffffffffffffffffffffffff16906020019092919080356fffffffffffffffffffffffffffffffff191690602001909291905050506120e2565b60405180821515815260200191505060405180910390f35b34801561086557600080fd5b506108c56004803603604081101561087c57600080fd5b81019080803573ffffffffffffffffffffffffffffffffffffffff16906020019092919080356fffffffffffffffffffffffffffffffff1916906020019092919050505061221d565b60405180848152602001838152602001828152602001935050505060405180910390f35b3480156108f557600080fd5b506109356004803603602081101561090c57600080fd5b8101908080356fffffffffffffffffffffffffffffffff1916906020019092919050505061224d565b6040518082815260200191505060405180910390f35b34801561095757600080fd5b50610960612753565b604051808273ffffffffffffffffffffffffffffffffffffffff16815260200191505060405180910390f35b34801561099857600080fd5b506109f8600480360360408110156109af57600080fd5b81019080803573ffffffffffffffffffffffffffffffffffffffff16906020019092919080356fffffffffffffffffffffffffffffffff19169060200190929190505050612779565b604051808b81526020018a8152602001898152602001888152602001878152602001866002811115610a2657fe5b8152602001858152602001848152602001831515815260200182151581526020019a505050505050505050505060405180910390f35b348015610a6857600080fd5b50610ac860048036036040811015610a7f57600080fd5b81019080803573ffffffffffffffffffffffffffffffffffffffff16906020019092919080356fffffffffffffffffffffffffffffffff19169060200190929190505050612911565b6040518082815260200191505060405180910390f35b348015610aea57600080fd5b50610b1a60048036036020811015610b0157600080fd5b81019080803560ff169060200190929190505050612a81565b604051808381526020018281526020019250505060405180910390f35b348015610b4357600080fd5b50610b8660048036036020811015610b5a57600080fd5b81019080803573ffffffffffffffffffffffffffffffffffffffff169060200190929190505050612aa5565b60405180826fffffffffffffffffffffffffffffffff1916815260200191505060405180910390f35b348015610bbb57600080fd5b50610c1b60048036036040811015610bd257600080fd5b81019080803573ffffffffffffffffffffffffffffffffffffffff16906020019092919080356fffffffffffffffffffffffffffffffff19169060200190929190505050612b60565b6040518082815260200191505060405180910390f35b348015610c3d57600080fd5b50610c6a60048036036020811015610c5457600080fd5b8101908080359060200190929190505050612cf8565b6040518082815260200191505060405180910390f35b348015610c8c57600080fd5b50610cec60048036036040811015610ca357600080fd5b81019080803573ffffffffffffffffffffffffffffffffffffffff16906020019092919080356fffffffffffffffffffffffffffffffff19169060200190929190505050612d10565b6040518082815260200191505060405180910390f35b348015610d0e57600080fd5b50610d8760048036036060811015610d2557600080fd5b81019080803573ffffffffffffffffffffffffffffffffffffffff1690602001909291908035906020019092919080357effffffffffffffffffffffffffffffffffffffffffffffffffffffffffffff19169060200190929190505050612eaa565b60405180826fffffffffffffffffffffffffffffffff1916815260200191505060405180910390f35b348015610dbc57600080fd5b50610de960048036036020811015610dd357600080fd5b8101908080359060200190929190505050612f32565b6040518082815260200191505060405180910390f35b348015610e0b57600080fd5b50610e14612f4a565b60405180878152602001868152602001858152602001848152602001838152602001828152602001965050505050505060405180910390f35b348015610e5957600080fd5b50610e62612f74565b604051808273ffffffffffffffffffffffffffffffffffffffff16815260200191505060405180910390f35b348015610e9a57600080fd5b50610ec760048036036020811015610eb157600080fd5b8101908080359060200190929190505050612f9a565b60405180848152602001838152602001828152602001935050505060405180910390f35b348015610ef757600080fd5b50610f3760048036036020811015610f0e57600080fd5b8101908080356fffffffffffffffffffffffffffffffff19169060200190929190505050612fc4565b60405180848152602001838152602001828152602001935050505060405180910390f35b348015610f6757600080fd5b50610f7061365b565b604051808273ffffffffffffffffffffffffffffffffffffffff16815260200191505060405180910390f35b348015610fa857600080fd5b5061100860048036036040811015610fbf57600080fd5b81019080803573ffffffffffffffffffffffffffffffffffffffff16906020019092919080356fffffffffffffffffffffffffffffffff19169060200190929190505050613673565b6040518082815260200191505060405180910390f35b34801561102a57600080fd5b5061108a6004803603604081101561104157600080fd5b81019080803573ffffffffffffffffffffffffffffffffffffffff16906020019092919080356fffffffffffffffffffffffffffffffff1916906020019092919050505061380d565b604051808c81526020018b81526020018a81526020018960028111156110ac57fe5b815260200188815260200187815260200186815260200185815260200184815260200183815260200182151581526020019b50505050505050505050505060405180910390f35b3480156110ff57600080fd5b5061110861388e565b6040518082815260200191505060405180910390f35b34801561112a57600080fd5b506111786004803603606081101561114157600080fd5b8101908080359060200190929190803560ff169060200190929190803567ffffffffffffffff1690602001909291905050506138f1565b60405180836fffffffffffffffffffffffffffffffff191681526020018281526020019250505060405180910390f35b6000811180156111be57506111bb61434c565b81105b611213576040517f08c379a0000000000000000000000000000000000000000000000000000000008152600401808060200182810382526026815260200180615dfc6026913960400191505060405180910390fd5b6000600501548111611270576040517f08c379a000000000000000000000000000000000000000000000000000000000815260040180806020018281038252602a815260200180615dd2602a913960400191505060405180910390fd5b61127981614400565b50565b600860009054906101000a900473ffffffffffffffffffffffffffffffffffffffff1673ffffffffffffffffffffffffffffffffffffffff163373ffffffffffffffffffffffffffffffffffffffff161461133f576040517f08c379a00000000000000000000000000000000000000000000000000000000081526004018080602001828103825260118152602001807f496e76616c6964204f7065726174696f6e00000000000000000000000000000081525060200191505060405180910390fd5b846012600080600281111561135057fe5b600281111561135b57fe5b815260200190815260200160002060008060ff1681526020019081526020016000206002018190555083601260006001600281111561139657fe5b60028111156113a157fe5b815260200190815260200160002060008060ff168152602001908152602001600020600201819055508260126000600160028111156113dc57fe5b60028111156113e757fe5b81526020019081526020016000206000600160ff1681526020019081526020016000206002018190555081601260006001600281111561142357fe5b600281111561142e57fe5b81526020019081526020016000206000600260ff16815260200190815260200160002060020181905550806012600060028081111561146957fe5b600281111561147457fe5b815260200190815260200160002060008060ff168152602001908152602001600020600201819055505050505050565b600760009054906101000a900473ffffffffffffffffffffffffffffffffffffffff1681565b600e6020528060005260406000206000915090505481565b600a602052816000526040600020602052806000526040600020600091509150505481565b606060008084118015611558575083600960008773ffffffffffffffffffffffffffffffffffffffff1673ffffffffffffffffffffffffffffffffffffffff16815260200190815260200160002054115b6115a157600960008673ffffffffffffffffffffffffffffffffffffffff1673ffffffffffffffffffffffffffffffffffffffff168152602001908152602001600020546115e4565b83600960008773ffffffffffffffffffffffffffffffffffffffff1673ffffffffffffffffffffffffffffffffffffffff16815260200190815260200160002054035b9050600080841180156115f657508382115b611601576000611605565b8382035b9050600081830367ffffffffffffffff8111801561162257600080fd5b506040519080825280602002602001820160405280156116515781602001602082028036833780820191505090505b50935060008390505b828111156117535760006116768960018403600160f81b612eaa565b90506000600b60008b73ffffffffffffffffffffffffffffffffffffffff1673ffffffffffffffffffffffffffffffffffffffff1681526020019081526020016000206000836fffffffffffffffffffffffffffffffff19166fffffffffffffffffffffffffffffffff19168152602001908152602001600020600101541115611744578086848151811061170757fe5b60200260200101906fffffffffffffffffffffffffffffffff191690816fffffffffffffffffffffffffffffffff19168152505082806001019350505b5080806001900391505061165a565b505050509392505050565b60008060008060006012600080600281111561177657fe5b600281111561178157fe5b815260200190815260200160002060008060ff16815260200190815260200160002060030154945060126000600160028111156117ba57fe5b60028111156117c557fe5b815260200190815260200160002060008060ff16815260200190815260200160002060030154935060126000600160028111156117fe57fe5b600281111561180957fe5b81526020019081526020016000206000600160ff168152602001908152602001600020600301549250601260006001600281111561184357fe5b600281111561184e57fe5b81526020019081526020016000206000600260ff1681526020019081526020016000206003015491506012600060028081111561188757fe5b600281111561189257fe5b815260200190815260200160002060008060ff1681526020019081526020016000206003015490509091929394565b60096020528060005260406000206000915090505481565b6012602052816000526040600020602052806000526040600020600091509150508060000154908060010154908060020154908060030154905084565b60106020528060005260406000206000915090505481565b3373ffffffffffffffffffffffffffffffffffffffff16600760009054906101000a900473ffffffffffffffffffffffffffffffffffffffff1673ffffffffffffffffffffffffffffffffffffffff16146119d4576040517f08c379a0000000000000000000000000000000000000000000000000000000008152600401808060200182810382526023815260200180615d486023913960400191505060405180910390fd5b80600660006101000a81548173ffffffffffffffffffffffffffffffffffffffff021916908373ffffffffffffffffffffffffffffffffffffffff1602179055506000600760006101000a81548173ffffffffffffffffffffffffffffffffffffffff021916908373ffffffffffffffffffffffffffffffffffffffff16021790555050565b600f6020528060005260406000206000915090505481565b6000806000600267ffffffffffffffff81118015611a8f57600080fd5b50604051908082528060200260200182016040528015611abe5781602001602082028036833780820191505090505b50905073eb59fe75ac86df3997a990ede100b90ddcf9a82681600081518110611ae357fe5b602002602001019073ffffffffffffffffffffffffffffffffffffffff16908173ffffffffffffffffffffffffffffffffffffffff1681525050600660009054906101000a900473ffffffffffffffffffffffffffffffffffffffff1681600181518110611b4d57fe5b602002602001019073ffffffffffffffffffffffffffffffffffffffff16908173ffffffffffffffffffffffffffffffffffffffff168152505060007357079e0d0657890218c630da5248a1103a1b4ad073ffffffffffffffffffffffffffffffffffffffff16637ff36ab53460018533611c2042016040518663ffffffff1660e01b815260040180858152602001806020018473ffffffffffffffffffffffffffffffffffffffff168152602001838152602001828103825285818151815260200191508051906020019060200280838360005b83811015611c3d578082015181840152602081019050611c22565b50505050905001955050505050506000604051808303818588803b158015611c6457600080fd5b505af1158015611c78573d6000803e3d6000fd5b50505050506040513d6000823e3d601f19601f820116820180604052506020811015611ca357600080fd5b8101908080516040519392919084640100000000821115611cc357600080fd5b83820191506020820185811115611cd957600080fd5b8251866020820283011164010000000082111715611cf657600080fd5b8083526020830192505050908051906020019060200280838360005b83811015611d2d578082015181840152602081019050611d12565b505050509050016040525050509050611d5b81600181518110611d4c57fe5b602002602001015187876138f1565b9350935050509250929050565b60008060000154905090565b611d84611d7f61434c565b614400565b565b600080611da8600761ffff16611d9a61434c565b61461490919063ffffffff16565b11611db4576000611ddb565b611dd3600761ffff16611dc561434c565b61461490919063ffffffff16565b600761ffff16035b905090565b6000806000806000611e7b60126000806002811115611dfb57fe5b6002811115611e0657fe5b815260200190815260200160002060008060ff1681526020019081526020016000206001015460126000806002811115611e3c57fe5b6002811115611e4757fe5b815260200190815260200160002060008060ff1681526020019081526020016000206002015461463590919063ffffffff16565b9450611f126012600060016002811115611e9157fe5b6002811115611e9c57fe5b815260200190815260200160002060008060ff168152602001908152602001600020600101546012600060016002811115611ed357fe5b6002811115611ede57fe5b815260200190815260200160002060008060ff1681526020019081526020016000206002015461463590919063ffffffff16565b9350611fab6012600060016002811115611f2857fe5b6002811115611f3357fe5b81526020019081526020016000206000600160ff168152602001908152602001600020600101546012600060016002811115611f6b57fe5b6002811115611f7657fe5b81526020019081526020016000206000600160ff1681526020019081526020016000206002015461463590919063ffffffff16565b92506120446012600060016002811115611fc157fe5b6002811115611fcc57fe5b81526020019081526020016000206000600260ff16815260200190815260200160002060010154601260006001600281111561200457fe5b600281111561200f57fe5b81526020019081526020016000206000600260ff1681526020019081526020016000206002015461463590919063ffffffff16565b91506120d96012600060028081111561205957fe5b600281111561206457fe5b815260200190815260200160002060008060ff168152602001908152602001600020600101546012600060028081111561209a57fe5b60028111156120a557fe5b815260200190815260200160002060008060ff1681526020019081526020016000206002015461463590919063ffffffff16565b90509091929394565b600080600b60008573ffffffffffffffffffffffffffffffffffffffff1673ffffffffffffffffffffffffffffffffffffffff1681526020019081526020016000206000846fffffffffffffffffffffffffffffffff19166fffffffffffffffffffffffffffffffff19168152602001908152602001600020604051806101600160405290816000820154815260200160018201548152602001600282015481526020016003820160009054906101000a900460ff1660028111156121a357fe5b60028111156121ae57fe5b8152602001600482015481526020016005820154815260200160068201548152602001600782015481526020016008820154815260200160098201548152602001600a820160009054906101000a900460ff161515151581525050905061221481614655565b91505092915050565b600080600061222c8585612d10565b92506122388585613673565b91506122448585612b60565b90509250925092565b600061225f61225a61434c565b614400565b60008061226c338561468c565b9150604051806101600160405290816000820154815260200160018201548152602001600282015481526020016003820160009054906101000a900460ff1660028111156122b657fe5b60028111156122c157fe5b8152602001600482015481526020016005820154815260200160068201548152602001600782015481526020016008820154815260200160098201548152602001600a820160009054906101000a900460ff16151515158152505091506123408260600151600281111561233157fe5b83602001518460000151614b1f565b6123528260e001518360000151614bcf565b61236182610100015182614c9e565b60006001600281111561237057fe5b8360600151600281111561238057fe5b14156123b05760a88360c00151141561239c57600190506123af565b60fc8360c0015114156123ae57600290505b5b5b61240e836080015160126000866060015160028111156123cc57fe5b60028111156123d757fe5b815260200190815260200160002060008460ff1660ff1681526020019081526020016000206001015461463590919063ffffffff16565b601260008560600151600281111561242257fe5b600281111561242d57fe5b815260200190815260200160002060008360ff1660ff16815260200190815260200160002060010181905550600660009054906101000a900473ffffffffffffffffffffffffffffffffffffffff1673ffffffffffffffffffffffffffffffffffffffff16633f5e932b336040518263ffffffff1660e01b8152600401808273ffffffffffffffffffffffffffffffffffffffff168152602001915050600060405180830381600087803b1580156124e457600080fd5b505af11580156124f8573d6000803e3d6000fd5b50505050600660009054906101000a900473ffffffffffffffffffffffffffffffffffffffff1673ffffffffffffffffffffffffffffffffffffffff16637f0f402660008001546040518263ffffffff1660e01b815260040180828152602001915050600060405180830381600087803b15801561257557600080fd5b505af1158015612589573d6000803e3d6000fd5b505050506000600281111561259a57fe5b836060015160028111156125aa57fe5b1461264257600660009054906101000a900473ffffffffffffffffffffffffffffffffffffffff1673ffffffffffffffffffffffffffffffffffffffff1663cdbf54ed6000600301546040518263ffffffff1660e01b815260040180828152602001915050600060405180830381600087803b15801561262957600080fd5b505af115801561263d573d6000803e3d6000fd5b505050505b601260008460600151600281111561265657fe5b600281111561266157fe5b815260200190815260200160002060008260ff1660ff16815260200190815260200160002060030160008154809291906001900391905055503373ffffffffffffffffffffffffffffffffffffffff16856fffffffffffffffffffffffffffffffff19167f7d2aa23943a8121d5122c6481dda214748a2fa700a81dc1aee19ba3642fe5fbd856060015160028111156126f657fe5b8660200151876000015188604001518961010001518960405180878152602001868152602001858152602001848152602001838152602001828152602001965050505050505060405180910390a382604001519350505050919050565b600860009054906101000a900473ffffffffffffffffffffffffffffffffffffffff1681565b6000806000806000806000806000806000600b60008e73ffffffffffffffffffffffffffffffffffffffff1673ffffffffffffffffffffffffffffffffffffffff16815260200190815260200160002060008d6fffffffffffffffffffffffffffffffff19166fffffffffffffffffffffffffffffffff19168152602001908152602001600020604051806101600160405290816000820154815260200160018201548152602001600282015481526020016003820160009054906101000a900460ff16600281111561284857fe5b600281111561285357fe5b8152602001600482015481526020016005820154815260200160068201548152602001600782015481526020016008820154815260200160098201548152602001600a820160009054906101000a900460ff16151515158152505090508060a001519a508060c0015199508060e0015198508061010001519750806101200151965080606001519550806020015194506128ec81614f18565b935080610140015192506128ff81614655565b9150509295989b9194979a5092959850565b600080600b60008573ffffffffffffffffffffffffffffffffffffffff1673ffffffffffffffffffffffffffffffffffffffff1681526020019081526020016000206000846fffffffffffffffffffffffffffffffff19166fffffffffffffffffffffffffffffffff19168152602001908152602001600020604051806101600160405290816000820154815260200160018201548152602001600282015481526020016003820160009054906101000a900460ff1660028111156129d257fe5b60028111156129dd57fe5b8152602001600482015481526020016005820154815260200160068201548152602001600782015481526020016008820154815260200160098201548152602001600a820160009054906101000a900460ff16151515158152505090508061014001518015612a525750612a5081614f4f565b155b15612a7a57612a7781600001518260a00151612a6d84614f84565b8460600151614fad565b91505b5092915050565b60116020528060005260406000206000915090508060000154908060010154905082565b600080600960008473ffffffffffffffffffffffffffffffffffffffff1673ffffffffffffffffffffffffffffffffffffffff1681526020019081526020016000205414612b5357612b4e82612b446001600960008773ffffffffffffffffffffffffffffffffffffffff1673ffffffffffffffffffffffffffffffffffffffff1681526020019081526020016000205461463590919063ffffffff16565b600160f81b612eaa565b612b59565b600060801b5b9050919050565b600080600b60008573ffffffffffffffffffffffffffffffffffffffff1673ffffffffffffffffffffffffffffffffffffffff1681526020019081526020016000206000846fffffffffffffffffffffffffffffffff19166fffffffffffffffffffffffffffffffff19168152602001908152602001600020604051806101600160405290816000820154815260200160018201548152602001600282015481526020016003820160009054906101000a900460ff166002811115612c2157fe5b6002811115612c2c57fe5b8152602001600482015481526020016005820154815260200160068201548152602001600782015481526020016008820154815260200160098201548152602001600a820160009054906101000a900460ff1615151515815250509050612c92816150d9565b15612cf1576000612cd4612cbe600460070261ffff16612cb061434c565b61461490919063ffffffff16565b612cc661434c565b61463590919063ffffffff16565b9050612ced8260000151612ce784615147565b8361516d565b9250505b5092915050565b600d6020528060005260406000206000915090505481565b600080600b60008573ffffffffffffffffffffffffffffffffffffffff1673ffffffffffffffffffffffffffffffffffffffff1681526020019081526020016000206000846fffffffffffffffffffffffffffffffff19166fffffffffffffffffffffffffffffffff19168152602001908152602001600020604051806101600160405290816000820154815260200160018201548152602001600282015481526020016003820160009054906101000a900460ff166002811115612dd157fe5b6002811115612ddc57fe5b8152602001600482015481526020016005820154815260200160068201548152602001600782015481526020016008820154815260200160098201548152602001600a820160009054906101000a900460ff1615151515815250509050612e4281615298565b15612ea3576000612e81612e6b600761ffff16612e5d61434c565b61461490919063ffffffff16565b612e7361434c565b61463590919063ffffffff16565b9050612e9f8260000151612e9484615147565b838560600151615303565b9250505b5092915050565b6000612f29848484604051602001808473ffffffffffffffffffffffffffffffffffffffff1660601b8152601401838152602001827effffffffffffffffffffffffffffffffffffffffffffffffffffffffffffff1916815260010193505050506040516020818303038152906040528051906020012060001c615524565b90509392505050565b600c6020528060005260406000206000915090505481565b60008060000154908060010154908060020154908060030154908060040154908060050154905086565b600660009054906101000a900473ffffffffffffffffffffffffffffffffffffffff1681565b60136020528060005260406000206000915090508060000154908060010154908060020154905083565b6000806000612fd9612fd461434c565b614400565b600b60003373ffffffffffffffffffffffffffffffffffffffff1673ffffffffffffffffffffffffffffffffffffffff1681526020019081526020016000206000856fffffffffffffffffffffffffffffffff19166fffffffffffffffffffffffffffffffff19168152602001908152602001600020600a0160009054906101000a900460ff166130d2576040517f08c379a000000000000000000000000000000000000000000000000000000000815260040180806020018281038252601a8152602001807f47524953453a204e6f7420616e20616374697665207374616b6500000000000081525060200191505060405180910390fd5b6000600b60003373ffffffffffffffffffffffffffffffffffffffff1673ffffffffffffffffffffffffffffffffffffffff1681526020019081526020016000206000866fffffffffffffffffffffffffffffffff19166fffffffffffffffffffffffffffffffff19168152602001908152602001600020604051806101600160405290816000820154815260200160018201548152602001600282015481526020016003820160009054906101000a900460ff16600281111561319257fe5b600281111561319d57fe5b8152602001600482015481526020016005820154815260200160068201548152602001600782015481526020016008820154815260200160098201548152602001600a820160009054906101000a900460ff1615151515815250509050600061322f600761ffff166132218460a0015160006005015461463590919063ffffffff16565b61553190919063ffffffff16565b11613285576040517f08c379a000000000000000000000000000000000000000000000000000000000815260040180806020018281038252602e815260200180615e22602e913960400191505060405180910390fd5b61328e81614f84565b93508060e0015184106132a157836132cc565b6132cb6132bc600761ffff168661461490919063ffffffff16565b8561463590919063ffffffff16565b5b93506132d83386612d10565b92506132e43386613673565b830192506132f23386612b60565b830192506132ff8161555d565b915061338a83600a60003373ffffffffffffffffffffffffffffffffffffffff1673ffffffffffffffffffffffffffffffffffffffff1681526020019081526020016000206000886fffffffffffffffffffffffffffffffff19166fffffffffffffffffffffffffffffffff19168152602001908152602001600020546155a490919063ffffffff16565b600a60003373ffffffffffffffffffffffffffffffffffffffff1673ffffffffffffffffffffffffffffffffffffffff1681526020019081526020016000206000876fffffffffffffffffffffffffffffffff19166fffffffffffffffffffffffffffffffff1916815260200190815260200160002081905550838161012001818152505080600b60003373ffffffffffffffffffffffffffffffffffffffff1673ffffffffffffffffffffffffffffffffffffffff1681526020019081526020016000206000876fffffffffffffffffffffffffffffffff19166fffffffffffffffffffffffffffffffff1916815260200190815260200160002060008201518160000155602082015181600101556040820151816002015560608201518160030160006101000a81548160ff021916908360028111156134c857fe5b02179055506080820151816004015560a0820151816005015560c0820151816006015560e082015181600701556101008201518160080155610120820151816009015561014082015181600a0160006101000a81548160ff021916908315150217905550905050600660009054906101000a900473ffffffffffffffffffffffffffffffffffffffff1673ffffffffffffffffffffffffffffffffffffffff1663e742806a33856040518363ffffffff1660e01b8152600401808373ffffffffffffffffffffffffffffffffffffffff16815260200182815260200192505050600060405180830381600087803b1580156135c257600080fd5b505af11580156135d6573d6000803e3d6000fd5b505050503373ffffffffffffffffffffffffffffffffffffffff16856fffffffffffffffffffffffffffffffff19167f83a5aa90d2e7dc9824c0d0fc4ea1b5ac46d1ecae96a67c2e5e9e35307bba1f76858761363061434c565b60405180848152602001838152602001828152602001935050505060405180910390a3509193909250565b7357079e0d0657890218c630da5248a1103a1b4ad081565b600080600b60008573ffffffffffffffffffffffffffffffffffffffff1673ffffffffffffffffffffffffffffffffffffffff1681526020019081526020016000206000846fffffffffffffffffffffffffffffffff19166fffffffffffffffffffffffffffffffff19168152602001908152602001600020604051806101600160405290816000820154815260200160018201548152602001600282015481526020016003820160009054906101000a900460ff16600281111561373457fe5b600281111561373f57fe5b8152602001600482015481526020016005820154815260200160068201548152602001600782015481526020016008820154815260200160098201548152602001600a820160009054906101000a900460ff16151515158152505090506137a581615298565b156138065760006137e46137ce600761ffff166137c061434c565b61461490919063ffffffff16565b6137d661434c565b61463590919063ffffffff16565b905061380282600001516137f784615147565b8385606001516155c3565b9250505b5092915050565b600b602052816000526040600020602052806000526040600020600091509150508060000154908060010154908060020154908060030160009054906101000a900460ff169080600401549080600501549080600601549080600701549080600801549080600901549080600a0160009054906101000a900460ff1690508b565b6000806138b3600460070261ffff166138a561434c565b61461490919063ffffffff16565b116138bf5760006138ec565b6138e1600460070261ffff166138d361434c565b61461490919063ffffffff16565b600460070261ffff16035b905090565b6000806139046138ff61434c565b614400565b60006001600281111561391357fe5b85600281111561391f57fe5b141561395b5760a88467ffffffffffffffff161415613941576001905061395a565b60fc8467ffffffffffffffff16141561395957600290505b5b5b6000600761ffff168567ffffffffffffffff168161397557fe5b0667ffffffffffffffff161480156139c357506011600086600281111561399857fe5b60028111156139a357fe5b8152602001908152602001600020600001548467ffffffffffffffff1610155b8015613a055750601160008660028111156139da57fe5b60028111156139e557fe5b8152602001908152602001600020600101548467ffffffffffffffff1611155b613a77576040517f08c379a000000000000000000000000000000000000000000000000000000000815260040180806020018281038252601c8152602001807f47524953453a207374616b65206973206e6f7420696e2072616e67650000000081525060200191505060405180910390fd5b60126000866002811115613a8757fe5b6002811115613a9257fe5b815260200190815260200160002060008260ff1660ff168152602001908152602001600020600001548610158015613b1f57506000613b1d60126000886002811115613ada57fe5b6002811115613ae557fe5b815260200190815260200160002060008460ff1660ff168152602001908152602001600020600001548861461490919063ffffffff16565b145b613b74576040517f08c379a000000000000000000000000000000000000000000000000000000000815260040180806020018281038252603e815260200180615d94603e913960400191505060405180910390fd5b60126000866002811115613b8457fe5b6002811115613b8f57fe5b815260200190815260200160002060008260ff1660ff1681526020019081526020016000206002015460126000876002811115613bc857fe5b6002811115613bd357fe5b815260200190815260200160002060008360ff1660ff168152602001908152602001600020600101541115613c53576040517f08c379a000000000000000000000000000000000000000000000000000000000815260040180806020018281038252603f815260200180615e50603f913960400191505060405180910390fd5b600080613cac60126000896002811115613c6957fe5b6002811115613c7457fe5b815260200190815260200160002060008560ff1660ff168152602001908152602001600020600001548961461490919063ffffffff16565b1415613d0d57613d0860126000886002811115613cc557fe5b6002811115613cd057fe5b815260200190815260200160002060008460ff1660ff168152602001908152602001600020600001548861553190919063ffffffff16565b613d67565b6001613d6560126000896002811115613d2257fe5b6002811115613d2d57fe5b815260200190815260200160002060008560ff1660ff168152602001908152602001600020600001548961553190919063ffffffff16565b015b905060126000876002811115613d7957fe5b6002811115613d8457fe5b815260200190815260200160002060008360ff1660ff168152602001908152602001600020600201548160126000896002811115613dbe57fe5b6002811115613dc957fe5b815260200190815260200160002060008560ff1660ff16815260200190815260200160002060010154011115613e4a576040517f08c379a000000000000000000000000000000000000000000000000000000000815260040180806020018281038252603f815260200180615e50603f913960400191505060405180910390fd5b613ea08160126000896002811115613e5e57fe5b6002811115613e6957fe5b815260200190815260200160002060008560ff1660ff168152602001908152602001600020600101546155a490919063ffffffff16565b60126000886002811115613eb057fe5b6002811115613ebb57fe5b815260200190815260200160002060008460ff1660ff168152602001908152602001600020600101819055506000806000613ef9338b8a8c88615661565b92509250925082600b60003373ffffffffffffffffffffffffffffffffffffffff1673ffffffffffffffffffffffffffffffffffffffff1681526020019081526020016000206000846fffffffffffffffffffffffffffffffff19166fffffffffffffffffffffffffffffffff1916815260200190815260200160002060008201518160000155602082015181600101556040820151816002015560608201518160030160006101000a81548160ff02191690836002811115613fb857fe5b02179055506080820151816004015560a0820151816005015560c0820151816006015560e082015181600701556101008201518160080155610120820151816009015561014082015181600a0160006101000a81548160ff021916908315150217905550905050614028336158ea565b61404a8360600151600281111561403b57fe5b84602001518560000151615973565b61405c8360e001518460000151615a14565b600660009054906101000a900473ffffffffffffffffffffffffffffffffffffffff1673ffffffffffffffffffffffffffffffffffffffff1663a29a43bb336040518263ffffffff1660e01b8152600401808273ffffffffffffffffffffffffffffffffffffffff168152602001915050600060405180830381600087803b1580156140e757600080fd5b505af11580156140fb573d6000803e3d6000fd5b50505050600660009054906101000a900473ffffffffffffffffffffffffffffffffffffffff1673ffffffffffffffffffffffffffffffffffffffff16637f0f402660008001546040518263ffffffff1660e01b815260040180828152602001915050600060405180830381600087803b15801561417857600080fd5b505af115801561418c573d6000803e3d6000fd5b505050506000600281111561419d57fe5b836060015160028111156141ad57fe5b1461424557600660009054906101000a900473ffffffffffffffffffffffffffffffffffffffff1673ffffffffffffffffffffffffffffffffffffffff1663cdbf54ed6000600301546040518263ffffffff1660e01b815260040180828152602001915050600060405180830381600087803b15801561422c57600080fd5b505af1158015614240573d6000803e3d6000fd5b505050505b601260008a600281111561425557fe5b600281111561426057fe5b815260200190815260200160002060008660ff1660ff168152602001908152602001600020600301600081548092919060010191905055503373ffffffffffffffffffffffffffffffffffffffff16826fffffffffffffffffffffffffffffffff19167f49262233f26cea870204363f8be998bf96bee458a06012e0d270b94f0c2da14e856060015160028111156142f457fe5b866020015187600001518860a001518960c00151604051808681526020018581526020018481526020018381526020018281526020019550505050505060405180910390a38181965096505050505050935093915050565b6000600660009054906101000a900473ffffffffffffffffffffffffffffffffffffffff1673ffffffffffffffffffffffffffffffffffffffff1663c2889b576040518163ffffffff1660e01b815260040160206040518083038186803b1580156143b657600080fd5b505afa1580156143ca573d6000803e3d6000fd5b505050506040513d60208110156143e057600080fd5b810190808051906020019092919050505067ffffffffffffffff16905090565b600080600080015490506000806005015490505b8381101561460e576013600060018303815260200190815260200160002060020154600c600083815260200190815260200160002054019250600060136000838152602001908152602001600020604051806060016040529081600082015481526020016001820154815260200160028201548152505090508381604001818152505083600060010154116144aa5760006144b3565b83600060010154035b8160000181815250506145ad61457684600660009054906101000a900473ffffffffffffffffffffffffffffffffffffffff1673ffffffffffffffffffffffffffffffffffffffff166318160ddd6040518163ffffffff1660e01b815260040160206040518083038186803b15801561452b57600080fd5b505afa15801561453f573d6000803e3d6000fd5b505050506040513d602081101561455557600080fd5b810190808051906020019092919050505063036fcd3d63ffffffff16615a55565b61459f670de0b6b3a764000067ffffffffffffffff168460000151615a7090919063ffffffff16565b61553190919063ffffffff16565b8160200181815250508060136000848152602001908152602001600020600082015181600001556020820151816001015560408201518160020155905050600060050160008154809291906001019190505550508080600101915050614414565b50505050565b60008082141561462357600080fd5b81838161462c57fe5b06905092915050565b60008282111561464457600080fd5b600082840390508091505092915050565b600080826101000151116146775761466b61434c565b8260e001511115614685565b8161010001518260e0015111155b9050919050565b600080600b60008573ffffffffffffffffffffffffffffffffffffffff1673ffffffffffffffffffffffffffffffffffffffff1681526020019081526020016000206000846fffffffffffffffffffffffffffffffff19166fffffffffffffffffffffffffffffffff19168152602001908152602001600020600a0160009054906101000a900460ff16614788576040517f08c379a000000000000000000000000000000000000000000000000000000000815260040180806020018281038252601a8152602001807f47524953453a204e6f7420616e20616374697665207374616b6500000000000081525060200191505060405180910390fd5b600b60008573ffffffffffffffffffffffffffffffffffffffff1673ffffffffffffffffffffffffffffffffffffffff1681526020019081526020016000206000846fffffffffffffffffffffffffffffffff19166fffffffffffffffffffffffffffffffff19168152602001908152602001600020915061480861434c565b82600801819055506148c782604051806101600160405290816000820154815260200160018201548152602001600282015481526020016003820160009054906101000a900460ff16600281111561485c57fe5b600281111561486757fe5b8152602001600482015481526020016005820154815260200160068201548152602001600782015481526020016008820154815260200160098201548152602001600a820160009054906101000a900460ff161515151581525050615ab5565b826002018190555061498682604051806101600160405290816000820154815260200160018201548152602001600282015481526020016003820160009054906101000a900460ff16600281111561491b57fe5b600281111561492657fe5b8152602001600482015481526020016005820154815260200160068201548152602001600782015481526020016008820154815260200160098201548152602001600a820160009054906101000a900460ff161515151581525050614f18565b9050600082600a0160006101000a81548160ff021916908315150217905550600660009054906101000a900473ffffffffffffffffffffffffffffffffffffffff1673ffffffffffffffffffffffffffffffffffffffff1663e742806a85838560010154116149f65760006149fe565b838560010154035b6040518363ffffffff1660e01b8152600401808373ffffffffffffffffffffffffffffffffffffffff16815260200182815260200192505050600060405180830381600087803b158015614a5157600080fd5b505af1158015614a65573d6000803e3d6000fd5b50505050600660009054906101000a900473ffffffffffffffffffffffffffffffffffffffff1673ffffffffffffffffffffffffffffffffffffffff1663e742806a8584600201546040518363ffffffff1660e01b8152600401808373ffffffffffffffffffffffffffffffffffffffff16815260200182815260200192505050600060405180830381600087803b158015614b0057600080fd5b505af1158015614b14573d6000803e3d6000fd5b505050509250929050565b81600080015411614b31576000614b39565b816000800154035b60008001819055508060006001015411614b54576000614b5d565b80600060010154035b60006001018190555060008360ff161115614b9c578060006003015411614b85576000614b8e565b80600060030154035b600060030181905550614bc2565b8060006002015411614baf576000614bb8565b80600060020154035b6000600201819055505b614bca615b51565b505050565b614bd882615bc8565b15614c315780600c60008481526020019081526020016000205411614bfe576000614c15565b80600c600084815260200190815260200160002054035b600c600084815260200190815260200160002081905550614c9a565b60006001614c3d61434c565b03905081601360008381526020019081526020016000206002015411614c64576000614c7e565b816013600083815260200190815260200160002060020154035b6013600083815260200190815260200160002060020181905550505b5050565b6000811115614f1457614ccd81600d6000858152602001908152602001600020546155a490919063ffffffff16565b600d600084815260200190815260200160002081905550614d2e600060030154614d2061271063ffffffff16614d12610a0261ffff1686615a7090919063ffffffff16565b61553190919063ffffffff16565b61553190919063ffffffff16565b600e600084815260200190815260200160002060008282540192505081905550614d98600060020154614d8a61271063ffffffff16614d7c61051f61ffff1686615a7090919063ffffffff16565b61553190919063ffffffff16565b61553190919063ffffffff16565b600f600084815260200190815260200160002060008282540192505081905550614e02600060030154614df461271063ffffffff16614de6610d6361ffff1686615a7090919063ffffffff16565b61553190919063ffffffff16565b61553190919063ffffffff16565b6010600084815260200190815260200160002060008282540192505081905550600660009054906101000a900473ffffffffffffffffffffffffffffffffffffffff1673ffffffffffffffffffffffffffffffffffffffff1663e742806a737ff1f8c467114bfbbcc56e406c0ec21e781bb959614ea861271063ffffffff16614e9a6105dc61ffff1687615a7090919063ffffffff16565b61553190919063ffffffff16565b6040518363ffffffff1660e01b8152600401808373ffffffffffffffffffffffffffffffffffffffff16815260200182815260200192505050600060405180830381600087803b158015614efb57600080fd5b505af1158015614f0f573d6000803e3d6000fd5b505050505b5050565b6000614f2382614f4f565b80614f335750614f3282614655565b5b614f4557614f4082615bdc565b614f48565b60005b9050919050565b60008082610100015111614f7057614f6561434c565b8260a0015111614f7d565b8161010001518260a00151115b9050919050565b600080600501548260e0015111614f9f578160e00151614fa6565b6000600501545b9050919050565b60008060006002811115614fbd57fe5b836002811115614fc957fe5b1415614fd95760009150506150d1565b60008590505b848110156150ce5760016002811115614ff457fe5b84600281111561500057fe5b146150535761504e61271063ffffffff16615040611b5861ffff166013600086815260200190815260200160002060010154615a7090919063ffffffff16565b61553190919063ffffffff16565b61509d565b61509c61271063ffffffff1661508e610bb861ffff166013600086815260200190815260200160002060010154615a7090919063ffffffff16565b61553190919063ffffffff16565b5b915081670de0b6b3a764000067ffffffffffffffff168802816150bc57fe5b04830192508080600101915050614fdf565b50505b949350505050565b600081610140015180156150f357506150f182614f4f565b155b8015615140575061513561511f600460070261ffff1661511161434c565b61461490919063ffffffff16565b61512761434c565b61463590919063ffffffff16565b61513e83615147565b105b9050919050565b6000808261012001511461516057816101200151615166565b8160a001515b9050919050565b6000808390505b828110156151b1576151a26010600083815260200190815260200160002054836155a490919063ffffffff16565b91508080600101915050615174565b5061527a600660009054906101000a900473ffffffffffffffffffffffffffffffffffffffff1673ffffffffffffffffffffffffffffffffffffffff16635d349c3a85856040518363ffffffff1660e01b8152600401808381526020018281526020019250505060206040518083038186803b15801561523057600080fd5b505afa158015615244573d6000803e3d6000fd5b505050506040513d602081101561525a57600080fd5b8101908080519060200190929190505050826155a490919063ffffffff16565b905061528f8482615a7090919063ffffffff16565b90509392505050565b600081610140015180156152b257506152b082614f4f565b155b80156152fc57506152f16152db600761ffff166152cd61434c565b61461490919063ffffffff16565b6152e361434c565b61463590919063ffffffff16565b6152fa83615147565b105b9050919050565b60008061531e60006004015487615a7090919063ffffffff16565b90506000600281111561532d57fe5b83600281111561533957fe5b1461541b576154188661540a600660009054906101000a900473ffffffffffffffffffffffffffffffffffffffff1673ffffffffffffffffffffffffffffffffffffffff16639df6292689896040518363ffffffff1660e01b8152600401808381526020018281526020019250505060206040518083038186803b1580156153c057600080fd5b505afa1580156153d4573d6000803e3d6000fd5b505050506040513d60208110156153ea57600080fd5b8101908080519060200190929190505050856155a490919063ffffffff16565b615a7090919063ffffffff16565b91505b615519670de0b6b3a764000067ffffffffffffffff1661550b836154fd600660009054906101000a900473ffffffffffffffffffffffffffffffffffffffff1673ffffffffffffffffffffffffffffffffffffffff166308fcfd3c8b8b6040518363ffffffff1660e01b8152600401808381526020018281526020019250505060206040518083038186803b1580156154b357600080fd5b505afa1580156154c7573d6000803e3d6000fd5b505050506040513d60208110156154dd57600080fd5b8101908080519060200190929190505050876155a490919063ffffffff16565b615a7090919063ffffffff16565b61553190919063ffffffff16565b915050949350505050565b60008160001b9050919050565b6000808214156155445760009050615557565b600082848161554f57fe5b049050809150505b92915050565b60008015158261014001511515146155895761558461557a61434c565b8360e00151615c1b565b61559d565b61559c8261010001518360e00151615c1b565b5b9050919050565b6000808284019050838110156155b957600080fd5b8091505092915050565b6000808490505b8381101561565857600060028111156155df57fe5b8360028111156155eb57fe5b14156156205761561786600f600084815260200190815260200160002054615a7090919063ffffffff16565b8201915061564b565b61564686600e600084815260200190815260200160002054615a7090919063ffffffff16565b820191505b80806001019150506155ca565b50949350505050565b615669615ce0565b60008086600660009054906101000a900473ffffffffffffffffffffffffffffffffffffffff1673ffffffffffffffffffffffffffffffffffffffff16630293068e8a6040518263ffffffff1660e01b8152600401808273ffffffffffffffffffffffffffffffffffffffff16815260200191505060206040518083038186803b1580156156f657600080fd5b505afa15801561570a573d6000803e3d6000fd5b505050506040513d602081101561572057600080fd5b81019080805190602001909291905050501015615788576040517f08c379a0000000000000000000000000000000000000000000000000000000008152600401808060200182810382526029815260200180615d6b6029913960400191505060405180910390fd5b600660009054906101000a900473ffffffffffffffffffffffffffffffffffffffff1673ffffffffffffffffffffffffffffffffffffffff1663aecf8a6d89896040518363ffffffff1660e01b8152600401808373ffffffffffffffffffffffffffffffffffffffff16815260200182815260200192505050600060405180830381600087803b15801561581b57600080fd5b505af115801561582f573d6000803e3d6000fd5b50505050600161583d61434c565b01905061584988615c47565b9150848360600190600281111561585c57fe5b9081600281111561586957fe5b81525050838360800181815250508567ffffffffffffffff168360c0018181525050808360a00181815250508567ffffffffffffffff1681018360e0018181525050600183610140019015159081151581525050868360200181815250506158d687600060040154615c9e565b836000018181525050955095509592505050565b6001600960008373ffffffffffffffffffffffffffffffffffffffff1673ffffffffffffffffffffffffffffffffffffffff1681526020019081526020016000205401600960008373ffffffffffffffffffffffffffffffffffffffff1673ffffffffffffffffffffffffffffffffffffffff1681526020019081526020016000208190555050565b61598a8260008001546155a490919063ffffffff16565b60008001819055506159aa816000600101546155a490919063ffffffff16565b60006001018190555060008360ff1611156159e5576159d7816000600301546155a490919063ffffffff16565b600060030181905550615a07565b6159fd816000600201546155a490919063ffffffff16565b6000600201819055505b615a0f615b51565b505050565b615a3a81600c6000858152602001908152602001600020546155a490919063ffffffff16565b600c6000848152602001908152602001600020819055505050565b6000816127108486010281615a6657fe5b0490509392505050565b600080831480615a805750600082145b15615a8e5760009050615aaf565b6000828402905082848281615a9f57fe5b0414615aaa57600080fd5b809150505b92915050565b6000615adb8260000151615ac884615147565b615ad185614f84565b85606001516155c3565b9050615b018260000151615aee84615147565b615af785614f84565b8560600151615303565b81019050615b248260000151615b1684615147565b615b1f85614f84565b61516d565b81019050615b4882600001518360a00151615b3e85614f84565b8560600151614fad565b81019050919050565b6000600501547f491bcc9f6cb4d2922150a69709f3f1a911f058b8829c6cba1be6aaf328cebcf86000600101546000800154600060020154600060030154600060040154604051808681526020018581526020018481526020018381526020018281526020019550505050505060405180910390a2565b6000615bd261434c565b8210159050919050565b6000612710615bea83615cbb565b6001615bf58561555d565b036106a461ffff160281615c0557fe5b0483602001510281615c1357fe5b049050919050565b6000818311615c3c57615c37838361463590919063ffffffff16565b615c3f565b60005b905092915050565b6000615c9782600960008573ffffffffffffffffffffffffffffffffffffffff1673ffffffffffffffffffffffffffffffffffffffff16815260200190815260200160002054600160f81b612eaa565b9050919050565b6000615cb3828461553190919063ffffffff16565b905092915050565b600060018260c0015111615cd0576001615cd9565b60018260c00151035b9050919050565b60405180610160016040528060008152602001600081526020016000815260200160006002811115615d0e57fe5b8152602001600081526020016000815260200160008152602001600081526020016000815260200160008152602001600015158152509056fe47524953453a206772697365476174654b656570657220697320756e646566696e656447524953453a205374616b657220646f65736e2774206861766520656e6f7567682062616c616e636547524953453a207374616b65206973206e6f74206c6172676520656e6f756768206f72205374616b696e67416d6f756e74206973206e6f742056616c696447524953453a20736e617073686f7420616c72656164792074616b656e20666f7220746861742064617947524953453a20736e617073686f742064617920646f6573206e6f742065786973742079657447524953453a205374616b65206973206e6f7420796574206d617475726520746f20636c61696d2052657761726447524953453a20416c6c207374616b696e6720736c6f74206973206f63637570696564206e6f7420657874726120736c6f7420697320617661696c61626c65a26469706673582212204378bcda5b64ffb79bfe880cfffb48c6fb4059d5e1712c8058199dad63ec4e6264736f6c63430007060033",
  "immutableReferences": {},
  "source": "// SPDX-License-Identifier: ----\r\n\r\npragma solidity =0.7.6;\r\n\r\nimport \"./Snapshot.sol\";\r\n\r\ncontract StakingToken is Snapshot {\r\n\r\n    using SafeMath for uint256;\r\n\r\n    /**\r\n     * @notice ability to define Grise contract\r\n     * @dev this method renounce griseGateKeeper access\r\n     * @param _immutableAddress contract address\r\n     */\r\n    function setGriseAddress(\r\n        address _immutableAddress\r\n    )\r\n        external\r\n    {\r\n        require(\r\n            griseGateKeeper == msg.sender,\r\n            'GRISE: griseGateKeeper is undefined'\r\n        );\r\n        GRISE_CONTRACT = IGriseToken(_immutableAddress);\r\n        griseGateKeeper = address(0x0);\r\n    }\r\n\r\n   /**\r\n     * @notice allows to create stake directly with ETH\r\n     * if you don't have GRISE tokens method will convert\r\n     * and use amount returned from UNISWAP to open a stake\r\n     * @param _lockDays amount of days it is locked for.\r\n     */\r\n    function createStakeWithETH(\r\n        StakeType _stakeType,\r\n        uint64 _lockDays\r\n    )\r\n        external\r\n        payable\r\n        returns (bytes16, uint256)\r\n    {\r\n        address[] memory path = new address[](2);\r\n            path[0] = WETH;\r\n            path[1] = address(GRISE_CONTRACT);\r\n\r\n        uint256[] memory amounts =\r\n        UNISWAP_ROUTER.swapExactETHForTokens{value: msg.value}(\r\n            1,\r\n            path,\r\n            msg.sender,\r\n            block.timestamp + 2 hours\r\n        );\r\n\r\n        return createStake(\r\n            amounts[1],\r\n            _stakeType,\r\n            _lockDays\r\n        );\r\n    }\r\n    \r\n    /**\r\n     * @notice A method for a staker to create a stake\r\n     * @param _stakedAmount amount of GRISE staked.\r\n     * @param _stakeType Small/Medium/Large.\r\n     * @param _lockDays amount of days it is locked for.\r\n     */\r\n    function createStake(\r\n        uint256 _stakedAmount,\r\n        StakeType _stakeType,\r\n        uint64 _lockDays\r\n    )\r\n        snapshotTrigger\r\n        public\r\n        returns (bytes16, uint256)\r\n    {\r\n        // stakingSlot will be 0 for short/long term staking and\r\n        // stakingSlot will be 0,1,2 for 3,6,9 month medium term staking respectively.\r\n        uint8 stakingSlot; \r\n\r\n        if (_stakeType == StakeType.MEDIUM_TERM){\r\n            if (_lockDays == 168){ // 6 Month\r\n                stakingSlot = 1;\r\n            } else if (_lockDays == 252){ // 9 Month\r\n                stakingSlot = 2;\r\n            }\r\n        }\r\n\r\n        require(\r\n            _lockDays % GRISE_WEEK == 0 &&\r\n            _lockDays >= stakeDayLimit[_stakeType].minStakeDay &&\r\n            _lockDays <= stakeDayLimit[_stakeType].maxStakeDay,\r\n            'GRISE: stake is not in range'\r\n        );\r\n\r\n        require(\r\n            _stakedAmount >= stakeCaps[_stakeType][stakingSlot].minStakingAmount && \r\n            _stakedAmount.mod(stakeCaps[_stakeType][stakingSlot].minStakingAmount) == 0,\r\n            'GRISE: stake is not large enough or StakingAmount is not Valid'\r\n        );\r\n\r\n        require(\r\n            stakeCaps[_stakeType][stakingSlot].stakingSlotCount <= \r\n                    stakeCaps[_stakeType][stakingSlot].maxStakingSlot ,\r\n            'GRISE: All staking slot is occupied not extra slot is available'\r\n        );\r\n\r\n        uint256 newOccupiedSlotCount = _stakedAmount\r\n                                      .mod(stakeCaps[_stakeType][stakingSlot].minStakingAmount) != 0?\r\n                                      _stakedAmount\r\n                                      .div(stakeCaps[_stakeType][stakingSlot].minStakingAmount) + 1 :\r\n                                      _stakedAmount\r\n                                      .div(stakeCaps[_stakeType][stakingSlot].minStakingAmount);\r\n\r\n        require(\r\n            (stakeCaps[_stakeType][stakingSlot].stakingSlotCount + newOccupiedSlotCount <= \r\n                    stakeCaps[_stakeType][stakingSlot].maxStakingSlot),\r\n            'GRISE: All staking slot is occupied not extra slot is available'\r\n        );\r\n\r\n        stakeCaps[_stakeType][stakingSlot].stakingSlotCount = \r\n        stakeCaps[_stakeType][stakingSlot].stakingSlotCount.add(newOccupiedSlotCount);\r\n\r\n        (\r\n            Stake memory newStake,\r\n            bytes16 stakeID,\r\n            uint256 _startDay\r\n        ) =\r\n\r\n        _createStake(msg.sender, _stakedAmount, _lockDays, _stakeType, newOccupiedSlotCount);\r\n\r\n        stakes[msg.sender][stakeID] = newStake;\r\n\r\n        _increaseStakeCount(\r\n            msg.sender\r\n        );\r\n\r\n        _increaseGlobals(\r\n            uint8(newStake.stakeType),\r\n            newStake.stakedAmount,\r\n            newStake.stakesShares\r\n        );\r\n        \r\n        _addScheduledShares(\r\n            newStake.finalDay,\r\n            newStake.stakesShares\r\n        );\r\n\r\n        GRISE_CONTRACT.setStaker(msg.sender);\r\n        GRISE_CONTRACT.updateStakedToken(globals.totalStaked);\r\n\r\n        if (newStake.stakeType != StakeType.SHORT_TERM) {\r\n            GRISE_CONTRACT.updateMedTermShares(globals.MLTShares);\r\n        }\r\n\r\n        stakeCaps[_stakeType][stakingSlot].totalStakeCount++;\r\n\r\n        emit StakeStart(\r\n            stakeID,\r\n            msg.sender,\r\n            uint256(newStake.stakeType),\r\n            newStake.stakedAmount,\r\n            newStake.stakesShares,\r\n            newStake.startDay,\r\n            newStake.lockDays\r\n        );\r\n\r\n        return (stakeID, _startDay);\r\n    }\r\n\r\n    /**\r\n    * @notice A method for a staker to start a stake\r\n    * @param _staker ...\r\n    * @param _stakedAmount ...\r\n    * @param _lockDays ...\r\n    */\r\n    function _createStake(\r\n        address _staker,\r\n        uint256 _stakedAmount,\r\n        uint64 _lockDays,\r\n        StakeType  _stakeType,\r\n        uint256 _totalOccupiedSlot\r\n    )\r\n        private\r\n        returns (\r\n            Stake memory _newStake,\r\n            bytes16 _stakeID,\r\n            uint256 _startDay\r\n        )\r\n    {\r\n        require(\r\n            GRISE_CONTRACT.balanceOfStaker(_staker) >= _stakedAmount,\r\n            \"GRISE: Staker doesn't have enough balance\"\r\n        );\r\n\r\n        GRISE_CONTRACT.burnSupply(\r\n            _staker,\r\n            _stakedAmount\r\n        );\r\n\r\n        _startDay = currentGriseDay() + 1;\r\n        _stakeID = generateStakeID(_staker);\r\n\r\n        _newStake.stakeType = _stakeType;\r\n        _newStake.totalOccupiedSlot = _totalOccupiedSlot;\r\n        _newStake.lockDays = _lockDays;\r\n        _newStake.startDay = _startDay;\r\n        _newStake.finalDay = _startDay + _lockDays;\r\n        _newStake.isActive = true;\r\n\r\n        _newStake.stakedAmount = _stakedAmount;\r\n        _newStake.stakesShares = _stakesShares(\r\n            _stakedAmount,\r\n            globals.sharePrice\r\n        );\r\n    }\r\n\r\n    /**\r\n    * @notice A method for a staker to remove a stake\r\n    * belonging to his address by providing ID of a stake.\r\n    * @param _stakeID unique bytes sequence reference to the stake\r\n    */\r\n    function endStake(\r\n        bytes16 _stakeID\r\n    )\r\n        snapshotTrigger\r\n        external\r\n        returns (uint256)\r\n    {\r\n        (\r\n            Stake memory endedStake,\r\n            uint256 penaltyAmount\r\n        ) =\r\n\r\n        _endStake(\r\n            msg.sender,\r\n            _stakeID\r\n        );\r\n\r\n        _decreaseGlobals(\r\n            uint8(endedStake.stakeType),\r\n            endedStake.stakedAmount,\r\n            endedStake.stakesShares\r\n        );\r\n\r\n        _removeScheduledShares(\r\n            endedStake.finalDay,\r\n            endedStake.stakesShares\r\n        );\r\n\r\n        _storePenalty(\r\n            endedStake.closeDay,\r\n            penaltyAmount\r\n        );\r\n\r\n        uint8 stakingSlot; \r\n        if (endedStake.stakeType == StakeType.MEDIUM_TERM){\r\n            if (endedStake.lockDays == 168) { // 6 Month\r\n                stakingSlot = 1;\r\n            } else if (endedStake.lockDays == 252) { // 9 Month\r\n                stakingSlot = 2;\r\n            }\r\n        }\r\n\r\n        stakeCaps[endedStake.stakeType][stakingSlot].stakingSlotCount = \r\n        stakeCaps[endedStake.stakeType][stakingSlot].stakingSlotCount.sub(endedStake.totalOccupiedSlot);\r\n        \r\n        GRISE_CONTRACT.resetStaker(msg.sender);\r\n        GRISE_CONTRACT.updateStakedToken(globals.totalStaked);\r\n\r\n        if (endedStake.stakeType != StakeType.SHORT_TERM) {\r\n            GRISE_CONTRACT.updateMedTermShares(globals.MLTShares);\r\n        }\r\n        \r\n        stakeCaps[endedStake.stakeType][stakingSlot].totalStakeCount--;\r\n\r\n        emit StakeEnd(\r\n            _stakeID,\r\n            msg.sender,\r\n            uint256(endedStake.stakeType),\r\n            endedStake.stakedAmount,\r\n            endedStake.stakesShares,\r\n            endedStake.rewardAmount,\r\n            endedStake.closeDay,\r\n            penaltyAmount\r\n        );\r\n\r\n        return endedStake.rewardAmount;\r\n    }\r\n\r\n    function _endStake(\r\n        address _staker,\r\n        bytes16 _stakeID\r\n    )\r\n        private\r\n        returns (\r\n            Stake storage _stake,\r\n            uint256 _penalty\r\n        )\r\n    {\r\n        require(\r\n            stakes[_staker][_stakeID].isActive,\r\n            'GRISE: Not an active stake'\r\n        );\r\n\r\n        _stake = stakes[_staker][_stakeID];\r\n        _stake.closeDay = currentGriseDay();\r\n        _stake.rewardAmount = _calculateRewardAmount(_stake);\r\n        _penalty = _calculatePenaltyAmount(_stake);\r\n\r\n        _stake.isActive = false;\r\n\r\n        GRISE_CONTRACT.mintSupply(\r\n            _staker,\r\n            _stake.stakedAmount > _penalty ?\r\n            _stake.stakedAmount - _penalty : 0\r\n        );\r\n\r\n        GRISE_CONTRACT.mintSupply(\r\n            _staker,\r\n            _stake.rewardAmount\r\n        );\r\n    }\r\n\r\n    /**\r\n    * @notice alloes to scrape Reward from active stake\r\n    * @param _stakeID unique bytes sequence reference to the stake\r\n    */\r\n    function scrapeReward(\r\n        bytes16 _stakeID\r\n    )\r\n        external\r\n        snapshotTrigger\r\n        returns (\r\n            uint256 scrapeDay,\r\n            uint256 scrapeAmount,\r\n            uint256 remainingDays\r\n        )\r\n    {\r\n        require(\r\n            stakes[msg.sender][_stakeID].isActive,\r\n            'GRISE: Not an active stake'\r\n        );\r\n\r\n        Stake memory stake = stakes[msg.sender][_stakeID];\r\n\r\n        require(\r\n            (globals.currentGriseDay\r\n                    .sub(stake.startDay)\r\n                    .div(GRISE_WEEK)) > 0,\r\n            'GRISE: Stake is not yet mature to claim Reward'\r\n        );\r\n\r\n        scrapeDay = _calculationDay(stake);\r\n\r\n        scrapeDay = scrapeDay < stake.finalDay\r\n            ? scrapeDay.sub(scrapeDay.mod(GRISE_WEEK))\r\n            : scrapeDay;\r\n\r\n        scrapeAmount = getTranscRewardAmount(msg.sender, _stakeID);\r\n\r\n        scrapeAmount += getPenaltyRewardAmount(msg.sender, _stakeID);\r\n\r\n        scrapeAmount += getReservoirRewardAmount(msg.sender, _stakeID);\r\n\r\n        remainingDays = _daysLeft(stake);\r\n        scrapes[msg.sender][_stakeID] =\r\n        scrapes[msg.sender][_stakeID].add(scrapeAmount);\r\n        \r\n        stake.scrapeDay = scrapeDay;\r\n        stakes[msg.sender][_stakeID] = stake;\r\n\r\n        GRISE_CONTRACT.mintSupply(\r\n            msg.sender,\r\n            scrapeAmount\r\n        );\r\n\r\n        emit InterestScraped(\r\n            _stakeID,\r\n            msg.sender,\r\n            scrapeAmount,\r\n            scrapeDay,\r\n            currentGriseDay()\r\n        );\r\n    }\r\n\r\n    function _addScheduledShares(\r\n        uint256 _finalDay,\r\n        uint256 _shares\r\n    )\r\n        internal\r\n    {\r\n        scheduledToEnd[_finalDay] =\r\n        scheduledToEnd[_finalDay].add(_shares);\r\n    }\r\n\r\n    function _removeScheduledShares(\r\n        uint256 _finalDay,\r\n        uint256 _shares\r\n    )\r\n        internal\r\n    {\r\n        if (_notPast(_finalDay)) {\r\n\r\n            scheduledToEnd[_finalDay] =\r\n            scheduledToEnd[_finalDay] > _shares ?\r\n            scheduledToEnd[_finalDay] - _shares : 0;\r\n\r\n        } else {\r\n\r\n            uint256 _day = currentGriseDay() - 1;\r\n            snapshots[_day].scheduledToEnd =\r\n            snapshots[_day].scheduledToEnd > _shares ?\r\n            snapshots[_day].scheduledToEnd - _shares : 0;\r\n        }\r\n    }\r\n\r\n    function checkMatureStake(\r\n        address _staker,\r\n        bytes16 _stakeID\r\n    )\r\n        external\r\n        view\r\n        returns (bool isMature)\r\n    {\r\n        Stake memory stake = stakes[_staker][_stakeID];\r\n        isMature = _isMatureStake(stake);\r\n    }\r\n\r\n    function checkStakeByID(\r\n        address _staker,\r\n        bytes16 _stakeID\r\n    )\r\n        external\r\n        view\r\n        returns \r\n    (\r\n        uint256 startDay,\r\n        uint256 lockDays,\r\n        uint256 finalDay,\r\n        uint256 closeDay,\r\n        uint256 scrapeDay,\r\n        StakeType stakeType,\r\n        uint256 stakedAmount,\r\n        uint256 penaltyAmount,\r\n        bool isActive,\r\n        bool isMature\r\n    )\r\n    {\r\n        Stake memory stake = stakes[_staker][_stakeID];\r\n        startDay = stake.startDay;\r\n        lockDays = stake.lockDays;\r\n        finalDay = stake.finalDay;\r\n        closeDay = stake.closeDay;\r\n        scrapeDay = stake.scrapeDay;\r\n        stakeType = stake.stakeType;\r\n        stakedAmount = stake.stakedAmount;\r\n        penaltyAmount = _calculatePenaltyAmount(stake);\r\n        isActive = stake.isActive;\r\n        isMature = _isMatureStake(stake);\r\n    }\r\n\r\n    function checkStakeRewards(\r\n        address _staker,\r\n        bytes16 _stakeID\r\n    )\r\n        external\r\n        view\r\n        returns \r\n    (\r\n        uint256 transcRewardAmount,\r\n        uint256 penaltyRewardAmount,\r\n        uint256 reservoirRewardAmount\r\n    )\r\n    {\r\n        transcRewardAmount = getTranscRewardAmount(_staker, _stakeID);\r\n        penaltyRewardAmount = getPenaltyRewardAmount(_staker, _stakeID);\r\n        reservoirRewardAmount = getReservoirRewardAmount(_staker, _stakeID);\r\n    }\r\n\r\n    function updateStakingSlotLimit(\r\n        uint256 STSlotLimit,\r\n        uint256 MT3MonthSlotLimit,\r\n        uint256 MT6MonthSlotLimit,\r\n        uint256 MT9MonthSlotLimit,\r\n        uint256 LTSlotLimit\r\n    )\r\n    external\r\n    {\r\n        require(\r\n            msg.sender == contractDeployer,\r\n            'Invalid Operation'\r\n        );\r\n\r\n        stakeCaps[StakeType.SHORT_TERM][0].maxStakingSlot = STSlotLimit;\r\n        stakeCaps[StakeType.MEDIUM_TERM][0].maxStakingSlot = MT3MonthSlotLimit;\r\n        stakeCaps[StakeType.MEDIUM_TERM][1].maxStakingSlot = MT6MonthSlotLimit;\r\n        stakeCaps[StakeType.MEDIUM_TERM][2].maxStakingSlot = MT9MonthSlotLimit;\r\n        stakeCaps[StakeType.LONG_TERM][0].maxStakingSlot = LTSlotLimit;\r\n    }\r\n\r\n    function getTranscRewardAmount(\r\n        address _staker,\r\n        bytes16 _stakeID\r\n    ) \r\n        public\r\n        view\r\n        returns (uint256 rewardAmount)\r\n    {\r\n        Stake memory _stake = stakes[_staker][_stakeID];\r\n\r\n        if ( _stakeEligibleForWeeklyReward(_stake))\r\n        {\r\n            uint256 _endDay = currentGriseDay().sub(currentGriseDay().mod(GRISE_WEEK));\r\n\r\n            rewardAmount = _loopTranscRewardAmount(\r\n                _stake.stakesShares,\r\n                _startingDay(_stake),\r\n                _endDay,\r\n                _stake.stakeType);\r\n        }\r\n    }\r\n\r\n    function getPenaltyRewardAmount(\r\n        address _staker,\r\n        bytes16 _stakeID\r\n    ) \r\n        public \r\n        view \r\n        returns (uint256 rewardAmount) \r\n    {\r\n        Stake memory _stake = stakes[_staker][_stakeID];\r\n\r\n        if ( _stakeEligibleForWeeklyReward(_stake))\r\n        {\r\n            uint256 _endDay = currentGriseDay().sub(currentGriseDay().mod(GRISE_WEEK));\r\n\r\n            rewardAmount = _loopPenaltyRewardAmount(\r\n                _stake.stakesShares,\r\n                _startingDay(_stake),\r\n                _endDay,\r\n                _stake.stakeType);\r\n        }\r\n    }\r\n\r\n    function getReservoirRewardAmount(\r\n        address _staker,\r\n        bytes16 _stakeID\r\n    ) \r\n        public \r\n        view \r\n        returns (uint256 rewardAmount) \r\n    {\r\n        Stake memory _stake = stakes[_staker][_stakeID];\r\n\r\n        if ( _stakeEligibleForMonthlyReward(_stake))\r\n        {\r\n            uint256 _endDay = currentGriseDay().sub(currentGriseDay().mod(GRISE_MONTH));\r\n\r\n            rewardAmount = _loopReservoirRewardAmount(\r\n                _stake.stakesShares,\r\n                _startingDay(_stake),\r\n                _endDay\r\n            );\r\n        }\r\n    }\r\n\r\n    function getInflationRewardAmount(\r\n        address _staker,\r\n        bytes16 _stakeID\r\n    ) \r\n        public \r\n        view \r\n        returns (uint256 rewardAmount) \r\n    {    \r\n        Stake memory _stake = stakes[_staker][_stakeID];\r\n\r\n        if ( _stake.isActive && !_stakeNotStarted(_stake))\r\n        {\r\n            rewardAmount = _loopInflationRewardAmount(\r\n            _stake.stakesShares,\r\n            _stake.startDay,\r\n            _calculationDay(_stake),\r\n            _stake.stakeType);\r\n        }\r\n    }\r\n\r\n    function _stakesShares(\r\n        uint256 _stakedAmount,\r\n        uint256 _sharePrice\r\n    )\r\n        private\r\n        pure\r\n        returns (uint256)\r\n    {\r\n        return _stakedAmount\r\n                .div(_sharePrice);\r\n    }\r\n\r\n    function _storePenalty(\r\n        uint256 _storeDay,\r\n        uint256 _penalty\r\n    )\r\n        private\r\n    {\r\n        if (_penalty > 0) {\r\n            totalPenalties[_storeDay] =\r\n            totalPenalties[_storeDay].add(_penalty);\r\n\r\n            MLTPenaltiesRewardPerShares[_storeDay] += \r\n                _penalty.mul(MED_LONG_STAKER_PENALTY_REWARD)\r\n                        .div(REWARD_PRECISION_RATE)\r\n                        .div(globals.MLTShares);\r\n\r\n            STPenaltiesRewardPerShares[_storeDay] +=\r\n                _penalty.mul(SHORT_STAKER_PENALTY_REWARD)\r\n                        .div(REWARD_PRECISION_RATE)\r\n                        .div(globals.STShares);\r\n\r\n            ReservoirPenaltiesRewardPerShares[_storeDay] +=\r\n                _penalty.mul(RESERVOIR_PENALTY_REWARD)\r\n                        .div(REWARD_PRECISION_RATE)\r\n                        .div(globals.MLTShares);\r\n\r\n            GRISE_CONTRACT.mintSupply(\r\n                TEAM_ADDRESS,\r\n                _penalty.mul(TEAM_PENALTY_REWARD)\r\n                        .div(REWARD_PRECISION_RATE)\r\n            );\r\n        }\r\n    }\r\n\r\n    function _calculatePenaltyAmount(\r\n        Stake memory _stake\r\n    )\r\n        private\r\n        view\r\n        returns (uint256)\r\n    {\r\n        return _stakeNotStarted(_stake) || _isMatureStake(_stake) ? 0 : _getPenalties(_stake);\r\n    }\r\n\r\n    function _getPenalties(\r\n        Stake memory _stake\r\n    )\r\n        private\r\n        view\r\n        returns (uint256)\r\n    {\r\n        return _stake.stakedAmount * ((PENALTY_RATE * (_daysLeft(_stake) - 1) / (_getLockDays(_stake)))) / 10000;\r\n    }\r\n\r\n    function _calculateRewardAmount(\r\n        Stake memory _stake\r\n    )\r\n        private\r\n        view\r\n        returns (uint256 _rewardAmount)\r\n    {\r\n        _rewardAmount = _loopPenaltyRewardAmount(\r\n            _stake.stakesShares,\r\n            _startingDay(_stake),\r\n            _calculationDay(_stake),\r\n            _stake.stakeType\r\n        );\r\n\r\n        _rewardAmount += _loopTranscRewardAmount(\r\n            _stake.stakesShares,\r\n            _startingDay(_stake),\r\n            _calculationDay(_stake),\r\n            _stake.stakeType\r\n        );\r\n\r\n        _rewardAmount += _loopReservoirRewardAmount(\r\n            _stake.stakesShares,\r\n            _startingDay(_stake),\r\n            _calculationDay(_stake)\r\n        );\r\n        \r\n        _rewardAmount += _loopInflationRewardAmount(\r\n            _stake.stakesShares,\r\n            _stake.startDay,\r\n            _calculationDay(_stake),\r\n            _stake.stakeType\r\n        );\r\n    }\r\n\r\n    function _loopInflationRewardAmount(\r\n        uint256 _stakeShares,\r\n        uint256 _startDay,\r\n        uint256 _finalDay,\r\n        StakeType _stakeType\r\n    )\r\n        private\r\n        view\r\n        returns (uint256 _rewardAmount)\r\n    {\r\n        uint256 inflationAmount;\r\n        if (_stakeType == StakeType.SHORT_TERM)\r\n        {\r\n            return 0;\r\n        }\r\n\r\n        for (uint256 _day = _startDay; _day < _finalDay; _day++) {\r\n\r\n            inflationAmount = (_stakeType == StakeType.MEDIUM_TERM) ? \r\n                                snapshots[_day].inflationAmount\r\n                                .mul(MED_TERM_INFLATION_REWARD)\r\n                                .div(REWARD_PRECISION_RATE) :\r\n                                snapshots[_day].inflationAmount\r\n                                .mul(LONG_TERM_INFLATION_REWARD)\r\n                                .div(REWARD_PRECISION_RATE);\r\n\r\n            _rewardAmount += _stakeShares * PRECISION_RATE / inflationAmount;\r\n        }\r\n    }\r\n\r\n    function _loopPenaltyRewardAmount(\r\n        uint256 _stakeShares,\r\n        uint256 _startDay,\r\n        uint256 _finalDay,\r\n        StakeType _stakeType\r\n    )\r\n        private\r\n        view\r\n        returns (uint256 _rewardAmount)\r\n    {\r\n        for (uint256 day = _startDay; day < _finalDay; day++) \r\n        {\r\n            if (_stakeType == StakeType.SHORT_TERM)\r\n            {\r\n                _rewardAmount += STPenaltiesRewardPerShares[day]\r\n                                    .mul(_stakeShares);\r\n            } else {\r\n                _rewardAmount += MLTPenaltiesRewardPerShares[day]\r\n                                    .mul(_stakeShares);\r\n            }\r\n        }\r\n    }\r\n\r\n    function _loopReservoirRewardAmount(\r\n        uint256 _stakeShares,\r\n        uint256 _startDay,\r\n        uint256 _finalDay\r\n    )\r\n        private\r\n        view\r\n        returns (uint256 _rewardAmount)\r\n    {\r\n        \r\n        for (uint256 day = _startDay; day < _finalDay; day++) \r\n        {\r\n            _rewardAmount = \r\n            _rewardAmount.add(ReservoirPenaltiesRewardPerShares[day]);\r\n        }\r\n\r\n        _rewardAmount = \r\n        _rewardAmount.add(GRISE_CONTRACT.getReservoirReward(_startDay, _finalDay));\r\n\r\n        _rewardAmount = \r\n        _rewardAmount.mul(_stakeShares);\r\n    }\r\n\r\n    function _loopTranscRewardAmount(\r\n        uint256 _stakeShares,\r\n        uint256 _startDay,\r\n        uint256 _finalDay,\r\n        StakeType _stakeType\r\n    )\r\n        private\r\n        view\r\n        returns (uint256 _rewardAmount)\r\n    {\r\n        uint256 stakedAmount = _stakeShares.mul(globals.sharePrice);\r\n        \r\n        if (_stakeType != StakeType.SHORT_TERM)\r\n        {\r\n            _rewardAmount =\r\n            _rewardAmount.add(GRISE_CONTRACT.getTransFeeReward(_startDay, _finalDay))\r\n                          .mul(_stakeShares); \r\n        }\r\n\r\n        _rewardAmount =\r\n        _rewardAmount.add(GRISE_CONTRACT.getTokenHolderReward(_startDay, _finalDay))\r\n                     .mul(stakedAmount)\r\n                     .div(PRECISION_RATE);\r\n    }\r\n\r\n    function getSlotLeft() \r\n        external \r\n        view \r\n        returns \r\n    (\r\n        uint256 STSlotLeft, \r\n        uint256 MT3MonthSlotLeft,\r\n        uint256 MT6MonthSlotLeft, \r\n        uint256 MT9MonthSlotLeft, \r\n        uint256 LTSlotLeft\r\n    ) \r\n    {\r\n\r\n        STSlotLeft = stakeCaps[StakeType.SHORT_TERM][0].maxStakingSlot\r\n                            .sub(stakeCaps[StakeType.SHORT_TERM][0].stakingSlotCount);\r\n\r\n        MT3MonthSlotLeft = stakeCaps[StakeType.MEDIUM_TERM][0].maxStakingSlot\r\n                            .sub(stakeCaps[StakeType.MEDIUM_TERM][0].stakingSlotCount);\r\n                            \r\n        MT6MonthSlotLeft = stakeCaps[StakeType.MEDIUM_TERM][1].maxStakingSlot\r\n                            .sub(stakeCaps[StakeType.MEDIUM_TERM][1].stakingSlotCount);\r\n\r\n        MT9MonthSlotLeft = stakeCaps[StakeType.MEDIUM_TERM][2].maxStakingSlot\r\n                            .sub(stakeCaps[StakeType.MEDIUM_TERM][2].stakingSlotCount);\r\n        \r\n        LTSlotLeft = stakeCaps[StakeType.LONG_TERM][0].maxStakingSlot\r\n                            .sub(stakeCaps[StakeType.LONG_TERM][0].stakingSlotCount);\r\n    }\r\n\r\n    function getStakeCount() \r\n        public \r\n        view \r\n        returns \r\n    (\r\n        uint256 STStakeCount, \r\n        uint256 MT3MonthStakeCount,\r\n        uint256 MT6MonthStakeCount,\r\n        uint256 MT9MonthStakeCount,\r\n        uint256 LTStakeCount\r\n    )\r\n    {\r\n        STStakeCount = stakeCaps[StakeType.SHORT_TERM][0].totalStakeCount;\r\n        MT3MonthStakeCount = stakeCaps[StakeType.MEDIUM_TERM][0].totalStakeCount;\r\n        MT6MonthStakeCount = stakeCaps[StakeType.MEDIUM_TERM][1].totalStakeCount;\r\n        MT9MonthStakeCount = stakeCaps[StakeType.MEDIUM_TERM][2].totalStakeCount;\r\n        LTStakeCount = stakeCaps[StakeType.LONG_TERM][0].totalStakeCount;\r\n    }\r\n\r\n    function getTotalStakedToken()\r\n        public\r\n        view \r\n        returns (uint256) \r\n    {\r\n        return globals.totalStaked;\r\n    }\r\n}",
  "sourcePath": "C:/Users/Dhaval/eth/grise/src/contracts/StakingToken.sol",
  "compiler": {
    "name": "solc",
    "version": "0.7.6+commit.7338295f.Emscripten.clang"
  },
  "schemaVersion": "3.3.3",
  "updatedAt": "2021-03-11T16:25:06.441Z",
  "networkType": "ethereum",
  "devdoc": {
    "kind": "dev",
    "methods": {
      "createStake(uint256,uint8,uint64)": {
        "params": {
          "_lockDays": "amount of days it is locked for.",
          "_stakeType": "Small/Medium/Large.",
          "_stakedAmount": "amount of GRISE staked."
        }
      },
      "createStakeWithETH(uint8,uint64)": {
        "params": {
          "_lockDays": "amount of days it is locked for."
        }
      },
      "endStake(bytes16)": {
        "params": {
          "_stakeID": "unique bytes sequence reference to the stake"
        }
      },
      "scrapeReward(bytes16)": {
        "params": {
          "_stakeID": "unique bytes sequence reference to the stake"
        }
      },
      "setGriseAddress(address)": {
        "details": "this method renounce griseGateKeeper access",
        "params": {
          "_immutableAddress": "contract address"
        }
      }
    },
    "version": 1
  },
  "userdoc": {
    "kind": "user",
    "methods": {
      "createStake(uint256,uint8,uint64)": {
        "notice": "A method for a staker to create a stake"
      },
      "createStakeWithETH(uint8,uint64)": {
        "notice": "allows to create stake directly with ETH if you don't have GRISE tokens method will convert and use amount returned from UNISWAP to open a stake"
      },
      "endStake(bytes16)": {
        "notice": "A method for a staker to remove a stake belonging to his address by providing ID of a stake."
      },
      "manualDailySnapshot()": {
        "notice": "allows volunteer to offload snapshots to save on gas during next start/end stake"
      },
      "manualDailySnapshotPoint(uint256)": {
        "notice": "allows volunteer to offload snapshots to save on gas during next start/end stake in case manualDailySnapshot reach block limit"
      },
      "scrapeReward(bytes16)": {
        "notice": "alloes to scrape Reward from active stake"
      },
      "setGriseAddress(address)": {
        "notice": "ability to define Grise contract"
      }
    },
    "version": 1
  }
}