{
  "contractName": "GriseToken",
  "abi": [
    {
      "inputs": [
        {
          "internalType": "string",
          "name": "tokenName",
          "type": "string"
        },
        {
          "internalType": "string",
          "name": "tokenSymbol",
          "type": "string"
        }
      ],
      "stateMutability": "nonpayable",
      "type": "constructor"
    },
    {
      "anonymous": false,
      "inputs": [
        {
          "indexed": true,
          "internalType": "address",
          "name": "owner",
          "type": "address"
        },
        {
          "indexed": true,
          "internalType": "address",
          "name": "spender",
          "type": "address"
        },
        {
          "indexed": false,
          "internalType": "uint256",
          "name": "value",
          "type": "uint256"
        }
      ],
      "name": "Approval",
      "type": "event"
    },
    {
      "anonymous": false,
      "inputs": [
        {
          "indexed": true,
          "internalType": "address",
          "name": "tokenHolderAddress",
          "type": "address"
        },
        {
          "indexed": false,
          "internalType": "uint256",
          "name": "griseWeek",
          "type": "uint256"
        },
        {
          "indexed": false,
          "internalType": "uint256",
          "name": "claimedAmount",
          "type": "uint256"
        }
      ],
      "name": "TranscFeeClaimed",
      "type": "event"
    },
    {
      "anonymous": false,
      "inputs": [
        {
          "indexed": true,
          "internalType": "address",
          "name": "from",
          "type": "address"
        },
        {
          "indexed": true,
          "internalType": "address",
          "name": "to",
          "type": "address"
        },
        {
          "indexed": false,
          "internalType": "uint256",
          "name": "value",
          "type": "uint256"
        }
      ],
      "name": "Transfer",
      "type": "event"
    },
    {
      "inputs": [],
      "name": "LIQUIDITY_GATEKEEPER",
      "outputs": [
        {
          "internalType": "address",
          "name": "",
          "type": "address"
        }
      ],
      "stateMutability": "view",
      "type": "function"
    },
    {
      "inputs": [],
      "name": "STAKE_GATEKEEPER",
      "outputs": [
        {
          "internalType": "address",
          "name": "",
          "type": "address"
        }
      ],
      "stateMutability": "view",
      "type": "function"
    },
    {
      "inputs": [],
      "name": "TOKENMATRIX_GATEKEEPER",
      "outputs": [
        {
          "internalType": "address",
          "name": "",
          "type": "address"
        }
      ],
      "stateMutability": "view",
      "type": "function"
    },
    {
      "inputs": [],
      "name": "VAULT_GATEKEEPER",
      "outputs": [
        {
          "internalType": "address",
          "name": "",
          "type": "address"
        }
      ],
      "stateMutability": "view",
      "type": "function"
    },
    {
      "inputs": [],
      "name": "currentGriseDay",
      "outputs": [
        {
          "internalType": "uint256",
          "name": "",
          "type": "uint256"
        }
      ],
      "stateMutability": "view",
      "type": "function"
    },
    {
      "inputs": [],
      "name": "currentGriseWeek",
      "outputs": [
        {
          "internalType": "uint256",
          "name": "",
          "type": "uint256"
        }
      ],
      "stateMutability": "view",
      "type": "function"
    },
    {
      "inputs": [],
      "name": "currentLPDay",
      "outputs": [
        {
          "internalType": "uint256",
          "name": "",
          "type": "uint256"
        }
      ],
      "stateMutability": "view",
      "type": "function"
    },
    {
      "inputs": [
        {
          "internalType": "uint256",
          "name": "",
          "type": "uint256"
        }
      ],
      "name": "sellTranscFee",
      "outputs": [
        {
          "internalType": "uint256",
          "name": "",
          "type": "uint256"
        }
      ],
      "stateMutability": "view",
      "type": "function"
    },
    {
      "inputs": [],
      "name": "name",
      "outputs": [
        {
          "internalType": "string",
          "name": "",
          "type": "string"
        }
      ],
      "stateMutability": "view",
      "type": "function"
    },
    {
      "inputs": [],
      "name": "symbol",
      "outputs": [
        {
          "internalType": "string",
          "name": "",
          "type": "string"
        }
      ],
      "stateMutability": "view",
      "type": "function"
    },
    {
      "inputs": [],
      "name": "decimals",
      "outputs": [
        {
          "internalType": "uint8",
          "name": "",
          "type": "uint8"
        }
      ],
      "stateMutability": "view",
      "type": "function"
    },
    {
      "inputs": [],
      "name": "totalSupply",
      "outputs": [
        {
          "internalType": "uint256",
          "name": "",
          "type": "uint256"
        }
      ],
      "stateMutability": "view",
      "type": "function"
    },
    {
      "inputs": [
        {
          "internalType": "address",
          "name": "account",
          "type": "address"
        }
      ],
      "name": "balanceOf",
      "outputs": [
        {
          "internalType": "uint256",
          "name": "",
          "type": "uint256"
        }
      ],
      "stateMutability": "view",
      "type": "function"
    },
    {
      "inputs": [
        {
          "internalType": "address",
          "name": "recipient",
          "type": "address"
        },
        {
          "internalType": "uint256",
          "name": "amount",
          "type": "uint256"
        }
      ],
      "name": "transfer",
      "outputs": [
        {
          "internalType": "bool",
          "name": "",
          "type": "bool"
        }
      ],
      "stateMutability": "nonpayable",
      "type": "function"
    },
    {
      "inputs": [
        {
          "internalType": "address",
          "name": "owner",
          "type": "address"
        },
        {
          "internalType": "address",
          "name": "spender",
          "type": "address"
        }
      ],
      "name": "allowance",
      "outputs": [
        {
          "internalType": "uint256",
          "name": "",
          "type": "uint256"
        }
      ],
      "stateMutability": "view",
      "type": "function"
    },
    {
      "inputs": [
        {
          "internalType": "address",
          "name": "spender",
          "type": "address"
        },
        {
          "internalType": "uint256",
          "name": "amount",
          "type": "uint256"
        }
      ],
      "name": "approve",
      "outputs": [
        {
          "internalType": "bool",
          "name": "",
          "type": "bool"
        }
      ],
      "stateMutability": "nonpayable",
      "type": "function"
    },
    {
      "inputs": [
        {
          "internalType": "address",
          "name": "sender",
          "type": "address"
        },
        {
          "internalType": "address",
          "name": "recipient",
          "type": "address"
        },
        {
          "internalType": "uint256",
          "name": "amount",
          "type": "uint256"
        }
      ],
      "name": "transferFrom",
      "outputs": [
        {
          "internalType": "bool",
          "name": "",
          "type": "bool"
        }
      ],
      "stateMutability": "nonpayable",
      "type": "function"
    },
    {
      "inputs": [
        {
          "internalType": "address",
          "name": "_immutableGateKeeper",
          "type": "address"
        }
      ],
      "name": "setLiquidtyGateKeeper",
      "outputs": [],
      "stateMutability": "nonpayable",
      "type": "function"
    },
    {
      "inputs": [
        {
          "internalType": "address",
          "name": "_immutableGateKeeper",
          "type": "address"
        }
      ],
      "name": "setStakeGateKeeper",
      "outputs": [],
      "stateMutability": "nonpayable",
      "type": "function"
    },
    {
      "inputs": [
        {
          "internalType": "address",
          "name": "_immutableGateKeeper",
          "type": "address"
        }
      ],
      "name": "setVaultGateKeeper",
      "outputs": [],
      "stateMutability": "nonpayable",
      "type": "function"
    },
    {
      "inputs": [
        {
          "internalType": "address",
          "name": "_immutableGateKeeper",
          "type": "address"
        }
      ],
      "name": "setTokenMatrixGateKeeper",
      "outputs": [],
      "stateMutability": "nonpayable",
      "type": "function"
    },
    {
      "inputs": [
        {
          "internalType": "address",
          "name": "_investorAddress",
          "type": "address"
        },
        {
          "internalType": "uint256",
          "name": "_amount",
          "type": "uint256"
        }
      ],
      "name": "mintSupply",
      "outputs": [],
      "stateMutability": "nonpayable",
      "type": "function"
    },
    {
      "inputs": [
        {
          "internalType": "address",
          "name": "_investorAddress",
          "type": "address"
        },
        {
          "internalType": "uint256",
          "name": "_amount",
          "type": "uint256"
        }
      ],
      "name": "burnSupply",
      "outputs": [],
      "stateMutability": "nonpayable",
      "type": "function"
    },
    {
      "inputs": [],
      "name": "viewTokenHolderTranscReward",
      "outputs": [
        {
          "internalType": "uint256",
          "name": "rewardAmount",
          "type": "uint256"
        }
      ],
      "stateMutability": "view",
      "type": "function"
    },
    {
      "inputs": [],
      "name": "claimTokenHolderTranscReward",
      "outputs": [
        {
          "internalType": "uint256",
          "name": "rewardAmount",
          "type": "uint256"
        }
      ],
      "stateMutability": "nonpayable",
      "type": "function"
    },
    {
      "inputs": [
        {
          "internalType": "address",
          "name": "_staker",
          "type": "address"
        }
      ],
      "name": "setStaker",
      "outputs": [],
      "stateMutability": "nonpayable",
      "type": "function"
    },
    {
      "inputs": [
        {
          "internalType": "address",
          "name": "_staker",
          "type": "address"
        }
      ],
      "name": "resetStaker",
      "outputs": [],
      "stateMutability": "nonpayable",
      "type": "function"
    },
    {
      "inputs": [
        {
          "internalType": "uint256",
          "name": "_stakedToken",
          "type": "uint256"
        }
      ],
      "name": "updateStakedToken",
      "outputs": [],
      "stateMutability": "nonpayable",
      "type": "function"
    },
    {
      "inputs": [
        {
          "internalType": "uint256",
          "name": "_shares",
          "type": "uint256"
        }
      ],
      "name": "updateMedTermShares",
      "outputs": [],
      "stateMutability": "nonpayable",
      "type": "function"
    },
    {
      "inputs": [
        {
          "internalType": "uint256",
          "name": "_fromDay",
          "type": "uint256"
        },
        {
          "internalType": "uint256",
          "name": "_toDay",
          "type": "uint256"
        }
      ],
      "name": "getTransFeeReward",
      "outputs": [
        {
          "internalType": "uint256",
          "name": "rewardAmount",
          "type": "uint256"
        }
      ],
      "stateMutability": "view",
      "type": "function"
    },
    {
      "inputs": [
        {
          "internalType": "uint256",
          "name": "_fromDay",
          "type": "uint256"
        },
        {
          "internalType": "uint256",
          "name": "_toDay",
          "type": "uint256"
        }
      ],
      "name": "getReservoirReward",
      "outputs": [
        {
          "internalType": "uint256",
          "name": "rewardAmount",
          "type": "uint256"
        }
      ],
      "stateMutability": "view",
      "type": "function"
    },
    {
      "inputs": [
        {
          "internalType": "uint256",
          "name": "_fromDay",
          "type": "uint256"
        },
        {
          "internalType": "uint256",
          "name": "_toDay",
          "type": "uint256"
        }
      ],
      "name": "getTokenHolderReward",
      "outputs": [
        {
          "internalType": "uint256",
          "name": "rewardAmount",
          "type": "uint256"
        }
      ],
      "stateMutability": "view",
      "type": "function"
    },
    {
      "inputs": [],
      "name": "timeToClaimWeeklyReward",
      "outputs": [
        {
          "internalType": "uint256",
          "name": "_days",
          "type": "uint256"
        }
      ],
      "stateMutability": "view",
      "type": "function"
    },
    {
      "inputs": [
        {
          "internalType": "address",
          "name": "account",
          "type": "address"
        }
      ],
      "name": "balanceOfStaker",
      "outputs": [
        {
          "internalType": "uint256",
          "name": "",
          "type": "uint256"
        }
      ],
      "stateMutability": "view",
      "type": "function"
    },
    {
      "inputs": [],
      "name": "getEpocTime",
      "outputs": [
        {
          "internalType": "uint256",
          "name": "",
          "type": "uint256"
        }
      ],
      "stateMutability": "view",
      "type": "function"
    },
    {
      "inputs": [],
      "name": "getLaunchTime",
      "outputs": [
        {
          "internalType": "uint256",
          "name": "",
          "type": "uint256"
        }
      ],
      "stateMutability": "view",
      "type": "function"
    },
    {
      "inputs": [],
      "name": "getLPLaunchTime",
      "outputs": [
        {
          "internalType": "uint256",
          "name": "",
          "type": "uint256"
        }
      ],
      "stateMutability": "view",
      "type": "function"
    },
    {
      "inputs": [
        {
          "internalType": "address",
          "name": "_staker",
          "type": "address"
        }
      ],
      "name": "isStaker",
      "outputs": [
        {
          "internalType": "bool",
          "name": "status",
          "type": "bool"
        }
      ],
      "stateMutability": "view",
      "type": "function"
    }
  ],
  "bytecode": "0x60c06040526012601560006101000a81548160ff021916908360ff16021790555060006016553480156200003257600080fd5b5060405162003cb538038062003cb5833981810160405260408110156200005857600080fd5b81019080805160405193929190846401000000008211156200007957600080fd5b838201915060208201858111156200009057600080fd5b8251866001820283011164010000000082111715620000ae57600080fd5b8083526020830192505050908051906020019080838360005b83811015620000e4578082015181840152602081019050620000c7565b50505050905090810190601f168015620001125780820380516001836020036101000a031916815260200191505b50604052602001805160405193929190846401000000008211156200013657600080fd5b838201915060208201858111156200014d57600080fd5b82518660018202830111640100000000821117156200016b57600080fd5b8083526020830192505050908051906020019080838360005b83811015620001a157808201518184015260208101905062000184565b50505050905090810190601f168015620001cf5780820380516001836020036101000a031916815260200191505b5060405250505042608081815250504260a081815250508160139080519060200190620001fe92919062000368565b5080601490805190602001906200021792919062000368565b50620002286200036060201b60201c565b600f60006101000a81548173ffffffffffffffffffffffffffffffffffffffff021916908373ffffffffffffffffffffffffffffffffffffffff160217905550620002786200036060201b60201c565b601060006101000a81548173ffffffffffffffffffffffffffffffffffffffff021916908373ffffffffffffffffffffffffffffffffffffffff160217905550620002c86200036060201b60201c565b601160006101000a81548173ffffffffffffffffffffffffffffffffffffffff021916908373ffffffffffffffffffffffffffffffffffffffff160217905550620003186200036060201b60201c565b601260006101000a81548173ffffffffffffffffffffffffffffffffffffffff021916908373ffffffffffffffffffffffffffffffffffffffff16021790555050506200041e565b600033905090565b828054600181600116156101000203166002900490600052602060002090601f016020900481019282620003a05760008555620003ec565b82601f10620003bb57805160ff1916838001178555620003ec565b82800160010185558215620003ec579182015b82811115620003eb578251825591602001919060010190620003ce565b5b509050620003fb9190620003ff565b5090565b5b808211156200041a57600081600090555060010162000400565b5090565b60805160a05161385f6200045660003980610c2b52806125275280613730525080611ec15280611ef152806136f3525061385f6000f3fe608060405234801561001057600080fd5b50600436106102325760003560e01c806387cd0cd211610130578063b7746086116100b8578063dd62ed3e1161007c578063dd62ed3e14610a98578063e1a973cf14610b10578063e742806a14610b54578063edc9a25f14610ba2578063f172d29314610bc057610232565b8063b7746086146109cc578063b9459b61146109ea578063c2889b5714610a08578063cdbf54ed14610a26578063d293194414610a5457610232565b8063a29a43bb116100ff578063a29a43bb1461085e578063a7d10eab146108a2578063a9059cbb146108e6578063ab9094921461094a578063aecf8a6d1461097e57610232565b806387cd0cd21461073d57806389ba1ab71461075b57806395d89b411461078f5780639df629261461081257610232565b80633f5e932b116101be5780636de41837116101825780636de418371461060b5780636f1e85331461062957806370a08231146106835780637f0f4026146106db5780638491a1101461070957610232565b80633f5e932b146104d75780633ffff6531461051b578063480f5e2e1461055d5780634ad356f41461057b5780635d349c3a146105bf57610232565b8063095ea7b311610205578063095ea7b31461037c57806318160ddd146103e057806318613e67146103fe57806323b872dd14610432578063313ce567146104b657610232565b80630293068e146102375780630496dc7d1461028f57806306fdde03146102ad57806308fcfd3c14610330575b600080fd5b6102796004803603602081101561024d57600080fd5b81019080803573ffffffffffffffffffffffffffffffffffffffff169060200190929190505050610bde565b6040518082815260200191505060405180910390f35b610297610c27565b6040518082815260200191505060405180910390f35b6102b5610c4f565b6040518080602001828103825283818151815260200191508051906020019080838360005b838110156102f55780820151818401526020810190506102da565b50505050905090810190601f1680156103225780820380516001836020036101000a031916815260200191505b509250505060405180910390f35b6103666004803603604081101561034657600080fd5b810190808035906020019092919080359060200190929190505050610cf1565b6040518082815260200191505060405180910390f35b6103c86004803603604081101561039257600080fd5b81019080803573ffffffffffffffffffffffffffffffffffffffff16906020019092919080359060200190929190505050610e40565b60405180821515815260200191505060405180910390f35b6103e8610e5e565b6040518082815260200191505060405180910390f35b610406610e68565b604051808273ffffffffffffffffffffffffffffffffffffffff16815260200191505060405180910390f35b61049e6004803603606081101561044857600080fd5b81019080803573ffffffffffffffffffffffffffffffffffffffff169060200190929190803573ffffffffffffffffffffffffffffffffffffffff16906020019092919080359060200190929190505050610e8e565b60405180821515815260200191505060405180910390f35b6104be610f4d565b604051808260ff16815260200191505060405180910390f35b610519600480360360208110156104ed57600080fd5b81019080803573ffffffffffffffffffffffffffffffffffffffff169060200190929190505050610f64565b005b6105476004803603602081101561053157600080fd5b8101908080359060200190929190505050611136565b6040518082815260200191505060405180910390f35b61056561114e565b6040518082815260200191505060405180910390f35b6105bd6004803603602081101561059157600080fd5b81019080803573ffffffffffffffffffffffffffffffffffffffff169060200190929190505050611332565b005b6105f5600480360360408110156105d557600080fd5b810190808035906020019092919080359060200190929190505050611482565b6040518082815260200191505060405180910390f35b610613611588565b6040518082815260200191505060405180910390f35b61066b6004803603602081101561063f57600080fd5b81019080803573ffffffffffffffffffffffffffffffffffffffff1690602001909291905050506115e8565b60405180821515815260200191505060405180910390f35b6106c56004803603602081101561069957600080fd5b81019080803573ffffffffffffffffffffffffffffffffffffffff169060200190929190505050611653565b6040518082815260200191505060405180910390f35b610707600480360360208110156106f157600080fd5b810190808035906020019092919050505061169c565b005b6107116117aa565b604051808273ffffffffffffffffffffffffffffffffffffffff16815260200191505060405180910390f35b6107456117d0565b6040518082815260200191505060405180910390f35b6107636117ef565b604051808273ffffffffffffffffffffffffffffffffffffffff16815260200191505060405180910390f35b610797611815565b6040518080602001828103825283818151815260200191508051906020019080838360005b838110156107d75780820151818401526020810190506107bc565b50505050905090810190601f1680156108045780820380516001836020036101000a031916815260200191505b509250505060405180910390f35b6108486004803603604081101561082857600080fd5b8101908080359060200190929190803590602001909291905050506118b7565b6040518082815260200191505060405180910390f35b6108a06004803603602081101561087457600080fd5b81019080803573ffffffffffffffffffffffffffffffffffffffff1690602001909291905050506119bd565b005b6108e4600480360360208110156108b857600080fd5b81019080803573ffffffffffffffffffffffffffffffffffffffff169060200190929190505050611b34565b005b610932600480360360408110156108fc57600080fd5b81019080803573ffffffffffffffffffffffffffffffffffffffff16906020019092919080359060200190929190505050611c84565b60405180821515815260200191505060405180910390f35b610952611ca2565b604051808273ffffffffffffffffffffffffffffffffffffffff16815260200191505060405180910390f35b6109ca6004803603604081101561099457600080fd5b81019080803573ffffffffffffffffffffffffffffffffffffffff16906020019092919080359060200190929190505050611cc8565b005b6109d4611ebd565b6040518082815260200191505060405180910390f35b6109f2611ee5565b6040518082815260200191505060405180910390f35b610a10611eed565b6040518082815260200191505060405180910390f35b610a5260048036036020811015610a3c57600080fd5b8101908080359060200190929190505050611f33565b005b610a9660048036036020811015610a6a57600080fd5b81019080803573ffffffffffffffffffffffffffffffffffffffff169060200190929190505050612007565b005b610afa60048036036040811015610aae57600080fd5b81019080803573ffffffffffffffffffffffffffffffffffffffff169060200190929190803573ffffffffffffffffffffffffffffffffffffffff169060200190929190505050612157565b6040518082815260200191505060405180910390f35b610b5260048036036020811015610b2657600080fd5b81019080803573ffffffffffffffffffffffffffffffffffffffff1690602001909291905050506121de565b005b610ba060048036036040811015610b6a57600080fd5b81019080803573ffffffffffffffffffffffffffffffffffffffff1690602001909291908035906020019092919050505061232e565b005b610baa612523565b6040518082815260200191505060405180910390f35b610bc8612569565b6040518082815260200191505060405180910390f35b6000600960008373ffffffffffffffffffffffffffffffffffffffff1673ffffffffffffffffffffffffffffffffffffffff168152602001908152602001600020549050919050565b60007f0000000000000000000000000000000000000000000000000000000000000000905090565b606060138054600181600116156101000203166002900480601f016020809104026020016040519081016040528092919081815260200182805460018160011615610100020316600290048015610ce75780601f10610cbc57610100808354040283529160200191610ce7565b820191906000526020600020905b815481529060010190602001808311610cca57829003601f168201915b5050505050905090565b6000600c60009054906101000a900473ffffffffffffffffffffffffffffffffffffffff1673ffffffffffffffffffffffffffffffffffffffff16610d3461293a565b73ffffffffffffffffffffffffffffffffffffffff1614610dbd576040517f08c379a000000000000000000000000000000000000000000000000000000000815260040180806020018281038252601c8152602001807f47524953453a204f7065726174696f6e206e6f7420616c6c6f7765640000000081525060200191505060405180910390fd5b60008390505b82811015610e3957610e286007600083815260200190815260200160002054610e1a670de0b6b3a764000067ffffffffffffffff16600560008681526020019081526020016000205461294290919063ffffffff16565b6129f090919063ffffffff16565b820191508080600101915050610dc3565b5092915050565b6000610e54610e4d61293a565b8484612a1c565b6001905092915050565b6000601654905090565b600c60009054906101000a900473ffffffffffffffffffffffffffffffffffffffff1681565b6000610f3784610e9c61293a565b610f3285600a60008a73ffffffffffffffffffffffffffffffffffffffff1673ffffffffffffffffffffffffffffffffffffffff1681526020019081526020016000206000610ee961293a565b73ffffffffffffffffffffffffffffffffffffffff1673ffffffffffffffffffffffffffffffffffffffff16815260200190815260200160002054612b7b90919063ffffffff16565b612a1c565b610f42848484612c04565b600190509392505050565b6000601560009054906101000a900460ff16905090565b600c60009054906101000a900473ffffffffffffffffffffffffffffffffffffffff1673ffffffffffffffffffffffffffffffffffffffff16610fa561293a565b73ffffffffffffffffffffffffffffffffffffffff161461102e576040517f08c379a000000000000000000000000000000000000000000000000000000000815260040180806020018281038252601c8152602001807f47524953453a204f7065726174696f6e206e6f7420616c6c6f7765640000000081525060200191505060405180910390fd5b6000600860008373ffffffffffffffffffffffffffffffffffffffff1673ffffffffffffffffffffffffffffffffffffffff16815260200190815260200160002060009054906101000a900461ffff1661ffff161115611133576001600860008373ffffffffffffffffffffffffffffffffffffffff1673ffffffffffffffffffffffffffffffffffffffff16815260200190815260200160002060009054906101000a900461ffff1603600860008373ffffffffffffffffffffffffffffffffffffffff1673ffffffffffffffffffffffffffffffffffffffff16815260200190815260200160002060006101000a81548161ffff021916908361ffff1602179055505b50565b60026020528060005260406000206000915090505481565b600080611159611eed565b9050600061116d61116861293a565b611653565b1115806111e357506006600061118161293a565b73ffffffffffffffffffffffffffffffffffffffff1673ffffffffffffffffffffffffffffffffffffffff16815260200190815260200160002060006111c6836131f8565b815260200190815260200160002060009054906101000a900460ff165b806111fd57506111f16117d0565b6111fa826131f8565b14155b1561120b576000915061132e565b600080611228600763ffffffff168461321290919063ffffffff16565b1161124c57611247600763ffffffff1683612b7b90919063ffffffff16565b611279565b611278611269600763ffffffff168461321290919063ffffffff16565b83612b7b90919063ffffffff16565b5b905060008190505b8281101561132b5761131a600760008381526020019081526020016000205461130c600960006112af61293a565b73ffffffffffffffffffffffffffffffffffffffff1673ffffffffffffffffffffffffffffffffffffffff16815260200190815260200160002054600560008681526020019081526020016000205461294290919063ffffffff16565b6129f090919063ffffffff16565b840193508080600101915050611281565b50505b5090565b61133a61293a565b73ffffffffffffffffffffffffffffffffffffffff16600f60009054906101000a900473ffffffffffffffffffffffffffffffffffffffff1673ffffffffffffffffffffffffffffffffffffffff16146113fc576040517f08c379a000000000000000000000000000000000000000000000000000000000815260040180806020018281038252601c8152602001807f47524953453a204f7065726174696f6e206e6f7420616c6c6f7765640000000081525060200191505060405180910390fd5b80600b60006101000a81548173ffffffffffffffffffffffffffffffffffffffff021916908373ffffffffffffffffffffffffffffffffffffffff1602179055506000600f60006101000a81548173ffffffffffffffffffffffffffffffffffffffff021916908373ffffffffffffffffffffffffffffffffffffffff16021790555050565b6000600c60009054906101000a900473ffffffffffffffffffffffffffffffffffffffff1673ffffffffffffffffffffffffffffffffffffffff166114c561293a565b73ffffffffffffffffffffffffffffffffffffffff161461154e576040517f08c379a000000000000000000000000000000000000000000000000000000000815260040180806020018281038252601c8152602001807f47524953453a204f7065726174696f6e206e6f7420616c6c6f7765640000000081525060200191505060405180910390fd5b60008390505b82811015611581576003600082815260200190815260200160002054820191508080600101915050611554565b5092915050565b6000806115ac600763ffffffff1661159e611eed565b61321290919063ffffffff16565b116115b85760006115e3565b6115d9600763ffffffff166115cb611eed565b61321290919063ffffffff16565b600763ffffffff16035b905090565b600080600860008473ffffffffffffffffffffffffffffffffffffffff1673ffffffffffffffffffffffffffffffffffffffff16815260200190815260200160002060009054906101000a900461ffff1661ffff161161164957600061164c565b60015b9050919050565b6000600960008373ffffffffffffffffffffffffffffffffffffffff1673ffffffffffffffffffffffffffffffffffffffff168152602001908152602001600020549050919050565b600c60009054906101000a900473ffffffffffffffffffffffffffffffffffffffff1673ffffffffffffffffffffffffffffffffffffffff166116dd61293a565b73ffffffffffffffffffffffffffffffffffffffff1614611766576040517f08c379a000000000000000000000000000000000000000000000000000000000815260040180806020018281038252601c8152602001807f47524953453a204f7065726174696f6e206e6f7420616c6c6f7765640000000081525060200191505060405180910390fd5b8060008190555061178960005461177b610e5e565b61329c90919063ffffffff16565b60076000611795611eed565b81526020019081526020016000208190555050565b600d60009054906101000a900473ffffffffffffffffffffffffffffffffffffffff1681565b6000600763ffffffff166117e2611eed565b816117e957fe5b04905090565b600e60009054906101000a900473ffffffffffffffffffffffffffffffffffffffff1681565b606060148054600181600116156101000203166002900480601f0160208091040260200160405190810160405280929190818152602001828054600181600116156101000203166002900480156118ad5780601f10611882576101008083540402835291602001916118ad565b820191906000526020600020905b81548152906001019060200180831161189057829003601f168201915b5050505050905090565b6000600c60009054906101000a900473ffffffffffffffffffffffffffffffffffffffff1673ffffffffffffffffffffffffffffffffffffffff166118fa61293a565b73ffffffffffffffffffffffffffffffffffffffff1614611983576040517f08c379a000000000000000000000000000000000000000000000000000000000815260040180806020018281038252601c8152602001807f47524953453a204f7065726174696f6e206e6f7420616c6c6f7765640000000081525060200191505060405180910390fd5b60008390505b828110156119b6576004600082815260200190815260200160002054820191508080600101915050611989565b5092915050565b600c60009054906101000a900473ffffffffffffffffffffffffffffffffffffffff1673ffffffffffffffffffffffffffffffffffffffff166119fe61293a565b73ffffffffffffffffffffffffffffffffffffffff1614611a87576040517f08c379a000000000000000000000000000000000000000000000000000000000815260040180806020018281038252601c8152602001807f47524953453a204f7065726174696f6e206e6f7420616c6c6f7765640000000081525060200191505060405180910390fd5b6001600860008373ffffffffffffffffffffffffffffffffffffffff1673ffffffffffffffffffffffffffffffffffffffff16815260200190815260200160002060009054906101000a900461ffff1601600860008373ffffffffffffffffffffffffffffffffffffffff1673ffffffffffffffffffffffffffffffffffffffff16815260200190815260200160002060006101000a81548161ffff021916908361ffff16021790555050565b611b3c61293a565b73ffffffffffffffffffffffffffffffffffffffff16601060009054906101000a900473ffffffffffffffffffffffffffffffffffffffff1673ffffffffffffffffffffffffffffffffffffffff1614611bfe576040517f08c379a000000000000000000000000000000000000000000000000000000000815260040180806020018281038252601c8152602001807f47524953453a204f7065726174696f6e206e6f7420616c6c6f7765640000000081525060200191505060405180910390fd5b80600c60006101000a81548173ffffffffffffffffffffffffffffffffffffffff021916908373ffffffffffffffffffffffffffffffffffffffff1602179055506000601060006101000a81548173ffffffffffffffffffffffffffffffffffffffff021916908373ffffffffffffffffffffffffffffffffffffffff16021790555050565b6000611c98611c9161293a565b8484612c04565b6001905092915050565b600b60009054906101000a900473ffffffffffffffffffffffffffffffffffffffff1681565b600b60009054906101000a900473ffffffffffffffffffffffffffffffffffffffff1673ffffffffffffffffffffffffffffffffffffffff16611d0961293a565b73ffffffffffffffffffffffffffffffffffffffff161480611d7f5750600c60009054906101000a900473ffffffffffffffffffffffffffffffffffffffff1673ffffffffffffffffffffffffffffffffffffffff16611d6761293a565b73ffffffffffffffffffffffffffffffffffffffff16145b80611dde5750600d60009054906101000a900473ffffffffffffffffffffffffffffffffffffffff1673ffffffffffffffffffffffffffffffffffffffff16611dc661293a565b73ffffffffffffffffffffffffffffffffffffffff16145b80611e3d5750600e60009054906101000a900473ffffffffffffffffffffffffffffffffffffffff1673ffffffffffffffffffffffffffffffffffffffff16611e2561293a565b73ffffffffffffffffffffffffffffffffffffffff16145b611eaf576040517f08c379a000000000000000000000000000000000000000000000000000000000815260040180806020018281038252601c8152602001807f47524953453a204f7065726174696f6e206e6f7420616c6c6f7765640000000081525060200191505060405180910390fd5b611eb98282613324565b5050565b60007f0000000000000000000000000000000000000000000000000000000000000000905090565b600042905090565b60007f0000000000000000000000000000000000000000000000000000000000000000611f186134ad565b1015611f25576000611f2e565b611f2d6134b5565b5b905090565b600c60009054906101000a900473ffffffffffffffffffffffffffffffffffffffff1673ffffffffffffffffffffffffffffffffffffffff16611f7461293a565b73ffffffffffffffffffffffffffffffffffffffff1614611ffd576040517f08c379a000000000000000000000000000000000000000000000000000000000815260040180806020018281038252601c8152602001807f47524953453a204f7065726174696f6e206e6f7420616c6c6f7765640000000081525060200191505060405180910390fd5b8060018190555050565b61200f61293a565b73ffffffffffffffffffffffffffffffffffffffff16601160009054906101000a900473ffffffffffffffffffffffffffffffffffffffff1673ffffffffffffffffffffffffffffffffffffffff16146120d1576040517f08c379a000000000000000000000000000000000000000000000000000000000815260040180806020018281038252601c8152602001807f47524953453a204f7065726174696f6e206e6f7420616c6c6f7765640000000081525060200191505060405180910390fd5b80600d60006101000a81548173ffffffffffffffffffffffffffffffffffffffff021916908373ffffffffffffffffffffffffffffffffffffffff1602179055506000601160006101000a81548173ffffffffffffffffffffffffffffffffffffffff021916908373ffffffffffffffffffffffffffffffffffffffff16021790555050565b6000600a60008473ffffffffffffffffffffffffffffffffffffffff1673ffffffffffffffffffffffffffffffffffffffff16815260200190815260200160002060008373ffffffffffffffffffffffffffffffffffffffff1673ffffffffffffffffffffffffffffffffffffffff16815260200190815260200160002054905092915050565b6121e661293a565b73ffffffffffffffffffffffffffffffffffffffff16601260009054906101000a900473ffffffffffffffffffffffffffffffffffffffff1673ffffffffffffffffffffffffffffffffffffffff16146122a8576040517f08c379a000000000000000000000000000000000000000000000000000000000815260040180806020018281038252601c8152602001807f47524953453a204f7065726174696f6e206e6f7420616c6c6f7765640000000081525060200191505060405180910390fd5b80600e60006101000a81548173ffffffffffffffffffffffffffffffffffffffff021916908373ffffffffffffffffffffffffffffffffffffffff1602179055506000601260006101000a81548173ffffffffffffffffffffffffffffffffffffffff021916908373ffffffffffffffffffffffffffffffffffffffff16021790555050565b600b60009054906101000a900473ffffffffffffffffffffffffffffffffffffffff1673ffffffffffffffffffffffffffffffffffffffff1661236f61293a565b73ffffffffffffffffffffffffffffffffffffffff1614806123e55750600c60009054906101000a900473ffffffffffffffffffffffffffffffffffffffff1673ffffffffffffffffffffffffffffffffffffffff166123cd61293a565b73ffffffffffffffffffffffffffffffffffffffff16145b806124445750600d60009054906101000a900473ffffffffffffffffffffffffffffffffffffffff1673ffffffffffffffffffffffffffffffffffffffff1661242c61293a565b73ffffffffffffffffffffffffffffffffffffffff16145b806124a35750600e60009054906101000a900473ffffffffffffffffffffffffffffffffffffffff1673ffffffffffffffffffffffffffffffffffffffff1661248b61293a565b73ffffffffffffffffffffffffffffffffffffffff16145b612515576040517f08c379a000000000000000000000000000000000000000000000000000000000815260040180806020018281038252601c8152602001807f47524953453a204f7065726174696f6e206e6f7420616c6c6f7765640000000081525060200191505060405180910390fd5b61251f82826134cc565b5050565b60007f000000000000000000000000000000000000000000000000000000000000000061254e6134ad565b101561255b576000612564565b61256361365a565b5b905090565b600080612574611eed565b9050600061258861258361293a565b611653565b116125de576040517f08c379a000000000000000000000000000000000000000000000000000000000815260040180806020018281038252603b8152602001806137bd603b913960400191505060405180910390fd5b6000612601600763ffffffff166125f3611eed565b61321290919063ffffffff16565b14612657576040517f08c379a00000000000000000000000000000000000000000000000000000000081526004018080602001828103825260328152602001806137f86032913960400191505060405180910390fd5b61265f6117d0565b612668826131f8565b146126be576040517f08c379a000000000000000000000000000000000000000000000000000000000815260040180806020018281038252602a815260200180613793602a913960400191505060405180910390fd5b600660006126ca61293a565b73ffffffffffffffffffffffffffffffffffffffff1673ffffffffffffffffffffffffffffffffffffffff168152602001908152602001600020600061270e6117d0565b815260200190815260200160002060009054906101000a900460ff1615612780576040517f08c379a00000000000000000000000000000000000000000000000000000000081526004018080602001828103825260328152602001806137616032913960400191505060405180910390fd5b600061279c600763ffffffff1683612b7b90919063ffffffff16565b90505b8181101561284957612838600760008381526020019081526020016000205461282a600960006127cd61293a565b73ffffffffffffffffffffffffffffffffffffffff1673ffffffffffffffffffffffffffffffffffffffff16815260200190815260200160002054600560008681526020019081526020016000205461294290919063ffffffff16565b6129f090919063ffffffff16565b83019250808060010191505061279f565b5061285b61285561293a565b836134cc565b60016006600061286961293a565b73ffffffffffffffffffffffffffffffffffffffff1673ffffffffffffffffffffffffffffffffffffffff16815260200190815260200160002060006128ad6117d0565b815260200190815260200160002060006101000a81548160ff0219169083151502179055506128da61293a565b73ffffffffffffffffffffffffffffffffffffffff167f311a233fc02c36f3725ecba64fab4ba466b3d199fa2b41121a1a0840671416e66129196117d0565b84604051808381526020018281526020019250505060405180910390a25090565b600033905090565b6000808314806129525750600082145b1561296057600090506129ea565b600082840290508284828161297157fe5b04146129e5576040517f08c379a000000000000000000000000000000000000000000000000000000000815260040180806020018281038252601a8152602001807f47524953453a20536166654d617468204d756c206661696c656400000000000081525060200191505060405180910390fd5b809150505b92915050565b600080821415612a035760009050612a16565b6000828481612a0e57fe5b049050809150505b92915050565b600073ffffffffffffffffffffffffffffffffffffffff168373ffffffffffffffffffffffffffffffffffffffff161415612a5657600080fd5b600073ffffffffffffffffffffffffffffffffffffffff168273ffffffffffffffffffffffffffffffffffffffff161415612a9057600080fd5b80600a60008573ffffffffffffffffffffffffffffffffffffffff1673ffffffffffffffffffffffffffffffffffffffff16815260200190815260200160002060008473ffffffffffffffffffffffffffffffffffffffff1673ffffffffffffffffffffffffffffffffffffffff168152602001908152602001600020819055508173ffffffffffffffffffffffffffffffffffffffff168373ffffffffffffffffffffffffffffffffffffffff167f8c5be1e5ebec7d5bd14f71427d1e84f3dd0314c0f7b2291e5b200ac8c7c3b925836040518082815260200191505060405180910390a3505050565b600082821115612bf3576040517f08c379a000000000000000000000000000000000000000000000000000000000815260040180806020018281038252601a8152602001807f47524953453a20536166654d61746820537562206661696c656400000000000081525060200191505060405180910390fd5b600082840390508091505092915050565b600073ffffffffffffffffffffffffffffffffffffffff168373ffffffffffffffffffffffffffffffffffffffff161415612c3e57600080fd5b600073ffffffffffffffffffffffffffffffffffffffff168273ffffffffffffffffffffffffffffffffffffffff161415612c7857600080fd5b600080600080612c866134b5565b90506000600860008973ffffffffffffffffffffffffffffffffffffffff1673ffffffffffffffffffffffffffffffffffffffff16815260200190815260200160002060009054906101000a900461ffff1661ffff161115612ecd57612ceb85613674565b9350612d1384600260008481526020019081526020016000205461329c90919063ffffffff16565b6002600083815260200190815260200160002081905550612d94612d72600154612d6461271061ffff16612d56610c2b61ffff168a61294290919063ffffffff16565b6129f090919063ffffffff16565b6129f090919063ffffffff16565b600360008481526020019081526020016000205461329c90919063ffffffff16565b6003600083815260200190815260200160002081905550612e15612df3600154612de561271061ffff16612dd761066161ffff168a61294290919063ffffffff16565b6129f090919063ffffffff16565b6129f090919063ffffffff16565b600460008481526020019081526020016000205461329c90919063ffffffff16565b6004600083815260200190815260200160002081905550612e82612e6061271061ffff16612e52610a3461ffff168861294290919063ffffffff16565b6129f090919063ffffffff16565b600560008481526020019081526020016000205461329c90919063ffffffff16565b6005600083815260200190815260200160002081905550612eca61271061ffff16612ebc61059761ffff168761294290919063ffffffff16565b6129f090919063ffffffff16565b91505b612ed6856136ae565b9250612f2a85600960008a73ffffffffffffffffffffffffffffffffffffffff1673ffffffffffffffffffffffffffffffffffffffff16815260200190815260200160002054612b7b90919063ffffffff16565b600960008973ffffffffffffffffffffffffffffffffffffffff1673ffffffffffffffffffffffffffffffffffffffff16815260200190815260200160002081905550612fe3612f9585612f878689612b7b90919063ffffffff16565b612b7b90919063ffffffff16565b600960008973ffffffffffffffffffffffffffffffffffffffff1673ffffffffffffffffffffffffffffffffffffffff1681526020019081526020016000205461329c90919063ffffffff16565b600960008873ffffffffffffffffffffffffffffffffffffffff1673ffffffffffffffffffffffffffffffffffffffff1681526020019081526020016000208190555061305761271061ffff1661304961068361ffff168661294290919063ffffffff16565b6129f090919063ffffffff16565b820191506130c18260096000737ff1f8c467114bfbbcc56e406c0ec21e781bb95973ffffffffffffffffffffffffffffffffffffffff1673ffffffffffffffffffffffffffffffffffffffff1681526020019081526020016000205461329c90919063ffffffff16565b60096000737ff1f8c467114bfbbcc56e406c0ec21e781bb95973ffffffffffffffffffffffffffffffffffffffff1673ffffffffffffffffffffffffffffffffffffffff1681526020019081526020016000208190555061315161314083613132868861329c90919063ffffffff16565b612b7b90919063ffffffff16565b601654612b7b90919063ffffffff16565b601681905550613173600054613165610e5e565b61329c90919063ffffffff16565b60076000838152602001908152602001600020819055508573ffffffffffffffffffffffffffffffffffffffff168773ffffffffffffffffffffffffffffffffffffffff167fddf252ad1be2c89b69c2b068fc378daa952ba7f163c4a11628f55a4df523b3ef876040518082815260200191505060405180910390a350505050505050565b6000600763ffffffff16828161320a57fe5b049050919050565b60008082141561328a576040517f08c379a000000000000000000000000000000000000000000000000000000000815260040180806020018281038252601a8152602001807f47524953453a20536166654d617468204d6f64206661696c656400000000000081525060200191505060405180910390fd5b81838161329357fe5b06905092915050565b60008082840190508381101561331a576040517f08c379a000000000000000000000000000000000000000000000000000000000815260040180806020018281038252601a8152602001807f47524953453a20536166654d61746820416464206661696c656400000000000081525060200191505060405180910390fd5b8091505092915050565b600073ffffffffffffffffffffffffffffffffffffffff168273ffffffffffffffffffffffffffffffffffffffff16141561335e57600080fd5b6133b081600960008573ffffffffffffffffffffffffffffffffffffffff1673ffffffffffffffffffffffffffffffffffffffff16815260200190815260200160002054612b7b90919063ffffffff16565b600960008473ffffffffffffffffffffffffffffffffffffffff1673ffffffffffffffffffffffffffffffffffffffff1681526020019081526020016000208190555061340881601654612b7b90919063ffffffff16565b60168190555061342560005460165461329c90919063ffffffff16565b60076000613431611eed565b815260200190815260200160002081905550600073ffffffffffffffffffffffffffffffffffffffff168273ffffffffffffffffffffffffffffffffffffffff167fddf252ad1be2c89b69c2b068fc378daa952ba7f163c4a11628f55a4df523b3ef836040518082815260200191505060405180910390a35050565b600042905090565b60006134c76134c26134ad565b6136e7565b905090565b600073ffffffffffffffffffffffffffffffffffffffff168273ffffffffffffffffffffffffffffffffffffffff16141561350657600080fd5b61351b8160165461329c90919063ffffffff16565b60168190555061357381600960008573ffffffffffffffffffffffffffffffffffffffff1673ffffffffffffffffffffffffffffffffffffffff1681526020019081526020016000205461329c90919063ffffffff16565b600960008473ffffffffffffffffffffffffffffffffffffffff1673ffffffffffffffffffffffffffffffffffffffff168152602001908152602001600020819055506135d26000546135c4610e5e565b61329c90919063ffffffff16565b600760006135de611eed565b8152602001908152602001600020819055508173ffffffffffffffffffffffffffffffffffffffff16600073ffffffffffffffffffffffffffffffffffffffff167fddf252ad1be2c89b69c2b068fc378daa952ba7f163c4a11628f55a4df523b3ef836040518082815260200191505060405180910390a35050565b6000600161366e6136696134ad565b613723565b01905090565b60006136a761271061ffff1661369961015b61ffff168561294290919063ffffffff16565b6129f090919063ffffffff16565b9050919050565b60006136e061271061ffff166136d2601e61ffff168561294290919063ffffffff16565b6129f090919063ffffffff16565b9050919050565b600060b463ffffffff167f000000000000000000000000000000000000000000000000000000000000000083038161371b57fe5b049050919050565b600061384063ffffffff167f000000000000000000000000000000000000000000000000000000000000000083038161375857fe5b04905091905056fe4752495345202d205472616e73636174696f6e2052657761726420697320616c7265616479206265656e20636c61696d65644752495345202d20596f7520617265206c6174652f6561726c7920746f20636c61696d207265776172644752495345202d20546f6b656e20686f6c64657220646f65736e6f7420656e6f7567682062616c616e636520746f20636c61696d207265776172644752495345202d205472616e73636174696f6e205265776172642077696e646f77206973206e6f742079656174206f70656ea26469706673582212208349b28cfbb0b6089358c79e1c7a1c7cf283c20d4f7c99986990b8182a0827cf64736f6c63430007060033",
  "immutableReferences": {
    "89": [
      {
        "length": 32,
        "start": 7873
      },
      {
        "length": 32,
        "start": 7921
      },
      {
        "length": 32,
        "start": 14067
      }
    ],
    "91": [
      {
        "length": 32,
        "start": 3115
      },
      {
        "length": 32,
        "start": 9511
      },
      {
        "length": 32,
        "start": 14128
      }
    ]
  },
  "source": "// SPDX-License-Identifier: ----\r\n\r\npragma solidity =0.7.6;\r\n\r\nimport \"./Utils.sol\";\r\n\r\ncontract GriseToken is Utils {\r\n\r\n    using SafeMath for uint256;\r\n\r\n    mapping (address => uint256) private _balances;\r\n    mapping (address => mapping (address => uint256)) private _allowances;\r\n\r\n    address public LIQUIDITY_GATEKEEPER;\r\n    address public STAKE_GATEKEEPER;\r\n    address public VAULT_GATEKEEPER;\r\n    address public TOKENMATRIX_GATEKEEPER;\r\n\r\n    address private liquidtyGateKeeper;\r\n    address private stakeGateKeeper;\r\n    address private vaultGateKeeper;\r\n    address private tokenMatrixGateKeeper;\r\n\r\n    /**\r\n     * @dev initial private\r\n     */\r\n    string private _name;\r\n    string private _symbol;\r\n    uint8 private _decimal = 18;\r\n\r\n    /**\r\n     * @dev  Initial supply \r\n     */\r\n    uint256 private _totalSupply = 0;\r\n\r\n    event Transfer(\r\n        address indexed from,\r\n        address indexed to,\r\n        uint256 value\r\n    );\r\n\r\n    event Approval(\r\n        address indexed owner,\r\n        address indexed spender,\r\n        uint256 value\r\n    );\r\n\r\n    constructor (string memory tokenName, string memory tokenSymbol) {\r\n        _name = tokenName;\r\n        _symbol = tokenSymbol;\r\n        liquidtyGateKeeper = _msgSender();\r\n        stakeGateKeeper = _msgSender();\r\n        vaultGateKeeper = _msgSender();\r\n        tokenMatrixGateKeeper = _msgSender();\r\n    }\r\n\r\n    /**\r\n     * @dev Returns the name of the token.\r\n     */\r\n    function name() public view returns (string memory) {\r\n        return _name;\r\n    }\r\n\r\n    /**\r\n     * @dev Returns the symbol of the token.\r\n     */\r\n    function symbol() public view returns (string memory) {\r\n        return _symbol;\r\n    }\r\n\r\n    /**\r\n     * @dev Returns the decimals of the token.\r\n     */\r\n    function decimals() public view returns (uint8) {\r\n        return _decimal;\r\n    }\r\n\r\n    /**\r\n     * @dev Returns the total supply of the token.\r\n     */\r\n    function totalSupply() public view returns (uint256) {\r\n        return _totalSupply;\r\n    }\r\n\r\n    /**\r\n     * @dev Returns the token balance of specific address.\r\n     */\r\n    function balanceOf(address account) public view returns (uint256) {\r\n        return _balances[account];\r\n    }\r\n\r\n    function transfer(\r\n        address recipient,\r\n        uint256 amount\r\n    )\r\n        public\r\n        returns (bool)\r\n    {  \r\n        _transfer(\r\n            _msgSender(),\r\n            recipient,\r\n            amount\r\n        );\r\n\r\n        return true;\r\n    }\r\n\r\n    /**\r\n     * @dev Returns approved balance to be spent by another address\r\n     * by using transferFrom method\r\n     */\r\n    function allowance(\r\n        address owner,\r\n        address spender\r\n    )\r\n        public\r\n        view\r\n        returns (uint256)\r\n    {\r\n        return _allowances[owner][spender];\r\n    }\r\n\r\n    /**\r\n     * @dev Sets the token allowance to another spender\r\n     */\r\n    function approve(\r\n        address spender,\r\n        uint256 amount\r\n    )\r\n        public\r\n        returns (bool)\r\n    {\r\n        _approve(\r\n            _msgSender(),\r\n            spender,\r\n            amount\r\n        );\r\n\r\n        return true;\r\n    }\r\n\r\n    /**\r\n     * @dev Allows to transfer tokens on senders behalf\r\n     * based on allowance approved for the executer\r\n     */\r\n    function transferFrom(\r\n        address sender,\r\n        address recipient,\r\n        uint256 amount\r\n    )\r\n        public\r\n        returns (bool)\r\n    {    \r\n        _approve(sender,\r\n            _msgSender(), _allowances[sender][_msgSender()].sub(\r\n                amount\r\n            )\r\n        );\r\n\r\n        _transfer(\r\n            sender,\r\n            recipient,\r\n            amount\r\n        );\r\n        return true;\r\n    }\r\n\r\n    /**\r\n     * @dev Moves tokens `amount` from `sender` to `recipient`.\r\n     *\r\n     * Emits a {Transfer} event.\r\n     * Requirements:\r\n     *\r\n     * - `sender` cannot be the zero address.\r\n     * - `recipient` cannot be the zero address.\r\n     * - `sender` must have a balance of at least `amount`.\r\n     */\r\n    function _transfer(\r\n        address sender,\r\n        address recipient,\r\n        uint256 amount\r\n    )\r\n        internal\r\n        virtual\r\n    {\r\n        require(\r\n            sender != address(0x0)\r\n        );\r\n\r\n        require(\r\n            recipient != address(0x0)\r\n        );\r\n\r\n        uint256 stFee;\r\n        uint256 btFee;\r\n        uint256 teamReward;\r\n        uint256 currentGriseDay = _currentGriseDay();\r\n\r\n        if (staker[sender] > 0) {\r\n            stFee = _calculateSellTranscFee(amount);\r\n\r\n            sellTranscFee[currentGriseDay] = \r\n            sellTranscFee[currentGriseDay]\r\n                        .add(stFee);\r\n                \r\n            reservoirRewardPerShare[currentGriseDay] = \r\n            reservoirRewardPerShare[currentGriseDay]\r\n                        .add(stFee.mul(TRANSC_RESERVOIR_REWARD)\r\n                        .div(REWARD_PRECISION_RATE)\r\n                        .div(mediumTermShares));\r\n                \r\n            stakerRewardPerShare[currentGriseDay] = \r\n            stakerRewardPerShare[currentGriseDay]\r\n                        .add(stFee.mul(TRANSC_STAKER_REWARD)\r\n                        .div(REWARD_PRECISION_RATE)\r\n                        .div(mediumTermShares));\r\n                \r\n            tokenHolderReward[currentGriseDay] = \r\n            tokenHolderReward[currentGriseDay]\r\n                        .add(stFee.mul(TRANSC_TOKEN_HOLDER_REWARD)\r\n                        .div(REWARD_PRECISION_RATE));\r\n            \r\n            teamReward = stFee.mul(TEAM_SELL_TRANSC_REWARD)\r\n                              .div(REWARD_PRECISION_RATE);\r\n        }\r\n\r\n        btFee = _calculateBuyTranscFee(amount);\r\n        \r\n        _balances[sender] =\r\n        _balances[sender].sub(amount);\r\n\r\n        _balances[recipient] =\r\n        _balances[recipient].add(amount.sub(btFee).sub(stFee));\r\n\r\n        teamReward += btFee.mul(TEAM_BUY_TRANS_REWARD)\r\n                           .div(REWARD_PRECISION_RATE);\r\n        \r\n        _balances[TEAM_ADDRESS] = \r\n        _balances[TEAM_ADDRESS].add(teamReward);\r\n\r\n        // Burn Transction fee\r\n        // We will mint token when user comes\r\n        // to claim transction fee reward.\r\n        _totalSupply =\r\n        _totalSupply.sub(stFee.add(btFee).sub(teamReward));\r\n\r\n        totalToken[currentGriseDay] = totalSupply().add(stakedToken);\r\n        \r\n        emit Transfer(\r\n            sender,\r\n            recipient,\r\n            amount\r\n        );\r\n    }\r\n\r\n    /** @dev Creates `amount` tokens and assigns them to `account`, increasing\r\n     * the total supply.\r\n     *\r\n     * Emits a {Transfer} event with `from` set to the zero address.\r\n     * Requirements:\r\n     *\r\n     * - `to` cannot be the zero address.\r\n     */\r\n    function _mint(\r\n        address account,\r\n        uint256 amount\r\n    )\r\n        internal\r\n        virtual\r\n    {\r\n        require(\r\n            account != address(0x0)\r\n        );\r\n        \r\n        _totalSupply =\r\n        _totalSupply.add(amount);\r\n\r\n        _balances[account] =\r\n        _balances[account].add(amount);\r\n\r\n        totalToken[currentGriseDay()] = totalSupply().add(stakedToken);\r\n        \r\n        emit Transfer(\r\n            address(0x0),\r\n            account,\r\n            amount\r\n        );\r\n    }\r\n\r\n    /**\r\n     * @dev Destroys `amount` tokens from `account`, reducing the\r\n     * total supply.\r\n     *\r\n     * Emits a {Transfer} event with `to` set to the zero address.\r\n     *\r\n     * Requirements:\r\n\r\n     *\r\n     * - `account` cannot be the zero address.\r\n     * - `account` must have at least `amount` tokens.\r\n     */\r\n    function _burn(\r\n        address account,\r\n        uint256 amount\r\n    )\r\n        internal\r\n        virtual\r\n    {\r\n        require(\r\n            account != address(0x0)\r\n        );\r\n    \r\n        _balances[account] =\r\n        _balances[account].sub(amount);\r\n\r\n        _totalSupply =\r\n        _totalSupply.sub(amount);\r\n\r\n        totalToken[currentGriseDay()] = _totalSupply.add(stakedToken);\r\n        \r\n        emit Transfer(\r\n            account,\r\n            address(0x0),\r\n            amount\r\n        );\r\n    }\r\n\r\n    /**\r\n     * @dev Sets `amount` as the allowance of `spender` over the `owner`s tokens.\r\n     * Emits an {Approval} event.\r\n     *\r\n     * Requirements:\r\n     *\r\n     * - `owner` cannot be the zero address.\r\n     * - `spender` cannot be the zero address.\r\n     */\r\n    function _approve(\r\n        address owner,\r\n        address spender,\r\n        uint256 amount\r\n    )\r\n        internal\r\n        virtual\r\n    {\r\n        require(\r\n            owner != address(0x0)\r\n        );\r\n\r\n        require(\r\n            spender != address(0x0)\r\n        );\r\n\r\n        _allowances[owner][spender] = amount;\r\n\r\n        emit Approval(\r\n            owner,\r\n            spender,\r\n            amount\r\n        );\r\n    }\r\n\r\n    /**\r\n     * @notice ability to define liquidity transformer contract\r\n     * @dev this method renounce liquidtyGateKeeper access\r\n     * @param _immutableGateKeeper contract address\r\n     */\r\n    function setLiquidtyGateKeeper(\r\n        address _immutableGateKeeper\r\n    )\r\n        external\r\n    {\r\n        require(\r\n            liquidtyGateKeeper == _msgSender(),\r\n            'GRISE: Operation not allowed'\r\n        );\r\n\r\n        LIQUIDITY_GATEKEEPER = _immutableGateKeeper;\r\n        liquidtyGateKeeper = address(0x0);\r\n    }\r\n\r\n    /**\r\n     * @notice ability to define Staker contract\r\n     * @dev this method renounce stakeGateKeeper access\r\n     * @param _immutableGateKeeper contract address\r\n     */\r\n    function setStakeGateKeeper(\r\n        address _immutableGateKeeper\r\n    )\r\n        external\r\n    {\r\n        require(\r\n            stakeGateKeeper == _msgSender(),\r\n            'GRISE: Operation not allowed'\r\n        );\r\n\r\n        STAKE_GATEKEEPER = _immutableGateKeeper;\r\n        stakeGateKeeper = address(0x0);\r\n    }\r\n\r\n    /**\r\n     * @notice ability to define vault contract\r\n     * @dev this method renounce vaultGateKeeper access\r\n     * @param _immutableGateKeeper contract address\r\n     */\r\n    function setVaultGateKeeper(\r\n        address _immutableGateKeeper\r\n    )\r\n        external\r\n    {\r\n        require(\r\n            vaultGateKeeper == _msgSender(),\r\n            'GRISE: Operation not allowed'\r\n        );\r\n\r\n        VAULT_GATEKEEPER = _immutableGateKeeper;\r\n        vaultGateKeeper = address(0x0);\r\n    }\r\n\r\n    /**\r\n     * @notice ability to define tokenMatrix contract\r\n     * @dev this method renounce tokenMatrixGateKeeper access\r\n     * @param _immutableGateKeeper contract address\r\n     */\r\n    function setTokenMatrixGateKeeper(\r\n        address _immutableGateKeeper\r\n    )\r\n        external\r\n    {\r\n        require(\r\n            tokenMatrixGateKeeper == _msgSender(),\r\n            'GRISE: Operation not allowed'\r\n        );\r\n\r\n        TOKENMATRIX_GATEKEEPER = _immutableGateKeeper;\r\n        tokenMatrixGateKeeper = address(0x0);\r\n    }\r\n\r\n    modifier interfaceValidator() {\r\n        require (\r\n            _msgSender() == LIQUIDITY_GATEKEEPER ||\r\n            _msgSender() == STAKE_GATEKEEPER ||\r\n            _msgSender() == VAULT_GATEKEEPER || \r\n            _msgSender() == TOKENMATRIX_GATEKEEPER,\r\n            'GRISE: Operation not allowed'\r\n        );\r\n        _;\r\n    }\r\n\r\n    /**\r\n     * @notice allows liquidityTransformer to mint supply\r\n     * @dev executed from liquidityTransformer upon UNISWAP transfer\r\n     * and during reservation payout to contributors and referrers\r\n     * @param _investorAddress address for minting GRISE tokens\r\n     * @param _amount of tokens to mint for _investorAddress\r\n     */\r\n    function mintSupply(\r\n        address _investorAddress,\r\n        uint256 _amount\r\n    )\r\n        external\r\n        interfaceValidator\r\n    {       \r\n        _mint(\r\n            _investorAddress,\r\n            _amount\r\n        );\r\n    }\r\n\r\n    /**\r\n     * @notice allows liquidityTransformer to mint supply\r\n     * @dev executed from liquidityTransformer upon UNISWAP transfer\r\n     * and during reservation payout to contributors and referrers\r\n     * @param _investorAddress address for minting GRISE tokens\r\n     * @param _amount of tokens to mint for _investorAddress\r\n     */\r\n    function burnSupply(\r\n        address _investorAddress,\r\n        uint256 _amount\r\n    )\r\n        external\r\n        interfaceValidator\r\n    {\r\n        _burn(\r\n            _investorAddress,\r\n            _amount\r\n        );\r\n    }\r\n    \r\n    function viewTokenHolderTranscReward() \r\n        external \r\n        view \r\n        returns (uint256 rewardAmount) \r\n    {\r\n        \r\n        uint256 _day = currentGriseDay();\r\n        \r\n        if( (balanceOf(_msgSender()) <= 0) ||\r\n            isTranscFeeClaimed[_msgSender()][calculateGriseWeek(_day)] ||  \r\n            calculateGriseWeek(_day) != currentGriseWeek())\r\n        {\r\n            rewardAmount = 0;\r\n        }\r\n        else\r\n        {    \r\n            uint256 calculationDay = _day.mod(GRISE_WEEK) > 0 ? \r\n                                    _day.sub(_day.mod(GRISE_WEEK)) :\r\n                                    _day.sub(GRISE_WEEK);\r\n\r\n            for (uint256 day = calculationDay; day < _day; day++)\r\n            {\r\n                rewardAmount += tokenHolderReward[day]\r\n                                            .mul(_balances[_msgSender()])\r\n                                            .div(totalToken[day]);\r\n            }\r\n        }\r\n    }\r\n    \r\n    function claimTokenHolderTranscReward()\r\n        external \r\n        returns (uint256 rewardAmount)\r\n    {    \r\n        uint256 _day = currentGriseDay();\r\n        require( \r\n            balanceOf(_msgSender()) > 0,\r\n            'GRISE - Token holder doesnot enough balance to claim reward'\r\n        );\r\n        \r\n        require(\r\n            (currentGriseDay().mod(GRISE_WEEK)) == 0,\r\n            'GRISE - Transcation Reward window is not yeat open'\r\n        );\r\n        \r\n        require(\r\n            calculateGriseWeek(_day) == currentGriseWeek(),\r\n            'GRISE - You are late/early to claim reward'\r\n        );\r\n        \r\n        require( \r\n            !isTranscFeeClaimed[_msgSender()][currentGriseWeek()],\r\n            'GRISE - Transcation Reward is already been claimed'\r\n        );\r\n\r\n        for (uint256 day = _day.sub(GRISE_WEEK); day < _day; day++)\r\n        {\r\n            rewardAmount += tokenHolderReward[day]\r\n                                        .mul(_balances[_msgSender()])\r\n                                        .div(totalToken[day]);\r\n        }\r\n                                        \r\n        _mint(\r\n            _msgSender(),\r\n            rewardAmount\r\n        );\r\n        \r\n        isTranscFeeClaimed[_msgSender()][currentGriseWeek()] = true;\r\n\r\n        TranscFeeClaimed(_msgSender(), currentGriseWeek(), rewardAmount);\r\n    }\r\n\r\n    function setStaker(\r\n        address _staker\r\n    ) \r\n        external\r\n    {    \r\n        require(\r\n            _msgSender() == STAKE_GATEKEEPER,\r\n            'GRISE: Operation not allowed'\r\n        );\r\n        \r\n        staker[_staker] = staker[_staker] + 1;\r\n    }\r\n    \r\n    function resetStaker(\r\n        address _staker\r\n    ) \r\n        external\r\n    {    \r\n        require(\r\n            _msgSender() == STAKE_GATEKEEPER,\r\n            'GRISE: Operation not allowed'\r\n        );\r\n        \r\n        if (staker[_staker] > 0)\r\n        {\r\n            staker[_staker] = staker[_staker] - 1;\r\n        }\r\n    }\r\n\r\n    function updateStakedToken(\r\n        uint256 _stakedToken\r\n    ) \r\n        external\r\n    {\r\n        require(\r\n            _msgSender() == STAKE_GATEKEEPER,\r\n            'GRISE: Operation not allowed'\r\n        );\r\n            \r\n        stakedToken = _stakedToken;\r\n        totalToken[currentGriseDay()] = totalSupply().add(stakedToken);\r\n    }\r\n\r\n    function updateMedTermShares(\r\n        uint256 _shares\r\n    ) \r\n        external\r\n    {    \r\n        require(\r\n            _msgSender() == STAKE_GATEKEEPER,\r\n            'GRISE: Operation not allowed'\r\n        );\r\n        \r\n        mediumTermShares = _shares;\r\n    }\r\n\r\n    function getTransFeeReward(\r\n        uint256 _fromDay,\r\n        uint256 _toDay\r\n    ) \r\n        external \r\n        view \r\n        returns (uint256 rewardAmount)\r\n    {\r\n        require(\r\n            _msgSender() == STAKE_GATEKEEPER,\r\n            'GRISE: Operation not allowed'\r\n        );\r\n\r\n        for(uint256 day = _fromDay; day < _toDay; day++)\r\n        {\r\n            rewardAmount += stakerRewardPerShare[day];\r\n        }\r\n    }\r\n\r\n    function getReservoirReward(\r\n        uint256 _fromDay,\r\n        uint256 _toDay\r\n    ) \r\n        external view \r\n        returns (uint256 rewardAmount)\r\n    {\r\n        require(\r\n            _msgSender() == STAKE_GATEKEEPER,\r\n            'GRISE: Operation not allowed'\r\n        );\r\n\r\n        for(uint256 day = _fromDay; day < _toDay; day++)\r\n        {\r\n            rewardAmount += reservoirRewardPerShare[day];\r\n        }\r\n    }\r\n\r\n    function getTokenHolderReward(\r\n        uint256 _fromDay,\r\n        uint256 _toDay\r\n    ) \r\n        external view \r\n        returns (uint256 rewardAmount)\r\n    {\r\n\r\n        require(\r\n            _msgSender() == STAKE_GATEKEEPER,\r\n            'GRISE: Operation not allowed'\r\n        );\r\n\r\n        for(uint256 day = _fromDay; day < _toDay; day++)\r\n        {\r\n            rewardAmount += tokenHolderReward[day]\r\n                            .mul(PRECISION_RATE)\r\n                            .div(totalToken[day]);\r\n        }\r\n    }\r\n\r\n    function timeToClaimWeeklyReward() \r\n        public\r\n        view\r\n        returns (uint256 _days)\r\n    {\r\n        _days = currentGriseDay().mod(GRISE_WEEK) > 0 ?\r\n                    GRISE_WEEK - currentGriseDay().mod(GRISE_WEEK) :\r\n                    0;\r\n    }\r\n\r\n    function balanceOfStaker(\r\n        address account\r\n    ) \r\n        external\r\n        view\r\n        returns (uint256)\r\n    {\r\n        return _balances[account];\r\n    }\r\n\r\n    function getEpocTime() \r\n        external\r\n        view \r\n        returns (uint256)\r\n    {\r\n        return block.timestamp;\r\n    }\r\n\r\n    function getLaunchTime()\r\n        external\r\n        view\r\n        returns (uint256)\r\n    {\r\n        return LAUNCH_TIME;\r\n    }\r\n\r\n    function getLPLaunchTime()\r\n        external\r\n        view\r\n        returns (uint256)\r\n    {\r\n        return LP_LAUNCH_TIME;\r\n    }\r\n\r\n    function isStaker(\r\n        address _staker\r\n    ) \r\n        external\r\n        view\r\n        returns (bool status)\r\n    {\r\n        status = (staker[_staker] > 0) ? true : false;\r\n    }\r\n}",
  "sourcePath": "C:/Users/Dhaval/eth/grise/src/contracts/GriseToken.sol",
  "compiler": {
    "name": "solc",
    "version": "0.7.6+commit.7338295f.Emscripten.clang"
  },
  "schemaVersion": "3.3.3",
  "updatedAt": "2021-03-25T17:33:27.822Z",
  "devdoc": {
    "kind": "dev",
    "methods": {
      "allowance(address,address)": {
        "details": "Returns approved balance to be spent by another address by using transferFrom method"
      },
      "approve(address,uint256)": {
        "details": "Sets the token allowance to another spender"
      },
      "balanceOf(address)": {
        "details": "Returns the token balance of specific address."
      },
      "burnSupply(address,uint256)": {
        "details": "executed from liquidityTransformer upon UNISWAP transfer and during reservation payout to contributors and referrers",
        "params": {
          "_amount": "of tokens to mint for _investorAddress",
          "_investorAddress": "address for minting GRISE tokens"
        }
      },
      "decimals()": {
        "details": "Returns the decimals of the token."
      },
      "mintSupply(address,uint256)": {
        "details": "executed from liquidityTransformer upon UNISWAP transfer and during reservation payout to contributors and referrers",
        "params": {
          "_amount": "of tokens to mint for _investorAddress",
          "_investorAddress": "address for minting GRISE tokens"
        }
      },
      "name()": {
        "details": "Returns the name of the token."
      },
      "setLiquidtyGateKeeper(address)": {
        "details": "this method renounce liquidtyGateKeeper access",
        "params": {
          "_immutableGateKeeper": "contract address"
        }
      },
      "setStakeGateKeeper(address)": {
        "details": "this method renounce stakeGateKeeper access",
        "params": {
          "_immutableGateKeeper": "contract address"
        }
      },
      "setTokenMatrixGateKeeper(address)": {
        "details": "this method renounce tokenMatrixGateKeeper access",
        "params": {
          "_immutableGateKeeper": "contract address"
        }
      },
      "setVaultGateKeeper(address)": {
        "details": "this method renounce vaultGateKeeper access",
        "params": {
          "_immutableGateKeeper": "contract address"
        }
      },
      "symbol()": {
        "details": "Returns the symbol of the token."
      },
      "totalSupply()": {
        "details": "Returns the total supply of the token."
      },
      "transferFrom(address,address,uint256)": {
        "details": "Allows to transfer tokens on senders behalf based on allowance approved for the executer"
      }
    },
    "stateVariables": {
      "_name": {
        "details": "initial private"
      },
      "_totalSupply": {
        "details": " Initial supply "
      }
    },
    "version": 1
  },
  "userdoc": {
    "kind": "user",
    "methods": {
      "burnSupply(address,uint256)": {
        "notice": "allows liquidityTransformer to mint supply"
      },
      "mintSupply(address,uint256)": {
        "notice": "allows liquidityTransformer to mint supply"
      },
      "setLiquidtyGateKeeper(address)": {
        "notice": "ability to define liquidity transformer contract"
      },
      "setStakeGateKeeper(address)": {
        "notice": "ability to define Staker contract"
      },
      "setTokenMatrixGateKeeper(address)": {
        "notice": "ability to define tokenMatrix contract"
      },
      "setVaultGateKeeper(address)": {
        "notice": "ability to define vault contract"
      }
    },
    "version": 1
  }
}