{
  "contractName": "LiquidityTransformer",
  "abi": [
    {
      "inputs": [
        {
          "internalType": "address",
          "name": "_griseToken",
          "type": "address"
        },
        {
          "internalType": "contract Randomness",
          "name": "_randomness",
          "type": "address"
        }
      ],
      "stateMutability": "nonpayable",
      "type": "constructor"
    },
    {
      "anonymous": false,
      "inputs": [
        {
          "indexed": true,
          "internalType": "uint256",
          "name": "investmentDay",
          "type": "uint256"
        },
        {
          "indexed": false,
          "internalType": "uint256",
          "name": "randomSupply",
          "type": "uint256"
        }
      ],
      "name": "GeneratedRandomSupply",
      "type": "event"
    },
    {
      "anonymous": false,
      "inputs": [
        {
          "indexed": true,
          "internalType": "uint256",
          "name": "investmentDay",
          "type": "uint256"
        },
        {
          "indexed": false,
          "internalType": "uint256",
          "name": "staticSupply",
          "type": "uint256"
        }
      ],
      "name": "GeneratedStaticSupply",
      "type": "event"
    },
    {
      "anonymous": false,
      "inputs": [
        {
          "indexed": true,
          "internalType": "uint256",
          "name": "investmentDay",
          "type": "uint256"
        }
      ],
      "name": "GeneratingRandomSupply",
      "type": "event"
    },
    {
      "anonymous": false,
      "inputs": [
        {
          "indexed": true,
          "internalType": "uint64",
          "name": "investmentDay",
          "type": "uint64"
        },
        {
          "indexed": false,
          "internalType": "bool",
          "name": "result",
          "type": "bool"
        }
      ],
      "name": "GenerationStatus",
      "type": "event"
    },
    {
      "anonymous": false,
      "inputs": [
        {
          "indexed": true,
          "internalType": "address",
          "name": "sender",
          "type": "address"
        },
        {
          "indexed": true,
          "internalType": "uint256",
          "name": "investmentDay",
          "type": "uint256"
        },
        {
          "indexed": false,
          "internalType": "uint256",
          "name": "amount",
          "type": "uint256"
        }
      ],
      "name": "GriseReservation",
      "type": "event"
    },
    {
      "anonymous": false,
      "inputs": [
        {
          "indexed": false,
          "internalType": "string",
          "name": "description",
          "type": "string"
        }
      ],
      "name": "LogNewProvableQuery",
      "type": "event"
    },
    {
      "anonymous": false,
      "inputs": [
        {
          "indexed": false,
          "internalType": "address",
          "name": "",
          "type": "address"
        },
        {
          "indexed": false,
          "internalType": "uint256",
          "name": "",
          "type": "uint256"
        }
      ],
      "name": "Received",
      "type": "event"
    },
    {
      "anonymous": false,
      "inputs": [
        {
          "indexed": true,
          "internalType": "address",
          "name": "referral",
          "type": "address"
        },
        {
          "indexed": true,
          "internalType": "address",
          "name": "referee",
          "type": "address"
        },
        {
          "indexed": false,
          "internalType": "uint256",
          "name": "amount",
          "type": "uint256"
        }
      ],
      "name": "ReferralAdded",
      "type": "event"
    },
    {
      "anonymous": false,
      "inputs": [
        {
          "indexed": false,
          "internalType": "uint256",
          "name": "amountToken",
          "type": "uint256"
        },
        {
          "indexed": false,
          "internalType": "uint256",
          "name": "amountETH",
          "type": "uint256"
        },
        {
          "indexed": false,
          "internalType": "uint256",
          "name": "liquidity",
          "type": "uint256"
        }
      ],
      "name": "UniSwapResult",
      "type": "event"
    },
    {
      "inputs": [],
      "name": "GRISE_CONTRACT",
      "outputs": [
        {
          "internalType": "contract IGriseToken",
          "name": "",
          "type": "address"
        }
      ],
      "stateMutability": "view",
      "type": "function",
      "constant": true
    },
    {
      "inputs": [],
      "name": "REFUND_SPONSOR",
      "outputs": [
        {
          "internalType": "contract RefundSponsorI",
          "name": "",
          "type": "address"
        }
      ],
      "stateMutability": "view",
      "type": "function",
      "constant": true
    },
    {
      "inputs": [],
      "name": "TEAM_ETHER",
      "outputs": [
        {
          "internalType": "uint256",
          "name": "",
          "type": "uint256"
        }
      ],
      "stateMutability": "view",
      "type": "function",
      "constant": true
    },
    {
      "inputs": [],
      "name": "TOKEN_DEFINER",
      "outputs": [
        {
          "internalType": "address",
          "name": "",
          "type": "address"
        }
      ],
      "stateMutability": "view",
      "type": "function",
      "constant": true
    },
    {
      "inputs": [],
      "name": "UNISWAP_ROUTER",
      "outputs": [
        {
          "internalType": "contract UniswapRouterV2",
          "name": "",
          "type": "address"
        }
      ],
      "stateMutability": "view",
      "type": "function",
      "constant": true
    },
    {
      "inputs": [
        {
          "internalType": "uint256",
          "name": "",
          "type": "uint256"
        }
      ],
      "name": "dailySlots",
      "outputs": [
        {
          "internalType": "uint256",
          "name": "",
          "type": "uint256"
        }
      ],
      "stateMutability": "view",
      "type": "function",
      "constant": true
    },
    {
      "inputs": [
        {
          "internalType": "uint256",
          "name": "",
          "type": "uint256"
        }
      ],
      "name": "dailyTotalInvestment",
      "outputs": [
        {
          "internalType": "uint256",
          "name": "",
          "type": "uint256"
        }
      ],
      "stateMutability": "view",
      "type": "function",
      "constant": true
    },
    {
      "inputs": [
        {
          "internalType": "uint256",
          "name": "",
          "type": "uint256"
        }
      ],
      "name": "dailyTotalSupply",
      "outputs": [
        {
          "internalType": "uint256",
          "name": "",
          "type": "uint256"
        }
      ],
      "stateMutability": "view",
      "type": "function",
      "constant": true
    },
    {
      "inputs": [],
      "name": "g",
      "outputs": [
        {
          "internalType": "uint64",
          "name": "generatedDays",
          "type": "uint64"
        },
        {
          "internalType": "uint64",
          "name": "preparedReferrals",
          "type": "uint64"
        },
        {
          "internalType": "uint256",
          "name": "totalTransferTokens",
          "type": "uint256"
        },
        {
          "internalType": "uint256",
          "name": "totalWeiContributed",
          "type": "uint256"
        },
        {
          "internalType": "uint256",
          "name": "totalReferralTokens",
          "type": "uint256"
        }
      ],
      "stateMutability": "view",
      "type": "function",
      "constant": true
    },
    {
      "inputs": [
        {
          "internalType": "uint256",
          "name": "",
          "type": "uint256"
        }
      ],
      "name": "investorAccountCount",
      "outputs": [
        {
          "internalType": "uint256",
          "name": "",
          "type": "uint256"
        }
      ],
      "stateMutability": "view",
      "type": "function",
      "constant": true
    },
    {
      "inputs": [
        {
          "internalType": "uint256",
          "name": "",
          "type": "uint256"
        },
        {
          "internalType": "uint256",
          "name": "",
          "type": "uint256"
        }
      ],
      "name": "investorAccounts",
      "outputs": [
        {
          "internalType": "address",
          "name": "",
          "type": "address"
        }
      ],
      "stateMutability": "view",
      "type": "function",
      "constant": true
    },
    {
      "inputs": [
        {
          "internalType": "address",
          "name": "",
          "type": "address"
        },
        {
          "internalType": "uint256",
          "name": "",
          "type": "uint256"
        }
      ],
      "name": "investorBalances",
      "outputs": [
        {
          "internalType": "uint256",
          "name": "",
          "type": "uint256"
        }
      ],
      "stateMutability": "view",
      "type": "function",
      "constant": true
    },
    {
      "inputs": [
        {
          "internalType": "address",
          "name": "",
          "type": "address"
        }
      ],
      "name": "investorTotalBalance",
      "outputs": [
        {
          "internalType": "uint256",
          "name": "",
          "type": "uint256"
        }
      ],
      "stateMutability": "view",
      "type": "function",
      "constant": true
    },
    {
      "inputs": [],
      "name": "randomness",
      "outputs": [
        {
          "internalType": "contract Randomness",
          "name": "",
          "type": "address"
        }
      ],
      "stateMutability": "view",
      "type": "function",
      "constant": true
    },
    {
      "inputs": [],
      "name": "referralAccountCount",
      "outputs": [
        {
          "internalType": "uint256",
          "name": "",
          "type": "uint256"
        }
      ],
      "stateMutability": "view",
      "type": "function",
      "constant": true
    },
    {
      "inputs": [
        {
          "internalType": "uint256",
          "name": "",
          "type": "uint256"
        }
      ],
      "name": "referralAccounts",
      "outputs": [
        {
          "internalType": "address",
          "name": "",
          "type": "address"
        }
      ],
      "stateMutability": "view",
      "type": "function",
      "constant": true
    },
    {
      "inputs": [
        {
          "internalType": "address",
          "name": "",
          "type": "address"
        }
      ],
      "name": "referralAmount",
      "outputs": [
        {
          "internalType": "uint256",
          "name": "",
          "type": "uint256"
        }
      ],
      "stateMutability": "view",
      "type": "function",
      "constant": true
    },
    {
      "inputs": [
        {
          "internalType": "address",
          "name": "",
          "type": "address"
        }
      ],
      "name": "referralTokens",
      "outputs": [
        {
          "internalType": "uint256",
          "name": "",
          "type": "uint256"
        }
      ],
      "stateMutability": "view",
      "type": "function",
      "constant": true
    },
    {
      "inputs": [],
      "name": "totalInvestment",
      "outputs": [
        {
          "internalType": "uint256",
          "name": "",
          "type": "uint256"
        }
      ],
      "stateMutability": "view",
      "type": "function",
      "constant": true
    },
    {
      "inputs": [],
      "name": "uniqueInvestorCount",
      "outputs": [
        {
          "internalType": "uint256",
          "name": "",
          "type": "uint256"
        }
      ],
      "stateMutability": "view",
      "type": "function",
      "constant": true
    },
    {
      "inputs": [
        {
          "internalType": "uint256",
          "name": "",
          "type": "uint256"
        }
      ],
      "name": "uniqueInvestors",
      "outputs": [
        {
          "internalType": "address",
          "name": "",
          "type": "address"
        }
      ],
      "stateMutability": "view",
      "type": "function",
      "constant": true
    },
    {
      "stateMutability": "payable",
      "type": "receive",
      "payable": true
    },
    {
      "inputs": [
        {
          "internalType": "address",
          "name": "_griseToken",
          "type": "address"
        }
      ],
      "name": "defineToken",
      "outputs": [],
      "stateMutability": "nonpayable",
      "type": "function"
    },
    {
      "inputs": [],
      "name": "revokeAccess",
      "outputs": [],
      "stateMutability": "nonpayable",
      "type": "function"
    },
    {
      "inputs": [
        {
          "internalType": "uint8[]",
          "name": "_investmentDays",
          "type": "uint8[]"
        },
        {
          "internalType": "address",
          "name": "_referralAddress",
          "type": "address"
        }
      ],
      "name": "reserveGrise",
      "outputs": [],
      "stateMutability": "payable",
      "type": "function",
      "payable": true
    },
    {
      "inputs": [
        {
          "internalType": "address",
          "name": "_tokenAddress",
          "type": "address"
        },
        {
          "internalType": "uint256",
          "name": "_tokenAmount",
          "type": "uint256"
        },
        {
          "internalType": "uint8[]",
          "name": "_investmentDays",
          "type": "uint8[]"
        },
        {
          "internalType": "address",
          "name": "_referralAddress",
          "type": "address"
        }
      ],
      "name": "reserveGriseWithToken",
      "outputs": [],
      "stateMutability": "nonpayable",
      "type": "function"
    },
    {
      "inputs": [
        {
          "internalType": "uint64",
          "name": "_investmentDay",
          "type": "uint64"
        }
      ],
      "name": "generateSupply",
      "outputs": [],
      "stateMutability": "nonpayable",
      "type": "function"
    },
    {
      "inputs": [
        {
          "internalType": "uint256",
          "name": "_referralBatchFrom",
          "type": "uint256"
        },
        {
          "internalType": "uint256",
          "name": "_referralBatchTo",
          "type": "uint256"
        }
      ],
      "name": "prepareReferralBonuses",
      "outputs": [],
      "stateMutability": "nonpayable",
      "type": "function"
    },
    {
      "inputs": [],
      "name": "forwardLiquidity",
      "outputs": [],
      "stateMutability": "nonpayable",
      "type": "function"
    },
    {
      "inputs": [],
      "name": "getMyTokens",
      "outputs": [],
      "stateMutability": "nonpayable",
      "type": "function"
    },
    {
      "inputs": [
        {
          "internalType": "address",
          "name": "_investorAddress",
          "type": "address"
        }
      ],
      "name": "payoutInvestorAddress",
      "outputs": [
        {
          "internalType": "uint256",
          "name": "_payout",
          "type": "uint256"
        }
      ],
      "stateMutability": "nonpayable",
      "type": "function"
    },
    {
      "inputs": [
        {
          "internalType": "address",
          "name": "_referralAddress",
          "type": "address"
        }
      ],
      "name": "payoutReferralAddress",
      "outputs": [
        {
          "internalType": "uint256",
          "name": "_referralTokens",
          "type": "uint256"
        }
      ],
      "stateMutability": "nonpayable",
      "type": "function"
    },
    {
      "inputs": [
        {
          "internalType": "uint256",
          "name": "_investmentDay",
          "type": "uint256"
        },
        {
          "internalType": "uint256",
          "name": "_investorBatchFrom",
          "type": "uint256"
        },
        {
          "internalType": "uint256",
          "name": "_investorBatchTo",
          "type": "uint256"
        }
      ],
      "name": "payoutInvestmentDayBatch",
      "outputs": [],
      "stateMutability": "nonpayable",
      "type": "function"
    },
    {
      "inputs": [
        {
          "internalType": "uint256",
          "name": "_referralBatchFrom",
          "type": "uint256"
        },
        {
          "internalType": "uint256",
          "name": "_referralBatchTo",
          "type": "uint256"
        }
      ],
      "name": "payoutReferralBatch",
      "outputs": [],
      "stateMutability": "nonpayable",
      "type": "function"
    },
    {
      "inputs": [
        {
          "internalType": "uint256",
          "name": "_investmentDay",
          "type": "uint256"
        }
      ],
      "name": "myInvestmentAmount",
      "outputs": [
        {
          "internalType": "uint256",
          "name": "",
          "type": "uint256"
        }
      ],
      "stateMutability": "view",
      "type": "function",
      "constant": true
    },
    {
      "inputs": [],
      "name": "myInvestmentAmountAllDays",
      "outputs": [
        {
          "internalType": "uint256[51]",
          "name": "_myAllDays",
          "type": "uint256[51]"
        }
      ],
      "stateMutability": "view",
      "type": "function",
      "constant": true
    },
    {
      "inputs": [],
      "name": "myTotalInvestmentAmount",
      "outputs": [
        {
          "internalType": "uint256",
          "name": "",
          "type": "uint256"
        }
      ],
      "stateMutability": "view",
      "type": "function",
      "constant": true
    },
    {
      "inputs": [
        {
          "internalType": "uint256",
          "name": "_investmentDay",
          "type": "uint256"
        }
      ],
      "name": "investorsOnDay",
      "outputs": [
        {
          "internalType": "uint256",
          "name": "",
          "type": "uint256"
        }
      ],
      "stateMutability": "view",
      "type": "function",
      "constant": true
    },
    {
      "inputs": [],
      "name": "investorsOnAllDays",
      "outputs": [
        {
          "internalType": "uint256[51]",
          "name": "_allInvestors",
          "type": "uint256[51]"
        }
      ],
      "stateMutability": "view",
      "type": "function",
      "constant": true
    },
    {
      "inputs": [],
      "name": "investmentsOnAllDays",
      "outputs": [
        {
          "internalType": "uint256[51]",
          "name": "_allInvestments",
          "type": "uint256[51]"
        }
      ],
      "stateMutability": "view",
      "type": "function",
      "constant": true
    },
    {
      "inputs": [],
      "name": "supplyOnAllDays",
      "outputs": [
        {
          "internalType": "uint256[51]",
          "name": "_allSupply",
          "type": "uint256[51]"
        }
      ],
      "stateMutability": "view",
      "type": "function",
      "constant": true
    },
    {
      "inputs": [],
      "name": "fundedDays",
      "outputs": [
        {
          "internalType": "uint8",
          "name": "$fundedDays",
          "type": "uint8"
        }
      ],
      "stateMutability": "view",
      "type": "function",
      "constant": true
    },
    {
      "inputs": [],
      "name": "_currentLPDay",
      "outputs": [
        {
          "internalType": "uint64",
          "name": "",
          "type": "uint64"
        }
      ],
      "stateMutability": "view",
      "type": "function",
      "constant": true
    },
    {
      "inputs": [],
      "name": "requestTeamFunds",
      "outputs": [],
      "stateMutability": "nonpayable",
      "type": "function"
    }
  ],
  "bytecode": "0x6080604052735b38da6a701c568545dcfcb03fcb875f56beddc4600260006101000a81548173ffffffffffffffffffffffffffffffffffffffff021916908373ffffffffffffffffffffffffffffffffffffffff16021790555034801561006557600080fd5b5060405162005a4638038062005a468339818101604052604081101561008a57600080fd5b810190808051906020019092919080519060200190929190505050806000806101000a81548173ffffffffffffffffffffffffffffffffffffffff021916908373ffffffffffffffffffffffffffffffffffffffff16021790555081600160006101000a81548173ffffffffffffffffffffffffffffffffffffffff021916908373ffffffffffffffffffffffffffffffffffffffff160217905550600c60006001815260200190815260200160002060008154809291906001019190505550611770600860006001815260200190815260200160002081905550611770600860006002815260200190815260200160002081905550611770600860006003815260200190815260200160002081905550611770600860006004815260200190815260200160002081905550610866600860006005815260200190815260200160002081905550611770600860006006815260200190815260200160002081905550610e42600860006007815260200190815260200160002081905550611770600860006008815260200190815260200160002081905550610e4260086000600981526020019081526020016000208190555061177060086000600a815260200190815260200160002081905550610e4260086000600b81526020019081526020016000208190555061177060086000600c81526020019081526020016000208190555061177060086000600d81526020019081526020016000208190555061086660086000600e81526020019081526020016000208190555061177060086000600f815260200190815260200160002081905550610e42600860006010815260200190815260200160002081905550611770600860006011815260200190815260200160002081905550610e4260086000601281526020019081526020016000208190555061177060086000601381526020019081526020016000208190555061086660086000601481526020019081526020016000208190555061177060086000601581526020019081526020016000208190555061086660086000601681526020019081526020016000208190555061177060086000601781526020019081526020016000208190555061086660086000601881526020019081526020016000208190555061177060086000601981526020019081526020016000208190555061086660086000601a81526020019081526020016000208190555061177060086000601b81526020019081526020016000208190555061177060086000601c815260200190815260200160002081905550610e4260086000601d81526020019081526020016000208190555061177060086000601e81526020019081526020016000208190555061177060086000601f815260200190815260200160002081905550610866600860006020815260200190815260200160002081905550611770600860006021815260200190815260200160002081905550610e42600860006022815260200190815260200160002081905550611770600860006023815260200190815260200160002081905550610e42600860006024815260200190815260200160002081905550611770600860006025815260200190815260200160002081905550610866600860006026815260200190815260200160002081905550610866600860006027815260200190815260200160002081905550611770600860006028815260200190815260200160002081905550610e4260086000602981526020019081526020016000208190555061177060086000602a81526020019081526020016000208190555061177060086000602b81526020019081526020016000208190555061086660086000602c81526020019081526020016000208190555061177060086000602d815260200190815260200160002081905550610e4260086000602e81526020019081526020016000208190555061086660086000602f815260200190815260200160002081905550610e426008600060308152602001908152602001600020819055506117706008600060318152602001908152602001600020819055506117706008600060328152602001908152602001600020819055506141d26009600060058152602001908152602001600020819055506141d260096000600e8152602001908152602001600020819055506141d26009600060148152602001908152602001600020819055506141d26009600060168152602001908152602001600020819055506141d26009600060188152602001908152602001600020819055506141d260096000601a8152602001908152602001600020819055506141d26009600060208152602001908152602001600020819055506141d26009600060268152602001908152602001600020819055506141d26009600060278152602001908152602001600020819055506141d260096000602c8152602001908152602001600020819055506141d260096000602f815260200190815260200160002081905550612e4a600960006007815260200190815260200160002081905550612e4a600960006009815260200190815260200160002081905550612e4a60096000600b815260200190815260200160002081905550612e4a600960006010815260200190815260200160002081905550612e4a600960006012815260200190815260200160002081905550612e4a60096000601d815260200190815260200160002081905550612e4a600960006022815260200190815260200160002081905550612e4a600960006024815260200190815260200160002081905550612e4a600960006029815260200190815260200160002081905550612e4a60096000602e815260200190815260200160002081905550612e4a600960006030815260200190815260200160002081905550505061515280620008f46000396000f3fe6080604052600436106102605760003560e01c806395d4c7bb11610144578063d70b9a49116100b6578063e2179b8e1161007a578063e2179b8e1461103d578063e7cbe05a14611098578063e7f326e4146110af578063f700b14f14611114578063f70dac521461113f578063f916ab221461116a576104a7565b8063d70b9a4914610edb578063d826492014610f09578063da2b122414610f4a578063dcd1288114610f9b578063e20fbce414610fee576104a7565b8063bdd7013011610108578063bdd7013014610d13578063c6c6525e14610d48578063ca01a52c14610d97578063cdf0456414610de6578063d2240af714610e35578063d2819ab314610e76576104a7565b806395d4c7bb14610b0e5780639b07104914610b73578063a8986fd814610bd8578063acdf6d3514610c27578063bd9e01ed14610c7a576104a7565b80633a3e8e60116101dd5780636d9bf9e9116101a15780636d9bf9e91461093c57806373178c0d1461098157806376442b7a146109c257806387ca9f2a14610a03578063938b9f9114610a5657806393ef43da14610aa9576104a7565b80633a3e8e601461084f5780634e4c7d9b1461089e5780635099ce95146108b557806350adbd7a146108e05780635b3b136a14610925576104a7565b80632d76991a116102245780632d76991a146106ea5780632e7df3d51461072f578063316ec5f51461075a57806332af4701146107bf578063360131891461080e576104a7565b80630505e0b6146104ac57806307e9dfe21461057c5780630af5ca78146105eb57806310ea13df1461065a5780631595cac014610685576104a7565b366104a75773f164fc0ec4e93095b804a4795bbe1e041497b92a73ffffffffffffffffffffffffffffffffffffffff163373ffffffffffffffffffffffffffffffffffffffff1614806102f25750735b38da6a701c568545dcfcb03fcb875f56beddc473ffffffffffffffffffffffffffffffffffffffff163373ffffffffffffffffffffffffffffffffffffffff16145b8061033c5750735b38da6a701c568545dcfcb03fcb875f56beddc473ffffffffffffffffffffffffffffffffffffffff163373ffffffffffffffffffffffffffffffffffffffff16145b806103865750735b38da6a701c568545dcfcb03fcb875f56beddc473ffffffffffffffffffffffffffffffffffffffff163373ffffffffffffffffffffffffffffffffffffffff16145b806103de5750600260009054906101000a900473ffffffffffffffffffffffffffffffffffffffff1673ffffffffffffffffffffffffffffffffffffffff163373ffffffffffffffffffffffffffffffffffffffff16145b610450576040517f08c379a000000000000000000000000000000000000000000000000000000000815260040180806020018281038252601f8152602001807f47524953453a20646972656374206465706f736974732064697361626c65640081525060200191505060405180910390fd5b7f88a5966d370b9919b20f3e2c13ff65706f196a4e32cc2c12bf57088f885258743334604051808373ffffffffffffffffffffffffffffffffffffffff1681526020018281526020019250505060405180910390a1005b600080fd5b3480156104b857600080fd5b5061057a600480360360808110156104cf57600080fd5b81019080803573ffffffffffffffffffffffffffffffffffffffff169060200190929190803590602001909291908035906020019064010000000081111561051657600080fd5b82018360208201111561052857600080fd5b8035906020019184602083028401116401000000008311171561054a57600080fd5b9091929391929390803573ffffffffffffffffffffffffffffffffffffffff169060200190929190505050611181565b005b34801561058857600080fd5b506105bf6004803603604081101561059f57600080fd5b8101908080359060200190929190803590602001909291905050506116c3565b604051808273ffffffffffffffffffffffffffffffffffffffff16815260200191505060405180910390f35b3480156105f757600080fd5b506106446004803603604081101561060e57600080fd5b81019080803573ffffffffffffffffffffffffffffffffffffffff16906020019092919080359060200190929190505050611705565b6040518082815260200191505060405180910390f35b34801561066657600080fd5b5061066f61172a565b6040518082815260200191505060405180910390f35b34801561069157600080fd5b506106d4600480360360208110156106a857600080fd5b81019080803573ffffffffffffffffffffffffffffffffffffffff169060200190929190505050611730565b6040518082815260200191505060405180910390f35b3480156106f657600080fd5b5061072d6004803603602081101561070d57600080fd5b81019080803567ffffffffffffffff16906020019092919050505061195b565b005b34801561073b57600080fd5b50610744611bd4565b6040518082815260200191505060405180910390f35b34801561076657600080fd5b506107936004803603602081101561077d57600080fd5b8101908080359060200190929190505050611bda565b604051808273ffffffffffffffffffffffffffffffffffffffff16815260200191505060405180910390f35b3480156107cb57600080fd5b506107f8600480360360208110156107e257600080fd5b8101908080359060200190929190505050611c0d565b6040518082815260200191505060405180910390f35b34801561081a57600080fd5b50610823611c25565b604051808273ffffffffffffffffffffffffffffffffffffffff16815260200191505060405180910390f35b34801561085b57600080fd5b506108886004803603602081101561087257600080fd5b8101908080359060200190929190505050611c49565b6040518082815260200191505060405180910390f35b3480156108aa57600080fd5b506108b3611c88565b005b3480156108c157600080fd5b506108ca611d8f565b6040518082815260200191505060405180910390f35b3480156108ec57600080fd5b506109236004803603604081101561090357600080fd5b810190808035906020019092919080359060200190929190505050611d95565b005b34801561093157600080fd5b5061093a61208b565b005b34801561094857600080fd5b5061097f6004803603604081101561095f57600080fd5b81019080803590602001909291908035906020019092919050505061214b565b005b34801561098d57600080fd5b50610996612520565b604051808273ffffffffffffffffffffffffffffffffffffffff16815260200191505060405180910390f35b3480156109ce57600080fd5b506109d7612546565b604051808273ffffffffffffffffffffffffffffffffffffffff16815260200191505060405180910390f35b348015610a0f57600080fd5b50610a1861255e565b6040518082603360200280838360005b83811015610a43578082015181840152602081019050610a28565b5050505090500191505060405180910390f35b348015610a6257600080fd5b50610a6b6125b2565b6040518082603360200280838360005b83811015610a96578082015181840152602081019050610a7b565b5050505090500191505060405180910390f35b348015610ab557600080fd5b50610ae260048036036020811015610acc57600080fd5b81019080803590602001909291905050506125fb565b604051808273ffffffffffffffffffffffffffffffffffffffff16815260200191505060405180910390f35b348015610b1a57600080fd5b50610b5d60048036036020811015610b3157600080fd5b81019080803573ffffffffffffffffffffffffffffffffffffffff16906020019092919050505061262e565b6040518082815260200191505060405180910390f35b348015610b7f57600080fd5b50610bc260048036036020811015610b9657600080fd5b81019080803573ffffffffffffffffffffffffffffffffffffffff169060200190929190505050612646565b6040518082815260200191505060405180910390f35b348015610be457600080fd5b50610c2560048036036060811015610bfb57600080fd5b8101908080359060200190929190803590602001909291908035906020019092919050505061265e565b005b348015610c3357600080fd5b50610c3c612a2b565b6040518082603360200280838360005b83811015610c67578082015181840152602081019050610c4c565b5050505090500191505060405180910390f35b610d1160048036036040811015610c9057600080fd5b8101908080359060200190640100000000811115610cad57600080fd5b820183602082011115610cbf57600080fd5b80359060200191846020830284011164010000000083111715610ce157600080fd5b9091929391929390803573ffffffffffffffffffffffffffffffffffffffff169060200190929190505050612a7f565b005b348015610d1f57600080fd5b50610d28612c42565b604051808267ffffffffffffffff16815260200191505060405180910390f35b348015610d5457600080fd5b50610d8160048036036020811015610d6b57600080fd5b8101908080359060200190929190505050612cec565b6040518082815260200191505060405180910390f35b348015610da357600080fd5b50610dd060048036036020811015610dba57600080fd5b8101908080359060200190929190505050612d04565b6040518082815260200191505060405180910390f35b348015610df257600080fd5b50610e1f60048036036020811015610e0957600080fd5b8101908080359060200190929190505050612d1c565b6040518082815260200191505060405180910390f35b348015610e4157600080fd5b50610e4a612d76565b604051808273ffffffffffffffffffffffffffffffffffffffff16815260200191505060405180910390f35b348015610e8257600080fd5b50610ec560048036036020811015610e9957600080fd5b81019080803573ffffffffffffffffffffffffffffffffffffffff169060200190929190505050612d9c565b6040518082815260200191505060405180910390f35b348015610ee757600080fd5b50610ef0612db4565b604051808260ff16815260200191505060405180910390f35b348015610f1557600080fd5b50610f1e612e03565b604051808273ffffffffffffffffffffffffffffffffffffffff16815260200191505060405180910390f35b348015610f5657600080fd5b50610f9960048036036020811015610f6d57600080fd5b81019080803573ffffffffffffffffffffffffffffffffffffffff169060200190929190505050612e1b565b005b348015610fa757600080fd5b50610fb0612f22565b6040518082603360200280838360005b83811015610fdb578082015181840152602081019050610fc0565b5050505090500191505060405180910390f35b348015610ffa57600080fd5b506110276004803603602081101561101157600080fd5b8101908080359060200190929190505050612fb3565b6040518082815260200191505060405180910390f35b34801561104957600080fd5b50611052612fcb565b604051808667ffffffffffffffff1681526020018567ffffffffffffffff1681526020018481526020018381526020018281526020019550505050505060405180910390f35b3480156110a457600080fd5b506110ad613017565b005b3480156110bb57600080fd5b506110fe600480360360208110156110d257600080fd5b81019080803573ffffffffffffffffffffffffffffffffffffffff1690602001909291905050506135d6565b6040518082815260200191505060405180910390f35b34801561112057600080fd5b506111296138a4565b6040518082815260200191505060405180910390f35b34801561114b57600080fd5b506111546138eb565b6040518082815260200191505060405180910390f35b34801561117657600080fd5b5061117f6138f1565b005b60005a905060008690508073ffffffffffffffffffffffffffffffffffffffff166323b872dd3330896040518463ffffffff1660e01b8152600401808473ffffffffffffffffffffffffffffffffffffffff1681526020018373ffffffffffffffffffffffffffffffffffffffff1681526020018281526020019350505050602060405180830381600087803b15801561121a57600080fd5b505af115801561122e573d6000803e3d6000fd5b505050506040513d602081101561124457600080fd5b8101908080519060200190929190505050508073ffffffffffffffffffffffffffffffffffffffff1663095ea7b373f164fc0ec4e93095b804a4795bbe1e041497b92a886040518363ffffffff1660e01b8152600401808373ffffffffffffffffffffffffffffffffffffffff16815260200182815260200192505050602060405180830381600087803b1580156112db57600080fd5b505af11580156112ef573d6000803e3d6000fd5b505050506040513d602081101561130557600080fd5b810190808051906020019092919050505050600061132288613aff565b9050600073f164fc0ec4e93095b804a4795bbe1e041497b92a73ffffffffffffffffffffffffffffffffffffffff166318cbafe58960008530611370611c2042613bf490919063ffffffff16565b6040518663ffffffff1660e01b815260040180868152602001858152602001806020018473ffffffffffffffffffffffffffffffffffffffff168152602001838152602001828103825285818151815260200191508051906020019060200280838360005b838110156113f05780820151818401526020810190506113d5565b505050509050019650505050505050600060405180830381600087803b15801561141957600080fd5b505af115801561142d573d6000803e3d6000fd5b505050506040513d6000823e3d601f19601f82011682018060405250602081101561145757600080fd5b810190808051604051939291908464010000000082111561147757600080fd5b8382019150602082018581111561148d57600080fd5b82518660208202830111640100000000821117156114aa57600080fd5b8083526020830192505050908051906020019060200280838360005b838110156114e15780820151818401526020810190506114c6565b505050509050016040525050509050611558878780806020026020016040519081016040528093929190818152602001838360200280828437600081840152601f19601f8201169050808301925050505050505061153d612c42565b338460018151811061154b57fe5b6020026020010151613c7c565b6115b9878780806020026020016040519081016040528093929190818152602001838360200280828437600081840152601f19601f820116905080830192505050505050508633846001815181106115ac57fe5b60200260200101516140a1565b50505060006115d73a5a84615208010361446e90919063ffffffff16565b90506611c37937e0800081116115ed57806115f6565b6611c37937e080005b9050680ad78ebc5ac62000006fffffffffffffffffffffffffffffffff16600d54116116ba5773df783c5334ba51829ee8d41b16ef1d1c8ec909ca73ffffffffffffffffffffffffffffffffffffffff16631fedc14c33836040518363ffffffff1660e01b8152600401808373ffffffffffffffffffffffffffffffffffffffff16815260200182815260200192505050600060405180830381600087803b1580156116a157600080fd5b505af11580156116b5573d6000803e3d6000fd5b505050505b50505050505050565b600f6020528160005260406000206020528060005260406000206000915091509054906101000a900473ffffffffffffffffffffffffffffffffffffffff1681565b6010602052816000526040600020602052806000526040600020600091509150505481565b600d5481565b600080600460000160009054906101000a900467ffffffffffffffff1667ffffffffffffffff1611801561176957506000600460020154145b6117db576040517f08c379a000000000000000000000000000000000000000000000000000000000815260040180806020018281038252601e8152602001807f47524953453a20666f7277617264206c6971756964697479206669727374000081525060200191505060405180910390fd5b601260008373ffffffffffffffffffffffffffffffffffffffff1673ffffffffffffffffffffffffffffffffffffffff1681526020019081526020016000205490506000601260008473ffffffffffffffffffffffffffffffffffffffff1673ffffffffffffffffffffffffffffffffffffffff168152602001908152602001600020541115611956576000601260008473ffffffffffffffffffffffffffffffffffffffff1673ffffffffffffffffffffffffffffffffffffffff16815260200190815260200160002081905550600160009054906101000a900473ffffffffffffffffffffffffffffffffffffffff1673ffffffffffffffffffffffffffffffffffffffff1663e742806a83836040518363ffffffff1660e01b8152600401808373ffffffffffffffffffffffffffffffffffffffff16815260200182815260200192505050600060405180830381600087803b15801561193d57600080fd5b505af1158015611951573d6000803e3d6000fd5b505050505b919050565b8067ffffffffffffffff1660008111801561197a5750603260ff168111155b6119cf576040517f08c379a000000000000000000000000000000000000000000000000000000000815260040180806020018281038252602b8152602001806150f2602b913960400191505060405180910390fd5b8167ffffffffffffffff166000600b60008381526020019081526020016000205411611a46576040517f08c379a0000000000000000000000000000000000000000000000000000000008152600401808060200182810382526021815260200180614fac6021913960400191505060405180910390fd5b611a4e612c42565b67ffffffffffffffff168367ffffffffffffffff1610611ab9576040517f08c379a00000000000000000000000000000000000000000000000000000000081526004018080602001828103825260258152602001806150876025913960400191505060405180910390fd5b6000600a60008567ffffffffffffffff1681526020019081526020016000205414611b4c576040517f08c379a000000000000000000000000000000000000000000000000000000000815260040180806020018281038252601f8152602001807f47524953453a20737570706c7920616c72656164792067656e6572617465640081525060200191505060405180910390fd5b600860008467ffffffffffffffff16815260200190815260200160002054600860008567ffffffffffffffff16815260200190815260200160002054612ee06fffffffffffffffffffffffffffffffff160314611bbb57611bb68367ffffffffffffffff16614511565b611bcf565b611bce8367ffffffffffffffff1661471d565b5b505050565b60155481565b60176020528060005260406000206000915054906101000a900473ffffffffffffffffffffffffffffffffffffffff1681565b600a6020528060005260406000206000915090505481565b60008054906101000a900473ffffffffffffffffffffffffffffffffffffffff1681565b600080600b60008481526020019081526020016000205411611c6c576000611c81565b600e6000838152602001908152602001600020545b9050919050565b600260009054906101000a900473ffffffffffffffffffffffffffffffffffffffff1673ffffffffffffffffffffffffffffffffffffffff163373ffffffffffffffffffffffffffffffffffffffff1614611d4b576040517f08c379a00000000000000000000000000000000000000000000000000000000081526004018080602001828103825260138152602001807f47524953453a2077726f6e672073656e6465720000000000000000000000000081525060200191505060405180910390fd5b6000600260006101000a81548173ffffffffffffffffffffffffffffffffffffffff021916908373ffffffffffffffffffffffffffffffffffffffff160217905550565b60035481565b6000600460000160009054906101000a900467ffffffffffffffff1667ffffffffffffffff16118015611dcd57506000600460020154145b611e3f576040517f08c379a000000000000000000000000000000000000000000000000000000000815260040180806020018281038252601e8152602001807f47524953453a20666f7277617264206c6971756964697479206669727374000081525060200191505060405180910390fd5b808210611eb4576040517f08c379a000000000000000000000000000000000000000000000000000000000815260040180806020018281038252601f8152602001807f47524953453a20696e636f727265637420726566657272616c2062617463680081525060200191505060405180910390fd5b60008290505b818110156120865760006018600083815260200190815260200160002060009054906101000a900473ffffffffffffffffffffffffffffffffffffffff1690506000601260008373ffffffffffffffffffffffffffffffffffffffff1673ffffffffffffffffffffffffffffffffffffffff1681526020019081526020016000205490506000601260008473ffffffffffffffffffffffffffffffffffffffff1673ffffffffffffffffffffffffffffffffffffffff168152602001908152602001600020541115612077576000601260008473ffffffffffffffffffffffffffffffffffffffff1673ffffffffffffffffffffffffffffffffffffffff16815260200190815260200160002081905550600160009054906101000a900473ffffffffffffffffffffffffffffffffffffffff1673ffffffffffffffffffffffffffffffffffffffff1663e742806a83836040518363ffffffff1660e01b8152600401808373ffffffffffffffffffffffffffffffffffffffff16815260200182815260200192505050600060405180830381600087803b15801561205e57600080fd5b505af1158015612072573d6000803e3d6000fd5b505050505b50508080600101915050611eba565b505050565b6000600460000160009054906101000a900467ffffffffffffffff1667ffffffffffffffff161180156120c357506000600460020154145b612135576040517f08c379a000000000000000000000000000000000000000000000000000000000815260040180806020018281038252601e8152602001807f47524953453a20666f7277617264206c6971756964697479206669727374000081525060200191505060405180910390fd5b61213e336135d6565b5061214833611730565b50565b603260ff16612158612c42565b67ffffffffffffffff16116121d5576040517f08c379a000000000000000000000000000000000000000000000000000000000815260040180806020018281038252601f8152602001807f47524953453a206f6e676f696e6720696e766573746d656e742070686173650081525060200191505060405180910390fd5b80821061224a576040517f08c379a000000000000000000000000000000000000000000000000000000000815260040180806020018281038252601f8152602001807f47524953453a20696e636f727265637420726566657272616c2062617463680081525060200191505060405180910390fd5b601554600460000160089054906101000a900467ffffffffffffffff1667ffffffffffffffff16106122c7576040517f08c379a00000000000000000000000000000000000000000000000000000000081526004018080602001828103825260258152602001806150176025913960400191505060405180910390fd5b60006122e660046002015460046001015461480c90919063ffffffff16565b905060008390505b8281101561251a5760006018600083815260200190815260200160002060009054906101000a900473ffffffffffffffffffffffffffffffffffffffff1690506000601160008373ffffffffffffffffffffffffffffffffffffffff1673ffffffffffffffffffffffffffffffffffffffff1681526020019081526020016000205490506000601160008473ffffffffffffffffffffffffffffffffffffffff1673ffffffffffffffffffffffffffffffffffffffff16815260200190815260200160002054111561250b576000601160008473ffffffffffffffffffffffffffffffffffffffff1673ffffffffffffffffffffffffffffffffffffffff1681526020019081526020016000208190555067016345785d8a00006fffffffffffffffffffffffffffffffff1681106124c0576801158e460913d000006fffffffffffffffffffffffffffffffff168110156124535761244e82828661489b565b61245f565b61245e828286614909565b5b6124b6601260008473ffffffffffffffffffffffffffffffffffffffff1673ffffffffffffffffffffffffffffffffffffffff16815260200190815260200160002054600460030154613bf490919063ffffffff16565b6004600301819055505b6004600001600881819054906101000a900467ffffffffffffffff168092919060010191906101000a81548167ffffffffffffffff021916908367ffffffffffffffff160217905550505b505080806001019150506122ee565b50505050565b600260009054906101000a900473ffffffffffffffffffffffffffffffffffffffff1681565b73df783c5334ba51829ee8d41b16ef1d1c8ec909ca81565b612566614f67565b6000600190505b603260ff1681116125ae57600a60008281526020019081526020016000205482826033811061259857fe5b602002018181525050808060010191505061256d565b5090565b6125ba614f67565b6000600190505b603260ff1681116125f7576125d581611c49565b8282603381106125e157fe5b60200201818152505080806001019150506125c1565b5090565b60186020528060005260406000206000915054906101000a900473ffffffffffffffffffffffffffffffffffffffff1681565b60116020528060005260406000206000915090505481565b60136020528060005260406000206000915090505481565b6000600460000160009054906101000a900467ffffffffffffffff1667ffffffffffffffff1611801561269657506000600460020154145b612708576040517f08c379a000000000000000000000000000000000000000000000000000000000815260040180806020018281038252601e8152602001807f47524953453a20666f7277617264206c6971756964697479206669727374000081525060200191505060405180910390fd5b826000600b60008381526020019081526020016000205411612775576040517f08c379a0000000000000000000000000000000000000000000000000000000008152600401808060200182810382526021815260200180614fac6021913960400191505060405180910390fd5b8183106127cd576040517f08c379a0000000000000000000000000000000000000000000000000000000008152600401808060200182810382526021815260200180614fcd6021913960400191505060405180910390fd5b60006127d885614977565b905060008490505b83811015612a23576000600f6000888152602001908152602001600020600083815260200190815260200160002060009054906101000a900473ffffffffffffffffffffffffffffffffffffffff1690506000601060008373ffffffffffffffffffffffffffffffffffffffff1673ffffffffffffffffffffffffffffffffffffffff168152602001908152602001600020600089815260200190815260200160002054905060006128b668056bc75e2d631000006128a8878561446e90919063ffffffff16565b61480c90919063ffffffff16565b90506000601060008573ffffffffffffffffffffffffffffffffffffffff1673ffffffffffffffffffffffffffffffffffffffff16815260200190815260200160002060008b8152602001908152602001600020541115612a13576000601060008573ffffffffffffffffffffffffffffffffffffffff1673ffffffffffffffffffffffffffffffffffffffff16815260200190815260200160002060008b815260200190815260200160002081905550600160009054906101000a900473ffffffffffffffffffffffffffffffffffffffff1673ffffffffffffffffffffffffffffffffffffffff1663e742806a84836040518363ffffffff1660e01b8152600401808373ffffffffffffffffffffffffffffffffffffffff16815260200182815260200192505050600060405180830381600087803b1580156129fa57600080fd5b505af1158015612a0e573d6000803e3d6000fd5b505050505b50505080806001019150506127e0565b505050505050565b612a33614f67565b6000600190505b603260ff168111612a7b57600b600082815260200190815260200160002054828260338110612a6557fe5b6020020181815250508080600101915050612a3a565b5090565b60005a9050612ad8848480806020026020016040519081016040528093929190818152602001838360200280828437600081840152601f19601f82011690508083019250505050505050612ad1612c42565b3334613c7c565b612b25848480806020026020016040519081016040528093929190818152602001838360200280828437600081840152601f19601f820116905080830192505050505050508333346140a1565b6000612b403a5a84615208010361446e90919063ffffffff16565b905080612b57600a3461480c90919063ffffffff16565b11612b7557612b70600a3461480c90919063ffffffff16565b612b77565b805b9050680ad78ebc5ac62000006fffffffffffffffffffffffffffffffff16600d5411612c3b5773df783c5334ba51829ee8d41b16ef1d1c8ec909ca73ffffffffffffffffffffffffffffffffffffffff16631fedc14c33836040518363ffffffff1660e01b8152600401808373ffffffffffffffffffffffffffffffffffffffff16815260200182815260200192505050600060405180830381600087803b158015612c2257600080fd5b505af1158015612c36573d6000803e3d6000fd5b505050505b5050505050565b6000600160009054906101000a900473ffffffffffffffffffffffffffffffffffffffff1673ffffffffffffffffffffffffffffffffffffffff1663edc9a25f6040518163ffffffff1660e01b815260040160206040518083038186803b158015612cac57600080fd5b505afa158015612cc0573d6000803e3d6000fd5b505050506040513d6020811015612cd657600080fd5b8101908080519060200190929190505050905090565b600c6020528060005260406000206000915090505481565b600b6020528060005260406000206000915090505481565b6000601060003373ffffffffffffffffffffffffffffffffffffffff1673ffffffffffffffffffffffffffffffffffffffff1681526020019081526020016000206000838152602001908152602001600020549050919050565b600160009054906101000a900473ffffffffffffffffffffffffffffffffffffffff1681565b60126020528060005260406000206000915090505481565b600080600190505b603260ff168160ff1611612dff576000600b60008360ff168152602001908152602001600020541115612df25781806001019250505b8080600101915050612dbc565b5090565b73f164fc0ec4e93095b804a4795bbe1e041497b92a81565b600260009054906101000a900473ffffffffffffffffffffffffffffffffffffffff1673ffffffffffffffffffffffffffffffffffffffff163373ffffffffffffffffffffffffffffffffffffffff1614612ede576040517f08c379a00000000000000000000000000000000000000000000000000000000081526004018080602001828103825260138152602001807f47524953453a2077726f6e672073656e6465720000000000000000000000000081525060200191505060405180910390fd5b80600160006101000a81548173ffffffffffffffffffffffffffffffffffffffff021916908373ffffffffffffffffffffffffffffffffffffffff16021790555050565b612f2a614f67565b6000600190505b603260ff168111612faf57601060003373ffffffffffffffffffffffffffffffffffffffff1673ffffffffffffffffffffffffffffffffffffffff168152602001908152602001600020600082815260200190815260200160002054828260338110612f9957fe5b6020020181815250508080600101915050612f31565b5090565b600e6020528060005260406000206000915090505481565b60048060000160009054906101000a900467ffffffffffffffff16908060000160089054906101000a900467ffffffffffffffff16908060010154908060020154908060030154905085565b603260ff16613024612c42565b67ffffffffffffffff16116130a1576040517f08c379a000000000000000000000000000000000000000000000000000000000815260040180806020018281038252601f8152602001807f47524953453a206f6e676f696e6720696e766573746d656e742070686173650081525060200191505060405180910390fd5b6130a9612db4565b60ff16600460000160009054906101000a900467ffffffffffffffff1667ffffffffffffffff1614613126576040517f08c379a000000000000000000000000000000000000000000000000000000000815260040180806020018281038252602881526020018061503c6028913960400191505060405180910390fd5b601554600460000160089054906101000a900467ffffffffffffffff1667ffffffffffffffff16146131a3576040517f08c379a0000000000000000000000000000000000000000000000000000000008152600401808060200182810382526021815260200180614f8b6021913960400191505060405180910390fd5b600060046001015411613201576040517f08c379a00000000000000000000000000000000000000000000000000000000081526004018080602001828103825260238152602001806150646023913960400191505060405180910390fd5b60006004600201549050600060046003015460046001015401905061325d61324e613249606461323b60098761446e90919063ffffffff16565b61480c90919063ffffffff16565b614a54565b83614a6590919063ffffffff16565b915061328960046002015461327b848461446e90919063ffffffff16565b61480c90919063ffffffff16565b9050600160009054906101000a900473ffffffffffffffffffffffffffffffffffffffff1673ffffffffffffffffffffffffffffffffffffffff1663e742806a30836040518363ffffffff1660e01b8152600401808373ffffffffffffffffffffffffffffffffffffffff16815260200182815260200192505050600060405180830381600087803b15801561331e57600080fd5b505af1158015613332573d6000803e3d6000fd5b50505050600160009054906101000a900473ffffffffffffffffffffffffffffffffffffffff1673ffffffffffffffffffffffffffffffffffffffff1663095ea7b373f164fc0ec4e93095b804a4795bbe1e041497b92a836040518363ffffffff1660e01b8152600401808373ffffffffffffffffffffffffffffffffffffffff16815260200182815260200192505050602060405180830381600087803b1580156133dd57600080fd5b505af11580156133f1573d6000803e3d6000fd5b505050506040513d602081101561340757600080fd5b810190808051906020019092919050505050600080600073f164fc0ec4e93095b804a4795bbe1e041497b92a73ffffffffffffffffffffffffffffffffffffffff1663f305d71986600160009054906101000a900473ffffffffffffffffffffffffffffffffffffffff1687600080600061348d611c2042613bf490919063ffffffff16565b6040518863ffffffff1660e01b8152600401808773ffffffffffffffffffffffffffffffffffffffff1681526020018681526020018581526020018481526020018373ffffffffffffffffffffffffffffffffffffffff16815260200182815260200196505050505050506060604051808303818588803b15801561351157600080fd5b505af1158015613525573d6000803e3d6000fd5b50505050506040513d606081101561353c57600080fd5b810190808051906020019092919080519060200190929190805190602001909291905050509250925092506000600460010181905550600060046003018190555060006004600201819055507fec61299b073fac5734ebbaafd76190a06af6a8129994155248c303f194a9d68483838360405180848152602001838152602001828152602001935050505060405180910390a15050505050565b600080600460000160009054906101000a900467ffffffffffffffff1667ffffffffffffffff1611801561360f57506000600460020154145b613681576040517f08c379a000000000000000000000000000000000000000000000000000000000815260040180806020018281038252601e8152602001807f47524953453a20666f7277617264206c6971756964697479206669727374000081525060200191505060405180910390fd5b6000600190505b603260ff168160ff16116137e9576000601060008573ffffffffffffffffffffffffffffffffffffffff1673ffffffffffffffffffffffffffffffffffffffff16815260200190815260200160002060008360ff1681526020019081526020016000205411156137dc5761377e68056bc75e2d6310000061377061370e8460ff16614977565b601060008873ffffffffffffffffffffffffffffffffffffffff1673ffffffffffffffffffffffffffffffffffffffff16815260200190815260200160002060008660ff1681526020019081526020016000205461446e90919063ffffffff16565b61480c90919063ffffffff16565b820191506000601060008573ffffffffffffffffffffffffffffffffffffffff1673ffffffffffffffffffffffffffffffffffffffff16815260200190815260200160002060008360ff168152602001908152602001600020819055505b8080600101915050613688565b50600081111561389f57600160009054906101000a900473ffffffffffffffffffffffffffffffffffffffff1673ffffffffffffffffffffffffffffffffffffffff1663e742806a83836040518363ffffffff1660e01b8152600401808373ffffffffffffffffffffffffffffffffffffffff16815260200182815260200192505050600060405180830381600087803b15801561388657600080fd5b505af115801561389a573d6000803e3d6000fd5b505050505b919050565b6000601360003373ffffffffffffffffffffffffffffffffffffffff1673ffffffffffffffffffffffffffffffffffffffff16815260200190815260200160002054905090565b60165481565b6000600460000160009054906101000a900467ffffffffffffffff1667ffffffffffffffff1611801561392957506000600460020154145b61399b576040517f08c379a000000000000000000000000000000000000000000000000000000000815260040180806020018281038252601e8152602001807f47524953453a20666f7277617264206c6971756964697479206669727374000081525060200191505060405180910390fd5b735b38da6a701c568545dcfcb03fcb875f56beddc473ffffffffffffffffffffffffffffffffffffffff166108fc6139f260096139e4600560035461446e90919063ffffffff16565b61480c90919063ffffffff16565b9081150290604051600060405180830381858888f19350505050158015613a1d573d6000803e3d6000fd5b50735b38da6a701c568545dcfcb03fcb875f56beddc473ffffffffffffffffffffffffffffffffffffffff166108fc613a62600960035461480c90919063ffffffff16565b9081150290604051600060405180830381858888f19350505050158015613a8d573d6000803e3d6000fd5b50735b38da6a701c568545dcfcb03fcb875f56beddc473ffffffffffffffffffffffffffffffffffffffff166108fc613ad16003805461480c90919063ffffffff16565b9081150290604051600060405180830381858888f19350505050158015613afc573d6000803e3d6000fd5b50565b6060600267ffffffffffffffff81118015613b1957600080fd5b50604051908082528060200260200182016040528015613b485781602001602082028036833780820191505090505b5090508181600081518110613b5957fe5b602002602001019073ffffffffffffffffffffffffffffffffffffffff16908173ffffffffffffffffffffffffffffffffffffffff168152505073c778417e063141139fce010982780140aa0cd5ab81600181518110613bb557fe5b602002602001019073ffffffffffffffffffffffffffffffffffffffff16908173ffffffffffffffffffffffffffffffffffffffff1681525050919050565b600080828401905083811015613c72576040517f08c379a00000000000000000000000000000000000000000000000000000000081526004018080602001828103825260188152602001807f47524953453a206164646974696f6e206f766572666c6f77000000000000000081525060200191505060405180910390fd5b8091505092915050565b6000845190506000613c97828461480c90919063ffffffff16565b905060005b86518160ff1610156140985767016345785d8a00006fffffffffffffffffffffffffffffffff1682101580613d3a57506000601060008773ffffffffffffffffffffffffffffffffffffffff1673ffffffffffffffffffffffffffffffffffffffff1681526020019081526020016000206000898460ff1681518110613d1e57fe5b602002602001015160ff16815260200190815260200160002054115b613dac576040517f08c379a000000000000000000000000000000000000000000000000000000000815260040180806020018281038252601f8152602001807f47524953453a20696e766573746d656e742062656c6f77206d696e696d756d0081525060200191505060405180910390fd5b8567ffffffffffffffff16878260ff1681518110613dc657fe5b602002602001015160ff161015613e28576040517f08c379a00000000000000000000000000000000000000000000000000000000081526004018080602001828103825260248152602001806150ac6024913960400191505060405180910390fd5b6000878260ff1681518110613e3957fe5b602002602001015160ff16118015613e6e5750603260ff16878260ff1681518110613e6057fe5b602002602001015160ff1611155b613ee0576040517f08c379a000000000000000000000000000000000000000000000000000000000815260040180806020018281038252601f8152602001807f47524953453a20696e636f727265637420696e766573746d656e74206461790081525060200191505060405180910390fd5b609360ff16600c6000898460ff1681518110613ef857fe5b602002602001015160ff168152602001908152602001600020541080613f8757506000601060008773ffffffffffffffffffffffffffffffffffffffff1673ffffffffffffffffffffffffffffffffffffffff1681526020019081526020016000206000898460ff1681518110613f6b57fe5b602002602001015160ff16815260200190815260200160002054115b613fdc576040517f08c379a0000000000000000000000000000000000000000000000000000000008152600401808060200182810382526029815260200180614fee6029913960400191505060405180910390fd5b6000601060008773ffffffffffffffffffffffffffffffffffffffff1673ffffffffffffffffffffffffffffffffffffffff1681526020019081526020016000206000898460ff168151811061402e57fe5b602002602001015160ff16815260200190815260200160002054141561408b57600c6000888360ff168151811061406157fe5b602002602001015160ff168152602001908152602001600020600081548092919060010191905055505b8080600101915050613c9c565b50505050505050565b8273ffffffffffffffffffffffffffffffffffffffff168273ffffffffffffffffffffffffffffffffffffffff161415614126576040517f08c379a00000000000000000000000000000000000000000000000000000000081526004018080602001828103825260228152602001806150d06022913960400191505060405180910390fd5b61412f83614aee565b6141a1576040517f08c379a000000000000000000000000000000000000000000000000000000000815260040180806020018281038252601f8152602001807f47524953453a20696e76616c696420726566657272616c20616464726573730081525060200191505060405180910390fd5b60008073ffffffffffffffffffffffffffffffffffffffff168473ffffffffffffffffffffffffffffffffffffffff16146142a6576801158e460913d000006fffffffffffffffffffffffffffffffff1661424483601160008873ffffffffffffffffffffffffffffffffffffffff1673ffffffffffffffffffffffffffffffffffffffff16815260200190815260200160002054613bf490919063ffffffff16565b11614277576142726127106142646129048561446e90919063ffffffff16565b61480c90919063ffffffff16565b6142a1565b6142a06103e861429261044c8561446e90919063ffffffff16565b61480c90919063ffffffff16565b5b6142a8565b815b905060008551905060006142c5828461480c90919063ffffffff16565b905060006142dc8385614b0790919063ffffffff16565b905061431286896000815181106142ef57fe5b602002602001015160ff1661430d8486613bf490919063ffffffff16565b614b91565b6000600190505b838160ff16101561435557614348878a8360ff168151811061433757fe5b602002602001015160ff1685614b91565b8080600101915050614319565b506143608685614d67565b600073ffffffffffffffffffffffffffffffffffffffff168773ffffffffffffffffffffffffffffffffffffffff16146144045761439e8786614e67565b8573ffffffffffffffffffffffffffffffffffffffff168773ffffffffffffffffffffffffffffffffffffffff167f3b54244fd9f24308e8af20c841d18d51e8bf31c6d418e821cbac244814600456876040518082815260200191505060405180910390a35b84601460008873ffffffffffffffffffffffffffffffffffffffff1673ffffffffffffffffffffffffffffffffffffffff16815260200190815260200160002060008282540192505081905550846004600201600082825401925050819055505050505050505050565b600080831415614481576000905061450b565b600082840290508284828161449257fe5b0414614506576040517f08c379a000000000000000000000000000000000000000000000000000000000815260040180806020018281038252601e8152602001807f47524953453a206d756c7469706c69636174696f6e206f766572666c6f77000081525060200191505060405180910390fd5b809150505b92915050565b600061454c60086000848152602001908152602001600020546009600085815260200190815260200160002054614a6590919063ffffffff16565b905060008160008054906101000a900473ffffffffffffffffffffffffffffffffffffffff1673ffffffffffffffffffffffffffffffffffffffff1663387a461a6040518163ffffffff1660e01b8152600401602060405180830381600087803b1580156145b957600080fd5b505af11580156145cd573d6000803e3d6000fd5b505050506040513d60208110156145e357600080fd5b8101908080519060200190929190505050816145fb57fe5b0690506001600460000160009054906101000a900467ffffffffffffffff1601600460000160006101000a81548167ffffffffffffffff021916908367ffffffffffffffff1602179055506146826012600a0a614674836008600088815260200190815260200160002054613bf490919063ffffffff16565b61446e90919063ffffffff16565b600a6000858152602001908152602001600020819055506146c4600a600085815260200190815260200160002054600460010154613bf490919063ffffffff16565b600460010181905550827f4618ee3e7552213f3e936041b1985724dcfe996ed43c78a4d710d7a536198a39600a6000868152602001908152602001600020546040518082815260200191505060405180910390a2505050565b6012600a0a600860008381526020019081526020016000205402600a600083815260200190815260200160002081905550600a6000828152602001908152602001600020546004600101600082825401925050819055506004600001600081819054906101000a900467ffffffffffffffff168092919060010191906101000a81548167ffffffffffffffff021916908367ffffffffffffffff16021790555050807f1d6deab77e7b3eb85aea9594a90cdaa64ff82c8a9d1707867000536f9eb1f460600a6000848152602001908152602001600020546040518082815260200191505060405180910390a250565b6000808211614883576040517f08c379a00000000000000000000000000000000000000000000000000000000081526004018080602001828103825260178152602001807f47524953453a206469766973696f6e206279207a65726f00000000000000000081525060200191505060405180910390fd5b600082848161488e57fe5b0490508091505092915050565b6148c1816148b360148561480c90919063ffffffff16565b61446e90919063ffffffff16565b601260008573ffffffffffffffffffffffffffffffffffffffff1673ffffffffffffffffffffffffffffffffffffffff16815260200190815260200160002081905550505050565b61492f81614921600a8561480c90919063ffffffff16565b61446e90919063ffffffff16565b601260008573ffffffffffffffffffffffffffffffffffffffff1673ffffffffffffffffffffffffffffffffffffffff16815260200190815260200160002081905550505050565b6000806149ce600b6000858152602001908152602001600020546149c068056bc75e2d63100000600a60008881526020019081526020016000205461446e90919063ffffffff16565b61480c90919063ffffffff16565b90506000614a26600b600086815260200190815260200160002054614a1868056bc75e2d63100000600a60008981526020019081526020016000205461446e90919063ffffffff16565b614b0790919063ffffffff16565b905060008114614a4957614a44600183613bf490919063ffffffff16565b614a4b565b815b92505050919050565b600081600381905550819050919050565b600082821115614add576040517f08c379a000000000000000000000000000000000000000000000000000000000815260040180806020018281038252601b8152602001807f47524953453a207375627472616374696f6e206f766572666c6f77000000000081525060200191505060405180910390fd5b600082840390508091505092915050565b600080823b905060008163ffffffff1614915050919050565b600080821415614b7f576040517f08c379a00000000000000000000000000000000000000000000000000000000081526004018080602001828103825260158152602001807f47524953453a206d6f64756c6f206279207a65726f000000000000000000000081525060200191505060405180910390fd5b818381614b8857fe5b06905092915050565b6000601060008573ffffffffffffffffffffffffffffffffffffffff1673ffffffffffffffffffffffffffffffffffffffff1681526020019081526020016000206000848152602001908152602001600020541415614c845782600f60008481526020019081526020016000206000600e600086815260200190815260200160002054815260200190815260200160002060006101000a81548173ffffffffffffffffffffffffffffffffffffffff021916908373ffffffffffffffffffffffffffffffffffffffff160217905550600e6000838152602001908152602001600020600081548092919060010191905055505b80601060008573ffffffffffffffffffffffffffffffffffffffff1673ffffffffffffffffffffffffffffffffffffffff16815260200190815260200160002060008481526020019081526020016000206000828254019250508190555080600b60008481526020019081526020016000206000828254019250508190555080600d60008282540192505081905550818373ffffffffffffffffffffffffffffffffffffffff167f0c594dd82675fa226ce008b3e6ef2d4eed522e4a7ee76f9f56df358bd65f1e42836040518082815260200191505060405180910390a3505050565b6000601360008473ffffffffffffffffffffffffffffffffffffffff1673ffffffffffffffffffffffffffffffffffffffff168152602001908152602001600020541415614e16578160176000601654815260200190815260200160002060006101000a81548173ffffffffffffffffffffffffffffffffffffffff021916908373ffffffffffffffffffffffffffffffffffffffff1602179055506016600081548092919060010191905055505b80601360008473ffffffffffffffffffffffffffffffffffffffff1673ffffffffffffffffffffffffffffffffffffffff168152602001908152602001600020600082825401925050819055505050565b6000601160008473ffffffffffffffffffffffffffffffffffffffff1673ffffffffffffffffffffffffffffffffffffffff168152602001908152602001600020541415614f16578160186000601554815260200190815260200160002060006101000a81548173ffffffffffffffffffffffffffffffffffffffff021916908373ffffffffffffffffffffffffffffffffffffffff1602179055506015600081548092919060010191905055505b80601160008473ffffffffffffffffffffffffffffffffffffffff1673ffffffffffffffffffffffffffffffffffffffff168152602001908152602001600020600082825401925050819055505050565b60405180610660016040528060339060208202803683378082019150509050509056fe47524953453a206d757374207072657061726520616c6c20726566657272616c7347524953453a206e6f20696e766573746d656e7473206f6e20746861742064617947524953453a20696e636f727265637420696e766573746d656e7420626174636847524953453a20696e766573746d656e7420736c6f747320617265206e6f7420617661696c61626c6547524953453a20616c6c20726566657272616c7320616c726561647920707265706172656447524953453a206d7573742067656e657261746520737570706c7920666f7220616c6c206461797347524953453a206d757374206861766520746f6b656e7320746f207472616e7366657247524953453a20696e766573746d656e7420646179206d75737420626520696e207061737447524953453a20696e766573746d656e742064617920616c72656164792070617373656447524953453a206d757374206265206120646966666572656e74206164647265737347524953453a206e6f7420696e20696e697469616c20696e766573746d656e7420646179732072616e6765a2646970667358221220e54ad96f7128ad3f5742e36969091788927b0ff95e15d2ea75ce2a4967ad841464736f6c63430007060033",
  "immutableReferences": {},
  "source": "// SPDX-License-Identifier: ----\r\n\r\npragma solidity =0.7.6;\r\n\r\nimport './Interfaces.sol';\r\nimport './Randomness.sol';\r\n\r\ncontract LiquidityTransformer {\r\n\r\n    using SafeMathLT for uint256;\r\n    using SafeMathLT for uint128;\r\n\r\n    Randomness public randomness;\r\n    IGriseToken public GRISE_CONTRACT;\r\n   \r\n    UniswapRouterV2 public constant UNISWAP_ROUTER = UniswapRouterV2(\r\n        // 0x7a250d5630B4cF539739dF2C5dAcb4c659F2488D // mainnet\r\n         0xf164fC0Ec4E93095b804a4795bBe1e041497b92a // ropsten\r\n        //0x57079e0d0657890218C630DA5248A1103a1b4ad0 // local\r\n    );\r\n\r\n    RefundSponsorI public constant REFUND_SPONSOR = RefundSponsorI(\r\n        // 0xc3FC68dDdB1bf4Cb61307eEf89729DC317f2325a // mainnet\r\n        0xdf783c5334bA51829EE8D41b16ef1D1C8eC909CA    //ropsten\r\n        //0xd9145CCE52D386f254917e481eB44e9943F39138 // local\r\n    );\r\n\r\n    address payable constant TEAM_ADDRESS = 0x5B38Da6a701c568545dCfcB03FcB875f56beddC4;\r\n    address payable constant DEV_ADDRESS = 0x5B38Da6a701c568545dCfcB03FcB875f56beddC4;\r\n    address payable constant BOUNTY_ADDRESS = 0x5B38Da6a701c568545dCfcB03FcB875f56beddC4;\r\n    address public TOKEN_DEFINER = 0x5B38Da6a701c568545dCfcB03FcB875f56beddC4;\r\n\r\n    // address constant WETH = 0xC02aaA39b223FE8D0A0e5C4F27eAD9083C756Cc2; // mainnet\r\n     address constant WETH = 0xc778417E063141139Fce010982780140Aa0cD5Ab; // ropsten\r\n    //address constant WETH = 0xEb59fE75AC86dF3997A990EDe100b90DDCf9a826; // local\r\n\r\n    uint8 constant INVESTMENT_DAYS = 50;\r\n    uint8 constant MAX_DAY_SLOT = 147;\r\n\r\n    uint128 constant THRESHOLD_LIMIT_MIN = 100000000000000000 wei;\r\n    uint128 constant THRESHOLD_LIMIT_MAX = 20 ether;\r\n    uint256 public TEAM_ETHER;\r\n    uint128 constant MIN_INVEST = 100000000000000000 wei;   \r\n    uint128 constant DAILY_MAX_SUPPLY = 12000;\r\n    \r\n    uint256 constant YODAS_PER_GRISE = 10 ** uint256(18);\r\n    uint256 constant NUM_RANDOM_BYTES_REQUESTED = 7;\r\n\r\n    struct Globals {\r\n        uint64 generatedDays;\r\n        uint64 preparedReferrals;\r\n        uint256 totalTransferTokens;\r\n        uint256 totalWeiContributed;\r\n        uint256 totalReferralTokens;\r\n    }\r\n\r\n    Globals public g;\r\n\r\n    mapping(uint256 => uint256) dailyMinSupply;\r\n    mapping(uint256 => uint256) dailyMaxSupply;\r\n    mapping(uint256 => uint256) public dailyTotalSupply;\r\n    mapping(uint256 => uint256) public dailyTotalInvestment;\r\n    mapping(uint256 => uint256) public dailySlots;\r\n    \r\n    uint256 constant START_DAY = 1;\r\n    uint256 public totalInvestment;\r\n    uint128 constant GAS_REFUND_THRESHOLD = 200 ether;\r\n\r\n    mapping(uint256 => uint256) public investorAccountCount;\r\n    mapping(uint256 => mapping(uint256 => address)) public investorAccounts;\r\n    mapping(address => mapping(uint256 => uint256)) public investorBalances;\r\n\r\n    mapping(address => uint256) public referralAmount;\r\n    mapping(address => uint256) public referralTokens;\r\n    mapping(address => uint256) public investorTotalBalance;\r\n    mapping(address => uint256) originalInvestment;\r\n\r\n    uint256 public referralAccountCount;\r\n    uint256 public uniqueInvestorCount;\r\n\r\n    mapping (uint256 => address) public uniqueInvestors;\r\n    mapping (uint256 => address) public referralAccounts;\r\n\r\n    event GeneratingRandomSupply(\r\n        uint256 indexed investmentDay\r\n    );\r\n\r\n    event GeneratedRandomSupply(\r\n        uint256 indexed investmentDay,\r\n        uint256 randomSupply\r\n    );\r\n\r\n    event GeneratedStaticSupply(\r\n        uint256 indexed investmentDay,\r\n        uint256 staticSupply\r\n    );\r\n\r\n    event GenerationStatus(\r\n        uint64 indexed investmentDay,\r\n        bool result\r\n    );\r\n\r\n    event LogNewProvableQuery(\r\n        string description\r\n    );\r\n\r\n    event ReferralAdded(\r\n        address indexed referral,\r\n        address indexed referee,\r\n        uint256 amount\r\n    );\r\n\r\n    event UniSwapResult(\r\n        uint256 amountToken,\r\n        uint256 amountETH,\r\n        uint256 liquidity\r\n    );\r\n\r\n    event GriseReservation(\r\n        address indexed sender,\r\n        uint256 indexed investmentDay,\r\n        uint256 amount\r\n    );\r\n\r\n    modifier afterInvestmentPhase() {\r\n        require(\r\n            _currentLPDay() > INVESTMENT_DAYS,\r\n            'GRISE: ongoing investment phase'\r\n        );\r\n        _;\r\n    }\r\n\r\n    modifier afterUniswapTransfer() {\r\n        require (\r\n            g.generatedDays > 0 &&\r\n            g.totalWeiContributed == 0,\r\n            'GRISE: forward liquidity first'\r\n        );\r\n        _;\r\n    }\r\n\r\n    modifier investmentDaysRange(uint256 _investmentDay) {\r\n        require(\r\n            _investmentDay > 0 &&\r\n            _investmentDay <= INVESTMENT_DAYS,\r\n            'GRISE: not in initial investment days range'\r\n        );\r\n        _;\r\n    }\r\n\r\n    modifier onlyFundedDays(uint256 _investmentDay) {\r\n        require(\r\n            dailyTotalInvestment[_investmentDay] > 0,\r\n            'GRISE: no investments on that day'\r\n        );\r\n        _;\r\n    }\r\n\r\n    modifier refundSponsorDynamic() {\r\n        uint256 gasStart = gasleft();\r\n        _;\r\n        uint256 gasSpent = (21000 + gasStart - gasleft()).mul(tx.gasprice);\r\n        gasSpent = msg.value.div(10) > gasSpent ? gasSpent : msg.value.div(10);\r\n        \r\n        if(totalInvestment <= GAS_REFUND_THRESHOLD){\r\n        REFUND_SPONSOR.addGasRefund(msg.sender, gasSpent);\r\n        }\r\n    }\r\n\r\n    modifier refundSponsorFixed() {\r\n        uint256 gasStart = gasleft();\r\n        _;\r\n        uint256 gasSpent = (21000 + gasStart - gasleft()).mul(tx.gasprice);\r\n        gasSpent = gasSpent > 5000000000000000 ? 5000000000000000 : gasSpent;\r\n        \r\n        if(totalInvestment <= GAS_REFUND_THRESHOLD){\r\n        REFUND_SPONSOR.addGasRefund(msg.sender, gasSpent);\r\n        }\r\n    }\r\n\r\n    modifier onlyTokenDefiner() {\r\n        require(\r\n            msg.sender == TOKEN_DEFINER,\r\n            'GRISE: wrong sender'\r\n        );\r\n        _;\r\n    }\r\n    \r\n    event Received(address,uint); //DHAVAL\r\n\r\n    receive() external payable {\r\n        require (\r\n            msg.sender == address(UNISWAP_ROUTER) ||\r\n            msg.sender == TEAM_ADDRESS ||\r\n            msg.sender == DEV_ADDRESS ||\r\n            msg.sender == BOUNTY_ADDRESS ||\r\n            msg.sender == TOKEN_DEFINER,\r\n            'GRISE: direct deposits disabled'\r\n        );\r\n        \r\n        emit Received(msg.sender,msg.value); //DHAVAL\r\n    }\r\n\r\n    function defineToken(\r\n        address _griseToken\r\n    )\r\n        external\r\n        onlyTokenDefiner\r\n    {\r\n        GRISE_CONTRACT = IGriseToken(_griseToken);\r\n    }\r\n\r\n    function revokeAccess()\r\n        external\r\n        onlyTokenDefiner\r\n    {\r\n        TOKEN_DEFINER = address(0x0);\r\n    }\r\n\r\n    constructor(address _griseToken, Randomness _randomness) {\r\n        randomness=_randomness;\r\n        GRISE_CONTRACT = IGriseToken(_griseToken);\r\n        dailySlots[START_DAY]++;\r\n\r\n        dailyMinSupply[1] = 6000;\r\n        dailyMinSupply[2] = 6000;\r\n        dailyMinSupply[3] = 6000;\r\n        dailyMinSupply[4] = 6000;\r\n        dailyMinSupply[5] = 2150;\r\n        dailyMinSupply[6] = 6000;\r\n        dailyMinSupply[7] = 3650;\r\n        dailyMinSupply[8] = 6000;\r\n        dailyMinSupply[9] = 3650;\r\n        dailyMinSupply[10] = 6000;\r\n        \r\n        dailyMinSupply[11] = 3650;\r\n        dailyMinSupply[12] = 6000;\r\n        dailyMinSupply[13] = 6000;\r\n        dailyMinSupply[14] = 2150;\r\n        dailyMinSupply[15] = 6000;\r\n        dailyMinSupply[16] = 3650;\r\n        dailyMinSupply[17] = 6000;\r\n        dailyMinSupply[18] = 3650;\r\n        dailyMinSupply[19] = 6000;\r\n        dailyMinSupply[20] = 2150;\r\n        \r\n        dailyMinSupply[21] = 6000;\r\n        dailyMinSupply[22] = 2150;\r\n        dailyMinSupply[23] = 6000;\r\n        dailyMinSupply[24] = 2150;\r\n        dailyMinSupply[25] = 6000;\r\n        dailyMinSupply[26] = 2150;\r\n        dailyMinSupply[27] = 6000;\r\n        dailyMinSupply[28] = 6000;\r\n        dailyMinSupply[29] = 3650;\r\n        dailyMinSupply[30] = 6000;\r\n        \r\n        dailyMinSupply[31] = 6000;\r\n        dailyMinSupply[32] = 2150;\r\n        dailyMinSupply[33] = 6000;\r\n        dailyMinSupply[34] = 3650;\r\n        dailyMinSupply[35] = 6000;\r\n        dailyMinSupply[36] = 3650;\r\n        dailyMinSupply[37] = 6000;\r\n        dailyMinSupply[38] = 2150;\r\n        dailyMinSupply[39] = 2150;\r\n        dailyMinSupply[40] = 6000;\r\n        \r\n        dailyMinSupply[41] = 3650;\r\n        dailyMinSupply[42] = 6000;\r\n        dailyMinSupply[43] = 6000;\r\n        dailyMinSupply[44] = 2150;\r\n        dailyMinSupply[45] = 6000;\r\n        dailyMinSupply[46] = 3650;\r\n        dailyMinSupply[47] = 2150;\r\n        dailyMinSupply[48] = 3650;\r\n        dailyMinSupply[49] = 6000;\r\n        dailyMinSupply[50] = 6000;\r\n        \r\n        \r\n        dailyMaxSupply[5] = 16850;\r\n        dailyMaxSupply[14] = 16850;\r\n        dailyMaxSupply[20] = 16850;\r\n        dailyMaxSupply[22] = 16850;\r\n        dailyMaxSupply[24] = 16850;\r\n        dailyMaxSupply[26] = 16850;\r\n        dailyMaxSupply[32] = 16850;\r\n        dailyMaxSupply[38] = 16850;\r\n        dailyMaxSupply[39] = 16850;\r\n        dailyMaxSupply[44] = 16850;\r\n        dailyMaxSupply[47] = 16850;\r\n        \r\n        dailyMaxSupply[7] = 11850;\r\n        dailyMaxSupply[9] = 11850;\r\n        dailyMaxSupply[11] = 11850;\r\n        dailyMaxSupply[16] = 11850;\r\n        dailyMaxSupply[18] = 11850;\r\n        dailyMaxSupply[29] = 11850;\r\n        dailyMaxSupply[34] = 11850;\r\n        dailyMaxSupply[36] = 11850;\r\n        dailyMaxSupply[41] = 11850;\r\n        dailyMaxSupply[46] = 11850;\r\n        dailyMaxSupply[48] = 11850;\r\n    }\r\n\r\n\r\n    //  GRISE RESERVATION (EXTERNAL FUNCTIONS)  //\r\n    //  -------------------------------------  //\r\n\r\n    /** @dev Performs reservation of GRISE tokens with ETH\r\n      * @param _investmentDays array of reservation days.\r\n      * @param _referralAddress referral address for bonus.\r\n      */\r\n    function reserveGrise(\r\n        uint8[] calldata _investmentDays,\r\n        address _referralAddress\r\n    )\r\n        external\r\n        payable\r\n        refundSponsorDynamic\r\n    {\r\n        checkInvestmentDays(\r\n            _investmentDays,\r\n            _currentLPDay(),\r\n            msg.sender,\r\n            msg.value\r\n        );\r\n        \r\n        \r\n        _reserveGrise(\r\n            _investmentDays,\r\n            _referralAddress,\r\n            msg.sender,\r\n            msg.value\r\n        );\r\n    }\r\n\r\n    /** @notice Allows reservation of GRISE tokens with other ERC20 tokens\r\n      * @dev this will require LT contract to be approved as spender\r\n      * @param _tokenAddress address of an ERC20 token to use\r\n      * @param _tokenAmount amount of tokens to use for reservation\r\n      * @param _investmentDays array of reservation days\r\n      * @param _referralAddress referral address for bonus\r\n      */\r\n    function reserveGriseWithToken(\r\n        address _tokenAddress,\r\n        uint256 _tokenAmount,\r\n        uint8[] calldata _investmentDays,\r\n        address _referralAddress\r\n    )\r\n        external\r\n        refundSponsorFixed\r\n    {\r\n        IERC20Token _token = IERC20Token(\r\n            _tokenAddress\r\n        );\r\n\r\n        _token.transferFrom(\r\n            msg.sender,\r\n            address(this),\r\n            _tokenAmount\r\n        );\r\n\r\n        _token.approve(\r\n            address(UNISWAP_ROUTER),\r\n            _tokenAmount\r\n        );\r\n\r\n        address[] memory _path = preparePath(\r\n            _tokenAddress\r\n        );\r\n\r\n        uint256[] memory amounts =\r\n        UNISWAP_ROUTER.swapExactTokensForETH(\r\n            _tokenAmount,\r\n            0,\r\n            _path,\r\n            address(this),\r\n            block.timestamp.add(2 hours)\r\n        );\r\n\r\n\r\n        checkInvestmentDays(\r\n            _investmentDays,\r\n            _currentLPDay(),\r\n            msg.sender,\r\n            amounts[1]\r\n        );\r\n        \r\n\r\n        _reserveGrise(\r\n            _investmentDays,\r\n            _referralAddress,\r\n            msg.sender,\r\n            amounts[1]\r\n        );\r\n    }\r\n\r\n    //  GRISE RESERVATION (INTERNAL FUNCTIONS)  //\r\n    //  -------------------------------------  //\r\n\r\n    /** @notice Distributes ETH equaly between selected reservation days\r\n      * @dev this will require LT contract to be approved as a spender\r\n      * @param _investmentDays array of selected reservation days\r\n      * @param _referralAddress referral address for bonus\r\n      * @param _senderAddress address of the investor\r\n      * @param _senderValue amount of ETH contributed\r\n      */\r\n    function _reserveGrise(\r\n        uint8[] memory _investmentDays,\r\n        address _referralAddress,\r\n        address _senderAddress,\r\n        uint256 _senderValue\r\n    )\r\n        internal\r\n    {\r\n        require(\r\n            _senderAddress != _referralAddress,\r\n            'GRISE: must be a different address'\r\n        );\r\n\r\n        require(\r\n            notContract(_referralAddress),\r\n            'GRISE: invalid referral address'\r\n        );\r\n\r\n        uint256 _investmentBalance = _referralAddress == address(0x0)\r\n            ? _senderValue \r\n            : referralAmount[_referralAddress].add(_senderValue) > THRESHOLD_LIMIT_MAX\r\n            ?_senderValue.mul(1100).div(1000)\r\n            :_senderValue.mul(10500).div(10000);\r\n\r\n\r\n\r\n        uint256 _totalDays = _investmentDays.length;\r\n        uint256 _dailyAmount = _investmentBalance.div(_totalDays);\r\n        uint256 _leftOver = _investmentBalance.mod(_totalDays);\r\n\r\n        _addBalance(\r\n            _senderAddress,\r\n            _investmentDays[0],\r\n            _dailyAmount.add(_leftOver)\r\n        );\r\n        \r\n       \r\n\r\n        for (uint8 _i = 1; _i < _totalDays; _i++) {\r\n            _addBalance(\r\n                _senderAddress,\r\n                _investmentDays[_i],\r\n                _dailyAmount\r\n            );\r\n             \r\n        }\r\n\r\n        _trackInvestors(\r\n            _senderAddress,\r\n            _investmentBalance\r\n        );\r\n\r\n        if (_referralAddress != address(0x0)) {\r\n\r\n            _trackReferrals(_referralAddress, _senderValue);\r\n\r\n            emit ReferralAdded(\r\n                _referralAddress,\r\n                _senderAddress,\r\n                _senderValue\r\n            );\r\n        }\r\n\r\n        originalInvestment[_senderAddress] += _senderValue;\r\n        g.totalWeiContributed += _senderValue;\r\n    }\r\n\r\n    /** @notice Allocates investors balance to specific day\r\n      * @param _senderAddress investors wallet address\r\n      * @param _investmentDay selected investment day\r\n      * @param _investmentBalance amount invested (with bonus)\r\n      */\r\n    function _addBalance(\r\n        address _senderAddress,\r\n        uint256 _investmentDay,\r\n        uint256 _investmentBalance\r\n    )\r\n        internal\r\n    {\r\n        if (investorBalances[_senderAddress][_investmentDay] == 0) {\r\n            investorAccounts[_investmentDay][investorAccountCount[_investmentDay]] = _senderAddress;\r\n            investorAccountCount[_investmentDay]++;\r\n        }\r\n\r\n        investorBalances[_senderAddress][_investmentDay] += _investmentBalance;\r\n        dailyTotalInvestment[_investmentDay] += _investmentBalance;\r\n        totalInvestment += _investmentBalance;\r\n\r\n        emit GriseReservation(\r\n            _senderAddress,\r\n            _investmentDay,\r\n            _investmentBalance\r\n        );\r\n    }\r\n\r\n    //  GRISE RESERVATION (PRIVATE FUNCTIONS)  //\r\n    //  ------------------------------------  //\r\n\r\n    /** @notice Tracks investorTotalBalance and uniqueInvestors\r\n      * @dev used in _reserveGrise() internal function\r\n      * @param _investorAddress address of the investor\r\n      * @param _value ETH amount invested (with bonus)\r\n      */\r\n    function _trackInvestors(address _investorAddress, uint256 _value) private {\r\n       \r\n        if (investorTotalBalance[_investorAddress] == 0) {\r\n            uniqueInvestors[uniqueInvestorCount] = _investorAddress;\r\n            uniqueInvestorCount++;\r\n        }\r\n        investorTotalBalance[_investorAddress] += _value;\r\n    }\r\n\r\n    /** @notice Tracks referralAmount and referralAccounts\r\n      * @dev used in _reserveGrise() internal function\r\n      * @param _referralAddress address of the referrer\r\n      * @param _value ETH amount referred during reservation\r\n      */\r\n    function _trackReferrals(address _referralAddress, uint256 _value) private {\r\n        if (referralAmount[_referralAddress] == 0) {\r\n            referralAccounts[\r\n            referralAccountCount] = _referralAddress;\r\n            referralAccountCount++;\r\n        }\r\n        referralAmount[_referralAddress] += _value;\r\n    }\r\n\r\n\r\n    //  SUPPLY GENERATION (EXTERNAL FUNCTION)  //\r\n    //  -------------------------------------  //\r\n\r\n    /** @notice Allows to generate supply for past funded days\r\n      * @param _investmentDay investemnt day index (1-50)\r\n      */\r\n    function generateSupply(\r\n        uint64 _investmentDay\r\n    )\r\n        external\r\n        investmentDaysRange(_investmentDay)\r\n        onlyFundedDays(_investmentDay)\r\n    {\r\n        require(\r\n            _investmentDay < _currentLPDay(),\r\n            'GRISE: investment day must be in past'\r\n        );\r\n\r\n        require(\r\n            dailyTotalSupply[_investmentDay] == 0,\r\n            'GRISE: supply already generated'\r\n        );\r\n                \r\n        DAILY_MAX_SUPPLY - dailyMinSupply[_investmentDay] == dailyMinSupply[_investmentDay]\r\n            ? _generateStaticSupply(_investmentDay)\r\n            : _generateRandomSupply(_investmentDay);\r\n    }\r\n\r\n\r\n    //  SUPPLY GENERATION (INTERNAL FUNCTIONS)  //\r\n    //  --------------------------------------  //\r\n\r\n    /** @notice Generates supply for days with static supply\r\n      * @param _investmentDay investemnt day index (1-50)\r\n      */\r\n    function _generateStaticSupply(\r\n        uint256 _investmentDay\r\n    )\r\n        internal\r\n    {\r\n        dailyTotalSupply[_investmentDay] = dailyMinSupply[_investmentDay] * YODAS_PER_GRISE;\r\n        g.totalTransferTokens += dailyTotalSupply[_investmentDay];\r\n\r\n        g.generatedDays++;\r\n        \r\n        emit GeneratedStaticSupply(\r\n            _investmentDay,\r\n            dailyTotalSupply[_investmentDay]\r\n        );\r\n    }\r\n\r\n    /** @notice Generates supply for days with random supply\r\n      * @dev uses nreAPI to request random number\r\n      * @param _investmentDay investemnt day index (1-50)\r\n      */\r\n    function _generateRandomSupply(\r\n        uint256 _investmentDay\r\n    )\r\n        internal\r\n    {\r\n        uint256 ceilingDayMaxSupply = dailyMaxSupply[_investmentDay].sub(dailyMinSupply[_investmentDay]);\r\n        uint256 randomSupply =  randomness.stateRandomNumber() % ceilingDayMaxSupply;\r\n    \r\n        g.generatedDays = g.generatedDays + 1;\r\n        dailyTotalSupply[_investmentDay] = dailyMinSupply[_investmentDay]\r\n            .add(randomSupply)\r\n            .mul(YODAS_PER_GRISE);\r\n\r\n        g.totalTransferTokens = g.totalTransferTokens\r\n            .add(dailyTotalSupply[_investmentDay]);\r\n\r\n        emit GeneratedRandomSupply(\r\n            _investmentDay,\r\n            dailyTotalSupply[_investmentDay]\r\n        );\r\n\r\n    }\r\n    \r\n\r\n    //  PRE-LIQUIDITY GENERATION FUNCTION  //\r\n    //  ---------------------------------  //\r\n\r\n    /** @notice Pre-calculates amount of tokens each referrer will get\r\n      * @dev must run this for all referrer addresses in batches\r\n      * converts _referralAmount to _referralTokens based on dailyRatio\r\n      */\r\n    function prepareReferralBonuses(\r\n        uint256 _referralBatchFrom,\r\n        uint256 _referralBatchTo\r\n    )\r\n        external\r\n        afterInvestmentPhase\r\n    {\r\n        require(\r\n            _referralBatchFrom < _referralBatchTo,\r\n            'GRISE: incorrect referral batch'\r\n        );\r\n\r\n        require (\r\n            g.preparedReferrals < referralAccountCount,\r\n            'GRISE: all referrals already prepared'\r\n        );\r\n\r\n        uint256 _totalRatio = g.totalTransferTokens.div(g.totalWeiContributed);\r\n\r\n        for (uint256 i = _referralBatchFrom; i < _referralBatchTo; i++) {\r\n            address _referralAddress = referralAccounts[i];\r\n            uint256 _referralAmount = referralAmount[_referralAddress];\r\n            if (referralAmount[_referralAddress] > 0) {\r\n                referralAmount[_referralAddress] = 0;\r\n                if (_referralAmount >= THRESHOLD_LIMIT_MIN) {\r\n                    _referralAmount >= THRESHOLD_LIMIT_MAX\r\n                        ? _fullReferralBonus(_referralAddress, _referralAmount, _totalRatio)\r\n                        : _familyReferralBonus(_referralAddress, _referralAmount,  _totalRatio);\r\n\r\n                    g.totalReferralTokens = g.totalReferralTokens.add(\r\n                        referralTokens[_referralAddress]\r\n                    );\r\n                }\r\n                g.preparedReferrals++;\r\n            }\r\n        }\r\n    }\r\n\r\n    /** @notice performs token allocation for 10% of referral amount\r\n      * @dev after liquidity is formed referrer can withdraw this amount\r\n      */\r\n    function _fullReferralBonus(address _referralAddress, uint256 _referralAmount, uint256 _ratio) internal {\r\n        referralTokens[_referralAddress] = _referralAmount.div(10).mul(_ratio);\r\n    }\r\n\r\n    /** @notice performs token allocation for 5% of referral amount\r\n      * @dev after liquidity is formed referrer can withdraw this amount\r\n      */\r\n    function _familyReferralBonus(address _referralAddress, uint256 _referralAmount, uint256 _ratio) internal {\r\n        referralTokens[_referralAddress] = _referralAmount.div(20).mul(_ratio);\r\n    }\r\n\r\n\r\n    //  LIQUIDITY GENERATION FUNCTION  //\r\n    //  -----------------------------  //\r\n\r\n    /** @notice Creates initial liquidity on Uniswap by forwarding\r\n      * reserved tokens equivalent to ETH contributed to the contract\r\n      * @dev check addLiquidityETH documentation\r\n      */\r\n    function forwardLiquidity(/**/)\r\n        external\r\n        afterInvestmentPhase\r\n    {\r\n        require(\r\n            g.generatedDays == fundedDays(),\r\n            'GRISE: must generate supply for all days'\r\n        );\r\n\r\n        require (\r\n            g.preparedReferrals == referralAccountCount,\r\n            'GRISE: must prepare all referrals'\r\n        );\r\n\r\n        require (\r\n            g.totalTransferTokens > 0,\r\n            'GRISE: must have tokens to transfer'\r\n        );\r\n\r\n        uint256 _balance = g.totalWeiContributed;\r\n        uint256 _buffer = g.totalTransferTokens + g.totalReferralTokens;\r\n\r\n        _balance = _balance.sub(\r\n            _teamContribution(\r\n                _balance.mul(9).div(100)\r\n            )\r\n        );\r\n\r\n        _buffer = _buffer.mul(_balance).div(\r\n            g.totalWeiContributed\r\n        );\r\n\r\n        GRISE_CONTRACT.mintSupply(\r\n            address(this), _buffer\r\n        );\r\n\r\n        GRISE_CONTRACT.approve(\r\n            address(UNISWAP_ROUTER), _buffer\r\n        );\r\n\r\n        (\r\n            uint256 amountToken,\r\n            uint256 amountETH,\r\n            uint256 liquidity\r\n        ) =\r\n\r\n        UNISWAP_ROUTER.addLiquidityETH{value: _balance}(\r\n            address(GRISE_CONTRACT),\r\n            _buffer,\r\n            0,\r\n            0,\r\n            address(0x0),\r\n            block.timestamp.add(2 hours)\r\n        );\r\n\r\n        g.totalTransferTokens = 0;\r\n        g.totalReferralTokens = 0;\r\n        g.totalWeiContributed = 0;\r\n\r\n        emit UniSwapResult(\r\n            amountToken, amountETH, liquidity\r\n        );\r\n    }\r\n\r\n\r\n    //  GRISE TOKEN PAYOUT FUNCTIONS (INDIVIDUAL)  //\r\n    //  ----------------------------------------  //\r\n\r\n    /** @notice Allows to mint all the tokens\r\n      * from investor and referrer perspectives\r\n      * @dev can be called after forwardLiquidity()\r\n      */\r\n    function getMyTokens(/**/)\r\n        external\r\n        afterUniswapTransfer\r\n    {\r\n        payoutInvestorAddress(msg.sender);\r\n        payoutReferralAddress(msg.sender);\r\n    }\r\n\r\n    /** @notice Allows to mint tokens for specific investor address\r\n      * @dev aggregades investors tokens across all investment days\r\n      * and uses GRISE_CONTRACT instance to mint all the GRISE tokens\r\n      * @param _investorAddress requested investor calculation address\r\n      * @return _payout amount minted to the investors address\r\n      */\r\n    function payoutInvestorAddress(\r\n        address _investorAddress\r\n    )\r\n        public\r\n        afterUniswapTransfer\r\n        returns (uint256 _payout)\r\n    {\r\n        for (uint8 i = 1; i <= INVESTMENT_DAYS; i++) {\r\n            if (investorBalances[_investorAddress][i] > 0) {\r\n                _payout += investorBalances[_investorAddress][i].mul(\r\n                    _calculateDailyRatio(i)\r\n                ).div(100E18);\r\n                investorBalances[_investorAddress][i] = 0;\r\n            }\r\n        }\r\n        if (_payout > 0) {\r\n            GRISE_CONTRACT.mintSupply(\r\n                _investorAddress,\r\n                _payout\r\n            );\r\n        }\r\n    }\r\n\r\n    /** @notice Allows to mint tokens for specific referrer address\r\n      * @dev must be pre-calculated in prepareReferralBonuses()\r\n      * @param _referralAddress referrer payout address\r\n      * @return _referralTokens amount minted to the referrer address\r\n      */\r\n    function payoutReferralAddress(\r\n        address _referralAddress\r\n    ) public\r\n        afterUniswapTransfer\r\n        returns (uint256 _referralTokens)\r\n    {\r\n        _referralTokens = referralTokens[_referralAddress];\r\n        if (referralTokens[_referralAddress] > 0) {\r\n            referralTokens[_referralAddress] = 0;\r\n            GRISE_CONTRACT.mintSupply(\r\n                _referralAddress,\r\n                _referralTokens\r\n            );\r\n        }\r\n    }\r\n\r\n    //  GRISE TOKEN PAYOUT FUNCTIONS (BATCHES)  //\r\n    //  -------------------------------------  //\r\n\r\n    /** @notice Allows to mint tokens for specific investment day\r\n      * recommended batch size is up to 50 addresses per call\r\n      * @param _investmentDay processing investment day\r\n      * @param _investorBatchFrom batch starting index\r\n      * @param _investorBatchTo bach finishing index\r\n      */\r\n    function payoutInvestmentDayBatch(\r\n        uint256 _investmentDay,\r\n        uint256 _investorBatchFrom,\r\n        uint256 _investorBatchTo\r\n    )\r\n        external\r\n        afterUniswapTransfer\r\n        onlyFundedDays(_investmentDay)\r\n    {\r\n        require(\r\n            _investorBatchFrom < _investorBatchTo,\r\n            'GRISE: incorrect investment batch'\r\n        );\r\n\r\n        uint256 _dailyRatio = _calculateDailyRatio(_investmentDay);\r\n\r\n        for (uint256 i = _investorBatchFrom; i < _investorBatchTo; i++) {\r\n            address _investor = investorAccounts[_investmentDay][i];\r\n            uint256 _balance = investorBalances[_investor][_investmentDay];\r\n            uint256 _payout = _balance.mul(_dailyRatio).div(100E18);\r\n\r\n            if (investorBalances[_investor][_investmentDay] > 0) {\r\n                investorBalances[_investor][_investmentDay] = 0;\r\n                GRISE_CONTRACT.mintSupply(\r\n                    _investor,\r\n                    _payout\r\n                );\r\n            }\r\n        }\r\n    }\r\n\r\n    /** @notice Allows to mint tokens for referrers in batches\r\n      * @dev can be called right after forwardLiquidity()\r\n      * recommended batch size is up to 50 addresses per call\r\n      * @param _referralBatchFrom batch starting index\r\n      * @param _referralBatchTo bach finishing index\r\n      */\r\n    function payoutReferralBatch(\r\n        uint256 _referralBatchFrom,\r\n        uint256 _referralBatchTo\r\n    )\r\n        external\r\n        afterUniswapTransfer\r\n    {\r\n        require(\r\n            _referralBatchFrom < _referralBatchTo,\r\n            'GRISE: incorrect referral batch'\r\n        );\r\n\r\n        for (uint256 i = _referralBatchFrom; i < _referralBatchTo; i++) {\r\n            address _referralAddress = referralAccounts[i];\r\n            uint256 _referralTokens = referralTokens[_referralAddress];\r\n            if (referralTokens[_referralAddress] > 0) {\r\n                referralTokens[_referralAddress] = 0;\r\n                GRISE_CONTRACT.mintSupply(\r\n                    _referralAddress,\r\n                    _referralTokens\r\n                );\r\n            }\r\n        }\r\n    }\r\n\r\n    //  INFO VIEW FUNCTIONS (PERSONAL)  //\r\n    //  ------------------------------  //\r\n\r\n    /** @notice checks for callers investment amount on specific day (with bonus)\r\n      * @return total amount invested across all investment days (with bonus)\r\n      */\r\n    function myInvestmentAmount(uint256 _investmentDay) external view returns (uint256) {\r\n        return investorBalances[msg.sender][_investmentDay];\r\n    }\r\n\r\n    /** @notice checks for callers investment amount on each day (with bonus)\r\n      * @return _myAllDays total amount invested across all days (with bonus)\r\n      */\r\n    function myInvestmentAmountAllDays() external view returns (uint256[51] memory _myAllDays) {\r\n        for (uint256 i = 1; i <= INVESTMENT_DAYS; i++) {\r\n            _myAllDays[i] = investorBalances[msg.sender][i];\r\n        }\r\n    }\r\n\r\n    /** @notice checks for callers total investment amount (with bonus)\r\n      * @return total amount invested across all investment days (with bonus)\r\n      */\r\n    function myTotalInvestmentAmount() external view returns (uint256) {\r\n        return investorTotalBalance[msg.sender];\r\n    }\r\n\r\n\r\n    //  INFO VIEW FUNCTIONS (GLOBAL)  //\r\n    //  ----------------------------  //\r\n\r\n    /** @notice checks for investors count on specific day\r\n      * @return investors count for specific day\r\n      */\r\n    function investorsOnDay(uint256 _investmentDay) public view returns (uint256) {\r\n        return dailyTotalInvestment[_investmentDay] > 0 ? investorAccountCount[_investmentDay] : 0;\r\n    }\r\n\r\n    /** @notice checks for investors count on each day\r\n      * @return _allInvestors array with investors count for each day\r\n      */\r\n    function investorsOnAllDays() external view returns (uint256[51] memory _allInvestors) {\r\n        for (uint256 i = 1; i <= INVESTMENT_DAYS; i++) {\r\n            _allInvestors[i] = investorsOnDay(i);\r\n        }\r\n    }\r\n\r\n    /** @notice checks for investment amount on each day\r\n      * @return _allInvestments array with investment amount for each day\r\n      */\r\n    function investmentsOnAllDays() external view returns (uint256[51] memory _allInvestments) {\r\n        for (uint256 i = 1; i <= INVESTMENT_DAYS; i++) {\r\n            _allInvestments[i] = dailyTotalInvestment[i];\r\n        }\r\n    }\r\n\r\n    /** @notice checks for supply amount on each day\r\n      * @return _allSupply array with supply amount for each day\r\n      */\r\n    function supplyOnAllDays() external view returns (uint256[51] memory _allSupply) {\r\n        for (uint256 i = 1; i <= INVESTMENT_DAYS; i++) {\r\n            _allSupply[i] = dailyTotalSupply[i];\r\n        }\r\n    }\r\n\r\n\r\n    //  HELPER FUNCTIONS (PURE)  //\r\n    //  -----------------------  //\r\n\r\n    /** @notice checks that provided days are valid for investemnt\r\n      * @dev used in reserveGrise() and reserveGriseWithToken()\r\n      */\r\n    function checkInvestmentDays(\r\n        uint8[] memory _investmentDays,\r\n        uint64 _griseDay,\r\n        address _senderAddress,\r\n        uint256 _senderValue\r\n    )\r\n        internal\r\n    {\r\n        uint256 _totalDays = _investmentDays.length;\r\n        uint256 _dailyAmount = _senderValue.div(_totalDays);\r\n        \r\n        for (uint8 _i = 0; _i < _investmentDays.length; _i++) {\r\n            \r\n            require(\r\n                (_dailyAmount >= MIN_INVEST) || (investorBalances[_senderAddress][_investmentDays[_i]] > 0),\r\n                'GRISE: investment below minimum'\r\n            );\r\n            \r\n            require(\r\n                _investmentDays[_i] >= _griseDay,\r\n                'GRISE: investment day already passed'\r\n            );\r\n            require(\r\n                _investmentDays[_i] > 0 &&\r\n                _investmentDays[_i] <= INVESTMENT_DAYS,\r\n                'GRISE: incorrect investment day'\r\n            );\r\n            \r\n            \r\n            require(\r\n                (dailySlots[_investmentDays[_i]] < MAX_DAY_SLOT) || \r\n                (investorBalances[_senderAddress][_investmentDays[_i]] > 0)\r\n                ,\r\n                'GRISE: investment slots are not available'\r\n            );\r\n            \r\n            if(investorBalances[_senderAddress][_investmentDays[_i]] == 0){\r\n                dailySlots[_investmentDays[_i]]++;\r\n            }\r\n        }\r\n    }\r\n    \r\n    \r\n\r\n    /** @notice prepares path variable for uniswap to exchange tokens\r\n      * @dev used in reserveGriseWithToken() swapExactTokensForETH call\r\n      * @param _tokenAddress ERC20 token address to be swapped for ETH\r\n      * @return _path that is used to swap tokens for ETH on uniswap\r\n      */\r\n    function preparePath(\r\n        address _tokenAddress\r\n    ) internal pure returns (\r\n        address[] memory _path\r\n    ) {\r\n        _path = new address[](2);\r\n        _path[0] = _tokenAddress;\r\n        _path[1] = WETH;\r\n    }\r\n\r\n    /** @notice keeps team contribution \r\n      * @dev subtracts amount during forwardLiquidity()\r\n      * @return ETH amount the team is allowed to withdraw\r\n      */\r\n    function _teamContribution(\r\n        uint256 _teamAmount\r\n    ) internal returns (uint256) {\r\n        TEAM_ETHER = _teamAmount;\r\n        return _teamAmount;\r\n    }\r\n\r\n    /** @notice checks for invesments on all days\r\n      * @dev used in forwardLiquidity() requirements\r\n      * @return $fundedDays - amount of funded days 0-50\r\n      */\r\n    function fundedDays() public view returns (\r\n        uint8 $fundedDays\r\n    ) {\r\n        for (uint8 i = 1; i <= INVESTMENT_DAYS; i++) {\r\n            if (dailyTotalInvestment[i] > 0) $fundedDays++;\r\n        }\r\n    }\r\n\r\n    /** @notice GRISE equivalent in ETH price calculation\r\n      * @dev returned value has 100E18 precision - divided later on\r\n      * @return token price for specific day based on total investement\r\n      */\r\n    function _calculateDailyRatio(\r\n        uint256 _investmentDay\r\n    ) internal view returns (uint256) {\r\n\r\n        uint256 dailyRatio = dailyTotalSupply[_investmentDay].mul(100E18)\r\n            .div(dailyTotalInvestment[_investmentDay]);\r\n\r\n        uint256 remainderCheck = dailyTotalSupply[_investmentDay].mul(100E18)\r\n            .mod(dailyTotalInvestment[_investmentDay]);\r\n\r\n        return remainderCheck == 0 ? dailyRatio : dailyRatio.add(1);\r\n    }\r\n\r\n    //  TIMING FUNCTIONS  //\r\n    //  ----------------  //\r\n\r\n    /** @notice shows current slot of GriseToken\r\n      * @dev value is fetched from GRISE_CONTRACT\r\n      * @return iteration day since GRISE inception\r\n      */\r\n    function _currentLPDay() public view returns (uint64) {\r\n        return GRISE_CONTRACT.currentLPDay();\r\n    }\r\n\r\n    /** @notice allows to withdraw team funds for the work\r\n      * strictly only after the uniswap liquidity is formed\r\n      */\r\n    function requestTeamFunds()\r\n        external\r\n        afterUniswapTransfer\r\n    {\r\n        TEAM_ADDRESS.transfer(TEAM_ETHER.mul(5).div(9));\r\n        DEV_ADDRESS.transfer(TEAM_ETHER.div(9));\r\n        BOUNTY_ADDRESS.transfer(TEAM_ETHER.div(3));\r\n    }\r\n\r\n    function notContract(address _addr) internal view returns (bool) {\r\n        uint32 size;\r\n        assembly {\r\n            size := extcodesize(_addr)\r\n        }\r\n        return (size == 0);\r\n    }\r\n\r\n}\r\n\r\nlibrary SafeMathLT {\r\n\r\n    function add(uint256 a, uint256 b) internal pure returns (uint256) {\r\n        uint256 c = a + b;\r\n        require(c >= a, 'GRISE: addition overflow');\r\n        return c;\r\n    }\r\n\r\n    function sub(uint256 a, uint256 b) internal pure returns (uint256) {\r\n        require(b <= a, 'GRISE: subtraction overflow');\r\n        uint256 c = a - b;\r\n        return c;\r\n    }\r\n\r\n    function mul(uint256 a, uint256 b) internal pure returns (uint256) {\r\n\r\n        if (a == 0) {\r\n            return 0;\r\n        }\r\n\r\n        uint256 c = a * b;\r\n        require(c / a == b, 'GRISE: multiplication overflow');\r\n\r\n        return c;\r\n    }\r\n\r\n    function div(uint256 a, uint256 b) internal pure returns (uint256) {\r\n        require(b > 0, 'GRISE: division by zero');\r\n        uint256 c = a / b;\r\n        return c;\r\n    }\r\n\r\n    function mod(uint256 a, uint256 b) internal pure returns (uint256) {\r\n        require(b != 0, 'GRISE: modulo by zero');\r\n        return a % b;\r\n    }\r\n}\r\n\r\n",
  "sourcePath": "C:/Users/Dhaval/eth/grise/src/contracts/LiquidityTransformer.sol",
  "compiler": {
    "name": "solc",
    "version": "0.7.6+commit.7338295f.Emscripten.clang"
  },
  "schemaVersion": "3.3.3",
  "updatedAt": "2021-03-11T16:47:40.206Z",
  "networkType": "ethereum",
  "devdoc": {
    "kind": "dev",
    "methods": {
      "_currentLPDay()": {
        "details": "value is fetched from GRISE_CONTRACT",
        "returns": {
          "_0": "iteration day since GRISE inception"
        }
      },
      "forwardLiquidity()": {
        "details": "check addLiquidityETH documentation"
      },
      "fundedDays()": {
        "details": "used in forwardLiquidity() requirements",
        "returns": {
          "$fundedDays": "- amount of funded days 0-50"
        }
      },
      "generateSupply(uint64)": {
        "params": {
          "_investmentDay": "investemnt day index (1-50)"
        }
      },
      "getMyTokens()": {
        "details": "can be called after forwardLiquidity()"
      },
      "investmentsOnAllDays()": {
        "returns": {
          "_allInvestments": "array with investment amount for each day"
        }
      },
      "investorsOnAllDays()": {
        "returns": {
          "_allInvestors": "array with investors count for each day"
        }
      },
      "investorsOnDay(uint256)": {
        "returns": {
          "_0": "investors count for specific day"
        }
      },
      "myInvestmentAmount(uint256)": {
        "returns": {
          "_0": "total amount invested across all investment days (with bonus)"
        }
      },
      "myInvestmentAmountAllDays()": {
        "returns": {
          "_myAllDays": "total amount invested across all days (with bonus)"
        }
      },
      "myTotalInvestmentAmount()": {
        "returns": {
          "_0": "total amount invested across all investment days (with bonus)"
        }
      },
      "payoutInvestmentDayBatch(uint256,uint256,uint256)": {
        "params": {
          "_investmentDay": "processing investment day",
          "_investorBatchFrom": "batch starting index",
          "_investorBatchTo": "bach finishing index"
        }
      },
      "payoutInvestorAddress(address)": {
        "details": "aggregades investors tokens across all investment days and uses GRISE_CONTRACT instance to mint all the GRISE tokens",
        "params": {
          "_investorAddress": "requested investor calculation address"
        },
        "returns": {
          "_payout": "amount minted to the investors address"
        }
      },
      "payoutReferralAddress(address)": {
        "details": "must be pre-calculated in prepareReferralBonuses()",
        "params": {
          "_referralAddress": "referrer payout address"
        },
        "returns": {
          "_referralTokens": "amount minted to the referrer address"
        }
      },
      "payoutReferralBatch(uint256,uint256)": {
        "details": "can be called right after forwardLiquidity() recommended batch size is up to 50 addresses per call",
        "params": {
          "_referralBatchFrom": "batch starting index",
          "_referralBatchTo": "bach finishing index"
        }
      },
      "prepareReferralBonuses(uint256,uint256)": {
        "details": "must run this for all referrer addresses in batches converts _referralAmount to _referralTokens based on dailyRatio"
      },
      "reserveGrise(uint8[],address)": {
        "details": "Performs reservation of GRISE tokens with ETH",
        "params": {
          "_investmentDays": "array of reservation days.",
          "_referralAddress": "referral address for bonus."
        }
      },
      "reserveGriseWithToken(address,uint256,uint8[],address)": {
        "details": "this will require LT contract to be approved as spender",
        "params": {
          "_investmentDays": "array of reservation days",
          "_referralAddress": "referral address for bonus",
          "_tokenAddress": "address of an ERC20 token to use",
          "_tokenAmount": "amount of tokens to use for reservation"
        }
      },
      "supplyOnAllDays()": {
        "returns": {
          "_allSupply": "array with supply amount for each day"
        }
      }
    },
    "version": 1
  },
  "userdoc": {
    "kind": "user",
    "methods": {
      "_currentLPDay()": {
        "notice": "shows current slot of GriseToken"
      },
      "forwardLiquidity()": {
        "notice": "Creates initial liquidity on Uniswap by forwarding reserved tokens equivalent to ETH contributed to the contract"
      },
      "fundedDays()": {
        "notice": "checks for invesments on all days"
      },
      "generateSupply(uint64)": {
        "notice": "Allows to generate supply for past funded days"
      },
      "getMyTokens()": {
        "notice": "Allows to mint all the tokens from investor and referrer perspectives"
      },
      "investmentsOnAllDays()": {
        "notice": "checks for investment amount on each day"
      },
      "investorsOnAllDays()": {
        "notice": "checks for investors count on each day"
      },
      "investorsOnDay(uint256)": {
        "notice": "checks for investors count on specific day"
      },
      "myInvestmentAmount(uint256)": {
        "notice": "checks for callers investment amount on specific day (with bonus)"
      },
      "myInvestmentAmountAllDays()": {
        "notice": "checks for callers investment amount on each day (with bonus)"
      },
      "myTotalInvestmentAmount()": {
        "notice": "checks for callers total investment amount (with bonus)"
      },
      "payoutInvestmentDayBatch(uint256,uint256,uint256)": {
        "notice": "Allows to mint tokens for specific investment day recommended batch size is up to 50 addresses per call"
      },
      "payoutInvestorAddress(address)": {
        "notice": "Allows to mint tokens for specific investor address"
      },
      "payoutReferralAddress(address)": {
        "notice": "Allows to mint tokens for specific referrer address"
      },
      "payoutReferralBatch(uint256,uint256)": {
        "notice": "Allows to mint tokens for referrers in batches"
      },
      "prepareReferralBonuses(uint256,uint256)": {
        "notice": "Pre-calculates amount of tokens each referrer will get"
      },
      "requestTeamFunds()": {
        "notice": "allows to withdraw team funds for the work strictly only after the uniswap liquidity is formed"
      },
      "reserveGriseWithToken(address,uint256,uint8[],address)": {
        "notice": "Allows reservation of GRISE tokens with other ERC20 tokens"
      },
      "supplyOnAllDays()": {
        "notice": "checks for supply amount on each day"
      }
    },
    "version": 1
  }
}