{
  "contractName": "GriseToken",
  "abi": [
    {
      "inputs": [
        {
          "internalType": "string",
          "name": "tokenName",
          "type": "string"
        },
        {
          "internalType": "string",
          "name": "tokenSymbol",
          "type": "string"
        }
      ],
      "stateMutability": "nonpayable",
      "type": "constructor"
    },
    {
      "anonymous": false,
      "inputs": [
        {
          "indexed": true,
          "internalType": "address",
          "name": "owner",
          "type": "address"
        },
        {
          "indexed": true,
          "internalType": "address",
          "name": "spender",
          "type": "address"
        },
        {
          "indexed": false,
          "internalType": "uint256",
          "name": "value",
          "type": "uint256"
        }
      ],
      "name": "Approval",
      "type": "event"
    },
    {
      "anonymous": false,
      "inputs": [
        {
          "indexed": true,
          "internalType": "address",
          "name": "tokenHolderAddress",
          "type": "address"
        },
        {
          "indexed": false,
          "internalType": "uint256",
          "name": "griseWeek",
          "type": "uint256"
        },
        {
          "indexed": false,
          "internalType": "uint256",
          "name": "claimedAmount",
          "type": "uint256"
        }
      ],
      "name": "TranscFeeClaimed",
      "type": "event"
    },
    {
      "anonymous": false,
      "inputs": [
        {
          "indexed": true,
          "internalType": "address",
          "name": "from",
          "type": "address"
        },
        {
          "indexed": true,
          "internalType": "address",
          "name": "to",
          "type": "address"
        },
        {
          "indexed": false,
          "internalType": "uint256",
          "name": "value",
          "type": "uint256"
        }
      ],
      "name": "Transfer",
      "type": "event"
    },
    {
      "inputs": [],
      "name": "LIQUIDITY_GATEKEEPER",
      "outputs": [
        {
          "internalType": "address",
          "name": "",
          "type": "address"
        }
      ],
      "stateMutability": "view",
      "type": "function"
    },
    {
      "inputs": [],
      "name": "STAKE_GATEKEEPER",
      "outputs": [
        {
          "internalType": "address",
          "name": "",
          "type": "address"
        }
      ],
      "stateMutability": "view",
      "type": "function"
    },
    {
      "inputs": [],
      "name": "TOKENMATRIX_GATEKEEPER",
      "outputs": [
        {
          "internalType": "address",
          "name": "",
          "type": "address"
        }
      ],
      "stateMutability": "view",
      "type": "function"
    },
    {
      "inputs": [],
      "name": "VAULT_GATEKEEPER",
      "outputs": [
        {
          "internalType": "address",
          "name": "",
          "type": "address"
        }
      ],
      "stateMutability": "view",
      "type": "function"
    },
    {
      "inputs": [],
      "name": "currentGriseDay",
      "outputs": [
        {
          "internalType": "uint256",
          "name": "",
          "type": "uint256"
        }
      ],
      "stateMutability": "view",
      "type": "function"
    },
    {
      "inputs": [],
      "name": "currentGriseWeek",
      "outputs": [
        {
          "internalType": "uint256",
          "name": "",
          "type": "uint256"
        }
      ],
      "stateMutability": "view",
      "type": "function"
    },
    {
      "inputs": [],
      "name": "currentLPDay",
      "outputs": [
        {
          "internalType": "uint256",
          "name": "",
          "type": "uint256"
        }
      ],
      "stateMutability": "view",
      "type": "function"
    },
    {
      "inputs": [
        {
          "internalType": "uint256",
          "name": "",
          "type": "uint256"
        }
      ],
      "name": "sellTranscFee",
      "outputs": [
        {
          "internalType": "uint256",
          "name": "",
          "type": "uint256"
        }
      ],
      "stateMutability": "view",
      "type": "function"
    },
    {
      "inputs": [],
      "name": "name",
      "outputs": [
        {
          "internalType": "string",
          "name": "",
          "type": "string"
        }
      ],
      "stateMutability": "view",
      "type": "function"
    },
    {
      "inputs": [],
      "name": "symbol",
      "outputs": [
        {
          "internalType": "string",
          "name": "",
          "type": "string"
        }
      ],
      "stateMutability": "view",
      "type": "function"
    },
    {
      "inputs": [],
      "name": "decimals",
      "outputs": [
        {
          "internalType": "uint8",
          "name": "",
          "type": "uint8"
        }
      ],
      "stateMutability": "view",
      "type": "function"
    },
    {
      "inputs": [],
      "name": "totalSupply",
      "outputs": [
        {
          "internalType": "uint256",
          "name": "",
          "type": "uint256"
        }
      ],
      "stateMutability": "view",
      "type": "function"
    },
    {
      "inputs": [
        {
          "internalType": "address",
          "name": "account",
          "type": "address"
        }
      ],
      "name": "balanceOf",
      "outputs": [
        {
          "internalType": "uint256",
          "name": "",
          "type": "uint256"
        }
      ],
      "stateMutability": "view",
      "type": "function"
    },
    {
      "inputs": [
        {
          "internalType": "address",
          "name": "recipient",
          "type": "address"
        },
        {
          "internalType": "uint256",
          "name": "amount",
          "type": "uint256"
        }
      ],
      "name": "transfer",
      "outputs": [
        {
          "internalType": "bool",
          "name": "",
          "type": "bool"
        }
      ],
      "stateMutability": "nonpayable",
      "type": "function"
    },
    {
      "inputs": [
        {
          "internalType": "address",
          "name": "owner",
          "type": "address"
        },
        {
          "internalType": "address",
          "name": "spender",
          "type": "address"
        }
      ],
      "name": "allowance",
      "outputs": [
        {
          "internalType": "uint256",
          "name": "",
          "type": "uint256"
        }
      ],
      "stateMutability": "view",
      "type": "function"
    },
    {
      "inputs": [
        {
          "internalType": "address",
          "name": "spender",
          "type": "address"
        },
        {
          "internalType": "uint256",
          "name": "amount",
          "type": "uint256"
        }
      ],
      "name": "approve",
      "outputs": [
        {
          "internalType": "bool",
          "name": "",
          "type": "bool"
        }
      ],
      "stateMutability": "nonpayable",
      "type": "function"
    },
    {
      "inputs": [
        {
          "internalType": "address",
          "name": "sender",
          "type": "address"
        },
        {
          "internalType": "address",
          "name": "recipient",
          "type": "address"
        },
        {
          "internalType": "uint256",
          "name": "amount",
          "type": "uint256"
        }
      ],
      "name": "transferFrom",
      "outputs": [
        {
          "internalType": "bool",
          "name": "",
          "type": "bool"
        }
      ],
      "stateMutability": "nonpayable",
      "type": "function"
    },
    {
      "inputs": [
        {
          "internalType": "address",
          "name": "_immutableGateKeeper",
          "type": "address"
        }
      ],
      "name": "setLiquidtyGateKeeper",
      "outputs": [],
      "stateMutability": "nonpayable",
      "type": "function"
    },
    {
      "inputs": [
        {
          "internalType": "address",
          "name": "_immutableGateKeeper",
          "type": "address"
        }
      ],
      "name": "setStakeGateKeeper",
      "outputs": [],
      "stateMutability": "nonpayable",
      "type": "function"
    },
    {
      "inputs": [
        {
          "internalType": "address",
          "name": "_immutableGateKeeper",
          "type": "address"
        }
      ],
      "name": "setVaultGateKeeper",
      "outputs": [],
      "stateMutability": "nonpayable",
      "type": "function"
    },
    {
      "inputs": [
        {
          "internalType": "address",
          "name": "_immutableGateKeeper",
          "type": "address"
        }
      ],
      "name": "setTokenMatrixGateKeeper",
      "outputs": [],
      "stateMutability": "nonpayable",
      "type": "function"
    },
    {
      "inputs": [
        {
          "internalType": "address",
          "name": "_investorAddress",
          "type": "address"
        },
        {
          "internalType": "uint256",
          "name": "_amount",
          "type": "uint256"
        }
      ],
      "name": "mintSupply",
      "outputs": [],
      "stateMutability": "nonpayable",
      "type": "function"
    },
    {
      "inputs": [
        {
          "internalType": "address",
          "name": "_investorAddress",
          "type": "address"
        },
        {
          "internalType": "uint256",
          "name": "_amount",
          "type": "uint256"
        }
      ],
      "name": "burnSupply",
      "outputs": [],
      "stateMutability": "nonpayable",
      "type": "function"
    },
    {
      "inputs": [],
      "name": "viewTokenHolderTranscReward",
      "outputs": [
        {
          "internalType": "uint256",
          "name": "rewardAmount",
          "type": "uint256"
        }
      ],
      "stateMutability": "view",
      "type": "function"
    },
    {
      "inputs": [],
      "name": "claimTokenHolderTranscReward",
      "outputs": [
        {
          "internalType": "uint256",
          "name": "rewardAmount",
          "type": "uint256"
        }
      ],
      "stateMutability": "nonpayable",
      "type": "function"
    },
    {
      "inputs": [
        {
          "internalType": "address",
          "name": "_staker",
          "type": "address"
        }
      ],
      "name": "setStaker",
      "outputs": [],
      "stateMutability": "nonpayable",
      "type": "function"
    },
    {
      "inputs": [
        {
          "internalType": "address",
          "name": "_staker",
          "type": "address"
        }
      ],
      "name": "resetStaker",
      "outputs": [],
      "stateMutability": "nonpayable",
      "type": "function"
    },
    {
      "inputs": [
        {
          "internalType": "uint256",
          "name": "_stakedToken",
          "type": "uint256"
        }
      ],
      "name": "updateStakedToken",
      "outputs": [],
      "stateMutability": "nonpayable",
      "type": "function"
    },
    {
      "inputs": [
        {
          "internalType": "uint256",
          "name": "_shares",
          "type": "uint256"
        }
      ],
      "name": "updateMedTermShares",
      "outputs": [],
      "stateMutability": "nonpayable",
      "type": "function"
    },
    {
      "inputs": [
        {
          "internalType": "uint256",
          "name": "_fromDay",
          "type": "uint256"
        },
        {
          "internalType": "uint256",
          "name": "_toDay",
          "type": "uint256"
        }
      ],
      "name": "getTransFeeReward",
      "outputs": [
        {
          "internalType": "uint256",
          "name": "rewardAmount",
          "type": "uint256"
        }
      ],
      "stateMutability": "view",
      "type": "function"
    },
    {
      "inputs": [
        {
          "internalType": "uint256",
          "name": "_fromDay",
          "type": "uint256"
        },
        {
          "internalType": "uint256",
          "name": "_toDay",
          "type": "uint256"
        }
      ],
      "name": "getReservoirReward",
      "outputs": [
        {
          "internalType": "uint256",
          "name": "rewardAmount",
          "type": "uint256"
        }
      ],
      "stateMutability": "view",
      "type": "function"
    },
    {
      "inputs": [
        {
          "internalType": "uint256",
          "name": "_fromDay",
          "type": "uint256"
        },
        {
          "internalType": "uint256",
          "name": "_toDay",
          "type": "uint256"
        }
      ],
      "name": "getTokenHolderReward",
      "outputs": [
        {
          "internalType": "uint256",
          "name": "rewardAmount",
          "type": "uint256"
        }
      ],
      "stateMutability": "view",
      "type": "function"
    },
    {
      "inputs": [],
      "name": "timeToClaimWeeklyReward",
      "outputs": [
        {
          "internalType": "uint256",
          "name": "_days",
          "type": "uint256"
        }
      ],
      "stateMutability": "view",
      "type": "function"
    },
    {
      "inputs": [],
      "name": "timeToClaimMonthlyReward",
      "outputs": [
        {
          "internalType": "uint256",
          "name": "_days",
          "type": "uint256"
        }
      ],
      "stateMutability": "view",
      "type": "function"
    },
    {
      "inputs": [
        {
          "internalType": "address",
          "name": "account",
          "type": "address"
        }
      ],
      "name": "balanceOfStaker",
      "outputs": [
        {
          "internalType": "uint256",
          "name": "",
          "type": "uint256"
        }
      ],
      "stateMutability": "view",
      "type": "function"
    },
    {
      "inputs": [],
      "name": "getEpocTime",
      "outputs": [
        {
          "internalType": "uint256",
          "name": "",
          "type": "uint256"
        }
      ],
      "stateMutability": "view",
      "type": "function"
    },
    {
      "inputs": [],
      "name": "getLaunchTime",
      "outputs": [
        {
          "internalType": "uint256",
          "name": "",
          "type": "uint256"
        }
      ],
      "stateMutability": "view",
      "type": "function"
    },
    {
      "inputs": [],
      "name": "getLPLaunchTime",
      "outputs": [
        {
          "internalType": "uint256",
          "name": "",
          "type": "uint256"
        }
      ],
      "stateMutability": "view",
      "type": "function"
    },
    {
      "inputs": [
        {
          "internalType": "address",
          "name": "_staker",
          "type": "address"
        }
      ],
      "name": "isStaker",
      "outputs": [
        {
          "internalType": "bool",
          "name": "status",
          "type": "bool"
        }
      ],
      "stateMutability": "view",
      "type": "function"
    }
  ],
  "bytecode": "0x60c06040526012601560006101000a81548160ff021916908360ff16021790555060006016553480156200003257600080fd5b5060405162003d4738038062003d47833981810160405260408110156200005857600080fd5b81019080805160405193929190846401000000008211156200007957600080fd5b838201915060208201858111156200009057600080fd5b8251866001820283011164010000000082111715620000ae57600080fd5b8083526020830192505050908051906020019080838360005b83811015620000e4578082015181840152602081019050620000c7565b50505050905090810190601f168015620001125780820380516001836020036101000a031916815260200191505b50604052602001805160405193929190846401000000008211156200013657600080fd5b838201915060208201858111156200014d57600080fd5b82518660018202830111640100000000821117156200016b57600080fd5b8083526020830192505050908051906020019080838360005b83811015620001a157808201518184015260208101905062000184565b50505050905090810190601f168015620001cf5780820380516001836020036101000a031916815260200191505b5060405250505042608081815250504260a081815250508160139080519060200190620001fe92919062000368565b5080601490805190602001906200021792919062000368565b50620002286200036060201b60201c565b600f60006101000a81548173ffffffffffffffffffffffffffffffffffffffff021916908373ffffffffffffffffffffffffffffffffffffffff160217905550620002786200036060201b60201c565b601060006101000a81548173ffffffffffffffffffffffffffffffffffffffff021916908373ffffffffffffffffffffffffffffffffffffffff160217905550620002c86200036060201b60201c565b601160006101000a81548173ffffffffffffffffffffffffffffffffffffffff021916908373ffffffffffffffffffffffffffffffffffffffff160217905550620003186200036060201b60201c565b601260006101000a81548173ffffffffffffffffffffffffffffffffffffffff021916908373ffffffffffffffffffffffffffffffffffffffff16021790555050506200041e565b600033905090565b828054600181600116156101000203166002900490600052602060002090601f016020900481019282620003a05760008555620003ec565b82601f10620003bb57805160ff1916838001178555620003ec565b82800160010185558215620003ec579182015b82811115620003eb578251825591602001919060010190620003ce565b5b509050620003fb9190620003ff565b5090565b5b808211156200041a57600081600090555060010162000400565b5090565b60805160a0516138f16200045660003980610c54528061255052806137c2525080611eea5280611f1a528061378552506138f16000f3fe608060405234801561001057600080fd5b506004361061023d5760003560e01c806387cd0cd21161013b578063b9459b61116100b8578063e1a973cf1161007c578063e1a973cf14610b1b578063e742806a14610b5f578063edc9a25f14610bad578063f0f4f32314610bcb578063f172d29314610be95761023d565b8063b9459b61146109f5578063c2889b5714610a13578063cdbf54ed14610a31578063d293194414610a5f578063dd62ed3e14610aa35761023d565b8063a7d10eab116100ff578063a7d10eab146108ad578063a9059cbb146108f1578063ab90949214610955578063aecf8a6d14610989578063b7746086146109d75761023d565b806387cd0cd21461074857806389ba1ab71461076657806395d89b411461079a5780639df629261461081d578063a29a43bb146108695761023d565b80633f5e932b116101c95780636de418371161018d5780636de41837146106165780636f1e85331461063457806370a082311461068e5780637f0f4026146106e65780638491a110146107145761023d565b80633f5e932b146104e25780633ffff65314610526578063480f5e2e146105685780634ad356f4146105865780635d349c3a146105ca5761023d565b8063095ea7b311610210578063095ea7b31461038757806318160ddd146103eb57806318613e671461040957806323b872dd1461043d578063313ce567146104c15761023d565b80630293068e146102425780630496dc7d1461029a57806306fdde03146102b857806308fcfd3c1461033b575b600080fd5b6102846004803603602081101561025857600080fd5b81019080803573ffffffffffffffffffffffffffffffffffffffff169060200190929190505050610c07565b6040518082815260200191505060405180910390f35b6102a2610c50565b6040518082815260200191505060405180910390f35b6102c0610c78565b6040518080602001828103825283818151815260200191508051906020019080838360005b838110156103005780820151818401526020810190506102e5565b50505050905090810190601f16801561032d5780820380516001836020036101000a031916815260200191505b509250505060405180910390f35b6103716004803603604081101561035157600080fd5b810190808035906020019092919080359060200190929190505050610d1a565b6040518082815260200191505060405180910390f35b6103d36004803603604081101561039d57600080fd5b81019080803573ffffffffffffffffffffffffffffffffffffffff16906020019092919080359060200190929190505050610e69565b60405180821515815260200191505060405180910390f35b6103f3610e87565b6040518082815260200191505060405180910390f35b610411610e91565b604051808273ffffffffffffffffffffffffffffffffffffffff16815260200191505060405180910390f35b6104a96004803603606081101561045357600080fd5b81019080803573ffffffffffffffffffffffffffffffffffffffff169060200190929190803573ffffffffffffffffffffffffffffffffffffffff16906020019092919080359060200190929190505050610eb7565b60405180821515815260200191505060405180910390f35b6104c9610f76565b604051808260ff16815260200191505060405180910390f35b610524600480360360208110156104f857600080fd5b81019080803573ffffffffffffffffffffffffffffffffffffffff169060200190929190505050610f8d565b005b6105526004803603602081101561053c57600080fd5b810190808035906020019092919050505061115f565b6040518082815260200191505060405180910390f35b610570611177565b6040518082815260200191505060405180910390f35b6105c86004803603602081101561059c57600080fd5b81019080803573ffffffffffffffffffffffffffffffffffffffff16906020019092919050505061135b565b005b610600600480360360408110156105e057600080fd5b8101908080359060200190929190803590602001909291905050506114ab565b6040518082815260200191505060405180910390f35b61061e6115b1565b6040518082815260200191505060405180910390f35b6106766004803603602081101561064a57600080fd5b81019080803573ffffffffffffffffffffffffffffffffffffffff169060200190929190505050611611565b60405180821515815260200191505060405180910390f35b6106d0600480360360208110156106a457600080fd5b81019080803573ffffffffffffffffffffffffffffffffffffffff16906020019092919050505061167c565b6040518082815260200191505060405180910390f35b610712600480360360208110156106fc57600080fd5b81019080803590602001909291905050506116c5565b005b61071c6117d3565b604051808273ffffffffffffffffffffffffffffffffffffffff16815260200191505060405180910390f35b6107506117f9565b6040518082815260200191505060405180910390f35b61076e611818565b604051808273ffffffffffffffffffffffffffffffffffffffff16815260200191505060405180910390f35b6107a261183e565b6040518080602001828103825283818151815260200191508051906020019080838360005b838110156107e25780820151818401526020810190506107c7565b50505050905090810190601f16801561080f5780820380516001836020036101000a031916815260200191505b509250505060405180910390f35b6108536004803603604081101561083357600080fd5b8101908080359060200190929190803590602001909291905050506118e0565b6040518082815260200191505060405180910390f35b6108ab6004803603602081101561087f57600080fd5b81019080803573ffffffffffffffffffffffffffffffffffffffff1690602001909291905050506119e6565b005b6108ef600480360360208110156108c357600080fd5b81019080803573ffffffffffffffffffffffffffffffffffffffff169060200190929190505050611b5d565b005b61093d6004803603604081101561090757600080fd5b81019080803573ffffffffffffffffffffffffffffffffffffffff16906020019092919080359060200190929190505050611cad565b60405180821515815260200191505060405180910390f35b61095d611ccb565b604051808273ffffffffffffffffffffffffffffffffffffffff16815260200191505060405180910390f35b6109d56004803603604081101561099f57600080fd5b81019080803573ffffffffffffffffffffffffffffffffffffffff16906020019092919080359060200190929190505050611cf1565b005b6109df611ee6565b6040518082815260200191505060405180910390f35b6109fd611f0e565b6040518082815260200191505060405180910390f35b610a1b611f16565b6040518082815260200191505060405180910390f35b610a5d60048036036020811015610a4757600080fd5b8101908080359060200190929190505050611f5c565b005b610aa160048036036020811015610a7557600080fd5b81019080803573ffffffffffffffffffffffffffffffffffffffff169060200190929190505050612030565b005b610b0560048036036040811015610ab957600080fd5b81019080803573ffffffffffffffffffffffffffffffffffffffff169060200190929190803573ffffffffffffffffffffffffffffffffffffffff169060200190929190505050612180565b6040518082815260200191505060405180910390f35b610b5d60048036036020811015610b3157600080fd5b81019080803573ffffffffffffffffffffffffffffffffffffffff169060200190929190505050612207565b005b610bab60048036036040811015610b7557600080fd5b81019080803573ffffffffffffffffffffffffffffffffffffffff16906020019092919080359060200190929190505050612357565b005b610bb561254c565b6040518082815260200191505060405180910390f35b610bd3612592565b6040518082815260200191505060405180910390f35b610bf16125fb565b6040518082815260200191505060405180910390f35b6000600960008373ffffffffffffffffffffffffffffffffffffffff1673ffffffffffffffffffffffffffffffffffffffff168152602001908152602001600020549050919050565b60007f0000000000000000000000000000000000000000000000000000000000000000905090565b606060138054600181600116156101000203166002900480601f016020809104026020016040519081016040528092919081815260200182805460018160011615610100020316600290048015610d105780601f10610ce557610100808354040283529160200191610d10565b820191906000526020600020905b815481529060010190602001808311610cf357829003601f168201915b5050505050905090565b6000600c60009054906101000a900473ffffffffffffffffffffffffffffffffffffffff1673ffffffffffffffffffffffffffffffffffffffff16610d5d6129cc565b73ffffffffffffffffffffffffffffffffffffffff1614610de6576040517f08c379a000000000000000000000000000000000000000000000000000000000815260040180806020018281038252601c8152602001807f47524953453a204f7065726174696f6e206e6f7420616c6c6f7765640000000081525060200191505060405180910390fd5b60008390505b82811015610e6257610e516007600083815260200190815260200160002054610e43670de0b6b3a764000067ffffffffffffffff1660056000868152602001908152602001600020546129d490919063ffffffff16565b612a8290919063ffffffff16565b820191508080600101915050610dec565b5092915050565b6000610e7d610e766129cc565b8484612aae565b6001905092915050565b6000601654905090565b600c60009054906101000a900473ffffffffffffffffffffffffffffffffffffffff1681565b6000610f6084610ec56129cc565b610f5b85600a60008a73ffffffffffffffffffffffffffffffffffffffff1673ffffffffffffffffffffffffffffffffffffffff1681526020019081526020016000206000610f126129cc565b73ffffffffffffffffffffffffffffffffffffffff1673ffffffffffffffffffffffffffffffffffffffff16815260200190815260200160002054612c0d90919063ffffffff16565b612aae565b610f6b848484612c96565b600190509392505050565b6000601560009054906101000a900460ff16905090565b600c60009054906101000a900473ffffffffffffffffffffffffffffffffffffffff1673ffffffffffffffffffffffffffffffffffffffff16610fce6129cc565b73ffffffffffffffffffffffffffffffffffffffff1614611057576040517f08c379a000000000000000000000000000000000000000000000000000000000815260040180806020018281038252601c8152602001807f47524953453a204f7065726174696f6e206e6f7420616c6c6f7765640000000081525060200191505060405180910390fd5b6000600860008373ffffffffffffffffffffffffffffffffffffffff1673ffffffffffffffffffffffffffffffffffffffff16815260200190815260200160002060009054906101000a900461ffff1661ffff16111561115c576001600860008373ffffffffffffffffffffffffffffffffffffffff1673ffffffffffffffffffffffffffffffffffffffff16815260200190815260200160002060009054906101000a900461ffff1603600860008373ffffffffffffffffffffffffffffffffffffffff1673ffffffffffffffffffffffffffffffffffffffff16815260200190815260200160002060006101000a81548161ffff021916908361ffff1602179055505b50565b60026020528060005260406000206000915090505481565b600080611182611f16565b905060006111966111916129cc565b61167c565b11158061120c5750600660006111aa6129cc565b73ffffffffffffffffffffffffffffffffffffffff1673ffffffffffffffffffffffffffffffffffffffff16815260200190815260200160002060006111ef8361328a565b815260200190815260200160002060009054906101000a900460ff165b80611226575061121a6117f9565b6112238261328a565b14155b156112345760009150611357565b600080611251600763ffffffff16846132a490919063ffffffff16565b1161127557611270600763ffffffff1683612c0d90919063ffffffff16565b6112a2565b6112a1611292600763ffffffff16846132a490919063ffffffff16565b83612c0d90919063ffffffff16565b5b905060008190505b82811015611354576113436007600083815260200190815260200160002054611335600960006112d86129cc565b73ffffffffffffffffffffffffffffffffffffffff1673ffffffffffffffffffffffffffffffffffffffff1681526020019081526020016000205460056000868152602001908152602001600020546129d490919063ffffffff16565b612a8290919063ffffffff16565b8401935080806001019150506112aa565b50505b5090565b6113636129cc565b73ffffffffffffffffffffffffffffffffffffffff16600f60009054906101000a900473ffffffffffffffffffffffffffffffffffffffff1673ffffffffffffffffffffffffffffffffffffffff1614611425576040517f08c379a000000000000000000000000000000000000000000000000000000000815260040180806020018281038252601c8152602001807f47524953453a204f7065726174696f6e206e6f7420616c6c6f7765640000000081525060200191505060405180910390fd5b80600b60006101000a81548173ffffffffffffffffffffffffffffffffffffffff021916908373ffffffffffffffffffffffffffffffffffffffff1602179055506000600f60006101000a81548173ffffffffffffffffffffffffffffffffffffffff021916908373ffffffffffffffffffffffffffffffffffffffff16021790555050565b6000600c60009054906101000a900473ffffffffffffffffffffffffffffffffffffffff1673ffffffffffffffffffffffffffffffffffffffff166114ee6129cc565b73ffffffffffffffffffffffffffffffffffffffff1614611577576040517f08c379a000000000000000000000000000000000000000000000000000000000815260040180806020018281038252601c8152602001807f47524953453a204f7065726174696f6e206e6f7420616c6c6f7765640000000081525060200191505060405180910390fd5b60008390505b828110156115aa57600360008281526020019081526020016000205482019150808060010191505061157d565b5092915050565b6000806115d5600763ffffffff166115c7611f16565b6132a490919063ffffffff16565b116115e157600061160c565b611602600763ffffffff166115f4611f16565b6132a490919063ffffffff16565b600763ffffffff16035b905090565b600080600860008473ffffffffffffffffffffffffffffffffffffffff1673ffffffffffffffffffffffffffffffffffffffff16815260200190815260200160002060009054906101000a900461ffff1661ffff1611611672576000611675565b60015b9050919050565b6000600960008373ffffffffffffffffffffffffffffffffffffffff1673ffffffffffffffffffffffffffffffffffffffff168152602001908152602001600020549050919050565b600c60009054906101000a900473ffffffffffffffffffffffffffffffffffffffff1673ffffffffffffffffffffffffffffffffffffffff166117066129cc565b73ffffffffffffffffffffffffffffffffffffffff161461178f576040517f08c379a000000000000000000000000000000000000000000000000000000000815260040180806020018281038252601c8152602001807f47524953453a204f7065726174696f6e206e6f7420616c6c6f7765640000000081525060200191505060405180910390fd5b806000819055506117b26000546117a4610e87565b61332e90919063ffffffff16565b600760006117be611f16565b81526020019081526020016000208190555050565b600d60009054906101000a900473ffffffffffffffffffffffffffffffffffffffff1681565b6000600763ffffffff1661180b611f16565b8161181257fe5b04905090565b600e60009054906101000a900473ffffffffffffffffffffffffffffffffffffffff1681565b606060148054600181600116156101000203166002900480601f0160208091040260200160405190810160405280929190818152602001828054600181600116156101000203166002900480156118d65780601f106118ab576101008083540402835291602001916118d6565b820191906000526020600020905b8154815290600101906020018083116118b957829003601f168201915b5050505050905090565b6000600c60009054906101000a900473ffffffffffffffffffffffffffffffffffffffff1673ffffffffffffffffffffffffffffffffffffffff166119236129cc565b73ffffffffffffffffffffffffffffffffffffffff16146119ac576040517f08c379a000000000000000000000000000000000000000000000000000000000815260040180806020018281038252601c8152602001807f47524953453a204f7065726174696f6e206e6f7420616c6c6f7765640000000081525060200191505060405180910390fd5b60008390505b828110156119df5760046000828152602001908152602001600020548201915080806001019150506119b2565b5092915050565b600c60009054906101000a900473ffffffffffffffffffffffffffffffffffffffff1673ffffffffffffffffffffffffffffffffffffffff16611a276129cc565b73ffffffffffffffffffffffffffffffffffffffff1614611ab0576040517f08c379a000000000000000000000000000000000000000000000000000000000815260040180806020018281038252601c8152602001807f47524953453a204f7065726174696f6e206e6f7420616c6c6f7765640000000081525060200191505060405180910390fd5b6001600860008373ffffffffffffffffffffffffffffffffffffffff1673ffffffffffffffffffffffffffffffffffffffff16815260200190815260200160002060009054906101000a900461ffff1601600860008373ffffffffffffffffffffffffffffffffffffffff1673ffffffffffffffffffffffffffffffffffffffff16815260200190815260200160002060006101000a81548161ffff021916908361ffff16021790555050565b611b656129cc565b73ffffffffffffffffffffffffffffffffffffffff16601060009054906101000a900473ffffffffffffffffffffffffffffffffffffffff1673ffffffffffffffffffffffffffffffffffffffff1614611c27576040517f08c379a000000000000000000000000000000000000000000000000000000000815260040180806020018281038252601c8152602001807f47524953453a204f7065726174696f6e206e6f7420616c6c6f7765640000000081525060200191505060405180910390fd5b80600c60006101000a81548173ffffffffffffffffffffffffffffffffffffffff021916908373ffffffffffffffffffffffffffffffffffffffff1602179055506000601060006101000a81548173ffffffffffffffffffffffffffffffffffffffff021916908373ffffffffffffffffffffffffffffffffffffffff16021790555050565b6000611cc1611cba6129cc565b8484612c96565b6001905092915050565b600b60009054906101000a900473ffffffffffffffffffffffffffffffffffffffff1681565b600b60009054906101000a900473ffffffffffffffffffffffffffffffffffffffff1673ffffffffffffffffffffffffffffffffffffffff16611d326129cc565b73ffffffffffffffffffffffffffffffffffffffff161480611da85750600c60009054906101000a900473ffffffffffffffffffffffffffffffffffffffff1673ffffffffffffffffffffffffffffffffffffffff16611d906129cc565b73ffffffffffffffffffffffffffffffffffffffff16145b80611e075750600d60009054906101000a900473ffffffffffffffffffffffffffffffffffffffff1673ffffffffffffffffffffffffffffffffffffffff16611def6129cc565b73ffffffffffffffffffffffffffffffffffffffff16145b80611e665750600e60009054906101000a900473ffffffffffffffffffffffffffffffffffffffff1673ffffffffffffffffffffffffffffffffffffffff16611e4e6129cc565b73ffffffffffffffffffffffffffffffffffffffff16145b611ed8576040517f08c379a000000000000000000000000000000000000000000000000000000000815260040180806020018281038252601c8152602001807f47524953453a204f7065726174696f6e206e6f7420616c6c6f7765640000000081525060200191505060405180910390fd5b611ee282826133b6565b5050565b60007f0000000000000000000000000000000000000000000000000000000000000000905090565b600042905090565b60007f0000000000000000000000000000000000000000000000000000000000000000611f4161353f565b1015611f4e576000611f57565b611f56613547565b5b905090565b600c60009054906101000a900473ffffffffffffffffffffffffffffffffffffffff1673ffffffffffffffffffffffffffffffffffffffff16611f9d6129cc565b73ffffffffffffffffffffffffffffffffffffffff1614612026576040517f08c379a000000000000000000000000000000000000000000000000000000000815260040180806020018281038252601c8152602001807f47524953453a204f7065726174696f6e206e6f7420616c6c6f7765640000000081525060200191505060405180910390fd5b8060018190555050565b6120386129cc565b73ffffffffffffffffffffffffffffffffffffffff16601160009054906101000a900473ffffffffffffffffffffffffffffffffffffffff1673ffffffffffffffffffffffffffffffffffffffff16146120fa576040517f08c379a000000000000000000000000000000000000000000000000000000000815260040180806020018281038252601c8152602001807f47524953453a204f7065726174696f6e206e6f7420616c6c6f7765640000000081525060200191505060405180910390fd5b80600d60006101000a81548173ffffffffffffffffffffffffffffffffffffffff021916908373ffffffffffffffffffffffffffffffffffffffff1602179055506000601160006101000a81548173ffffffffffffffffffffffffffffffffffffffff021916908373ffffffffffffffffffffffffffffffffffffffff16021790555050565b6000600a60008473ffffffffffffffffffffffffffffffffffffffff1673ffffffffffffffffffffffffffffffffffffffff16815260200190815260200160002060008373ffffffffffffffffffffffffffffffffffffffff1673ffffffffffffffffffffffffffffffffffffffff16815260200190815260200160002054905092915050565b61220f6129cc565b73ffffffffffffffffffffffffffffffffffffffff16601260009054906101000a900473ffffffffffffffffffffffffffffffffffffffff1673ffffffffffffffffffffffffffffffffffffffff16146122d1576040517f08c379a000000000000000000000000000000000000000000000000000000000815260040180806020018281038252601c8152602001807f47524953453a204f7065726174696f6e206e6f7420616c6c6f7765640000000081525060200191505060405180910390fd5b80600e60006101000a81548173ffffffffffffffffffffffffffffffffffffffff021916908373ffffffffffffffffffffffffffffffffffffffff1602179055506000601260006101000a81548173ffffffffffffffffffffffffffffffffffffffff021916908373ffffffffffffffffffffffffffffffffffffffff16021790555050565b600b60009054906101000a900473ffffffffffffffffffffffffffffffffffffffff1673ffffffffffffffffffffffffffffffffffffffff166123986129cc565b73ffffffffffffffffffffffffffffffffffffffff16148061240e5750600c60009054906101000a900473ffffffffffffffffffffffffffffffffffffffff1673ffffffffffffffffffffffffffffffffffffffff166123f66129cc565b73ffffffffffffffffffffffffffffffffffffffff16145b8061246d5750600d60009054906101000a900473ffffffffffffffffffffffffffffffffffffffff1673ffffffffffffffffffffffffffffffffffffffff166124556129cc565b73ffffffffffffffffffffffffffffffffffffffff16145b806124cc5750600e60009054906101000a900473ffffffffffffffffffffffffffffffffffffffff1673ffffffffffffffffffffffffffffffffffffffff166124b46129cc565b73ffffffffffffffffffffffffffffffffffffffff16145b61253e576040517f08c379a000000000000000000000000000000000000000000000000000000000815260040180806020018281038252601c8152602001807f47524953453a204f7065726174696f6e206e6f7420616c6c6f7765640000000081525060200191505060405180910390fd5b612548828261355e565b5050565b60007f000000000000000000000000000000000000000000000000000000000000000061257761353f565b101561258457600061258d565b61258c6136ec565b5b905090565b6000806125b9600760040263ffffffff166125ab611f16565b6132a490919063ffffffff16565b116125c55760006125f6565b6125e9600760040263ffffffff166125db611f16565b6132a490919063ffffffff16565b600760040263ffffffff16035b905090565b600080612606611f16565b9050600061261a6126156129cc565b61167c565b11612670576040517f08c379a000000000000000000000000000000000000000000000000000000000815260040180806020018281038252603b81526020018061384f603b913960400191505060405180910390fd5b6000612693600763ffffffff16612685611f16565b6132a490919063ffffffff16565b146126e9576040517f08c379a000000000000000000000000000000000000000000000000000000000815260040180806020018281038252603281526020018061388a6032913960400191505060405180910390fd5b6126f16117f9565b6126fa8261328a565b14612750576040517f08c379a000000000000000000000000000000000000000000000000000000000815260040180806020018281038252602a815260200180613825602a913960400191505060405180910390fd5b6006600061275c6129cc565b73ffffffffffffffffffffffffffffffffffffffff1673ffffffffffffffffffffffffffffffffffffffff16815260200190815260200160002060006127a06117f9565b815260200190815260200160002060009054906101000a900460ff1615612812576040517f08c379a00000000000000000000000000000000000000000000000000000000081526004018080602001828103825260328152602001806137f36032913960400191505060405180910390fd5b600061282e600763ffffffff1683612c0d90919063ffffffff16565b90505b818110156128db576128ca60076000838152602001908152602001600020546128bc6009600061285f6129cc565b73ffffffffffffffffffffffffffffffffffffffff1673ffffffffffffffffffffffffffffffffffffffff1681526020019081526020016000205460056000868152602001908152602001600020546129d490919063ffffffff16565b612a8290919063ffffffff16565b830192508080600101915050612831565b506128ed6128e76129cc565b8361355e565b6001600660006128fb6129cc565b73ffffffffffffffffffffffffffffffffffffffff1673ffffffffffffffffffffffffffffffffffffffff168152602001908152602001600020600061293f6117f9565b815260200190815260200160002060006101000a81548160ff02191690831515021790555061296c6129cc565b73ffffffffffffffffffffffffffffffffffffffff167f311a233fc02c36f3725ecba64fab4ba466b3d199fa2b41121a1a0840671416e66129ab6117f9565b84604051808381526020018281526020019250505060405180910390a25090565b600033905090565b6000808314806129e45750600082145b156129f25760009050612a7c565b6000828402905082848281612a0357fe5b0414612a77576040517f08c379a000000000000000000000000000000000000000000000000000000000815260040180806020018281038252601a8152602001807f47524953453a20536166654d617468204d756c206661696c656400000000000081525060200191505060405180910390fd5b809150505b92915050565b600080821415612a955760009050612aa8565b6000828481612aa057fe5b049050809150505b92915050565b600073ffffffffffffffffffffffffffffffffffffffff168373ffffffffffffffffffffffffffffffffffffffff161415612ae857600080fd5b600073ffffffffffffffffffffffffffffffffffffffff168273ffffffffffffffffffffffffffffffffffffffff161415612b2257600080fd5b80600a60008573ffffffffffffffffffffffffffffffffffffffff1673ffffffffffffffffffffffffffffffffffffffff16815260200190815260200160002060008473ffffffffffffffffffffffffffffffffffffffff1673ffffffffffffffffffffffffffffffffffffffff168152602001908152602001600020819055508173ffffffffffffffffffffffffffffffffffffffff168373ffffffffffffffffffffffffffffffffffffffff167f8c5be1e5ebec7d5bd14f71427d1e84f3dd0314c0f7b2291e5b200ac8c7c3b925836040518082815260200191505060405180910390a3505050565b600082821115612c85576040517f08c379a000000000000000000000000000000000000000000000000000000000815260040180806020018281038252601a8152602001807f47524953453a20536166654d61746820537562206661696c656400000000000081525060200191505060405180910390fd5b600082840390508091505092915050565b600073ffffffffffffffffffffffffffffffffffffffff168373ffffffffffffffffffffffffffffffffffffffff161415612cd057600080fd5b600073ffffffffffffffffffffffffffffffffffffffff168273ffffffffffffffffffffffffffffffffffffffff161415612d0a57600080fd5b600080600080612d18613547565b90506000600860008973ffffffffffffffffffffffffffffffffffffffff1673ffffffffffffffffffffffffffffffffffffffff16815260200190815260200160002060009054906101000a900461ffff1661ffff161115612f5f57612d7d85613706565b9350612da584600260008481526020019081526020016000205461332e90919063ffffffff16565b6002600083815260200190815260200160002081905550612e26612e04600154612df661271061ffff16612de8610c2b61ffff168a6129d490919063ffffffff16565b612a8290919063ffffffff16565b612a8290919063ffffffff16565b600360008481526020019081526020016000205461332e90919063ffffffff16565b6003600083815260200190815260200160002081905550612ea7612e85600154612e7761271061ffff16612e6961066161ffff168a6129d490919063ffffffff16565b612a8290919063ffffffff16565b612a8290919063ffffffff16565b600460008481526020019081526020016000205461332e90919063ffffffff16565b6004600083815260200190815260200160002081905550612f14612ef261271061ffff16612ee4610a3461ffff16886129d490919063ffffffff16565b612a8290919063ffffffff16565b600560008481526020019081526020016000205461332e90919063ffffffff16565b6005600083815260200190815260200160002081905550612f5c61271061ffff16612f4e61059761ffff16876129d490919063ffffffff16565b612a8290919063ffffffff16565b91505b612f6885613740565b9250612fbc85600960008a73ffffffffffffffffffffffffffffffffffffffff1673ffffffffffffffffffffffffffffffffffffffff16815260200190815260200160002054612c0d90919063ffffffff16565b600960008973ffffffffffffffffffffffffffffffffffffffff1673ffffffffffffffffffffffffffffffffffffffff16815260200190815260200160002081905550613075613027856130198689612c0d90919063ffffffff16565b612c0d90919063ffffffff16565b600960008973ffffffffffffffffffffffffffffffffffffffff1673ffffffffffffffffffffffffffffffffffffffff1681526020019081526020016000205461332e90919063ffffffff16565b600960008873ffffffffffffffffffffffffffffffffffffffff1673ffffffffffffffffffffffffffffffffffffffff168152602001908152602001600020819055506130e961271061ffff166130db61068361ffff16866129d490919063ffffffff16565b612a8290919063ffffffff16565b820191506131538260096000737ff1f8c467114bfbbcc56e406c0ec21e781bb95973ffffffffffffffffffffffffffffffffffffffff1673ffffffffffffffffffffffffffffffffffffffff1681526020019081526020016000205461332e90919063ffffffff16565b60096000737ff1f8c467114bfbbcc56e406c0ec21e781bb95973ffffffffffffffffffffffffffffffffffffffff1673ffffffffffffffffffffffffffffffffffffffff168152602001908152602001600020819055506131e36131d2836131c4868861332e90919063ffffffff16565b612c0d90919063ffffffff16565b601654612c0d90919063ffffffff16565b6016819055506132056000546131f7610e87565b61332e90919063ffffffff16565b60076000838152602001908152602001600020819055508573ffffffffffffffffffffffffffffffffffffffff168773ffffffffffffffffffffffffffffffffffffffff167fddf252ad1be2c89b69c2b068fc378daa952ba7f163c4a11628f55a4df523b3ef876040518082815260200191505060405180910390a350505050505050565b6000600763ffffffff16828161329c57fe5b049050919050565b60008082141561331c576040517f08c379a000000000000000000000000000000000000000000000000000000000815260040180806020018281038252601a8152602001807f47524953453a20536166654d617468204d6f64206661696c656400000000000081525060200191505060405180910390fd5b81838161332557fe5b06905092915050565b6000808284019050838110156133ac576040517f08c379a000000000000000000000000000000000000000000000000000000000815260040180806020018281038252601a8152602001807f47524953453a20536166654d61746820416464206661696c656400000000000081525060200191505060405180910390fd5b8091505092915050565b600073ffffffffffffffffffffffffffffffffffffffff168273ffffffffffffffffffffffffffffffffffffffff1614156133f057600080fd5b61344281600960008573ffffffffffffffffffffffffffffffffffffffff1673ffffffffffffffffffffffffffffffffffffffff16815260200190815260200160002054612c0d90919063ffffffff16565b600960008473ffffffffffffffffffffffffffffffffffffffff1673ffffffffffffffffffffffffffffffffffffffff1681526020019081526020016000208190555061349a81601654612c0d90919063ffffffff16565b6016819055506134b760005460165461332e90919063ffffffff16565b600760006134c3611f16565b815260200190815260200160002081905550600073ffffffffffffffffffffffffffffffffffffffff168273ffffffffffffffffffffffffffffffffffffffff167fddf252ad1be2c89b69c2b068fc378daa952ba7f163c4a11628f55a4df523b3ef836040518082815260200191505060405180910390a35050565b600042905090565b600061355961355461353f565b613779565b905090565b600073ffffffffffffffffffffffffffffffffffffffff168273ffffffffffffffffffffffffffffffffffffffff16141561359857600080fd5b6135ad8160165461332e90919063ffffffff16565b60168190555061360581600960008573ffffffffffffffffffffffffffffffffffffffff1673ffffffffffffffffffffffffffffffffffffffff1681526020019081526020016000205461332e90919063ffffffff16565b600960008473ffffffffffffffffffffffffffffffffffffffff1673ffffffffffffffffffffffffffffffffffffffff16815260200190815260200160002081905550613664600054613656610e87565b61332e90919063ffffffff16565b60076000613670611f16565b8152602001908152602001600020819055508173ffffffffffffffffffffffffffffffffffffffff16600073ffffffffffffffffffffffffffffffffffffffff167fddf252ad1be2c89b69c2b068fc378daa952ba7f163c4a11628f55a4df523b3ef836040518082815260200191505060405180910390a35050565b600060016137006136fb61353f565b6137b5565b01905090565b600061373961271061ffff1661372b61015b61ffff16856129d490919063ffffffff16565b612a8290919063ffffffff16565b9050919050565b600061377261271061ffff16613764601e61ffff16856129d490919063ffffffff16565b612a8290919063ffffffff16565b9050919050565b600060b463ffffffff167f00000000000000000000000000000000000000000000000000000000000000008303816137ad57fe5b049050919050565b600061384063ffffffff167f00000000000000000000000000000000000000000000000000000000000000008303816137ea57fe5b04905091905056fe4752495345202d205472616e73636174696f6e2052657761726420697320616c7265616479206265656e20636c61696d65644752495345202d20596f7520617265206c6174652f6561726c7920746f20636c61696d207265776172644752495345202d20546f6b656e20686f6c64657220646f65736e6f7420656e6f7567682062616c616e636520746f20636c61696d207265776172644752495345202d205472616e73636174696f6e205265776172642077696e646f77206973206e6f742079656174206f70656ea2646970667358221220b5c225fbf26b4fbb1a511a6018a78dfa4ecb5f429fce54c986588c90a1d4aa0f64736f6c63430007060033",
  "immutableReferences": {
    "89": [
      {
        "length": 32,
        "start": 7914
      },
      {
        "length": 32,
        "start": 7962
      },
      {
        "length": 32,
        "start": 14213
      }
    ],
    "91": [
      {
        "length": 32,
        "start": 3156
      },
      {
        "length": 32,
        "start": 9552
      },
      {
        "length": 32,
        "start": 14274
      }
    ]
  },
  "source": "// SPDX-License-Identifier: ----\r\n\r\npragma solidity =0.7.6;\r\n\r\nimport \"./Utils.sol\";\r\n\r\ncontract GriseToken is Utils {\r\n\r\n    using SafeMath for uint256;\r\n\r\n    mapping (address => uint256) private _balances;\r\n    mapping (address => mapping (address => uint256)) private _allowances;\r\n\r\n    address public LIQUIDITY_GATEKEEPER;\r\n    address public STAKE_GATEKEEPER;\r\n    address public VAULT_GATEKEEPER;\r\n    address public TOKENMATRIX_GATEKEEPER;\r\n\r\n    address private liquidtyGateKeeper;\r\n    address private stakeGateKeeper;\r\n    address private vaultGateKeeper;\r\n    address private tokenMatrixGateKeeper;\r\n\r\n    /**\r\n     * @dev initial private\r\n     */\r\n    string private _name;\r\n    string private _symbol;\r\n    uint8 private _decimal = 18;\r\n\r\n    /**\r\n     * @dev  Initial supply \r\n     */\r\n    uint256 private _totalSupply = 0;\r\n\r\n    event Transfer(\r\n        address indexed from,\r\n        address indexed to,\r\n        uint256 value\r\n    );\r\n\r\n    event Approval(\r\n        address indexed owner,\r\n        address indexed spender,\r\n        uint256 value\r\n    );\r\n\r\n    constructor (string memory tokenName, string memory tokenSymbol) {\r\n        _name = tokenName;\r\n        _symbol = tokenSymbol;\r\n        liquidtyGateKeeper = _msgSender();\r\n        stakeGateKeeper = _msgSender();\r\n        vaultGateKeeper = _msgSender();\r\n        tokenMatrixGateKeeper = _msgSender();\r\n    }\r\n\r\n    /**\r\n     * @dev Returns the name of the token.\r\n     */\r\n    function name() public view returns (string memory) {\r\n        return _name;\r\n    }\r\n\r\n    /**\r\n     * @dev Returns the symbol of the token.\r\n     */\r\n    function symbol() public view returns (string memory) {\r\n        return _symbol;\r\n    }\r\n\r\n    /**\r\n     * @dev Returns the decimals of the token.\r\n     */\r\n    function decimals() public view returns (uint8) {\r\n        return _decimal;\r\n    }\r\n\r\n    /**\r\n     * @dev Returns the total supply of the token.\r\n     */\r\n    function totalSupply() public view returns (uint256) {\r\n        return _totalSupply;\r\n    }\r\n\r\n    /**\r\n     * @dev Returns the token balance of specific address.\r\n     */\r\n    function balanceOf(address account) public view returns (uint256) {\r\n        return _balances[account];\r\n    }\r\n\r\n    function transfer(\r\n        address recipient,\r\n        uint256 amount\r\n    )\r\n        public\r\n        returns (bool)\r\n    {  \r\n        _transfer(\r\n            _msgSender(),\r\n            recipient,\r\n            amount\r\n        );\r\n\r\n        return true;\r\n    }\r\n\r\n    /**\r\n     * @dev Returns approved balance to be spent by another address\r\n     * by using transferFrom method\r\n     */\r\n    function allowance(\r\n        address owner,\r\n        address spender\r\n    )\r\n        public\r\n        view\r\n        returns (uint256)\r\n    {\r\n        return _allowances[owner][spender];\r\n    }\r\n\r\n    /**\r\n     * @dev Sets the token allowance to another spender\r\n     */\r\n    function approve(\r\n        address spender,\r\n        uint256 amount\r\n    )\r\n        public\r\n        returns (bool)\r\n    {\r\n        _approve(\r\n            _msgSender(),\r\n            spender,\r\n            amount\r\n        );\r\n\r\n        return true;\r\n    }\r\n\r\n    /**\r\n     * @dev Allows to transfer tokens on senders behalf\r\n     * based on allowance approved for the executer\r\n     */\r\n    function transferFrom(\r\n        address sender,\r\n        address recipient,\r\n        uint256 amount\r\n    )\r\n        public\r\n        returns (bool)\r\n    {    \r\n        _approve(sender,\r\n            _msgSender(), _allowances[sender][_msgSender()].sub(\r\n                amount\r\n            )\r\n        );\r\n\r\n        _transfer(\r\n            sender,\r\n            recipient,\r\n            amount\r\n        );\r\n        return true;\r\n    }\r\n\r\n    /**\r\n     * @dev Moves tokens `amount` from `sender` to `recipient`.\r\n     *\r\n     * Emits a {Transfer} event.\r\n     * Requirements:\r\n     *\r\n     * - `sender` cannot be the zero address.\r\n     * - `recipient` cannot be the zero address.\r\n     * - `sender` must have a balance of at least `amount`.\r\n     */\r\n    function _transfer(\r\n        address sender,\r\n        address recipient,\r\n        uint256 amount\r\n    )\r\n        internal\r\n        virtual\r\n    {\r\n        require(\r\n            sender != address(0x0)\r\n        );\r\n\r\n        require(\r\n            recipient != address(0x0)\r\n        );\r\n\r\n        uint256 stFee;\r\n        uint256 btFee;\r\n        uint256 teamReward;\r\n        uint256 currentGriseDay = _currentGriseDay();\r\n\r\n        if (staker[sender] > 0) {\r\n            stFee = _calculateSellTranscFee(amount);\r\n\r\n            sellTranscFee[currentGriseDay] = \r\n            sellTranscFee[currentGriseDay]\r\n                        .add(stFee);\r\n                \r\n            reservoirRewardPerShare[currentGriseDay] = \r\n            reservoirRewardPerShare[currentGriseDay]\r\n                        .add(stFee.mul(TRANSC_RESERVOIR_REWARD)\r\n                        .div(REWARD_PRECISION_RATE)\r\n                        .div(mediumTermShares));\r\n                \r\n            stakerRewardPerShare[currentGriseDay] = \r\n            stakerRewardPerShare[currentGriseDay]\r\n                        .add(stFee.mul(TRANSC_STAKER_REWARD)\r\n                        .div(REWARD_PRECISION_RATE)\r\n                        .div(mediumTermShares));\r\n                \r\n            tokenHolderReward[currentGriseDay] = \r\n            tokenHolderReward[currentGriseDay]\r\n                        .add(stFee.mul(TRANSC_TOKEN_HOLDER_REWARD)\r\n                        .div(REWARD_PRECISION_RATE));\r\n            \r\n            teamReward = stFee.mul(TEAM_SELL_TRANSC_REWARD)\r\n                              .div(REWARD_PRECISION_RATE);\r\n        }\r\n\r\n        btFee = _calculateBuyTranscFee(amount);\r\n        \r\n        _balances[sender] =\r\n        _balances[sender].sub(amount);\r\n\r\n        _balances[recipient] =\r\n        _balances[recipient].add(amount.sub(btFee).sub(stFee));\r\n\r\n        teamReward += btFee.mul(TEAM_BUY_TRANS_REWARD)\r\n                           .div(REWARD_PRECISION_RATE);\r\n        \r\n        _balances[TEAM_ADDRESS] = \r\n        _balances[TEAM_ADDRESS].add(teamReward);\r\n\r\n        // Burn Transction fee\r\n        // We will mint token when user comes\r\n        // to claim transction fee reward.\r\n        _totalSupply =\r\n        _totalSupply.sub(stFee.add(btFee).sub(teamReward));\r\n\r\n        totalToken[currentGriseDay] = totalSupply().add(stakedToken);\r\n        \r\n        emit Transfer(\r\n            sender,\r\n            recipient,\r\n            amount\r\n        );\r\n    }\r\n\r\n    /** @dev Creates `amount` tokens and assigns them to `account`, increasing\r\n     * the total supply.\r\n     *\r\n     * Emits a {Transfer} event with `from` set to the zero address.\r\n     * Requirements:\r\n     *\r\n     * - `to` cannot be the zero address.\r\n     */\r\n    function _mint(\r\n        address account,\r\n        uint256 amount\r\n    )\r\n        internal\r\n        virtual\r\n    {\r\n        require(\r\n            account != address(0x0)\r\n        );\r\n        \r\n        _totalSupply =\r\n        _totalSupply.add(amount);\r\n\r\n        _balances[account] =\r\n        _balances[account].add(amount);\r\n\r\n        totalToken[currentGriseDay()] = totalSupply().add(stakedToken);\r\n        \r\n        emit Transfer(\r\n            address(0x0),\r\n            account,\r\n            amount\r\n        );\r\n    }\r\n\r\n    /**\r\n     * @dev Destroys `amount` tokens from `account`, reducing the\r\n     * total supply.\r\n     *\r\n     * Emits a {Transfer} event with `to` set to the zero address.\r\n     *\r\n     * Requirements:\r\n     *\r\n     * - `account` cannot be the zero address.\r\n     * - `account` must have at least `amount` tokens.\r\n     */\r\n    function _burn(\r\n        address account,\r\n        uint256 amount\r\n    )\r\n        internal\r\n        virtual\r\n    {\r\n        require(\r\n            account != address(0x0)\r\n        );\r\n    \r\n        _balances[account] =\r\n        _balances[account].sub(amount);\r\n\r\n        _totalSupply =\r\n        _totalSupply.sub(amount);\r\n\r\n        totalToken[currentGriseDay()] = _totalSupply.add(stakedToken);\r\n        \r\n        emit Transfer(\r\n            account,\r\n            address(0x0),\r\n            amount\r\n        );\r\n    }\r\n\r\n    /**\r\n     * @dev Sets `amount` as the allowance of `spender` over the `owner`s tokens.\r\n     * Emits an {Approval} event.\r\n     *\r\n     * Requirements:\r\n     *\r\n     * - `owner` cannot be the zero address.\r\n     * - `spender` cannot be the zero address.\r\n     */\r\n    function _approve(\r\n        address owner,\r\n        address spender,\r\n        uint256 amount\r\n    )\r\n        internal\r\n        virtual\r\n    {\r\n        require(\r\n            owner != address(0x0)\r\n        );\r\n\r\n        require(\r\n            spender != address(0x0)\r\n        );\r\n\r\n        _allowances[owner][spender] = amount;\r\n\r\n        emit Approval(\r\n            owner,\r\n            spender,\r\n            amount\r\n        );\r\n    }\r\n\r\n    /**\r\n     * @notice ability to define liquidity transformer contract\r\n     * @dev this method renounce liquidtyGateKeeper access\r\n     * @param _immutableGateKeeper contract address\r\n     */\r\n    function setLiquidtyGateKeeper(\r\n        address _immutableGateKeeper\r\n    )\r\n        external\r\n    {\r\n        require(\r\n            liquidtyGateKeeper == _msgSender(),\r\n            'GRISE: Operation not allowed'\r\n        );\r\n\r\n        LIQUIDITY_GATEKEEPER = _immutableGateKeeper;\r\n        liquidtyGateKeeper = address(0x0);\r\n    }\r\n\r\n    /**\r\n     * @notice ability to define Staker contract\r\n     * @dev this method renounce stakeGateKeeper access\r\n     * @param _immutableGateKeeper contract address\r\n     */\r\n    function setStakeGateKeeper(\r\n        address _immutableGateKeeper\r\n    )\r\n        external\r\n    {\r\n        require(\r\n            stakeGateKeeper == _msgSender(),\r\n            'GRISE: Operation not allowed'\r\n        );\r\n\r\n        STAKE_GATEKEEPER = _immutableGateKeeper;\r\n        stakeGateKeeper = address(0x0);\r\n    }\r\n\r\n    /**\r\n     * @notice ability to define vault contract\r\n     * @dev this method renounce vaultGateKeeper access\r\n     * @param _immutableGateKeeper contract address\r\n     */\r\n    function setVaultGateKeeper(\r\n        address _immutableGateKeeper\r\n    )\r\n        external\r\n    {\r\n        require(\r\n            vaultGateKeeper == _msgSender(),\r\n            'GRISE: Operation not allowed'\r\n        );\r\n\r\n        VAULT_GATEKEEPER = _immutableGateKeeper;\r\n        vaultGateKeeper = address(0x0);\r\n    }\r\n\r\n    /**\r\n     * @notice ability to define tokenMatrix contract\r\n     * @dev this method renounce tokenMatrixGateKeeper access\r\n     * @param _immutableGateKeeper contract address\r\n     */\r\n    function setTokenMatrixGateKeeper(\r\n        address _immutableGateKeeper\r\n    )\r\n        external\r\n    {\r\n        require(\r\n            tokenMatrixGateKeeper == _msgSender(),\r\n            'GRISE: Operation not allowed'\r\n        );\r\n\r\n        TOKENMATRIX_GATEKEEPER = _immutableGateKeeper;\r\n        tokenMatrixGateKeeper = address(0x0);\r\n    }\r\n\r\n    modifier interfaceValidator() {\r\n        require (\r\n            _msgSender() == LIQUIDITY_GATEKEEPER ||\r\n            _msgSender() == STAKE_GATEKEEPER ||\r\n            _msgSender() == VAULT_GATEKEEPER || \r\n            _msgSender() == TOKENMATRIX_GATEKEEPER,\r\n            'GRISE: Operation not allowed'\r\n        );\r\n        _;\r\n    }\r\n\r\n    /**\r\n     * @notice allows liquidityTransformer to mint supply\r\n     * @dev executed from liquidityTransformer upon UNISWAP transfer\r\n     * and during reservation payout to contributors and referrers\r\n     * @param _investorAddress address for minting GRISE tokens\r\n     * @param _amount of tokens to mint for _investorAddress\r\n     */\r\n    function mintSupply(\r\n        address _investorAddress,\r\n        uint256 _amount\r\n    )\r\n        external\r\n        interfaceValidator\r\n    {       \r\n        _mint(\r\n            _investorAddress,\r\n            _amount\r\n        );\r\n    }\r\n\r\n    /**\r\n     * @notice allows liquidityTransformer to mint supply\r\n     * @dev executed from liquidityTransformer upon UNISWAP transfer\r\n     * and during reservation payout to contributors and referrers\r\n     * @param _investorAddress address for minting GRISE tokens\r\n     * @param _amount of tokens to mint for _investorAddress\r\n     */\r\n    function burnSupply(\r\n        address _investorAddress,\r\n        uint256 _amount\r\n    )\r\n        external\r\n        interfaceValidator\r\n    {\r\n        _burn(\r\n            _investorAddress,\r\n            _amount\r\n        );\r\n    }\r\n    \r\n    function viewTokenHolderTranscReward() \r\n        external \r\n        view \r\n        returns (uint256 rewardAmount) \r\n    {\r\n        \r\n        uint256 _day = currentGriseDay();\r\n        \r\n        if( (balanceOf(_msgSender()) <= 0) ||\r\n            isTranscFeeClaimed[_msgSender()][calculateGriseWeek(_day)] ||  \r\n            calculateGriseWeek(_day) != currentGriseWeek())\r\n        {\r\n            rewardAmount = 0;\r\n        }\r\n        else\r\n        {    \r\n            uint256 calculationDay = _day.mod(GRISE_WEEK) > 0 ? \r\n                                    _day.sub(_day.mod(GRISE_WEEK)) :\r\n                                    _day.sub(GRISE_WEEK);\r\n\r\n            for (uint256 day = calculationDay; day < _day; day++)\r\n            {\r\n                rewardAmount += tokenHolderReward[day]\r\n                                            .mul(_balances[_msgSender()])\r\n                                            .div(totalToken[day]);\r\n            }\r\n        }\r\n    }\r\n    \r\n    function claimTokenHolderTranscReward()\r\n        external \r\n        returns (uint256 rewardAmount)\r\n    {    \r\n        uint256 _day = currentGriseDay();\r\n        require( \r\n            balanceOf(_msgSender()) > 0,\r\n            'GRISE - Token holder doesnot enough balance to claim reward'\r\n        );\r\n        \r\n        require(\r\n            (currentGriseDay().mod(GRISE_WEEK)) == 0,\r\n            'GRISE - Transcation Reward window is not yeat open'\r\n        );\r\n        \r\n        require(\r\n            calculateGriseWeek(_day) == currentGriseWeek(),\r\n            'GRISE - You are late/early to claim reward'\r\n        );\r\n        \r\n        require( \r\n            !isTranscFeeClaimed[_msgSender()][currentGriseWeek()],\r\n            'GRISE - Transcation Reward is already been claimed'\r\n        );\r\n\r\n        for (uint256 day = _day.sub(GRISE_WEEK); day < _day; day++)\r\n        {\r\n            rewardAmount += tokenHolderReward[day]\r\n                                        .mul(_balances[_msgSender()])\r\n                                        .div(totalToken[day]);\r\n        }\r\n                                        \r\n        _mint(\r\n            _msgSender(),\r\n            rewardAmount\r\n        );\r\n        \r\n        isTranscFeeClaimed[_msgSender()][currentGriseWeek()] = true;\r\n\r\n        TranscFeeClaimed(_msgSender(), currentGriseWeek(), rewardAmount);\r\n    }\r\n\r\n    function setStaker(\r\n        address _staker\r\n    ) \r\n        external\r\n    {    \r\n        require(\r\n            _msgSender() == STAKE_GATEKEEPER,\r\n            'GRISE: Operation not allowed'\r\n        );\r\n        \r\n        staker[_staker] = staker[_staker] + 1;\r\n    }\r\n    \r\n    function resetStaker(\r\n        address _staker\r\n    ) \r\n        external\r\n    {    \r\n        require(\r\n            _msgSender() == STAKE_GATEKEEPER,\r\n            'GRISE: Operation not allowed'\r\n        );\r\n        \r\n        if (staker[_staker] > 0)\r\n        {\r\n            staker[_staker] = staker[_staker] - 1;\r\n        }\r\n    }\r\n\r\n    function updateStakedToken(\r\n        uint256 _stakedToken\r\n    ) \r\n        external\r\n    {\r\n        require(\r\n            _msgSender() == STAKE_GATEKEEPER,\r\n            'GRISE: Operation not allowed'\r\n        );\r\n            \r\n        stakedToken = _stakedToken;\r\n        totalToken[currentGriseDay()] = totalSupply().add(stakedToken);\r\n    }\r\n\r\n    function updateMedTermShares(\r\n        uint256 _shares\r\n    ) \r\n        external\r\n    {    \r\n        require(\r\n            _msgSender() == STAKE_GATEKEEPER,\r\n            'GRISE: Operation not allowed'\r\n        );\r\n        \r\n        mediumTermShares = _shares;\r\n    }\r\n\r\n    function getTransFeeReward(\r\n        uint256 _fromDay,\r\n        uint256 _toDay\r\n    ) \r\n        external \r\n        view \r\n        returns (uint256 rewardAmount)\r\n    {\r\n        require(\r\n            _msgSender() == STAKE_GATEKEEPER,\r\n            'GRISE: Operation not allowed'\r\n        );\r\n\r\n        for(uint256 day = _fromDay; day < _toDay; day++)\r\n        {\r\n            rewardAmount += stakerRewardPerShare[day];\r\n        }\r\n    }\r\n\r\n    function getReservoirReward(\r\n        uint256 _fromDay,\r\n        uint256 _toDay\r\n    ) \r\n        external view \r\n        returns (uint256 rewardAmount)\r\n    {\r\n        require(\r\n            _msgSender() == STAKE_GATEKEEPER,\r\n            'GRISE: Operation not allowed'\r\n        );\r\n\r\n        for(uint256 day = _fromDay; day < _toDay; day++)\r\n        {\r\n            rewardAmount += reservoirRewardPerShare[day];\r\n        }\r\n    }\r\n\r\n    function getTokenHolderReward(\r\n        uint256 _fromDay,\r\n        uint256 _toDay\r\n    ) \r\n        external view \r\n        returns (uint256 rewardAmount)\r\n    {\r\n\r\n        require(\r\n            _msgSender() == STAKE_GATEKEEPER,\r\n            'GRISE: Operation not allowed'\r\n        );\r\n\r\n        for(uint256 day = _fromDay; day < _toDay; day++)\r\n        {\r\n            rewardAmount += tokenHolderReward[day]\r\n                            .mul(PRECISION_RATE)\r\n                            .div(totalToken[day]);\r\n        }\r\n    }\r\n\r\n    function timeToClaimWeeklyReward() \r\n        public\r\n        view\r\n        returns (uint256 _days)\r\n    {\r\n        _days = currentGriseDay().mod(GRISE_WEEK) > 0 ?\r\n                    GRISE_WEEK - currentGriseDay().mod(GRISE_WEEK) :\r\n                    0;\r\n    }\r\n\r\n    function timeToClaimMonthlyReward() \r\n        public \r\n        view \r\n        returns (uint256 _days)\r\n    {\r\n        _days = currentGriseDay().mod(GRISE_MONTH) > 0 ?\r\n                    GRISE_MONTH - currentGriseDay().mod(GRISE_MONTH) :\r\n                    0;\r\n    }\r\n\r\n    function balanceOfStaker(\r\n        address account\r\n    ) \r\n        external\r\n        view\r\n        returns (uint256)\r\n    {\r\n        return _balances[account];\r\n    }\r\n\r\n    function getEpocTime() \r\n        external\r\n        view \r\n        returns (uint256)\r\n    {\r\n        return block.timestamp;\r\n    }\r\n\r\n    function getLaunchTime()\r\n        external\r\n        view\r\n        returns (uint256)\r\n    {\r\n        return LAUNCH_TIME;\r\n    }\r\n\r\n    function getLPLaunchTime()\r\n        external\r\n        view\r\n        returns (uint256)\r\n    {\r\n        return LP_LAUNCH_TIME;\r\n    }\r\n\r\n    function isStaker(\r\n        address _staker\r\n    ) \r\n        external\r\n        view\r\n        returns (bool status)\r\n    {\r\n        status = (staker[_staker] > 0) ? true : false;\r\n    }\r\n}",
  "sourcePath": "C:/Users/Dhaval/eth/grise/src/contracts/GriseToken.sol",
  "compiler": {
    "name": "solc",
    "version": "0.7.6+commit.7338295f.Emscripten.clang"
  },
  "schemaVersion": "3.3.3",
  "updatedAt": "2021-03-30T12:51:32.094Z",
  "devdoc": {
    "kind": "dev",
    "methods": {
      "allowance(address,address)": {
        "details": "Returns approved balance to be spent by another address by using transferFrom method"
      },
      "approve(address,uint256)": {
        "details": "Sets the token allowance to another spender"
      },
      "balanceOf(address)": {
        "details": "Returns the token balance of specific address."
      },
      "burnSupply(address,uint256)": {
        "details": "executed from liquidityTransformer upon UNISWAP transfer and during reservation payout to contributors and referrers",
        "params": {
          "_amount": "of tokens to mint for _investorAddress",
          "_investorAddress": "address for minting GRISE tokens"
        }
      },
      "decimals()": {
        "details": "Returns the decimals of the token."
      },
      "mintSupply(address,uint256)": {
        "details": "executed from liquidityTransformer upon UNISWAP transfer and during reservation payout to contributors and referrers",
        "params": {
          "_amount": "of tokens to mint for _investorAddress",
          "_investorAddress": "address for minting GRISE tokens"
        }
      },
      "name()": {
        "details": "Returns the name of the token."
      },
      "setLiquidtyGateKeeper(address)": {
        "details": "this method renounce liquidtyGateKeeper access",
        "params": {
          "_immutableGateKeeper": "contract address"
        }
      },
      "setStakeGateKeeper(address)": {
        "details": "this method renounce stakeGateKeeper access",
        "params": {
          "_immutableGateKeeper": "contract address"
        }
      },
      "setTokenMatrixGateKeeper(address)": {
        "details": "this method renounce tokenMatrixGateKeeper access",
        "params": {
          "_immutableGateKeeper": "contract address"
        }
      },
      "setVaultGateKeeper(address)": {
        "details": "this method renounce vaultGateKeeper access",
        "params": {
          "_immutableGateKeeper": "contract address"
        }
      },
      "symbol()": {
        "details": "Returns the symbol of the token."
      },
      "totalSupply()": {
        "details": "Returns the total supply of the token."
      },
      "transferFrom(address,address,uint256)": {
        "details": "Allows to transfer tokens on senders behalf based on allowance approved for the executer"
      }
    },
    "stateVariables": {
      "_name": {
        "details": "initial private"
      },
      "_totalSupply": {
        "details": " Initial supply "
      }
    },
    "version": 1
  },
  "userdoc": {
    "kind": "user",
    "methods": {
      "burnSupply(address,uint256)": {
        "notice": "allows liquidityTransformer to mint supply"
      },
      "mintSupply(address,uint256)": {
        "notice": "allows liquidityTransformer to mint supply"
      },
      "setLiquidtyGateKeeper(address)": {
        "notice": "ability to define liquidity transformer contract"
      },
      "setStakeGateKeeper(address)": {
        "notice": "ability to define Staker contract"
      },
      "setTokenMatrixGateKeeper(address)": {
        "notice": "ability to define tokenMatrix contract"
      },
      "setVaultGateKeeper(address)": {
        "notice": "ability to define vault contract"
      }
    },
    "version": 1
  }
}