{
  "contractName": "GriseToken",
  "abi": [
    {
      "inputs": [
        {
          "internalType": "string",
          "name": "tokenName",
          "type": "string"
        },
        {
          "internalType": "string",
          "name": "tokenSymbol",
          "type": "string"
        }
      ],
      "stateMutability": "nonpayable",
      "type": "constructor"
    },
    {
      "anonymous": false,
      "inputs": [
        {
          "indexed": true,
          "internalType": "address",
          "name": "owner",
          "type": "address"
        },
        {
          "indexed": true,
          "internalType": "address",
          "name": "spender",
          "type": "address"
        },
        {
          "indexed": false,
          "internalType": "uint256",
          "name": "value",
          "type": "uint256"
        }
      ],
      "name": "Approval",
      "type": "event"
    },
    {
      "anonymous": false,
      "inputs": [
        {
          "indexed": true,
          "internalType": "address",
          "name": "tokenHolderAddress",
          "type": "address"
        },
        {
          "indexed": false,
          "internalType": "uint256",
          "name": "griseWeek",
          "type": "uint256"
        },
        {
          "indexed": false,
          "internalType": "uint256",
          "name": "claimedAmount",
          "type": "uint256"
        }
      ],
      "name": "TranscFeeClaimed",
      "type": "event"
    },
    {
      "anonymous": false,
      "inputs": [
        {
          "indexed": true,
          "internalType": "address",
          "name": "from",
          "type": "address"
        },
        {
          "indexed": true,
          "internalType": "address",
          "name": "to",
          "type": "address"
        },
        {
          "indexed": false,
          "internalType": "uint256",
          "name": "value",
          "type": "uint256"
        }
      ],
      "name": "Transfer",
      "type": "event"
    },
    {
      "inputs": [],
      "name": "LIQUIDITY_GATEKEEPER",
      "outputs": [
        {
          "internalType": "address",
          "name": "",
          "type": "address"
        }
      ],
      "stateMutability": "view",
      "type": "function",
      "constant": true
    },
    {
      "inputs": [],
      "name": "STAKE_GATEKEEPER",
      "outputs": [
        {
          "internalType": "address",
          "name": "",
          "type": "address"
        }
      ],
      "stateMutability": "view",
      "type": "function",
      "constant": true
    },
    {
      "inputs": [],
      "name": "TOKENMATRIX_GATEKEEPER",
      "outputs": [
        {
          "internalType": "address",
          "name": "",
          "type": "address"
        }
      ],
      "stateMutability": "view",
      "type": "function",
      "constant": true
    },
    {
      "inputs": [],
      "name": "VAULT_GATEKEEPER",
      "outputs": [
        {
          "internalType": "address",
          "name": "",
          "type": "address"
        }
      ],
      "stateMutability": "view",
      "type": "function",
      "constant": true
    },
    {
      "inputs": [],
      "name": "currentGriseDay",
      "outputs": [
        {
          "internalType": "uint256",
          "name": "",
          "type": "uint256"
        }
      ],
      "stateMutability": "view",
      "type": "function",
      "constant": true
    },
    {
      "inputs": [],
      "name": "currentGriseWeek",
      "outputs": [
        {
          "internalType": "uint256",
          "name": "",
          "type": "uint256"
        }
      ],
      "stateMutability": "view",
      "type": "function",
      "constant": true
    },
    {
      "inputs": [],
      "name": "currentLPDay",
      "outputs": [
        {
          "internalType": "uint256",
          "name": "",
          "type": "uint256"
        }
      ],
      "stateMutability": "view",
      "type": "function",
      "constant": true
    },
    {
      "inputs": [
        {
          "internalType": "uint256",
          "name": "",
          "type": "uint256"
        }
      ],
      "name": "sellTranscFee",
      "outputs": [
        {
          "internalType": "uint256",
          "name": "",
          "type": "uint256"
        }
      ],
      "stateMutability": "view",
      "type": "function",
      "constant": true
    },
    {
      "inputs": [],
      "name": "name",
      "outputs": [
        {
          "internalType": "string",
          "name": "",
          "type": "string"
        }
      ],
      "stateMutability": "view",
      "type": "function",
      "constant": true
    },
    {
      "inputs": [],
      "name": "symbol",
      "outputs": [
        {
          "internalType": "string",
          "name": "",
          "type": "string"
        }
      ],
      "stateMutability": "view",
      "type": "function",
      "constant": true
    },
    {
      "inputs": [],
      "name": "decimals",
      "outputs": [
        {
          "internalType": "uint8",
          "name": "",
          "type": "uint8"
        }
      ],
      "stateMutability": "view",
      "type": "function",
      "constant": true
    },
    {
      "inputs": [],
      "name": "totalSupply",
      "outputs": [
        {
          "internalType": "uint256",
          "name": "",
          "type": "uint256"
        }
      ],
      "stateMutability": "view",
      "type": "function",
      "constant": true
    },
    {
      "inputs": [
        {
          "internalType": "address",
          "name": "account",
          "type": "address"
        }
      ],
      "name": "balanceOf",
      "outputs": [
        {
          "internalType": "uint256",
          "name": "",
          "type": "uint256"
        }
      ],
      "stateMutability": "view",
      "type": "function",
      "constant": true
    },
    {
      "inputs": [
        {
          "internalType": "address",
          "name": "recipient",
          "type": "address"
        },
        {
          "internalType": "uint256",
          "name": "amount",
          "type": "uint256"
        }
      ],
      "name": "transfer",
      "outputs": [
        {
          "internalType": "bool",
          "name": "",
          "type": "bool"
        }
      ],
      "stateMutability": "nonpayable",
      "type": "function"
    },
    {
      "inputs": [
        {
          "internalType": "address",
          "name": "owner",
          "type": "address"
        },
        {
          "internalType": "address",
          "name": "spender",
          "type": "address"
        }
      ],
      "name": "allowance",
      "outputs": [
        {
          "internalType": "uint256",
          "name": "",
          "type": "uint256"
        }
      ],
      "stateMutability": "view",
      "type": "function",
      "constant": true
    },
    {
      "inputs": [
        {
          "internalType": "address",
          "name": "spender",
          "type": "address"
        },
        {
          "internalType": "uint256",
          "name": "amount",
          "type": "uint256"
        }
      ],
      "name": "approve",
      "outputs": [
        {
          "internalType": "bool",
          "name": "",
          "type": "bool"
        }
      ],
      "stateMutability": "nonpayable",
      "type": "function"
    },
    {
      "inputs": [
        {
          "internalType": "address",
          "name": "sender",
          "type": "address"
        },
        {
          "internalType": "address",
          "name": "recipient",
          "type": "address"
        },
        {
          "internalType": "uint256",
          "name": "amount",
          "type": "uint256"
        }
      ],
      "name": "transferFrom",
      "outputs": [
        {
          "internalType": "bool",
          "name": "",
          "type": "bool"
        }
      ],
      "stateMutability": "nonpayable",
      "type": "function"
    },
    {
      "inputs": [
        {
          "internalType": "address",
          "name": "_immutableGateKeeper",
          "type": "address"
        }
      ],
      "name": "setLiquidtyGateKeeper",
      "outputs": [],
      "stateMutability": "nonpayable",
      "type": "function"
    },
    {
      "inputs": [
        {
          "internalType": "address",
          "name": "_immutableGateKeeper",
          "type": "address"
        }
      ],
      "name": "setStakeGateKeeper",
      "outputs": [],
      "stateMutability": "nonpayable",
      "type": "function"
    },
    {
      "inputs": [
        {
          "internalType": "address",
          "name": "_immutableGateKeeper",
          "type": "address"
        }
      ],
      "name": "setVaultGateKeeper",
      "outputs": [],
      "stateMutability": "nonpayable",
      "type": "function"
    },
    {
      "inputs": [
        {
          "internalType": "address",
          "name": "_immutableGateKeeper",
          "type": "address"
        }
      ],
      "name": "setTokenMatrixGateKeeper",
      "outputs": [],
      "stateMutability": "nonpayable",
      "type": "function"
    },
    {
      "inputs": [
        {
          "internalType": "address",
          "name": "_investorAddress",
          "type": "address"
        },
        {
          "internalType": "uint256",
          "name": "_amount",
          "type": "uint256"
        }
      ],
      "name": "mintSupply",
      "outputs": [],
      "stateMutability": "nonpayable",
      "type": "function"
    },
    {
      "inputs": [
        {
          "internalType": "address",
          "name": "_investorAddress",
          "type": "address"
        },
        {
          "internalType": "uint256",
          "name": "_amount",
          "type": "uint256"
        }
      ],
      "name": "burnSupply",
      "outputs": [],
      "stateMutability": "nonpayable",
      "type": "function"
    },
    {
      "inputs": [
        {
          "internalType": "address",
          "name": "_staker",
          "type": "address"
        }
      ],
      "name": "setStaker",
      "outputs": [],
      "stateMutability": "nonpayable",
      "type": "function"
    },
    {
      "inputs": [
        {
          "internalType": "address",
          "name": "_staker",
          "type": "address"
        }
      ],
      "name": "resetStaker",
      "outputs": [],
      "stateMutability": "nonpayable",
      "type": "function"
    },
    {
      "inputs": [],
      "name": "viewTokenHolderTranscReward",
      "outputs": [
        {
          "internalType": "uint256",
          "name": "rewardAmount",
          "type": "uint256"
        }
      ],
      "stateMutability": "view",
      "type": "function",
      "constant": true
    },
    {
      "inputs": [],
      "name": "claimTokenHolderTranscReward",
      "outputs": [
        {
          "internalType": "uint256",
          "name": "rewardAmount",
          "type": "uint256"
        }
      ],
      "stateMutability": "nonpayable",
      "type": "function"
    },
    {
      "inputs": [
        {
          "internalType": "uint256",
          "name": "_stakedToken",
          "type": "uint256"
        }
      ],
      "name": "updateStakedToken",
      "outputs": [],
      "stateMutability": "nonpayable",
      "type": "function"
    },
    {
      "inputs": [
        {
          "internalType": "uint256",
          "name": "_shares",
          "type": "uint256"
        }
      ],
      "name": "updateMedTermShares",
      "outputs": [],
      "stateMutability": "nonpayable",
      "type": "function"
    },
    {
      "inputs": [],
      "name": "getEpocTime",
      "outputs": [
        {
          "internalType": "uint256",
          "name": "",
          "type": "uint256"
        }
      ],
      "stateMutability": "view",
      "type": "function",
      "constant": true
    },
    {
      "inputs": [
        {
          "internalType": "uint256",
          "name": "_fromDay",
          "type": "uint256"
        },
        {
          "internalType": "uint256",
          "name": "_toDay",
          "type": "uint256"
        }
      ],
      "name": "getTransFeeReward",
      "outputs": [
        {
          "internalType": "uint256",
          "name": "rewardAmount",
          "type": "uint256"
        }
      ],
      "stateMutability": "view",
      "type": "function",
      "constant": true
    },
    {
      "inputs": [
        {
          "internalType": "uint256",
          "name": "_fromDay",
          "type": "uint256"
        },
        {
          "internalType": "uint256",
          "name": "_toDay",
          "type": "uint256"
        }
      ],
      "name": "getReservoirReward",
      "outputs": [
        {
          "internalType": "uint256",
          "name": "rewardAmount",
          "type": "uint256"
        }
      ],
      "stateMutability": "view",
      "type": "function",
      "constant": true
    },
    {
      "inputs": [
        {
          "internalType": "uint256",
          "name": "_fromDay",
          "type": "uint256"
        },
        {
          "internalType": "uint256",
          "name": "_toDay",
          "type": "uint256"
        }
      ],
      "name": "getTokenHolderReward",
      "outputs": [
        {
          "internalType": "uint256",
          "name": "rewardAmount",
          "type": "uint256"
        }
      ],
      "stateMutability": "view",
      "type": "function",
      "constant": true
    },
    {
      "inputs": [],
      "name": "timeToClaimWeeklyReward",
      "outputs": [
        {
          "internalType": "uint256",
          "name": "_days",
          "type": "uint256"
        }
      ],
      "stateMutability": "view",
      "type": "function",
      "constant": true
    },
    {
      "inputs": [
        {
          "internalType": "address",
          "name": "account",
          "type": "address"
        }
      ],
      "name": "balanceOfStaker",
      "outputs": [
        {
          "internalType": "uint256",
          "name": "",
          "type": "uint256"
        }
      ],
      "stateMutability": "view",
      "type": "function",
      "constant": true
    },
    {
      "inputs": [],
      "name": "getLaunchTime",
      "outputs": [
        {
          "internalType": "uint256",
          "name": "",
          "type": "uint256"
        }
      ],
      "stateMutability": "view",
      "type": "function",
      "constant": true
    }
  ],
  "bytecode": "0x60a06040526012601560006101000a81548160ff021916908360ff16021790555060006016553480156200003257600080fd5b506040516200392538038062003925833981810160405260408110156200005857600080fd5b81019080805160405193929190846401000000008211156200007957600080fd5b838201915060208201858111156200009057600080fd5b8251866001820283011164010000000082111715620000ae57600080fd5b8083526020830192505050908051906020019080838360005b83811015620000e4578082015181840152602081019050620000c7565b50505050905090810190601f168015620001125780820380516001836020036101000a031916815260200191505b50604052602001805160405193929190846401000000008211156200013657600080fd5b838201915060208201858111156200014d57600080fd5b82518660018202830111640100000000821117156200016b57600080fd5b8083526020830192505050908051906020019080838360005b83811015620001a157808201518184015260208101905062000184565b50505050905090810190601f168015620001cf5780820380516001836020036101000a031916815260200191505b5060405250505063603c4a9b608081815250508160139080519060200190620001fa92919062000364565b5080601490805190602001906200021392919062000364565b50620002246200035c60201b60201c565b600f60006101000a81548173ffffffffffffffffffffffffffffffffffffffff021916908373ffffffffffffffffffffffffffffffffffffffff160217905550620002746200035c60201b60201c565b601060006101000a81548173ffffffffffffffffffffffffffffffffffffffff021916908373ffffffffffffffffffffffffffffffffffffffff160217905550620002c46200035c60201b60201c565b601160006101000a81548173ffffffffffffffffffffffffffffffffffffffff021916908373ffffffffffffffffffffffffffffffffffffffff160217905550620003146200035c60201b60201c565b601260006101000a81548173ffffffffffffffffffffffffffffffffffffffff021916908373ffffffffffffffffffffffffffffffffffffffff16021790555050506200041a565b600033905090565b828054600181600116156101000203166002900490600052602060002090601f0160209004810192826200039c5760008555620003e8565b82601f10620003b757805160ff1916838001178555620003e8565b82800160010185558215620003e8579182015b82811115620003e7578251825591602001919060010190620003ca565b5b509050620003f79190620003fb565b5090565b5b8082111562000416576000816000905550600101620003fc565b5090565b6080516134dc6200044960003980611cee5280611d1e5280612354528061337052806133ad52506134dc6000f3fe608060405234801561001057600080fd5b506004361061021c5760003560e01c806389ba1ab711610125578063b9459b61116100ad578063dd62ed3e1161007c578063dd62ed3e14610a0a578063e1a973cf14610a82578063e742806a14610ac6578063edc9a25f14610b14578063f172d29314610b325761021c565b8063b9459b611461095c578063c2889b571461097a578063cdbf54ed14610998578063d2931944146109c65761021c565b8063a7d10eab116100f4578063a7d10eab14610814578063a9059cbb14610858578063ab909492146108bc578063aecf8a6d146108f0578063b77460861461093e5761021c565b806389ba1ab7146106cd57806395d89b41146107015780639df6292614610784578063a29a43bb146107d05761021c565b80633ffff653116101a85780636de41837116101775780636de41837146105d757806370a08231146105f55780637f0f40261461064d5780638491a1101461067b57806387cd0cd2146106af5761021c565b80633ffff653146104e7578063480f5e2e146105295780634ad356f4146105475780635d349c3a1461058b5761021c565b806318160ddd116101ef57806318160ddd146103ac57806318613e67146103ca57806323b872dd146103fe578063313ce567146104825780633f5e932b146104a35761021c565b80630293068e1461022157806306fdde031461027957806308fcfd3c146102fc578063095ea7b314610348575b600080fd5b6102636004803603602081101561023757600080fd5b81019080803573ffffffffffffffffffffffffffffffffffffffff169060200190929190505050610b50565b6040518082815260200191505060405180910390f35b610281610b99565b6040518080602001828103825283818151815260200191508051906020019080838360005b838110156102c15780820151818401526020810190506102a6565b50505050905090810190601f1680156102ee5780820380516001836020036101000a031916815260200191505b509250505060405180910390f35b6103326004803603604081101561031257600080fd5b810190808035906020019092919080359060200190929190505050610c3b565b6040518082815260200191505060405180910390f35b6103946004803603604081101561035e57600080fd5b81019080803573ffffffffffffffffffffffffffffffffffffffff16906020019092919080359060200190929190505050610d8a565b60405180821515815260200191505060405180910390f35b6103b4610da8565b6040518082815260200191505060405180910390f35b6103d2610db2565b604051808273ffffffffffffffffffffffffffffffffffffffff16815260200191505060405180910390f35b61046a6004803603606081101561041457600080fd5b81019080803573ffffffffffffffffffffffffffffffffffffffff169060200190929190803573ffffffffffffffffffffffffffffffffffffffff16906020019092919080359060200190929190505050610dd8565b60405180821515815260200191505060405180910390f35b61048a610e97565b604051808260ff16815260200191505060405180910390f35b6104e5600480360360208110156104b957600080fd5b81019080803573ffffffffffffffffffffffffffffffffffffffff169060200190929190505050610eae565b005b610513600480360360208110156104fd57600080fd5b8101908080359060200190929190505050610fd3565b6040518082815260200191505060405180910390f35b610531610feb565b6040518082815260200191505060405180910390f35b6105896004803603602081101561055d57600080fd5b81019080803573ffffffffffffffffffffffffffffffffffffffff16906020019092919050505061121c565b005b6105c1600480360360408110156105a157600080fd5b81019080803590602001909291908035906020019092919050505061136c565b6040518082815260200191505060405180910390f35b6105df611472565b6040518082815260200191505060405180910390f35b6106376004803603602081101561060b57600080fd5b81019080803573ffffffffffffffffffffffffffffffffffffffff1690602001909291905050506114d2565b6040518082815260200191505060405180910390f35b6106796004803603602081101561066357600080fd5b810190808035906020019092919050505061151b565b005b610683611629565b604051808273ffffffffffffffffffffffffffffffffffffffff16815260200191505060405180910390f35b6106b761164f565b6040518082815260200191505060405180910390f35b6106d561166e565b604051808273ffffffffffffffffffffffffffffffffffffffff16815260200191505060405180910390f35b610709611694565b6040518080602001828103825283818151815260200191508051906020019080838360005b8381101561074957808201518184015260208101905061072e565b50505050905090810190601f1680156107765780820380516001836020036101000a031916815260200191505b509250505060405180910390f35b6107ba6004803603604081101561079a57600080fd5b810190808035906020019092919080359060200190929190505050611736565b6040518082815260200191505060405180910390f35b610812600480360360208110156107e657600080fd5b81019080803573ffffffffffffffffffffffffffffffffffffffff16906020019092919050505061183c565b005b6108566004803603602081101561082a57600080fd5b81019080803573ffffffffffffffffffffffffffffffffffffffff169060200190929190505050611961565b005b6108a46004803603604081101561086e57600080fd5b81019080803573ffffffffffffffffffffffffffffffffffffffff16906020019092919080359060200190929190505050611ab1565b60405180821515815260200191505060405180910390f35b6108c4611acf565b604051808273ffffffffffffffffffffffffffffffffffffffff16815260200191505060405180910390f35b61093c6004803603604081101561090657600080fd5b81019080803573ffffffffffffffffffffffffffffffffffffffff16906020019092919080359060200190929190505050611af5565b005b610946611cea565b6040518082815260200191505060405180910390f35b610964611d12565b6040518082815260200191505060405180910390f35b610982611d1a565b6040518082815260200191505060405180910390f35b6109c4600480360360208110156109ae57600080fd5b8101908080359060200190929190505050611d60565b005b610a08600480360360208110156109dc57600080fd5b81019080803573ffffffffffffffffffffffffffffffffffffffff169060200190929190505050611e34565b005b610a6c60048036036040811015610a2057600080fd5b81019080803573ffffffffffffffffffffffffffffffffffffffff169060200190929190803573ffffffffffffffffffffffffffffffffffffffff169060200190929190505050611f84565b6040518082815260200191505060405180910390f35b610ac460048036036020811015610a9857600080fd5b81019080803573ffffffffffffffffffffffffffffffffffffffff16906020019092919050505061200b565b005b610b1260048036036040811015610adc57600080fd5b81019080803573ffffffffffffffffffffffffffffffffffffffff1690602001909291908035906020019092919050505061215b565b005b610b1c612350565b6040518082815260200191505060405180910390f35b610b3a612396565b6040518082815260200191505060405180910390f35b6000600960008373ffffffffffffffffffffffffffffffffffffffff1673ffffffffffffffffffffffffffffffffffffffff168152602001908152602001600020549050919050565b606060138054600181600116156101000203166002900480601f016020809104026020016040519081016040528092919081815260200182805460018160011615610100020316600290048015610c315780601f10610c0657610100808354040283529160200191610c31565b820191906000526020600020905b815481529060010190602001808311610c1457829003601f168201915b5050505050905090565b6000600c60009054906101000a900473ffffffffffffffffffffffffffffffffffffffff1673ffffffffffffffffffffffffffffffffffffffff16610c7e612767565b73ffffffffffffffffffffffffffffffffffffffff1614610d07576040517f08c379a000000000000000000000000000000000000000000000000000000000815260040180806020018281038252601c8152602001807f47524953453a204f7065726174696f6e206e6f7420616c6c6f7765640000000081525060200191505060405180910390fd5b60008390505b82811015610d8357610d726007600083815260200190815260200160002054610d64670de0b6b3a764000067ffffffffffffffff16600560008681526020019081526020016000205461276f90919063ffffffff16565b6127b490919063ffffffff16565b820191508080600101915050610d0d565b5092915050565b6000610d9e610d97612767565b84846127e0565b6001905092915050565b6000601654905090565b600c60009054906101000a900473ffffffffffffffffffffffffffffffffffffffff1681565b6000610e8184610de6612767565b610e7c85600a60008a73ffffffffffffffffffffffffffffffffffffffff1673ffffffffffffffffffffffffffffffffffffffff1681526020019081526020016000206000610e33612767565b73ffffffffffffffffffffffffffffffffffffffff1673ffffffffffffffffffffffffffffffffffffffff1681526020019081526020016000205461293f90919063ffffffff16565b6127e0565b610e8c84848461295f565b600190509392505050565b6000601560009054906101000a900460ff16905090565b600c60009054906101000a900473ffffffffffffffffffffffffffffffffffffffff1673ffffffffffffffffffffffffffffffffffffffff16610eef612767565b73ffffffffffffffffffffffffffffffffffffffff1614610f78576040517f08c379a000000000000000000000000000000000000000000000000000000000815260040180806020018281038252601c8152602001807f47524953453a204f7065726174696f6e206e6f7420616c6c6f7765640000000081525060200191505060405180910390fd5b6000600860008373ffffffffffffffffffffffffffffffffffffffff1673ffffffffffffffffffffffffffffffffffffffff16815260200190815260200160002060006101000a81548160ff02191690831515021790555050565b60026020528060005260406000206000915090505481565b600080610ff6611d1a565b9050600061100a611005612767565b6114d2565b11611060576040517f08c379a000000000000000000000000000000000000000000000000000000000815260040180806020018281038252603b81526020018061343a603b913960400191505060405180910390fd5b6006600061106c612767565b73ffffffffffffffffffffffffffffffffffffffff1673ffffffffffffffffffffffffffffffffffffffff16815260200190815260200160002060006110b183612f4a565b815260200190815260200160002060009054906101000a900460ff16806110e757506110db61164f565b6110e482612f4a565b14155b156110f55760009150611218565b600080611112600763ffffffff1684612f6490919063ffffffff16565b1161113657611131600763ffffffff168361293f90919063ffffffff16565b611163565b611162611153600763ffffffff1684612f6490919063ffffffff16565b8361293f90919063ffffffff16565b5b905060008190505b828110156112155761120460076000838152602001908152602001600020546111f660096000611199612767565b73ffffffffffffffffffffffffffffffffffffffff1673ffffffffffffffffffffffffffffffffffffffff16815260200190815260200160002054600560008681526020019081526020016000205461276f90919063ffffffff16565b6127b490919063ffffffff16565b84019350808060010191505061116b565b50505b5090565b611224612767565b73ffffffffffffffffffffffffffffffffffffffff16600f60009054906101000a900473ffffffffffffffffffffffffffffffffffffffff1673ffffffffffffffffffffffffffffffffffffffff16146112e6576040517f08c379a000000000000000000000000000000000000000000000000000000000815260040180806020018281038252601c8152602001807f47524953453a204f7065726174696f6e206e6f7420616c6c6f7765640000000081525060200191505060405180910390fd5b80600b60006101000a81548173ffffffffffffffffffffffffffffffffffffffff021916908373ffffffffffffffffffffffffffffffffffffffff1602179055506000600f60006101000a81548173ffffffffffffffffffffffffffffffffffffffff021916908373ffffffffffffffffffffffffffffffffffffffff16021790555050565b6000600c60009054906101000a900473ffffffffffffffffffffffffffffffffffffffff1673ffffffffffffffffffffffffffffffffffffffff166113af612767565b73ffffffffffffffffffffffffffffffffffffffff1614611438576040517f08c379a000000000000000000000000000000000000000000000000000000000815260040180806020018281038252601c8152602001807f47524953453a204f7065726174696f6e206e6f7420616c6c6f7765640000000081525060200191505060405180910390fd5b60008390505b8281101561146b57600360008281526020019081526020016000205482019150808060010191505061143e565b5092915050565b600080611496600763ffffffff16611488611d1a565b612f6490919063ffffffff16565b116114a25760006114cd565b6114c3600763ffffffff166114b5611d1a565b612f6490919063ffffffff16565b600763ffffffff16035b905090565b6000600960008373ffffffffffffffffffffffffffffffffffffffff1673ffffffffffffffffffffffffffffffffffffffff168152602001908152602001600020549050919050565b600c60009054906101000a900473ffffffffffffffffffffffffffffffffffffffff1673ffffffffffffffffffffffffffffffffffffffff1661155c612767565b73ffffffffffffffffffffffffffffffffffffffff16146115e5576040517f08c379a000000000000000000000000000000000000000000000000000000000815260040180806020018281038252601c8152602001807f47524953453a204f7065726174696f6e206e6f7420616c6c6f7765640000000081525060200191505060405180910390fd5b806000819055506116086000546115fa610da8565b612f8590919063ffffffff16565b60076000611614611d1a565b81526020019081526020016000208190555050565b600d60009054906101000a900473ffffffffffffffffffffffffffffffffffffffff1681565b6000600763ffffffff16611661611d1a565b8161166857fe5b04905090565b600e60009054906101000a900473ffffffffffffffffffffffffffffffffffffffff1681565b606060148054600181600116156101000203166002900480601f01602080910402602001604051908101604052809291908181526020018280546001816001161561010002031660029004801561172c5780601f106117015761010080835404028352916020019161172c565b820191906000526020600020905b81548152906001019060200180831161170f57829003601f168201915b5050505050905090565b6000600c60009054906101000a900473ffffffffffffffffffffffffffffffffffffffff1673ffffffffffffffffffffffffffffffffffffffff16611779612767565b73ffffffffffffffffffffffffffffffffffffffff1614611802576040517f08c379a000000000000000000000000000000000000000000000000000000000815260040180806020018281038252601c8152602001807f47524953453a204f7065726174696f6e206e6f7420616c6c6f7765640000000081525060200191505060405180910390fd5b60008390505b82811015611835576004600082815260200190815260200160002054820191508080600101915050611808565b5092915050565b600c60009054906101000a900473ffffffffffffffffffffffffffffffffffffffff1673ffffffffffffffffffffffffffffffffffffffff1661187d612767565b73ffffffffffffffffffffffffffffffffffffffff1614611906576040517f08c379a000000000000000000000000000000000000000000000000000000000815260040180806020018281038252601c8152602001807f47524953453a204f7065726174696f6e206e6f7420616c6c6f7765640000000081525060200191505060405180910390fd5b6001600860008373ffffffffffffffffffffffffffffffffffffffff1673ffffffffffffffffffffffffffffffffffffffff16815260200190815260200160002060006101000a81548160ff02191690831515021790555050565b611969612767565b73ffffffffffffffffffffffffffffffffffffffff16601060009054906101000a900473ffffffffffffffffffffffffffffffffffffffff1673ffffffffffffffffffffffffffffffffffffffff1614611a2b576040517f08c379a000000000000000000000000000000000000000000000000000000000815260040180806020018281038252601c8152602001807f47524953453a204f7065726174696f6e206e6f7420616c6c6f7765640000000081525060200191505060405180910390fd5b80600c60006101000a81548173ffffffffffffffffffffffffffffffffffffffff021916908373ffffffffffffffffffffffffffffffffffffffff1602179055506000601060006101000a81548173ffffffffffffffffffffffffffffffffffffffff021916908373ffffffffffffffffffffffffffffffffffffffff16021790555050565b6000611ac5611abe612767565b848461295f565b6001905092915050565b600b60009054906101000a900473ffffffffffffffffffffffffffffffffffffffff1681565b600b60009054906101000a900473ffffffffffffffffffffffffffffffffffffffff1673ffffffffffffffffffffffffffffffffffffffff16611b36612767565b73ffffffffffffffffffffffffffffffffffffffff161480611bac5750600c60009054906101000a900473ffffffffffffffffffffffffffffffffffffffff1673ffffffffffffffffffffffffffffffffffffffff16611b94612767565b73ffffffffffffffffffffffffffffffffffffffff16145b80611c0b5750600d60009054906101000a900473ffffffffffffffffffffffffffffffffffffffff1673ffffffffffffffffffffffffffffffffffffffff16611bf3612767565b73ffffffffffffffffffffffffffffffffffffffff16145b80611c6a5750600e60009054906101000a900473ffffffffffffffffffffffffffffffffffffffff1673ffffffffffffffffffffffffffffffffffffffff16611c52612767565b73ffffffffffffffffffffffffffffffffffffffff16145b611cdc576040517f08c379a000000000000000000000000000000000000000000000000000000000815260040180806020018281038252601c8152602001807f47524953453a204f7065726174696f6e206e6f7420616c6c6f7765640000000081525060200191505060405180910390fd5b611ce68282612fa4565b5050565b60007f0000000000000000000000000000000000000000000000000000000000000000905090565b600042905090565b60007f0000000000000000000000000000000000000000000000000000000000000000611d4561312d565b1015611d52576000611d5b565b611d5a613135565b5b905090565b600c60009054906101000a900473ffffffffffffffffffffffffffffffffffffffff1673ffffffffffffffffffffffffffffffffffffffff16611da1612767565b73ffffffffffffffffffffffffffffffffffffffff1614611e2a576040517f08c379a000000000000000000000000000000000000000000000000000000000815260040180806020018281038252601c8152602001807f47524953453a204f7065726174696f6e206e6f7420616c6c6f7765640000000081525060200191505060405180910390fd5b8060018190555050565b611e3c612767565b73ffffffffffffffffffffffffffffffffffffffff16601160009054906101000a900473ffffffffffffffffffffffffffffffffffffffff1673ffffffffffffffffffffffffffffffffffffffff1614611efe576040517f08c379a000000000000000000000000000000000000000000000000000000000815260040180806020018281038252601c8152602001807f47524953453a204f7065726174696f6e206e6f7420616c6c6f7765640000000081525060200191505060405180910390fd5b80600d60006101000a81548173ffffffffffffffffffffffffffffffffffffffff021916908373ffffffffffffffffffffffffffffffffffffffff1602179055506000601160006101000a81548173ffffffffffffffffffffffffffffffffffffffff021916908373ffffffffffffffffffffffffffffffffffffffff16021790555050565b6000600a60008473ffffffffffffffffffffffffffffffffffffffff1673ffffffffffffffffffffffffffffffffffffffff16815260200190815260200160002060008373ffffffffffffffffffffffffffffffffffffffff1673ffffffffffffffffffffffffffffffffffffffff16815260200190815260200160002054905092915050565b612013612767565b73ffffffffffffffffffffffffffffffffffffffff16601260009054906101000a900473ffffffffffffffffffffffffffffffffffffffff1673ffffffffffffffffffffffffffffffffffffffff16146120d5576040517f08c379a000000000000000000000000000000000000000000000000000000000815260040180806020018281038252601c8152602001807f47524953453a204f7065726174696f6e206e6f7420616c6c6f7765640000000081525060200191505060405180910390fd5b80600e60006101000a81548173ffffffffffffffffffffffffffffffffffffffff021916908373ffffffffffffffffffffffffffffffffffffffff1602179055506000601260006101000a81548173ffffffffffffffffffffffffffffffffffffffff021916908373ffffffffffffffffffffffffffffffffffffffff16021790555050565b600b60009054906101000a900473ffffffffffffffffffffffffffffffffffffffff1673ffffffffffffffffffffffffffffffffffffffff1661219c612767565b73ffffffffffffffffffffffffffffffffffffffff1614806122125750600c60009054906101000a900473ffffffffffffffffffffffffffffffffffffffff1673ffffffffffffffffffffffffffffffffffffffff166121fa612767565b73ffffffffffffffffffffffffffffffffffffffff16145b806122715750600d60009054906101000a900473ffffffffffffffffffffffffffffffffffffffff1673ffffffffffffffffffffffffffffffffffffffff16612259612767565b73ffffffffffffffffffffffffffffffffffffffff16145b806122d05750600e60009054906101000a900473ffffffffffffffffffffffffffffffffffffffff1673ffffffffffffffffffffffffffffffffffffffff166122b8612767565b73ffffffffffffffffffffffffffffffffffffffff16145b612342576040517f08c379a000000000000000000000000000000000000000000000000000000000815260040180806020018281038252601c8152602001807f47524953453a204f7065726174696f6e206e6f7420616c6c6f7765640000000081525060200191505060405180910390fd5b61234c828261314c565b5050565b60007f000000000000000000000000000000000000000000000000000000000000000061237b61312d565b1015612388576000612391565b6123906132da565b5b905090565b6000806123a1611d1a565b905060006123b56123b0612767565b6114d2565b1161240b576040517f08c379a000000000000000000000000000000000000000000000000000000000815260040180806020018281038252603b81526020018061343a603b913960400191505060405180910390fd5b600061242e600763ffffffff16612420611d1a565b612f6490919063ffffffff16565b14612484576040517f08c379a00000000000000000000000000000000000000000000000000000000081526004018080602001828103825260328152602001806134756032913960400191505060405180910390fd5b61248c61164f565b61249582612f4a565b146124eb576040517f08c379a000000000000000000000000000000000000000000000000000000000815260040180806020018281038252602a815260200180613410602a913960400191505060405180910390fd5b600660006124f7612767565b73ffffffffffffffffffffffffffffffffffffffff1673ffffffffffffffffffffffffffffffffffffffff168152602001908152602001600020600061253b61164f565b815260200190815260200160002060009054906101000a900460ff16156125ad576040517f08c379a00000000000000000000000000000000000000000000000000000000081526004018080602001828103825260328152602001806133de6032913960400191505060405180910390fd5b60006125c9600763ffffffff168361293f90919063ffffffff16565b90505b81811015612676576126656007600083815260200190815260200160002054612657600960006125fa612767565b73ffffffffffffffffffffffffffffffffffffffff1673ffffffffffffffffffffffffffffffffffffffff16815260200190815260200160002054600560008681526020019081526020016000205461276f90919063ffffffff16565b6127b490919063ffffffff16565b8301925080806001019150506125cc565b50612688612682612767565b8361314c565b600160066000612696612767565b73ffffffffffffffffffffffffffffffffffffffff1673ffffffffffffffffffffffffffffffffffffffff16815260200190815260200160002060006126da61164f565b815260200190815260200160002060006101000a81548160ff021916908315150217905550612707612767565b73ffffffffffffffffffffffffffffffffffffffff167f311a233fc02c36f3725ecba64fab4ba466b3d199fa2b41121a1a0840671416e661274661164f565b84604051808381526020018281526020019250505060405180910390a25090565b600033905090565b60008083148061277f5750600082145b1561278d57600090506127ae565b600082840290508284828161279e57fe5b04146127a957600080fd5b809150505b92915050565b6000808214156127c757600090506127da565b60008284816127d257fe5b049050809150505b92915050565b600073ffffffffffffffffffffffffffffffffffffffff168373ffffffffffffffffffffffffffffffffffffffff16141561281a57600080fd5b600073ffffffffffffffffffffffffffffffffffffffff168273ffffffffffffffffffffffffffffffffffffffff16141561285457600080fd5b80600a60008573ffffffffffffffffffffffffffffffffffffffff1673ffffffffffffffffffffffffffffffffffffffff16815260200190815260200160002060008473ffffffffffffffffffffffffffffffffffffffff1673ffffffffffffffffffffffffffffffffffffffff168152602001908152602001600020819055508173ffffffffffffffffffffffffffffffffffffffff168373ffffffffffffffffffffffffffffffffffffffff167f8c5be1e5ebec7d5bd14f71427d1e84f3dd0314c0f7b2291e5b200ac8c7c3b925836040518082815260200191505060405180910390a3505050565b60008282111561294e57600080fd5b600082840390508091505092915050565b600073ffffffffffffffffffffffffffffffffffffffff168373ffffffffffffffffffffffffffffffffffffffff16141561299957600080fd5b600073ffffffffffffffffffffffffffffffffffffffff168273ffffffffffffffffffffffffffffffffffffffff1614156129d357600080fd5b6000806000806129e1613135565b9050600860008873ffffffffffffffffffffffffffffffffffffffff1673ffffffffffffffffffffffffffffffffffffffff16815260200190815260200160002060009054906101000a900460ff16612c1f57612a3d856132f1565b9350612a65846002600084815260200190815260200160002054612f8590919063ffffffff16565b6002600083815260200190815260200160002081905550612ae6612ac4600154612ab661271061ffff16612aa8610c2b61ffff168a61276f90919063ffffffff16565b6127b490919063ffffffff16565b6127b490919063ffffffff16565b6003600084815260200190815260200160002054612f8590919063ffffffff16565b6003600083815260200190815260200160002081905550612b67612b45600154612b3761271061ffff16612b2961066161ffff168a61276f90919063ffffffff16565b6127b490919063ffffffff16565b6127b490919063ffffffff16565b6004600084815260200190815260200160002054612f8590919063ffffffff16565b6004600083815260200190815260200160002081905550612bd4612bb261271061ffff16612ba4610a3461ffff168861276f90919063ffffffff16565b6127b490919063ffffffff16565b6005600084815260200190815260200160002054612f8590919063ffffffff16565b6005600083815260200190815260200160002081905550612c1c61271061ffff16612c0e61059761ffff168761276f90919063ffffffff16565b6127b490919063ffffffff16565b91505b612c288561332b565b9250612c7c85600960008a73ffffffffffffffffffffffffffffffffffffffff1673ffffffffffffffffffffffffffffffffffffffff1681526020019081526020016000205461293f90919063ffffffff16565b600960008973ffffffffffffffffffffffffffffffffffffffff1673ffffffffffffffffffffffffffffffffffffffff16815260200190815260200160002081905550612d35612ce785612cd9868961293f90919063ffffffff16565b61293f90919063ffffffff16565b600960008973ffffffffffffffffffffffffffffffffffffffff1673ffffffffffffffffffffffffffffffffffffffff16815260200190815260200160002054612f8590919063ffffffff16565b600960008873ffffffffffffffffffffffffffffffffffffffff1673ffffffffffffffffffffffffffffffffffffffff16815260200190815260200160002081905550612da961271061ffff16612d9b61068361ffff168661276f90919063ffffffff16565b6127b490919063ffffffff16565b82019150612e138260096000737ff1f8c467114bfbbcc56e406c0ec21e781bb95973ffffffffffffffffffffffffffffffffffffffff1673ffffffffffffffffffffffffffffffffffffffff16815260200190815260200160002054612f8590919063ffffffff16565b60096000737ff1f8c467114bfbbcc56e406c0ec21e781bb95973ffffffffffffffffffffffffffffffffffffffff1673ffffffffffffffffffffffffffffffffffffffff16815260200190815260200160002081905550612ea3612e9283612e848688612f8590919063ffffffff16565b61293f90919063ffffffff16565b60165461293f90919063ffffffff16565b601681905550612ec5600054612eb7610da8565b612f8590919063ffffffff16565b60076000838152602001908152602001600020819055508573ffffffffffffffffffffffffffffffffffffffff168773ffffffffffffffffffffffffffffffffffffffff167fddf252ad1be2c89b69c2b068fc378daa952ba7f163c4a11628f55a4df523b3ef876040518082815260200191505060405180910390a350505050505050565b6000600763ffffffff168281612f5c57fe5b049050919050565b600080821415612f7357600080fd5b818381612f7c57fe5b06905092915050565b600080828401905083811015612f9a57600080fd5b8091505092915050565b600073ffffffffffffffffffffffffffffffffffffffff168273ffffffffffffffffffffffffffffffffffffffff161415612fde57600080fd5b61303081600960008573ffffffffffffffffffffffffffffffffffffffff1673ffffffffffffffffffffffffffffffffffffffff1681526020019081526020016000205461293f90919063ffffffff16565b600960008473ffffffffffffffffffffffffffffffffffffffff1673ffffffffffffffffffffffffffffffffffffffff168152602001908152602001600020819055506130888160165461293f90919063ffffffff16565b6016819055506130a5600054601654612f8590919063ffffffff16565b600760006130b1611d1a565b815260200190815260200160002081905550600073ffffffffffffffffffffffffffffffffffffffff168273ffffffffffffffffffffffffffffffffffffffff167fddf252ad1be2c89b69c2b068fc378daa952ba7f163c4a11628f55a4df523b3ef836040518082815260200191505060405180910390a35050565b600042905090565b600061314761314261312d565b613364565b905090565b600073ffffffffffffffffffffffffffffffffffffffff168273ffffffffffffffffffffffffffffffffffffffff16141561318657600080fd5b61319b81601654612f8590919063ffffffff16565b6016819055506131f381600960008573ffffffffffffffffffffffffffffffffffffffff1673ffffffffffffffffffffffffffffffffffffffff16815260200190815260200160002054612f8590919063ffffffff16565b600960008473ffffffffffffffffffffffffffffffffffffffff1673ffffffffffffffffffffffffffffffffffffffff16815260200190815260200160002081905550613252600054613244610da8565b612f8590919063ffffffff16565b6007600061325e611d1a565b8152602001908152602001600020819055508173ffffffffffffffffffffffffffffffffffffffff16600073ffffffffffffffffffffffffffffffffffffffff167fddf252ad1be2c89b69c2b068fc378daa952ba7f163c4a11628f55a4df523b3ef836040518082815260200191505060405180910390a35050565b60006132ec6132e761312d565b6133a0565b905090565b600061332461271061ffff1661331661015b61ffff168561276f90919063ffffffff16565b6127b490919063ffffffff16565b9050919050565b600061335d61271061ffff1661334f601e61ffff168561276f90919063ffffffff16565b6127b490919063ffffffff16565b9050919050565b600060b463ffffffff167f000000000000000000000000000000000000000000000000000000000000000083038161339857fe5b049050919050565b600061384063ffffffff167f00000000000000000000000000000000000000000000000000000000000000008303816133d557fe5b04905091905056fe4752495345202d205472616e73636174696f6e2052657761726420697320616c7265616479206265656e20636c61696d65644752495345202d20596f7520617265206c6174652f6561726c7920746f20636c61696d207265776172644752495345202d20546f6b656e20686f6c64657220646f65736e6f7420656e6f7567682062616c616e636520746f20636c61696d207265776172644752495345202d205472616e73636174696f6e205265776172642077696e646f77206973206e6f742079656174206f70656ea26469706673582212201c2376017d47451c0bc4379b8f0b71518b1d8ec1db783e6440b17e204ce5e79b64736f6c63430007060033",
  "immutableReferences": {
    "89": [
      {
        "length": 32,
        "start": 7406
      },
      {
        "length": 32,
        "start": 7454
      },
      {
        "length": 32,
        "start": 9044
      },
      {
        "length": 32,
        "start": 13168
      },
      {
        "length": 32,
        "start": 13229
      }
    ]
  },
  "source": "// SPDX-License-Identifier: ----\r\n\r\npragma solidity =0.7.6;\r\n\r\nimport \"./Utils.sol\";\r\n\r\ncontract GriseToken is Utils {\r\n\r\n    using SafeMath for uint256;\r\n\r\n    mapping (address => uint256) private _balances;\r\n    mapping (address => mapping (address => uint256)) private _allowances;\r\n\r\n    address public LIQUIDITY_GATEKEEPER;\r\n    address public STAKE_GATEKEEPER;\r\n    address public VAULT_GATEKEEPER;\r\n    address public TOKENMATRIX_GATEKEEPER;\r\n\r\n    address private liquidtyGateKeeper;\r\n    address private stakeGateKeeper;\r\n    address private vaultGateKeeper;\r\n    address private tokenMatrixGateKeeper;\r\n\r\n    /**\r\n     * @dev initial private\r\n     */\r\n    string private _name;\r\n    string private _symbol;\r\n    uint8 private _decimal = 18;\r\n\r\n    /**\r\n     * @dev  Initial supply \r\n     */\r\n    uint256 private _totalSupply = 0;\r\n\r\n    event Transfer(\r\n        address indexed from,\r\n        address indexed to,\r\n        uint256 value\r\n    );\r\n\r\n    event Approval(\r\n        address indexed owner,\r\n        address indexed spender,\r\n        uint256 value\r\n    );\r\n\r\n    constructor (string memory tokenName, string memory tokenSymbol) {\r\n        _name = tokenName;\r\n        _symbol = tokenSymbol;\r\n        liquidtyGateKeeper = _msgSender();\r\n        stakeGateKeeper = _msgSender();\r\n        vaultGateKeeper = _msgSender();\r\n        tokenMatrixGateKeeper = _msgSender();\r\n    }\r\n\r\n    /**\r\n     * @dev Returns the name of the token.\r\n     */\r\n    function name() public view returns (string memory) {\r\n        return _name;\r\n    }\r\n\r\n    /**\r\n     * @dev Returns the symbol of the token.\r\n     */\r\n    function symbol() public view returns (string memory) {\r\n        return _symbol;\r\n    }\r\n\r\n    /**\r\n     * @dev Returns the decimals of the token.\r\n     */\r\n    function decimals() public view returns (uint8) {\r\n        return _decimal;\r\n    }\r\n\r\n    /**\r\n     * @dev Returns the total supply of the token.\r\n     */\r\n    function totalSupply() public view returns (uint256) {\r\n        return _totalSupply;\r\n    }\r\n\r\n    /**\r\n     * @dev Returns the token balance of specific address.\r\n     */\r\n    function balanceOf(address account) public view returns (uint256) {\r\n        return _balances[account];\r\n    }\r\n\r\n    function transfer(\r\n        address recipient,\r\n        uint256 amount\r\n    )\r\n        public\r\n        returns (bool)\r\n    {\r\n        // amount = amount.mul(TEMP_PRECISION); // VIJAY\r\n        \r\n        _transfer(\r\n            _msgSender(),\r\n            recipient,\r\n            amount\r\n        );\r\n\r\n        return true;\r\n    }\r\n\r\n    /**\r\n     * @dev Returns approved balance to be spent by another address\r\n     * by using transferFrom method\r\n     */\r\n    function allowance(\r\n        address owner,\r\n        address spender\r\n    )\r\n        public\r\n        view\r\n        returns (uint256)\r\n    {\r\n        return _allowances[owner][spender];\r\n    }\r\n\r\n    /**\r\n     * @dev Sets the token allowance to another spender\r\n     */\r\n    function approve(\r\n        address spender,\r\n        uint256 amount\r\n    )\r\n        public\r\n        returns (bool)\r\n    {\r\n        _approve(\r\n            _msgSender(),\r\n            spender,\r\n            amount\r\n        );\r\n\r\n        return true;\r\n    }\r\n\r\n    /**\r\n     * @dev Allows to transfer tokens on senders behalf\r\n     * based on allowance approved for the executer\r\n     */\r\n    function transferFrom(\r\n        address sender,\r\n        address recipient,\r\n        uint256 amount\r\n    )\r\n        public\r\n        returns (bool)\r\n    {\r\n        // amount = amount.mul(TEMP_PRECISION); // VIJAY\r\n        \r\n        _approve(sender,\r\n            _msgSender(), _allowances[sender][_msgSender()].sub(\r\n                amount\r\n            )\r\n        );\r\n\r\n        _transfer(\r\n            sender,\r\n            recipient,\r\n            amount\r\n        );\r\n        return true;\r\n    }\r\n\r\n    /**\r\n     * @dev Moves tokens `amount` from `sender` to `recipient`.\r\n     *\r\n     * Emits a {Transfer} event.\r\n     * Requirements:\r\n     *\r\n     * - `sender` cannot be the zero address.\r\n     * - `recipient` cannot be the zero address.\r\n     * - `sender` must have a balance of at least `amount`.\r\n     */\r\n    function _transfer(\r\n        address sender,\r\n        address recipient,\r\n        uint256 amount\r\n    )\r\n        internal\r\n        virtual\r\n    {\r\n        require(\r\n            sender != address(0x0)\r\n        );\r\n\r\n        require(\r\n            recipient != address(0x0)\r\n        );\r\n\r\n        uint256 stFee;\r\n        uint256 btFee;\r\n        uint256 teamReward;\r\n        uint256 currentGriseDay = _currentGriseDay();\r\n\r\n        if (!isStaker[sender]) {\r\n            stFee = _calculateSellTranscFee(amount);\r\n\r\n            sellTranscFee[currentGriseDay] = \r\n            sellTranscFee[currentGriseDay]\r\n                        .add(stFee);\r\n                \r\n            reservoirRewardPerShare[currentGriseDay] = \r\n            reservoirRewardPerShare[currentGriseDay]\r\n                        .add(stFee.mul(TRANSC_RESERVOIR_REWARD)\r\n                        .div(REWARD_PRECISION_RATE)\r\n                        .div(mediumTermShares));\r\n                \r\n            stakerRewardPerShare[currentGriseDay] = \r\n            stakerRewardPerShare[currentGriseDay]\r\n                        .add(stFee.mul(TRANSC_STAKER_REWARD)\r\n                        .div(REWARD_PRECISION_RATE)\r\n                        .div(mediumTermShares));\r\n                \r\n            tokenHolderReward[currentGriseDay] = \r\n            tokenHolderReward[currentGriseDay]\r\n                        .add(stFee.mul(TRANSC_TOKEN_HOLDER_REWARD)\r\n                        .div(REWARD_PRECISION_RATE));\r\n            \r\n            teamReward = stFee.mul(TEAM_SELL_TRANSC_REWARD)\r\n                              .div(REWARD_PRECISION_RATE);\r\n        }\r\n\r\n        btFee = _calculateBuyTranscFee(amount);\r\n        \r\n        _balances[sender] =\r\n        _balances[sender].sub(amount);\r\n\r\n        _balances[recipient] =\r\n        _balances[recipient].add(amount.sub(btFee).sub(stFee));\r\n\r\n        teamReward += btFee.mul(TEAM_BUY_TRANS_REWARD)\r\n                           .div(REWARD_PRECISION_RATE);\r\n        \r\n        _balances[TEAM_ADDRESS] = \r\n        _balances[TEAM_ADDRESS].add(teamReward);\r\n\r\n        // Burn Transction fee\r\n        // We will mint token when user comes\r\n        // to claim transction fee reward.\r\n        _totalSupply =\r\n        _totalSupply.sub(stFee.add(btFee).sub(teamReward));\r\n\r\n        totalToken[currentGriseDay] = totalSupply().add(stakedToken);\r\n        \r\n        emit Transfer(\r\n            sender,\r\n            recipient,\r\n            amount\r\n        );\r\n    }\r\n\r\n    /** @dev Creates `amount` tokens and assigns them to `account`, increasing\r\n     * the total supply.\r\n     *\r\n     * Emits a {Transfer} event with `from` set to the zero address.\r\n     * Requirements:\r\n     *\r\n     * - `to` cannot be the zero address.\r\n     */\r\n    function _mint(\r\n        address account,\r\n        uint256 amount\r\n    )\r\n        internal\r\n        virtual\r\n    {\r\n        require(\r\n            account != address(0x0)\r\n        );\r\n        \r\n        _totalSupply =\r\n        _totalSupply.add(amount);\r\n\r\n        _balances[account] =\r\n        _balances[account].add(amount);\r\n\r\n        totalToken[currentGriseDay()] = totalSupply().add(stakedToken);\r\n        \r\n        emit Transfer(\r\n            address(0x0),\r\n            account,\r\n            amount\r\n        );\r\n    }\r\n\r\n    /**\r\n     * @dev Destroys `amount` tokens from `account`, reducing the\r\n     * total supply.\r\n     *\r\n     * Emits a {Transfer} event with `to` set to the zero address.\r\n     *\r\n     * Requirements:\r\n\r\n     *\r\n     * - `account` cannot be the zero address.\r\n     * - `account` must have at least `amount` tokens.\r\n     */\r\n    function _burn(\r\n        address account,\r\n        uint256 amount\r\n    )\r\n        internal\r\n        virtual\r\n    {\r\n        require(\r\n            account != address(0x0)\r\n        );\r\n\r\n        //amount = amount.mul(TEMP_PRECISION); //VIJAY\r\n        \r\n        _balances[account] =\r\n        _balances[account].sub(amount);\r\n\r\n        _totalSupply =\r\n        _totalSupply.sub(amount);\r\n\r\n        totalToken[currentGriseDay()] = _totalSupply.add(stakedToken);\r\n        \r\n        emit Transfer(\r\n            account,\r\n            address(0x0),\r\n            amount\r\n        );\r\n    }\r\n\r\n    /**\r\n     * @dev Sets `amount` as the allowance of `spender` over the `owner`s tokens.\r\n     * Emits an {Approval} event.\r\n     *\r\n     * Requirements:\r\n     *\r\n     * - `owner` cannot be the zero address.\r\n     * - `spender` cannot be the zero address.\r\n     */\r\n    function _approve(\r\n        address owner,\r\n        address spender,\r\n        uint256 amount\r\n    )\r\n        internal\r\n        virtual\r\n    {\r\n        require(\r\n            owner != address(0x0)\r\n        );\r\n\r\n        require(\r\n            spender != address(0x0)\r\n        );\r\n\r\n        _allowances[owner][spender] = amount;\r\n\r\n        emit Approval(\r\n            owner,\r\n            spender,\r\n            amount\r\n        );\r\n    }\r\n\r\n    /**\r\n     * @notice ability to define liquidity transformer contract\r\n     * @dev this method renounce liquidtyGateKeeper access\r\n     * @param _immutableGateKeeper contract address\r\n     */\r\n    function setLiquidtyGateKeeper(\r\n        address _immutableGateKeeper\r\n    )\r\n        external\r\n    {\r\n        require(\r\n            liquidtyGateKeeper == _msgSender(),\r\n            'GRISE: Operation not allowed'\r\n        );\r\n\r\n        LIQUIDITY_GATEKEEPER = _immutableGateKeeper;\r\n        liquidtyGateKeeper = address(0x0);\r\n    }\r\n\r\n    /**\r\n     * @notice ability to define Staker contract\r\n     * @dev this method renounce stakeGateKeeper access\r\n     * @param _immutableGateKeeper contract address\r\n     */\r\n    function setStakeGateKeeper(\r\n        address _immutableGateKeeper\r\n    )\r\n        external\r\n    {\r\n        require(\r\n            stakeGateKeeper == _msgSender(),\r\n            'GRISE: Operation not allowed'\r\n        );\r\n\r\n        STAKE_GATEKEEPER = _immutableGateKeeper;\r\n        stakeGateKeeper = address(0x0);\r\n    }\r\n\r\n    /**\r\n     * @notice ability to define vault contract\r\n     * @dev this method renounce vaultGateKeeper access\r\n     * @param _immutableGateKeeper contract address\r\n     */\r\n    function setVaultGateKeeper(\r\n        address _immutableGateKeeper\r\n    )\r\n        external\r\n    {\r\n        require(\r\n            vaultGateKeeper == _msgSender(),\r\n            'GRISE: Operation not allowed'\r\n        );\r\n\r\n        VAULT_GATEKEEPER = _immutableGateKeeper;\r\n        vaultGateKeeper = address(0x0);\r\n    }\r\n\r\n    /**\r\n     * @notice ability to define tokenMatrix contract\r\n     * @dev this method renounce tokenMatrixGateKeeper access\r\n     * @param _immutableGateKeeper contract address\r\n     */\r\n    function setTokenMatrixGateKeeper(\r\n        address _immutableGateKeeper\r\n    )\r\n        external\r\n    {\r\n        require(\r\n            tokenMatrixGateKeeper == _msgSender(),\r\n            'GRISE: Operation not allowed'\r\n        );\r\n\r\n        TOKENMATRIX_GATEKEEPER = _immutableGateKeeper;\r\n        tokenMatrixGateKeeper = address(0x0);\r\n    }\r\n\r\n    modifier interfaceValidator() {\r\n        require (\r\n            _msgSender() == LIQUIDITY_GATEKEEPER ||\r\n            _msgSender() == STAKE_GATEKEEPER ||\r\n            _msgSender() == VAULT_GATEKEEPER || \r\n            _msgSender() == TOKENMATRIX_GATEKEEPER,\r\n            'GRISE: Operation not allowed'\r\n        );\r\n        _;\r\n    }\r\n\r\n    /**\r\n     * @notice allows liquidityTransformer to mint supply\r\n     * @dev executed from liquidityTransformer upon UNISWAP transfer\r\n     * and during reservation payout to contributors and referrers\r\n     * @param _investorAddress address for minting GRISE tokens\r\n     * @param _amount of tokens to mint for _investorAddress\r\n     */\r\n    function mintSupply(\r\n        address _investorAddress,\r\n        uint256 _amount\r\n    )\r\n        external\r\n        interfaceValidator\r\n    {\r\n        // _amount = _amount.mul(TEMP_PRECISION); // VIJAY\r\n        \r\n        _mint(\r\n            _investorAddress,\r\n            _amount\r\n        );\r\n    }\r\n\r\n    /**\r\n     * @notice allows liquidityTransformer to mint supply\r\n     * @dev executed from liquidityTransformer upon UNISWAP transfer\r\n     * and during reservation payout to contributors and referrers\r\n     * @param _investorAddress address for minting GRISE tokens\r\n     * @param _amount of tokens to mint for _investorAddress\r\n     */\r\n    function burnSupply(\r\n        address _investorAddress,\r\n        uint256 _amount\r\n    )\r\n        external\r\n        interfaceValidator\r\n    {\r\n        _burn(\r\n            _investorAddress,\r\n            _amount\r\n        );\r\n    }\r\n\r\n    \r\n    function setStaker(address _staker) external {\r\n        \r\n        require(\r\n            _msgSender() == STAKE_GATEKEEPER,\r\n            'GRISE: Operation not allowed'\r\n        );\r\n        \r\n        isStaker[_staker] = true;\r\n    }\r\n    \r\n    function resetStaker(address _staker) external {\r\n        \r\n        require(\r\n            _msgSender() == STAKE_GATEKEEPER,\r\n            'GRISE: Operation not allowed'\r\n        );\r\n        \r\n        isStaker[_staker] = false;\r\n    }\r\n    \r\n    function viewTokenHolderTranscReward() external view returns (uint256 rewardAmount) {\r\n        \r\n        uint256 _day = currentGriseDay();\r\n        require( \r\n            balanceOf(_msgSender()) > 0,\r\n            'GRISE - Token holder doesnot enough balance to claim reward'\r\n        );\r\n        \r\n        if( isTranscFeeClaimed[_msgSender()][calculateGriseWeek(_day)] ||  \r\n            calculateGriseWeek(_day) != currentGriseWeek())\r\n        {\r\n            rewardAmount = 0;\r\n        }\r\n        else\r\n        {    \r\n            uint256 calculationDay = _day.mod(GRISE_WEEK) > 0 ? \r\n                                    _day.sub(_day.mod(GRISE_WEEK)) :\r\n                                    _day.sub(GRISE_WEEK);\r\n\r\n            for (uint256 day = calculationDay; day < _day; day++)\r\n            {\r\n                rewardAmount += tokenHolderReward[day]\r\n                                            .mul(_balances[_msgSender()])\r\n                                            .div(totalToken[day]);\r\n            }\r\n        }\r\n    }\r\n    \r\n    function claimTokenHolderTranscReward() external returns (uint256 rewardAmount){\r\n        \r\n        uint256 _day = currentGriseDay();\r\n        require( \r\n            balanceOf(_msgSender()) > 0,\r\n            'GRISE - Token holder doesnot enough balance to claim reward'\r\n        );\r\n        \r\n        require(\r\n            (currentGriseDay().mod(GRISE_WEEK)) == 0,\r\n            'GRISE - Transcation Reward window is not yeat open'\r\n        );\r\n        \r\n        require(\r\n            calculateGriseWeek(_day) == currentGriseWeek(),\r\n            'GRISE - You are late/early to claim reward'\r\n        );\r\n        \r\n        require( \r\n            !isTranscFeeClaimed[_msgSender()][currentGriseWeek()],\r\n            'GRISE - Transcation Reward is already been claimed'\r\n        );\r\n\r\n        for (uint256 day = _day.sub(GRISE_WEEK); day < _day; day++)\r\n        {\r\n            rewardAmount += tokenHolderReward[day]\r\n                                        .mul(_balances[_msgSender()])\r\n                                        .div(totalToken[day]);\r\n        }\r\n                                        \r\n        _mint(\r\n            _msgSender(),\r\n            rewardAmount\r\n        );\r\n        \r\n        isTranscFeeClaimed[_msgSender()][currentGriseWeek()] = true;\r\n\r\n        TranscFeeClaimed(_msgSender(), currentGriseWeek(), rewardAmount);\r\n    }\r\n        \r\n    function updateStakedToken(uint256 _stakedToken) external {\r\n        \r\n        require(\r\n            _msgSender() == STAKE_GATEKEEPER,\r\n            'GRISE: Operation not allowed'\r\n        );\r\n        \r\n        // _stakedToken = _stakedToken.mul(TEMP_PRECISION); // VIJAY\r\n        \r\n        stakedToken = _stakedToken;\r\n        totalToken[currentGriseDay()] = totalSupply().add(stakedToken);\r\n    }\r\n\r\n    function updateMedTermShares(uint256 _shares) external {\r\n        \r\n        require(\r\n            _msgSender() == STAKE_GATEKEEPER,\r\n            'GRISE: Operation not allowed'\r\n        );\r\n        \r\n        mediumTermShares = _shares;\r\n    }\r\n\r\n    function getEpocTime() external view returns (uint256){\r\n        return block.timestamp;\r\n    }\r\n\r\n    function getTransFeeReward(uint256 _fromDay, uint256 _toDay) \r\n                external view \r\n                returns (uint256 rewardAmount){\r\n\r\n        require(\r\n            _msgSender() == STAKE_GATEKEEPER,\r\n            'GRISE: Operation not allowed'\r\n        );\r\n\r\n        for(uint256 day = _fromDay; day < _toDay; day++)\r\n        {\r\n            rewardAmount += stakerRewardPerShare[day];\r\n        }\r\n    }\r\n\r\n    function getReservoirReward(uint256 _fromDay, uint256 _toDay) \r\n            external view \r\n            returns (uint256 rewardAmount){\r\n\r\n        require(\r\n            _msgSender() == STAKE_GATEKEEPER,\r\n            'GRISE: Operation not allowed'\r\n        );\r\n\r\n        for(uint256 day = _fromDay; day < _toDay; day++)\r\n        {\r\n            rewardAmount += reservoirRewardPerShare[day];\r\n        }\r\n    }\r\n\r\n    function getTokenHolderReward(uint256 _fromDay, uint256 _toDay) \r\n            external view \r\n            returns (uint256 rewardAmount){\r\n\r\n        require(\r\n            _msgSender() == STAKE_GATEKEEPER,\r\n            'GRISE: Operation not allowed'\r\n        );\r\n\r\n        for(uint256 day = _fromDay; day < _toDay; day++)\r\n        {\r\n            rewardAmount += tokenHolderReward[day]\r\n                            .mul(PRECISION_RATE)\r\n                            .div(totalToken[day]);\r\n        }\r\n    }\r\n\r\n    function timeToClaimWeeklyReward() public view returns (uint256 _days) {\r\n        _days = currentGriseDay().mod(GRISE_WEEK) > 0 ?\r\n                    GRISE_WEEK - currentGriseDay().mod(GRISE_WEEK) :\r\n                    0;\r\n    }\r\n\r\n    function balanceOfStaker(address account) external view returns (uint256) {\r\n        return _balances[account];\r\n    }\r\n\r\n    function getLaunchTime() external view returns (uint256) {\r\n        return LAUNCH_TIME;\r\n    }\r\n}",
  "sourcePath": "C:/Users/Dhaval/eth/grise/src/contracts/GriseToken.sol",
  "compiler": {
    "name": "solc",
    "version": "0.7.6+commit.7338295f.Emscripten.clang"
  },
  "schemaVersion": "3.3.3",
  "updatedAt": "2021-03-12T13:39:18.290Z",
  "networkType": "ethereum",
  "devdoc": {
    "kind": "dev",
    "methods": {
      "allowance(address,address)": {
        "details": "Returns approved balance to be spent by another address by using transferFrom method"
      },
      "approve(address,uint256)": {
        "details": "Sets the token allowance to another spender"
      },
      "balanceOf(address)": {
        "details": "Returns the token balance of specific address."
      },
      "burnSupply(address,uint256)": {
        "details": "executed from liquidityTransformer upon UNISWAP transfer and during reservation payout to contributors and referrers",
        "params": {
          "_amount": "of tokens to mint for _investorAddress",
          "_investorAddress": "address for minting GRISE tokens"
        }
      },
      "decimals()": {
        "details": "Returns the decimals of the token."
      },
      "mintSupply(address,uint256)": {
        "details": "executed from liquidityTransformer upon UNISWAP transfer and during reservation payout to contributors and referrers",
        "params": {
          "_amount": "of tokens to mint for _investorAddress",
          "_investorAddress": "address for minting GRISE tokens"
        }
      },
      "name()": {
        "details": "Returns the name of the token."
      },
      "setLiquidtyGateKeeper(address)": {
        "details": "this method renounce liquidtyGateKeeper access",
        "params": {
          "_immutableGateKeeper": "contract address"
        }
      },
      "setStakeGateKeeper(address)": {
        "details": "this method renounce stakeGateKeeper access",
        "params": {
          "_immutableGateKeeper": "contract address"
        }
      },
      "setTokenMatrixGateKeeper(address)": {
        "details": "this method renounce tokenMatrixGateKeeper access",
        "params": {
          "_immutableGateKeeper": "contract address"
        }
      },
      "setVaultGateKeeper(address)": {
        "details": "this method renounce vaultGateKeeper access",
        "params": {
          "_immutableGateKeeper": "contract address"
        }
      },
      "symbol()": {
        "details": "Returns the symbol of the token."
      },
      "totalSupply()": {
        "details": "Returns the total supply of the token."
      },
      "transferFrom(address,address,uint256)": {
        "details": "Allows to transfer tokens on senders behalf based on allowance approved for the executer"
      }
    },
    "stateVariables": {
      "_name": {
        "details": "initial private"
      },
      "_totalSupply": {
        "details": " Initial supply "
      }
    },
    "version": 1
  },
  "userdoc": {
    "kind": "user",
    "methods": {
      "burnSupply(address,uint256)": {
        "notice": "allows liquidityTransformer to mint supply"
      },
      "mintSupply(address,uint256)": {
        "notice": "allows liquidityTransformer to mint supply"
      },
      "setLiquidtyGateKeeper(address)": {
        "notice": "ability to define liquidity transformer contract"
      },
      "setStakeGateKeeper(address)": {
        "notice": "ability to define Staker contract"
      },
      "setTokenMatrixGateKeeper(address)": {
        "notice": "ability to define tokenMatrix contract"
      },
      "setVaultGateKeeper(address)": {
        "notice": "ability to define vault contract"
      }
    },
    "version": 1
  }
}