{
  "contractName": "Randomness",
  "abi": [
    {
      "inputs": [],
      "name": "stateRandomNumber",
      "outputs": [
        {
          "internalType": "uint256",
          "name": "",
          "type": "uint256"
        }
      ],
      "stateMutability": "nonpayable",
      "type": "function"
    }
  ],
  "bytecode": "0x608060405273031eae8a8105217ab64359d4361022d0947f45726000806101000a81548173ffffffffffffffffffffffffffffffffffffffff021916908373ffffffffffffffffffffffffffffffffffffffff16021790555034801561006457600080fd5b5061014f806100746000396000f3fe608060405234801561001057600080fd5b506004361061002b5760003560e01c8063387a461a14610030575b600080fd5b61003861004e565b6040518082815260200191505060405180910390f35b600080620186a061005d61006e565b8161006457fe5b0690508091505090565b60008060009054906101000a900473ffffffffffffffffffffffffffffffffffffffff1673ffffffffffffffffffffffffffffffffffffffff1663510fc61a6040518163ffffffff1660e01b8152600401602060405180830381600087803b1580156100d957600080fd5b505af11580156100ed573d6000803e3d6000fd5b505050506040513d602081101561010357600080fd5b810190808051906020019092919050505090509056fea26469706673582212209e6d948b5fae1f22f879a751807a1b8781ef087994d3ef4ded0eae91abbf472c64736f6c63430007060033",
  "immutableReferences": {},
  "source": "// SPDX-License-Identifier: --🦉--\r\npragma solidity =0.7.6;\r\n\r\nimport \"./nreAPI.sol\";\r\n\r\ncontract Randomness is usingNRE {\r\n    //uint256 public randomNumber;    \r\n    \r\n   function stateRandomNumber() public returns (uint256) {\r\n       uint256 randomNumber;\r\n       randomNumber = (rm()%(10**5));\r\n       return randomNumber;\r\n      //randomNumber = (((rv()%10)*10000)+((rd()%10)*1000)+((rf()%10)*100)+((rx()%10)*10)+(rm()%10));\r\n   }\r\n \r\n}\r\n",
  "sourcePath": "C:\\Users\\Dhaval\\eth\\grise\\src\\contracts\\Randomness.sol",
  "compiler": {
    "name": "solc",
    "version": "0.7.6+commit.7338295f.Emscripten.clang"
  },
  "schemaVersion": "3.3.3",
  "updatedAt": "2021-03-11T16:47:40.146Z",
  "networkType": "ethereum",
  "devdoc": {
    "kind": "dev",
    "methods": {},
    "version": 1
  },
  "userdoc": {
    "kind": "user",
    "methods": {},
    "version": 1
  }
}