{
  "contractName": "RefundSponsor",
  "abi": [
    {
      "inputs": [],
      "stateMutability": "nonpayable",
      "type": "constructor"
    },
    {
      "anonymous": false,
      "inputs": [
        {
          "indexed": false,
          "internalType": "address",
          "name": "refundedTo",
          "type": "address"
        },
        {
          "indexed": false,
          "internalType": "uint256",
          "name": "amount",
          "type": "uint256"
        }
      ],
      "name": "RefundIssued",
      "type": "event"
    },
    {
      "anonymous": false,
      "inputs": [
        {
          "indexed": false,
          "internalType": "address",
          "name": "sponsor",
          "type": "address"
        },
        {
          "indexed": false,
          "internalType": "uint256",
          "name": "amount",
          "type": "uint256"
        }
      ],
      "name": "SponsoredContribution",
      "type": "event"
    },
    {
      "inputs": [],
      "name": "flushNonce",
      "outputs": [
        {
          "internalType": "uint256",
          "name": "",
          "type": "uint256"
        }
      ],
      "stateMutability": "view",
      "type": "function",
      "constant": true
    },
    {
      "inputs": [],
      "name": "isPaused",
      "outputs": [
        {
          "internalType": "bool",
          "name": "",
          "type": "bool"
        }
      ],
      "stateMutability": "view",
      "type": "function",
      "constant": true
    },
    {
      "inputs": [
        {
          "internalType": "bytes32",
          "name": "",
          "type": "bytes32"
        }
      ],
      "name": "refundAmount",
      "outputs": [
        {
          "internalType": "uint256",
          "name": "",
          "type": "uint256"
        }
      ],
      "stateMutability": "view",
      "type": "function",
      "constant": true
    },
    {
      "inputs": [],
      "name": "refundSponsor",
      "outputs": [
        {
          "internalType": "address",
          "name": "",
          "type": "address"
        }
      ],
      "stateMutability": "view",
      "type": "function",
      "constant": true
    },
    {
      "inputs": [
        {
          "internalType": "address",
          "name": "",
          "type": "address"
        }
      ],
      "name": "sponsoredAmount",
      "outputs": [
        {
          "internalType": "uint256",
          "name": "",
          "type": "uint256"
        }
      ],
      "stateMutability": "view",
      "type": "function",
      "constant": true
    },
    {
      "inputs": [],
      "name": "sponsoredContract",
      "outputs": [
        {
          "internalType": "address",
          "name": "",
          "type": "address"
        }
      ],
      "stateMutability": "view",
      "type": "function",
      "constant": true
    },
    {
      "stateMutability": "payable",
      "type": "receive",
      "payable": true
    },
    {
      "inputs": [
        {
          "internalType": "address",
          "name": "_s",
          "type": "address"
        }
      ],
      "name": "setSponsoredContract",
      "outputs": [],
      "stateMutability": "nonpayable",
      "type": "function"
    },
    {
      "inputs": [
        {
          "internalType": "address",
          "name": "_a",
          "type": "address"
        },
        {
          "internalType": "uint256",
          "name": "_g",
          "type": "uint256"
        }
      ],
      "name": "addGasRefund",
      "outputs": [],
      "stateMutability": "nonpayable",
      "type": "function"
    },
    {
      "inputs": [
        {
          "internalType": "address",
          "name": "_a",
          "type": "address"
        },
        {
          "internalType": "uint256",
          "name": "_g",
          "type": "uint256"
        }
      ],
      "name": "setGasRefund",
      "outputs": [],
      "stateMutability": "nonpayable",
      "type": "function"
    },
    {
      "inputs": [],
      "name": "requestGasRefund",
      "outputs": [],
      "stateMutability": "nonpayable",
      "type": "function"
    },
    {
      "inputs": [],
      "name": "myRefundAmount",
      "outputs": [
        {
          "internalType": "uint256",
          "name": "",
          "type": "uint256"
        }
      ],
      "stateMutability": "view",
      "type": "function",
      "constant": true
    },
    {
      "inputs": [
        {
          "internalType": "address",
          "name": "x",
          "type": "address"
        }
      ],
      "name": "getRefundAmount",
      "outputs": [
        {
          "internalType": "uint256",
          "name": "",
          "type": "uint256"
        }
      ],
      "stateMutability": "view",
      "type": "function",
      "constant": true
    },
    {
      "inputs": [
        {
          "internalType": "address",
          "name": "x",
          "type": "address"
        }
      ],
      "name": "getHash",
      "outputs": [
        {
          "internalType": "bytes32",
          "name": "",
          "type": "bytes32"
        }
      ],
      "stateMutability": "view",
      "type": "function",
      "constant": true
    },
    {
      "inputs": [],
      "name": "pause",
      "outputs": [],
      "stateMutability": "nonpayable",
      "type": "function"
    },
    {
      "inputs": [],
      "name": "resume",
      "outputs": [],
      "stateMutability": "nonpayable",
      "type": "function"
    },
    {
      "inputs": [],
      "name": "flush",
      "outputs": [],
      "stateMutability": "nonpayable",
      "type": "function"
    }
  ],
  "bytecode": "0x608060405234801561001057600080fd5b50336000806101000a81548173ffffffffffffffffffffffffffffffffffffffff021916908373ffffffffffffffffffffffffffffffffffffffff160217905550610ddd806100606000396000f3fe6080604052600436106100f75760003560e01c80636b9f96ea1161008a578063a5b2fb3611610059578063a5b2fb36146104cd578063b187bd26146104e4578063d2fd7e8714610511578063e25890a61461053c576101a0565b80636b9f96ea146103e95780638456cb59146104005780638f96649814610417578063a3e2afc914610468576101a0565b80631fedc14c116100c65780631fedc14c146102bd57806320b5ee6c1461031857806323c2e7de146103435780635d306f3414610384576101a0565b8063038b4642146101a557806303d3690e14610200578063046f7da2146102415780631da0b8fc14610258576101a0565b366101a05734600460003373ffffffffffffffffffffffffffffffffffffffff1673ffffffffffffffffffffffffffffffffffffffff168152602001908152602001600020600082825401925050819055507fa9e07c3e693c385146492e0aeb658683994b51598708be5d293817c19f5187f23334604051808373ffffffffffffffffffffffffffffffffffffffff1681526020018281526020019250505060405180910390a1005b600080fd5b3480156101b157600080fd5b506101fe600480360360408110156101c857600080fd5b81019080803573ffffffffffffffffffffffffffffffffffffffff1690602001909291908035906020019092919050505061058b565b005b34801561020c57600080fd5b50610215610670565b604051808273ffffffffffffffffffffffffffffffffffffffff16815260200191505060405180910390f35b34801561024d57600080fd5b50610256610696565b005b34801561026457600080fd5b506102a76004803603602081101561027b57600080fd5b81019080803573ffffffffffffffffffffffffffffffffffffffff169060200190929190505050610774565b6040518082815260200191505060405180910390f35b3480156102c957600080fd5b50610316600480360360408110156102e057600080fd5b81019080803573ffffffffffffffffffffffffffffffffffffffff169060200190929190803590602001909291905050506107c7565b005b34801561032457600080fd5b5061032d61086a565b6040518082815260200191505060405180910390f35b34801561034f57600080fd5b5061035861087a565b604051808273ffffffffffffffffffffffffffffffffffffffff16815260200191505060405180910390f35b34801561039057600080fd5b506103d3600480360360208110156103a757600080fd5b81019080803573ffffffffffffffffffffffffffffffffffffffff16906020019092919050505061089e565b6040518082815260200191505060405180910390f35b3480156103f557600080fd5b506103fe6108c3565b005b34801561040c57600080fd5b50610415610997565b005b34801561042357600080fd5b506104666004803603602081101561043a57600080fd5b81019080803573ffffffffffffffffffffffffffffffffffffffff169060200190929190505050610a74565b005b34801561047457600080fd5b506104b76004803603602081101561048b57600080fd5b81019080803573ffffffffffffffffffffffffffffffffffffffff169060200190929190505050610b79565b6040518082815260200191505060405180910390f35b3480156104d957600080fd5b506104e2610b91565b005b3480156104f057600080fd5b506104f9610d76565b60405180821515815260200191505060405180910390f35b34801561051d57600080fd5b50610526610d89565b6040518082815260200191505060405180910390f35b34801561054857600080fd5b506105756004803603602081101561055f57600080fd5b8101908080359060200190929190505050610d8f565b6040518082815260200191505060405180910390f35b60008054906101000a900473ffffffffffffffffffffffffffffffffffffffff1673ffffffffffffffffffffffffffffffffffffffff163373ffffffffffffffffffffffffffffffffffffffff161461064c576040517f08c379a000000000000000000000000000000000000000000000000000000000815260040180806020018281038252601c8152602001807f526566756e6453706f6e736f723a206e6f7420612073706f6e736f720000000081525060200191505060405180910390fd5b806003600061065a85610774565b8152602001908152602001600020819055505050565b600160009054906101000a900473ffffffffffffffffffffffffffffffffffffffff1681565b60008054906101000a900473ffffffffffffffffffffffffffffffffffffffff1673ffffffffffffffffffffffffffffffffffffffff163373ffffffffffffffffffffffffffffffffffffffff1614610757576040517f08c379a000000000000000000000000000000000000000000000000000000000815260040180806020018281038252601c8152602001807f526566756e6453706f6e736f723a206e6f7420612073706f6e736f720000000081525060200191505060405180910390fd5b6000600160146101000a81548160ff021916908315150217905550565b600081600254604051602001808373ffffffffffffffffffffffffffffffffffffffff1660601b815260140182815260200192505050604051602081830303815290604052805190602001209050919050565b600160009054906101000a900473ffffffffffffffffffffffffffffffffffffffff1673ffffffffffffffffffffffffffffffffffffffff163373ffffffffffffffffffffffffffffffffffffffff16148015610837575060001515600160149054906101000a900460ff161515145b1561086657806003600061084a85610774565b8152602001908152602001600020600082825401925050819055505b5050565b60006108753361089e565b905090565b60008054906101000a900473ffffffffffffffffffffffffffffffffffffffff1681565b6000600360006108ad84610774565b8152602001908152602001600020549050919050565b60008054906101000a900473ffffffffffffffffffffffffffffffffffffffff1673ffffffffffffffffffffffffffffffffffffffff163373ffffffffffffffffffffffffffffffffffffffff1614610984576040517f08c379a000000000000000000000000000000000000000000000000000000000815260040180806020018281038252601c8152602001807f526566756e6453706f6e736f723a206e6f7420612073706f6e736f720000000081525060200191505060405180910390fd5b6001600260008282540192505081905550565b60008054906101000a900473ffffffffffffffffffffffffffffffffffffffff1673ffffffffffffffffffffffffffffffffffffffff163373ffffffffffffffffffffffffffffffffffffffff1614610a58576040517f08c379a000000000000000000000000000000000000000000000000000000000815260040180806020018281038252601c8152602001807f526566756e6453706f6e736f723a206e6f7420612073706f6e736f720000000081525060200191505060405180910390fd5b60018060146101000a81548160ff021916908315150217905550565b60008054906101000a900473ffffffffffffffffffffffffffffffffffffffff1673ffffffffffffffffffffffffffffffffffffffff163373ffffffffffffffffffffffffffffffffffffffff1614610b35576040517f08c379a000000000000000000000000000000000000000000000000000000000815260040180806020018281038252601c8152602001807f526566756e6453706f6e736f723a206e6f7420612073706f6e736f720000000081525060200191505060405180910390fd5b80600160006101000a81548173ffffffffffffffffffffffffffffffffffffffff021916908373ffffffffffffffffffffffffffffffffffffffff16021790555050565b60046020528060005260406000206000915090505481565b60001515600160149054906101000a900460ff16151514610c1a576040517f08c379a000000000000000000000000000000000000000000000000000000000815260040180806020018281038252601d8152602001807f526566756e6453706f6e736f723a20726566756e64732070617573656400000081525060200191505060405180910390fd5b6000610c2533610774565b90506000600360008381526020019081526020016000205411610cb0576040517f08c379a00000000000000000000000000000000000000000000000000000000081526004018080602001828103825260208152602001807f526566756e6453706f6e736f723a206e6f7468696e6720746f20726566756e6481525060200191505060405180910390fd5b6000610cbb3361089e565b9050600060036000848152602001908152602001600020819055503373ffffffffffffffffffffffffffffffffffffffff166108fc829081150290604051600060405180830381858888f19350505050158015610d1c573d6000803e3d6000fd5b507fa171b6942063c6f2800ce40a780edce37baa2b618571b11eedd1e69e626e7d763382604051808373ffffffffffffffffffffffffffffffffffffffff1681526020018281526020019250505060405180910390a15050565b600160149054906101000a900460ff1681565b60025481565b6003602052806000526040600020600091509050548156fea2646970667358221220e4647c7db3a0bf32ad285ff781247a1e69494b391584f758d48110bbee9d175064736f6c63430007060033",
  "immutableReferences": {},
  "source": "// SPDX-License-Identifier: --🦉--\r\n\r\npragma solidity =0.7.6;\r\n\r\ncontract RefundSponsor {\r\n\r\n    address public refundSponsor;\r\n    address public sponsoredContract;\r\n    bool public isPaused;\r\n    uint256 public flushNonce;\r\n\r\n    mapping (bytes32 => uint256) public refundAmount;\r\n    mapping (address => uint256) public sponsoredAmount;\r\n\r\n    event RefundIssued(\r\n        address refundedTo,\r\n        uint256 amount\r\n    );\r\n\r\n    event SponsoredContribution(\r\n        address sponsor,\r\n        uint256 amount\r\n    );\r\n\r\n    modifier onlySponsor() {\r\n        require(\r\n            msg.sender == refundSponsor,\r\n            'RefundSponsor: not a sponsor'\r\n        );\r\n        _;\r\n    }\r\n\r\n    receive()\r\n        external\r\n        payable\r\n    {\r\n        sponsoredAmount[msg.sender] += msg.value;\r\n        emit SponsoredContribution(\r\n            msg.sender,\r\n            msg.value\r\n        );\r\n    }\r\n\r\n    constructor() {\r\n        refundSponsor = msg.sender;\r\n    }\r\n\r\n\r\n    function setSponsoredContract(address _s)\r\n        onlySponsor\r\n        external\r\n    {\r\n        sponsoredContract = _s;\r\n    }\r\n\r\n    function addGasRefund(address _a, uint256 _g)\r\n        external\r\n    {\r\n        if (msg.sender == sponsoredContract && isPaused == false) {\r\n            refundAmount[getHash(_a)] += _g;\r\n        }\r\n    }\r\n\r\n    function setGasRefund(address _a, uint256 _g)\r\n        external\r\n        onlySponsor\r\n    {\r\n        refundAmount[getHash(_a)] = _g;\r\n    }\r\n\r\n    function requestGasRefund()\r\n        external\r\n    {\r\n        require(\r\n            isPaused == false,\r\n            'RefundSponsor: refunds paused'\r\n        );\r\n\r\n        bytes32 sender = getHash(msg.sender);\r\n\r\n        require(\r\n            refundAmount[sender] > 0,\r\n            'RefundSponsor: nothing to refund'\r\n        );\r\n\r\n        uint256 amount = getRefundAmount(msg.sender);\r\n        refundAmount[sender] = 0;\r\n\r\n        msg.sender.transfer(amount);\r\n\r\n        emit RefundIssued(\r\n            msg.sender,\r\n            amount\r\n        );\r\n    }\r\n\r\n    function myRefundAmount()\r\n        external\r\n        view\r\n        returns (uint256)\r\n    {\r\n        return getRefundAmount(msg.sender);\r\n    }\r\n\r\n    function getRefundAmount(address x)\r\n        public\r\n        view\r\n        returns (uint256)\r\n    {\r\n        return refundAmount[getHash(x)];\r\n    }\r\n\r\n    function getHash(address x)\r\n        public\r\n        view\r\n        returns (bytes32)\r\n    {\r\n        return keccak256(\r\n            abi.encodePacked(x, flushNonce)\r\n        );\r\n    }\r\n\r\n    function pause()\r\n        external\r\n        onlySponsor\r\n    {\r\n        isPaused = true;\r\n    }\r\n\r\n    function resume()\r\n        external\r\n        onlySponsor\r\n    {\r\n        isPaused = false;\r\n    }\r\n\r\n    function flush()\r\n        external\r\n        onlySponsor\r\n    {\r\n        flushNonce += 1;\r\n    }\r\n}\r\n",
  "sourcePath": "C:/Users/Dhaval/eth/grise/src/contracts/RefundSponsor.sol",
  "compiler": {
    "name": "solc",
    "version": "0.7.6+commit.7338295f.Emscripten.clang"
  },
  "schemaVersion": "3.3.3",
  "updatedAt": "2021-03-11T16:47:40.154Z",
  "networkType": "ethereum",
  "devdoc": {
    "kind": "dev",
    "methods": {},
    "version": 1
  },
  "userdoc": {
    "kind": "user",
    "methods": {},
    "version": 1
  }
}